{
	"BasicType.sol": {
		"BasicType": {
			"abi": [
				{
					"inputs": [],
					"name": "enumTest",
					"outputs": [
						{
							"internalType": "enum BasicType.OrderState",
							"name": "",
							"type": "uint8"
						}
					],
					"stateMutability": "view",
					"type": "function"
				},
				{
					"inputs": [],
					"name": "testInt",
					"outputs": [
						{
							"internalType": "uint256",
							"name": "",
							"type": "uint256"
						}
					],
					"stateMutability": "pure",
					"type": "function"
				}
			],
			"devdoc": {
				"kind": "dev",
				"methods": {},
				"version": 1
			},
			"evm": {
				"assembly": "    /* \"BasicType.sol\":65:720  contract BasicType {... */\n  mstore(0x40, 0x80)\n  callvalue\n  dup1\n  iszero\n  tag_1\n  jumpi\n  0x00\n  dup1\n  revert\ntag_1:\n  pop\n  dataSize(sub_0)\n  dup1\n  dataOffset(sub_0)\n  0x00\n  codecopy\n  0x00\n  return\nstop\n\nsub_0: assembly {\n        /* \"BasicType.sol\":65:720  contract BasicType {... */\n      mstore(0x40, 0x80)\n      callvalue\n      dup1\n      iszero\n      tag_1\n      jumpi\n      0x00\n      dup1\n      revert\n    tag_1:\n      pop\n      jumpi(tag_2, lt(calldatasize, 0x04))\n      shr(0xe0, calldataload(0x00))\n      dup1\n      0xe5561d\n      eq\n      tag_3\n      jumpi\n      dup1\n      0x3a08cf92\n      eq\n      tag_4\n      jumpi\n    tag_2:\n      0x00\n      dup1\n      revert\n        /* \"BasicType.sol\":90:451  function testInt ()public pure returns (uint){... */\n    tag_3:\n      tag_5\n      tag_6\n      jump\t// in\n    tag_5:\n      mload(0x40)\n      tag_7\n      swap2\n      swap1\n      tag_8\n      jump\t// in\n    tag_7:\n      mload(0x40)\n      dup1\n      swap2\n      sub\n      swap1\n      return\n        /* \"BasicType.sol\":585:717  function enumTest()public view returns (OrderState){... */\n    tag_4:\n      tag_9\n      tag_10\n      jump\t// in\n    tag_9:\n      mload(0x40)\n      tag_11\n      swap2\n      swap1\n      tag_12\n      jump\t// in\n    tag_11:\n      mload(0x40)\n      dup1\n      swap2\n      sub\n      swap1\n      return\n        /* \"BasicType.sol\":90:451  function testInt ()public pure returns (uint){... */\n    tag_6:\n        /* \"BasicType.sol\":130:134  uint */\n      0x00\n        /* \"BasicType.sol\":189:200  uint256 max */\n      dup1\n        /* \"BasicType.sol\":203:220  type(uint256).max */\n      0xffffffffffffffffffffffffffffffffffffffffffffffffffffffffffffffff\n        /* \"BasicType.sol\":189:220  uint256 max = type(uint256).max */\n      swap1\n      pop\n        /* \"BasicType.sol\":302:309  uint8 x */\n      0x00\n        /* \"BasicType.sol\":312:313  8 */\n      0x08\n        /* \"BasicType.sol\":302:313  uint8 x = 8 */\n      swap1\n      pop\n        /* \"BasicType.sol\":323:331  uint16 y */\n      0x00\n        /* \"BasicType.sol\":334:335  9 */\n      0x09\n        /* \"BasicType.sol\":323:335  uint16 y = 9 */\n      swap1\n      pop\n        /* \"BasicType.sol\":349:350  x */\n      dup2\n        /* \"BasicType.sol\":345:350  y = x */\n      0xff\n      and\n      swap1\n      pop\n        /* \"BasicType.sol\":399:400  y */\n      dup1\n        /* \"BasicType.sol\":390:401  x =uint8(y) */\n      swap2\n      pop\n        /* \"BasicType.sol\":441:444  max */\n      dup3\n        /* \"BasicType.sol\":433:444  return  max */\n      swap4\n      pop\n      pop\n      pop\n      pop\n        /* \"BasicType.sol\":90:451  function testInt ()public pure returns (uint){... */\n      swap1\n      jump\t// out\n        /* \"BasicType.sol\":585:717  function enumTest()public view returns (OrderState){... */\n    tag_10:\n        /* \"BasicType.sol\":625:635  OrderState */\n      0x00\n        /* \"BasicType.sol\":646:662  OrderState state */\n      dup1\n        /* \"BasicType.sol\":665:683  OrderState.payment */\n      0x01\n        /* \"BasicType.sol\":646:683  OrderState state = OrderState.payment */\n      swap1\n      pop\n        /* \"BasicType.sol\":705:710  state */\n      dup1\n        /* \"BasicType.sol\":698:710  return state */\n      swap2\n      pop\n      pop\n        /* \"BasicType.sol\":585:717  function enumTest()public view returns (OrderState){... */\n      swap1\n      jump\t// out\n        /* \"#utility.yul\":7:84   */\n    tag_15:\n        /* \"#utility.yul\":44:51   */\n      0x00\n        /* \"#utility.yul\":73:78   */\n      dup2\n        /* \"#utility.yul\":62:78   */\n      swap1\n      pop\n        /* \"#utility.yul\":7:84   */\n      swap2\n      swap1\n      pop\n      jump\t// out\n        /* \"#utility.yul\":90:208   */\n    tag_16:\n        /* \"#utility.yul\":177:201   */\n      tag_25\n        /* \"#utility.yul\":195:200   */\n      dup2\n        /* \"#utility.yul\":177:201   */\n      tag_15\n      jump\t// in\n    tag_25:\n        /* \"#utility.yul\":172:175   */\n      dup3\n        /* \"#utility.yul\":165:202   */\n      mstore\n        /* \"#utility.yul\":90:208   */\n      pop\n      pop\n      jump\t// out\n        /* \"#utility.yul\":214:436   */\n    tag_8:\n        /* \"#utility.yul\":307:311   */\n      0x00\n        /* \"#utility.yul\":345:347   */\n      0x20\n        /* \"#utility.yul\":334:343   */\n      dup3\n        /* \"#utility.yul\":330:348   */\n      add\n        /* \"#utility.yul\":322:348   */\n      swap1\n      pop\n        /* \"#utility.yul\":358:429   */\n      tag_27\n        /* \"#utility.yul\":426:427   */\n      0x00\n        /* \"#utility.yul\":415:424   */\n      dup4\n        /* \"#utility.yul\":411:428   */\n      add\n        /* \"#utility.yul\":402:408   */\n      dup5\n        /* \"#utility.yul\":358:429   */\n      tag_16\n      jump\t// in\n    tag_27:\n        /* \"#utility.yul\":214:436   */\n      swap3\n      swap2\n      pop\n      pop\n      jump\t// out\n        /* \"#utility.yul\":442:622   */\n    tag_17:\n        /* \"#utility.yul\":490:567   */\n      0x4e487b7100000000000000000000000000000000000000000000000000000000\n        /* \"#utility.yul\":487:488   */\n      0x00\n        /* \"#utility.yul\":480:568   */\n      mstore\n        /* \"#utility.yul\":587:591   */\n      0x21\n        /* \"#utility.yul\":584:585   */\n      0x04\n        /* \"#utility.yul\":577:592   */\n      mstore\n        /* \"#utility.yul\":611:615   */\n      0x24\n        /* \"#utility.yul\":608:609   */\n      0x00\n        /* \"#utility.yul\":601:616   */\n      revert\n        /* \"#utility.yul\":628:746   */\n    tag_18:\n        /* \"#utility.yul\":714:715   */\n      0x02\n        /* \"#utility.yul\":707:712   */\n      dup2\n        /* \"#utility.yul\":704:716   */\n      lt\n        /* \"#utility.yul\":694:740   */\n      tag_30\n      jumpi\n        /* \"#utility.yul\":720:738   */\n      tag_31\n      tag_17\n      jump\t// in\n    tag_31:\n        /* \"#utility.yul\":694:740   */\n    tag_30:\n        /* \"#utility.yul\":628:746   */\n      pop\n      jump\t// out\n        /* \"#utility.yul\":752:889   */\n    tag_19:\n        /* \"#utility.yul\":802:809   */\n      0x00\n        /* \"#utility.yul\":831:836   */\n      dup2\n        /* \"#utility.yul\":820:836   */\n      swap1\n      pop\n        /* \"#utility.yul\":837:883   */\n      tag_33\n        /* \"#utility.yul\":877:882   */\n      dup3\n        /* \"#utility.yul\":837:883   */\n      tag_18\n      jump\t// in\n    tag_33:\n        /* \"#utility.yul\":752:889   */\n      swap2\n      swap1\n      pop\n      jump\t// out\n        /* \"#utility.yul\":895:1032   */\n    tag_20:\n        /* \"#utility.yul\":956:965   */\n      0x00\n        /* \"#utility.yul\":989:1026   */\n      tag_35\n        /* \"#utility.yul\":1020:1025   */\n      dup3\n        /* \"#utility.yul\":989:1026   */\n      tag_19\n      jump\t// in\n    tag_35:\n        /* \"#utility.yul\":976:1026   */\n      swap1\n      pop\n        /* \"#utility.yul\":895:1032   */\n      swap2\n      swap1\n      pop\n      jump\t// out\n        /* \"#utility.yul\":1038:1191   */\n    tag_21:\n        /* \"#utility.yul\":1136:1184   */\n      tag_37\n        /* \"#utility.yul\":1178:1183   */\n      dup2\n        /* \"#utility.yul\":1136:1184   */\n      tag_20\n      jump\t// in\n    tag_37:\n        /* \"#utility.yul\":1131:1134   */\n      dup3\n        /* \"#utility.yul\":1124:1185   */\n      mstore\n        /* \"#utility.yul\":1038:1191   */\n      pop\n      pop\n      jump\t// out\n        /* \"#utility.yul\":1197:1441   */\n    tag_12:\n        /* \"#utility.yul\":1301:1305   */\n      0x00\n        /* \"#utility.yul\":1339:1341   */\n      0x20\n        /* \"#utility.yul\":1328:1337   */\n      dup3\n        /* \"#utility.yul\":1324:1342   */\n      add\n        /* \"#utility.yul\":1316:1342   */\n      swap1\n      pop\n        /* \"#utility.yul\":1352:1434   */\n      tag_39\n        /* \"#utility.yul\":1431:1432   */\n      0x00\n        /* \"#utility.yul\":1420:1429   */\n      dup4\n        /* \"#utility.yul\":1416:1433   */\n      add\n        /* \"#utility.yul\":1407:1413   */\n      dup5\n        /* \"#utility.yul\":1352:1434   */\n      tag_21\n      jump\t// in\n    tag_39:\n        /* \"#utility.yul\":1197:1441   */\n      swap3\n      swap2\n      pop\n      pop\n      jump\t// out\n\n    auxdata: 0xa26469706673582212209781b9c7008663addd7009f61cd9275b13de5de0a1fb8968e450694d26d4d09364736f6c634300081a0033\n}\n",
				"bytecode": {
					"linkReferences": {},
					"object": "6080604052348015600e575f80fd5b506101b48061001c5f395ff3fe608060405234801561000f575f80fd5b5060043610610033575f3560e01c8062e5561d146100375780633a08cf9214610055575b5f80fd5b61003f610073565b60405161004c91906100d9565b60405180910390f35b61005d6100b4565b60405161006a9190610165565b60405180910390f35b5f807fffffffffffffffffffffffffffffffffffffffffffffffffffffffffffffffff90505f600890505f600990508160ff16905080915082935050505090565b5f80600190508091505090565b5f819050919050565b6100d3816100c1565b82525050565b5f6020820190506100ec5f8301846100ca565b92915050565b7f4e487b71000000000000000000000000000000000000000000000000000000005f52602160045260245ffd5b600281106101305761012f6100f2565b5b50565b5f8190506101408261011f565b919050565b5f61014f82610133565b9050919050565b61015f81610145565b82525050565b5f6020820190506101785f830184610156565b9291505056fea26469706673582212209781b9c7008663addd7009f61cd9275b13de5de0a1fb8968e450694d26d4d09364736f6c634300081a0033",
					"opcodes": "PUSH1 0x80 PUSH1 0x40 MSTORE CALLVALUE DUP1 ISZERO PUSH1 0xE JUMPI PUSH0 DUP1 REVERT JUMPDEST POP PUSH2 0x1B4 DUP1 PUSH2 0x1C PUSH0 CODECOPY PUSH0 RETURN INVALID PUSH1 0x80 PUSH1 0x40 MSTORE CALLVALUE DUP1 ISZERO PUSH2 0xF JUMPI PUSH0 DUP1 REVERT JUMPDEST POP PUSH1 0x4 CALLDATASIZE LT PUSH2 0x33 JUMPI PUSH0 CALLDATALOAD PUSH1 0xE0 SHR DUP1 PUSH3 0xE5561D EQ PUSH2 0x37 JUMPI DUP1 PUSH4 0x3A08CF92 EQ PUSH2 0x55 JUMPI JUMPDEST PUSH0 DUP1 REVERT JUMPDEST PUSH2 0x3F PUSH2 0x73 JUMP JUMPDEST PUSH1 0x40 MLOAD PUSH2 0x4C SWAP2 SWAP1 PUSH2 0xD9 JUMP JUMPDEST PUSH1 0x40 MLOAD DUP1 SWAP2 SUB SWAP1 RETURN JUMPDEST PUSH2 0x5D PUSH2 0xB4 JUMP JUMPDEST PUSH1 0x40 MLOAD PUSH2 0x6A SWAP2 SWAP1 PUSH2 0x165 JUMP JUMPDEST PUSH1 0x40 MLOAD DUP1 SWAP2 SUB SWAP1 RETURN JUMPDEST PUSH0 DUP1 PUSH32 0xFFFFFFFFFFFFFFFFFFFFFFFFFFFFFFFFFFFFFFFFFFFFFFFFFFFFFFFFFFFFFFFF SWAP1 POP PUSH0 PUSH1 0x8 SWAP1 POP PUSH0 PUSH1 0x9 SWAP1 POP DUP2 PUSH1 0xFF AND SWAP1 POP DUP1 SWAP2 POP DUP3 SWAP4 POP POP POP POP SWAP1 JUMP JUMPDEST PUSH0 DUP1 PUSH1 0x1 SWAP1 POP DUP1 SWAP2 POP POP SWAP1 JUMP JUMPDEST PUSH0 DUP2 SWAP1 POP SWAP2 SWAP1 POP JUMP JUMPDEST PUSH2 0xD3 DUP2 PUSH2 0xC1 JUMP JUMPDEST DUP3 MSTORE POP POP JUMP JUMPDEST PUSH0 PUSH1 0x20 DUP3 ADD SWAP1 POP PUSH2 0xEC PUSH0 DUP4 ADD DUP5 PUSH2 0xCA JUMP JUMPDEST SWAP3 SWAP2 POP POP JUMP JUMPDEST PUSH32 0x4E487B7100000000000000000000000000000000000000000000000000000000 PUSH0 MSTORE PUSH1 0x21 PUSH1 0x4 MSTORE PUSH1 0x24 PUSH0 REVERT JUMPDEST PUSH1 0x2 DUP2 LT PUSH2 0x130 JUMPI PUSH2 0x12F PUSH2 0xF2 JUMP JUMPDEST JUMPDEST POP JUMP JUMPDEST PUSH0 DUP2 SWAP1 POP PUSH2 0x140 DUP3 PUSH2 0x11F JUMP JUMPDEST SWAP2 SWAP1 POP JUMP JUMPDEST PUSH0 PUSH2 0x14F DUP3 PUSH2 0x133 JUMP JUMPDEST SWAP1 POP SWAP2 SWAP1 POP JUMP JUMPDEST PUSH2 0x15F DUP2 PUSH2 0x145 JUMP JUMPDEST DUP3 MSTORE POP POP JUMP JUMPDEST PUSH0 PUSH1 0x20 DUP3 ADD SWAP1 POP PUSH2 0x178 PUSH0 DUP4 ADD DUP5 PUSH2 0x156 JUMP JUMPDEST SWAP3 SWAP2 POP POP JUMP INVALID LOG2 PUSH5 0x6970667358 0x22 SLT KECCAK256 SWAP8 DUP2 0xB9 0xC7 STOP DUP7 PUSH4 0xADDD7009 0xF6 SHR 0xD9 0x27 JUMPDEST SGT 0xDE TSTORE 0xE0 LOG1 0xFB DUP10 PUSH9 0xE450694D26D4D09364 PUSH20 0x6F6C634300081A00330000000000000000000000 "
				},
				"gasEstimates": {
					"creation": {
						"codeDepositCost": "87200",
						"executionCost": "133",
						"totalCost": "87333"
					},
					"external": {
						"enumTest()": "439",
						"testInt()": "369"
					}
				},
				"methodIdentifiers": {
					"enumTest()": "3a08cf92",
					"testInt()": "00e5561d"
				}
			},
			"storageLayout": {
				"storage": [],
				"types": null
			},
			"userdoc": {
				"kind": "user",
				"methods": {},
				"version": 1
			}
		}
	}
}