{
	"MappingType.sol": {
		"MappingType": {
			"abi": [
				{
					"inputs": [
						{
							"internalType": "string",
							"name": "",
							"type": "string"
						}
					],
					"name": "ages",
					"outputs": [
						{
							"internalType": "uint8",
							"name": "",
							"type": "uint8"
						}
					],
					"stateMutability": "view",
					"type": "function"
				},
				{
					"inputs": [
						{
							"internalType": "string",
							"name": "name",
							"type": "string"
						}
					],
					"name": "getAge",
					"outputs": [
						{
							"internalType": "uint8",
							"name": "",
							"type": "uint8"
						}
					],
					"stateMutability": "view",
					"type": "function"
				},
				{
					"inputs": [
						{
							"internalType": "string",
							"name": "name",
							"type": "string"
						},
						{
							"internalType": "uint8",
							"name": "age",
							"type": "uint8"
						}
					],
					"name": "setAge",
					"outputs": [],
					"stateMutability": "nonpayable",
					"type": "function"
				}
			],
			"devdoc": {
				"kind": "dev",
				"methods": {},
				"version": 1
			},
			"evm": {
				"assembly": "    /* \"MappingType.sol\":65:1652  contract MappingType{... */\n  mstore(0x40, 0x80)\n  callvalue\n  dup1\n  iszero\n  tag_1\n  jumpi\n  0x00\n  dup1\n  revert\ntag_1:\n  pop\n  dataSize(sub_0)\n  dup1\n  dataOffset(sub_0)\n  0x00\n  codecopy\n  0x00\n  return\nstop\n\nsub_0: assembly {\n        /* \"MappingType.sol\":65:1652  contract MappingType{... */\n      mstore(0x40, 0x80)\n      callvalue\n      dup1\n      iszero\n      tag_1\n      jumpi\n      0x00\n      dup1\n      revert\n    tag_1:\n      pop\n      jumpi(tag_2, lt(calldatasize, 0x04))\n      shr(0xe0, calldataload(0x00))\n      dup1\n      0x6dcfe452\n      eq\n      tag_3\n      jumpi\n      dup1\n      0xb351371a\n      eq\n      tag_4\n      jumpi\n      dup1\n      0xd83880f0\n      eq\n      tag_5\n      jumpi\n    tag_2:\n      0x00\n      dup1\n      revert\n        /* \"MappingType.sol\":187:222  mapping(string=>uint8) public  ages */\n    tag_3:\n      tag_6\n      0x04\n      dup1\n      calldatasize\n      sub\n      dup2\n      add\n      swap1\n      tag_7\n      swap2\n      swap1\n      tag_8\n      jump\t// in\n    tag_7:\n      tag_9\n      jump\t// in\n    tag_6:\n      mload(0x40)\n      tag_10\n      swap2\n      swap1\n      tag_11\n      jump\t// in\n    tag_10:\n      mload(0x40)\n      dup1\n      swap2\n      sub\n      swap1\n      return\n        /* \"MappingType.sol\":364:508  function setAge(string memory name,uint8 age) public {... */\n    tag_4:\n      tag_12\n      0x04\n      dup1\n      calldatasize\n      sub\n      dup2\n      add\n      swap1\n      tag_13\n      swap2\n      swap1\n      tag_14\n      jump\t// in\n    tag_13:\n      tag_15\n      jump\t// in\n    tag_12:\n      stop\n        /* \"MappingType.sol\":263:359  function getAge(string memory name) public view returns(uint8){... */\n    tag_5:\n      tag_16\n      0x04\n      dup1\n      calldatasize\n      sub\n      dup2\n      add\n      swap1\n      tag_17\n      swap2\n      swap1\n      tag_8\n      jump\t// in\n    tag_17:\n      tag_18\n      jump\t// in\n    tag_16:\n      mload(0x40)\n      tag_19\n      swap2\n      swap1\n      tag_11\n      jump\t// in\n    tag_19:\n      mload(0x40)\n      dup1\n      swap2\n      sub\n      swap1\n      return\n        /* \"MappingType.sol\":187:222  mapping(string=>uint8) public  ages */\n    tag_9:\n      0x00\n      dup2\n      dup1\n      mload\n      0x20\n      dup2\n      add\n      dup3\n      add\n      dup1\n      mload\n      dup5\n      dup3\n      mstore\n      0x20\n      dup4\n      add\n      0x20\n      dup6\n      add\n      keccak256\n      dup2\n      dup4\n      mstore\n      dup1\n      swap6\n      pop\n      pop\n      pop\n      pop\n      pop\n      pop\n      0x00\n      swap2\n      pop\n      sload\n      swap1\n      0x0100\n      exp\n      swap1\n      div\n      0xff\n      and\n      dup2\n      jump\t// out\n        /* \"MappingType.sol\":364:508  function setAge(string memory name,uint8 age) public {... */\n    tag_15:\n        /* \"MappingType.sol\":498:501  age */\n      dup1\n        /* \"MappingType.sol\":485:489  ages */\n      0x00\n        /* \"MappingType.sol\":490:494  name */\n      dup4\n        /* \"MappingType.sol\":485:495  ages[name] */\n      mload(0x40)\n      tag_21\n      swap2\n      swap1\n      tag_22\n      jump\t// in\n    tag_21:\n      swap1\n      dup2\n      mstore\n      0x20\n      add\n      mload(0x40)\n      dup1\n      swap2\n      sub\n      swap1\n      keccak256\n      0x00\n        /* \"MappingType.sol\":485:501  ages[name] = age */\n      0x0100\n      exp\n      dup2\n      sload\n      dup2\n      0xff\n      mul\n      not\n      and\n      swap1\n      dup4\n      0xff\n      and\n      mul\n      or\n      swap1\n      sstore\n      pop\n        /* \"MappingType.sol\":364:508  function setAge(string memory name,uint8 age) public {... */\n      pop\n      pop\n      jump\t// out\n        /* \"MappingType.sol\":263:359  function getAge(string memory name) public view returns(uint8){... */\n    tag_18:\n        /* \"MappingType.sol\":319:324  uint8 */\n      0x00\n        /* \"MappingType.sol\":342:346  ages */\n      dup1\n        /* \"MappingType.sol\":347:351  name */\n      dup3\n        /* \"MappingType.sol\":342:352  ages[name] */\n      mload(0x40)\n      tag_24\n      swap2\n      swap1\n      tag_22\n      jump\t// in\n    tag_24:\n      swap1\n      dup2\n      mstore\n      0x20\n      add\n      mload(0x40)\n      dup1\n      swap2\n      sub\n      swap1\n      keccak256\n      0x00\n      swap1\n      sload\n      swap1\n      0x0100\n      exp\n      swap1\n      div\n      0xff\n      and\n        /* \"MappingType.sol\":335:352  return ages[name] */\n      swap1\n      pop\n        /* \"MappingType.sol\":263:359  function getAge(string memory name) public view returns(uint8){... */\n      swap2\n      swap1\n      pop\n      jump\t// out\n        /* \"#utility.yul\":7:82   */\n    tag_25:\n        /* \"#utility.yul\":40:46   */\n      0x00\n        /* \"#utility.yul\":73:75   */\n      0x40\n        /* \"#utility.yul\":67:76   */\n      mload\n        /* \"#utility.yul\":57:76   */\n      swap1\n      pop\n        /* \"#utility.yul\":7:82   */\n      swap1\n      jump\t// out\n        /* \"#utility.yul\":88:205   */\n    tag_26:\n        /* \"#utility.yul\":197:198   */\n      0x00\n        /* \"#utility.yul\":194:195   */\n      dup1\n        /* \"#utility.yul\":187:199   */\n      revert\n        /* \"#utility.yul\":211:328   */\n    tag_27:\n        /* \"#utility.yul\":320:321   */\n      0x00\n        /* \"#utility.yul\":317:318   */\n      dup1\n        /* \"#utility.yul\":310:322   */\n      revert\n        /* \"#utility.yul\":334:451   */\n    tag_28:\n        /* \"#utility.yul\":443:444   */\n      0x00\n        /* \"#utility.yul\":440:441   */\n      dup1\n        /* \"#utility.yul\":433:445   */\n      revert\n        /* \"#utility.yul\":457:574   */\n    tag_29:\n        /* \"#utility.yul\":566:567   */\n      0x00\n        /* \"#utility.yul\":563:564   */\n      dup1\n        /* \"#utility.yul\":556:568   */\n      revert\n        /* \"#utility.yul\":580:682   */\n    tag_30:\n        /* \"#utility.yul\":621:627   */\n      0x00\n        /* \"#utility.yul\":672:674   */\n      0x1f\n        /* \"#utility.yul\":668:675   */\n      not\n        /* \"#utility.yul\":663:665   */\n      0x1f\n        /* \"#utility.yul\":656:661   */\n      dup4\n        /* \"#utility.yul\":652:666   */\n      add\n        /* \"#utility.yul\":648:676   */\n      and\n        /* \"#utility.yul\":638:676   */\n      swap1\n      pop\n        /* \"#utility.yul\":580:682   */\n      swap2\n      swap1\n      pop\n      jump\t// out\n        /* \"#utility.yul\":688:868   */\n    tag_31:\n        /* \"#utility.yul\":736:813   */\n      0x4e487b7100000000000000000000000000000000000000000000000000000000\n        /* \"#utility.yul\":733:734   */\n      0x00\n        /* \"#utility.yul\":726:814   */\n      mstore\n        /* \"#utility.yul\":833:837   */\n      0x41\n        /* \"#utility.yul\":830:831   */\n      0x04\n        /* \"#utility.yul\":823:838   */\n      mstore\n        /* \"#utility.yul\":857:861   */\n      0x24\n        /* \"#utility.yul\":854:855   */\n      0x00\n        /* \"#utility.yul\":847:862   */\n      revert\n        /* \"#utility.yul\":874:1155   */\n    tag_32:\n        /* \"#utility.yul\":957:984   */\n      tag_55\n        /* \"#utility.yul\":979:983   */\n      dup3\n        /* \"#utility.yul\":957:984   */\n      tag_30\n      jump\t// in\n    tag_55:\n        /* \"#utility.yul\":949:955   */\n      dup2\n        /* \"#utility.yul\":945:985   */\n      add\n        /* \"#utility.yul\":1087:1093   */\n      dup2\n        /* \"#utility.yul\":1075:1085   */\n      dup2\n        /* \"#utility.yul\":1072:1094   */\n      lt\n        /* \"#utility.yul\":1051:1069   */\n      0xffffffffffffffff\n        /* \"#utility.yul\":1039:1049   */\n      dup3\n        /* \"#utility.yul\":1036:1070   */\n      gt\n        /* \"#utility.yul\":1033:1095   */\n      or\n        /* \"#utility.yul\":1030:1118   */\n      iszero\n      tag_56\n      jumpi\n        /* \"#utility.yul\":1098:1116   */\n      tag_57\n      tag_31\n      jump\t// in\n    tag_57:\n        /* \"#utility.yul\":1030:1118   */\n    tag_56:\n        /* \"#utility.yul\":1138:1148   */\n      dup1\n        /* \"#utility.yul\":1134:1136   */\n      0x40\n        /* \"#utility.yul\":1127:1149   */\n      mstore\n        /* \"#utility.yul\":917:1155   */\n      pop\n        /* \"#utility.yul\":874:1155   */\n      pop\n      pop\n      jump\t// out\n        /* \"#utility.yul\":1161:1290   */\n    tag_33:\n        /* \"#utility.yul\":1195:1201   */\n      0x00\n        /* \"#utility.yul\":1222:1242   */\n      tag_59\n      tag_25\n      jump\t// in\n    tag_59:\n        /* \"#utility.yul\":1212:1242   */\n      swap1\n      pop\n        /* \"#utility.yul\":1251:1284   */\n      tag_60\n        /* \"#utility.yul\":1279:1283   */\n      dup3\n        /* \"#utility.yul\":1271:1277   */\n      dup3\n        /* \"#utility.yul\":1251:1284   */\n      tag_32\n      jump\t// in\n    tag_60:\n        /* \"#utility.yul\":1161:1290   */\n      swap2\n      swap1\n      pop\n      jump\t// out\n        /* \"#utility.yul\":1296:1604   */\n    tag_34:\n        /* \"#utility.yul\":1358:1362   */\n      0x00\n        /* \"#utility.yul\":1448:1466   */\n      0xffffffffffffffff\n        /* \"#utility.yul\":1440:1446   */\n      dup3\n        /* \"#utility.yul\":1437:1467   */\n      gt\n        /* \"#utility.yul\":1434:1490   */\n      iszero\n      tag_62\n      jumpi\n        /* \"#utility.yul\":1470:1488   */\n      tag_63\n      tag_31\n      jump\t// in\n    tag_63:\n        /* \"#utility.yul\":1434:1490   */\n    tag_62:\n        /* \"#utility.yul\":1508:1537   */\n      tag_64\n        /* \"#utility.yul\":1530:1536   */\n      dup3\n        /* \"#utility.yul\":1508:1537   */\n      tag_30\n      jump\t// in\n    tag_64:\n        /* \"#utility.yul\":1500:1537   */\n      swap1\n      pop\n        /* \"#utility.yul\":1592:1596   */\n      0x20\n        /* \"#utility.yul\":1586:1590   */\n      dup2\n        /* \"#utility.yul\":1582:1597   */\n      add\n        /* \"#utility.yul\":1574:1597   */\n      swap1\n      pop\n        /* \"#utility.yul\":1296:1604   */\n      swap2\n      swap1\n      pop\n      jump\t// out\n        /* \"#utility.yul\":1610:1758   */\n    tag_35:\n        /* \"#utility.yul\":1708:1714   */\n      dup3\n        /* \"#utility.yul\":1703:1706   */\n      dup2\n        /* \"#utility.yul\":1698:1701   */\n      dup4\n        /* \"#utility.yul\":1685:1715   */\n      calldatacopy\n        /* \"#utility.yul\":1749:1750   */\n      0x00\n        /* \"#utility.yul\":1740:1746   */\n      dup4\n        /* \"#utility.yul\":1735:1738   */\n      dup4\n        /* \"#utility.yul\":1731:1747   */\n      add\n        /* \"#utility.yul\":1724:1751   */\n      mstore\n        /* \"#utility.yul\":1610:1758   */\n      pop\n      pop\n      pop\n      jump\t// out\n        /* \"#utility.yul\":1764:2189   */\n    tag_36:\n        /* \"#utility.yul\":1842:1847   */\n      0x00\n        /* \"#utility.yul\":1867:1933   */\n      tag_67\n        /* \"#utility.yul\":1883:1932   */\n      tag_68\n        /* \"#utility.yul\":1925:1931   */\n      dup5\n        /* \"#utility.yul\":1883:1932   */\n      tag_34\n      jump\t// in\n    tag_68:\n        /* \"#utility.yul\":1867:1933   */\n      tag_33\n      jump\t// in\n    tag_67:\n        /* \"#utility.yul\":1858:1933   */\n      swap1\n      pop\n        /* \"#utility.yul\":1956:1962   */\n      dup3\n        /* \"#utility.yul\":1949:1954   */\n      dup2\n        /* \"#utility.yul\":1942:1963   */\n      mstore\n        /* \"#utility.yul\":1994:1998   */\n      0x20\n        /* \"#utility.yul\":1987:1992   */\n      dup2\n        /* \"#utility.yul\":1983:1999   */\n      add\n        /* \"#utility.yul\":2032:2035   */\n      dup5\n        /* \"#utility.yul\":2023:2029   */\n      dup5\n        /* \"#utility.yul\":2018:2021   */\n      dup5\n        /* \"#utility.yul\":2014:2030   */\n      add\n        /* \"#utility.yul\":2011:2036   */\n      gt\n        /* \"#utility.yul\":2008:2120   */\n      iszero\n      tag_69\n      jumpi\n        /* \"#utility.yul\":2039:2118   */\n      tag_70\n      tag_29\n      jump\t// in\n    tag_70:\n        /* \"#utility.yul\":2008:2120   */\n    tag_69:\n        /* \"#utility.yul\":2129:2183   */\n      tag_71\n        /* \"#utility.yul\":2176:2182   */\n      dup5\n        /* \"#utility.yul\":2171:2174   */\n      dup3\n        /* \"#utility.yul\":2166:2169   */\n      dup6\n        /* \"#utility.yul\":2129:2183   */\n      tag_35\n      jump\t// in\n    tag_71:\n        /* \"#utility.yul\":1848:2189   */\n      pop\n        /* \"#utility.yul\":1764:2189   */\n      swap4\n      swap3\n      pop\n      pop\n      pop\n      jump\t// out\n        /* \"#utility.yul\":2209:2549   */\n    tag_37:\n        /* \"#utility.yul\":2265:2270   */\n      0x00\n        /* \"#utility.yul\":2314:2317   */\n      dup3\n        /* \"#utility.yul\":2307:2311   */\n      0x1f\n        /* \"#utility.yul\":2299:2305   */\n      dup4\n        /* \"#utility.yul\":2295:2312   */\n      add\n        /* \"#utility.yul\":2291:2318   */\n      slt\n        /* \"#utility.yul\":2281:2403   */\n      tag_73\n      jumpi\n        /* \"#utility.yul\":2322:2401   */\n      tag_74\n      tag_28\n      jump\t// in\n    tag_74:\n        /* \"#utility.yul\":2281:2403   */\n    tag_73:\n        /* \"#utility.yul\":2439:2445   */\n      dup2\n        /* \"#utility.yul\":2426:2446   */\n      calldataload\n        /* \"#utility.yul\":2464:2543   */\n      tag_75\n        /* \"#utility.yul\":2539:2542   */\n      dup5\n        /* \"#utility.yul\":2531:2537   */\n      dup3\n        /* \"#utility.yul\":2524:2528   */\n      0x20\n        /* \"#utility.yul\":2516:2522   */\n      dup7\n        /* \"#utility.yul\":2512:2529   */\n      add\n        /* \"#utility.yul\":2464:2543   */\n      tag_36\n      jump\t// in\n    tag_75:\n        /* \"#utility.yul\":2455:2543   */\n      swap2\n      pop\n        /* \"#utility.yul\":2271:2549   */\n      pop\n        /* \"#utility.yul\":2209:2549   */\n      swap3\n      swap2\n      pop\n      pop\n      jump\t// out\n        /* \"#utility.yul\":2555:3064   */\n    tag_8:\n        /* \"#utility.yul\":2624:2630   */\n      0x00\n        /* \"#utility.yul\":2673:2675   */\n      0x20\n        /* \"#utility.yul\":2661:2670   */\n      dup3\n        /* \"#utility.yul\":2652:2659   */\n      dup5\n        /* \"#utility.yul\":2648:2671   */\n      sub\n        /* \"#utility.yul\":2644:2676   */\n      slt\n        /* \"#utility.yul\":2641:2760   */\n      iszero\n      tag_77\n      jumpi\n        /* \"#utility.yul\":2679:2758   */\n      tag_78\n      tag_26\n      jump\t// in\n    tag_78:\n        /* \"#utility.yul\":2641:2760   */\n    tag_77:\n        /* \"#utility.yul\":2827:2828   */\n      0x00\n        /* \"#utility.yul\":2816:2825   */\n      dup3\n        /* \"#utility.yul\":2812:2829   */\n      add\n        /* \"#utility.yul\":2799:2830   */\n      calldataload\n        /* \"#utility.yul\":2857:2875   */\n      0xffffffffffffffff\n        /* \"#utility.yul\":2849:2855   */\n      dup2\n        /* \"#utility.yul\":2846:2876   */\n      gt\n        /* \"#utility.yul\":2843:2960   */\n      iszero\n      tag_79\n      jumpi\n        /* \"#utility.yul\":2879:2958   */\n      tag_80\n      tag_27\n      jump\t// in\n    tag_80:\n        /* \"#utility.yul\":2843:2960   */\n    tag_79:\n        /* \"#utility.yul\":2984:3047   */\n      tag_81\n        /* \"#utility.yul\":3039:3046   */\n      dup5\n        /* \"#utility.yul\":3030:3036   */\n      dup3\n        /* \"#utility.yul\":3019:3028   */\n      dup6\n        /* \"#utility.yul\":3015:3037   */\n      add\n        /* \"#utility.yul\":2984:3047   */\n      tag_37\n      jump\t// in\n    tag_81:\n        /* \"#utility.yul\":2974:3047   */\n      swap2\n      pop\n        /* \"#utility.yul\":2770:3057   */\n      pop\n        /* \"#utility.yul\":2555:3064   */\n      swap3\n      swap2\n      pop\n      pop\n      jump\t// out\n        /* \"#utility.yul\":3070:3156   */\n    tag_38:\n        /* \"#utility.yul\":3105:3112   */\n      0x00\n        /* \"#utility.yul\":3145:3149   */\n      0xff\n        /* \"#utility.yul\":3138:3143   */\n      dup3\n        /* \"#utility.yul\":3134:3150   */\n      and\n        /* \"#utility.yul\":3123:3150   */\n      swap1\n      pop\n        /* \"#utility.yul\":3070:3156   */\n      swap2\n      swap1\n      pop\n      jump\t// out\n        /* \"#utility.yul\":3162:3274   */\n    tag_39:\n        /* \"#utility.yul\":3245:3267   */\n      tag_84\n        /* \"#utility.yul\":3261:3266   */\n      dup2\n        /* \"#utility.yul\":3245:3267   */\n      tag_38\n      jump\t// in\n    tag_84:\n        /* \"#utility.yul\":3240:3243   */\n      dup3\n        /* \"#utility.yul\":3233:3268   */\n      mstore\n        /* \"#utility.yul\":3162:3274   */\n      pop\n      pop\n      jump\t// out\n        /* \"#utility.yul\":3280:3494   */\n    tag_11:\n        /* \"#utility.yul\":3369:3373   */\n      0x00\n        /* \"#utility.yul\":3407:3409   */\n      0x20\n        /* \"#utility.yul\":3396:3405   */\n      dup3\n        /* \"#utility.yul\":3392:3410   */\n      add\n        /* \"#utility.yul\":3384:3410   */\n      swap1\n      pop\n        /* \"#utility.yul\":3420:3487   */\n      tag_86\n        /* \"#utility.yul\":3484:3485   */\n      0x00\n        /* \"#utility.yul\":3473:3482   */\n      dup4\n        /* \"#utility.yul\":3469:3486   */\n      add\n        /* \"#utility.yul\":3460:3466   */\n      dup5\n        /* \"#utility.yul\":3420:3487   */\n      tag_39\n      jump\t// in\n    tag_86:\n        /* \"#utility.yul\":3280:3494   */\n      swap3\n      swap2\n      pop\n      pop\n      jump\t// out\n        /* \"#utility.yul\":3500:3618   */\n    tag_40:\n        /* \"#utility.yul\":3571:3593   */\n      tag_88\n        /* \"#utility.yul\":3587:3592   */\n      dup2\n        /* \"#utility.yul\":3571:3593   */\n      tag_38\n      jump\t// in\n    tag_88:\n        /* \"#utility.yul\":3564:3569   */\n      dup2\n        /* \"#utility.yul\":3561:3594   */\n      eq\n        /* \"#utility.yul\":3551:3612   */\n      tag_89\n      jumpi\n        /* \"#utility.yul\":3608:3609   */\n      0x00\n        /* \"#utility.yul\":3605:3606   */\n      dup1\n        /* \"#utility.yul\":3598:3610   */\n      revert\n        /* \"#utility.yul\":3551:3612   */\n    tag_89:\n        /* \"#utility.yul\":3500:3618   */\n      pop\n      jump\t// out\n        /* \"#utility.yul\":3624:3759   */\n    tag_41:\n        /* \"#utility.yul\":3668:3673   */\n      0x00\n        /* \"#utility.yul\":3706:3712   */\n      dup2\n        /* \"#utility.yul\":3693:3713   */\n      calldataload\n        /* \"#utility.yul\":3684:3713   */\n      swap1\n      pop\n        /* \"#utility.yul\":3722:3753   */\n      tag_91\n        /* \"#utility.yul\":3747:3752   */\n      dup2\n        /* \"#utility.yul\":3722:3753   */\n      tag_40\n      jump\t// in\n    tag_91:\n        /* \"#utility.yul\":3624:3759   */\n      swap3\n      swap2\n      pop\n      pop\n      jump\t// out\n        /* \"#utility.yul\":3765:4415   */\n    tag_14:\n        /* \"#utility.yul\":3841:3847   */\n      0x00\n        /* \"#utility.yul\":3849:3855   */\n      dup1\n        /* \"#utility.yul\":3898:3900   */\n      0x40\n        /* \"#utility.yul\":3886:3895   */\n      dup4\n        /* \"#utility.yul\":3877:3884   */\n      dup6\n        /* \"#utility.yul\":3873:3896   */\n      sub\n        /* \"#utility.yul\":3869:3901   */\n      slt\n        /* \"#utility.yul\":3866:3985   */\n      iszero\n      tag_93\n      jumpi\n        /* \"#utility.yul\":3904:3983   */\n      tag_94\n      tag_26\n      jump\t// in\n    tag_94:\n        /* \"#utility.yul\":3866:3985   */\n    tag_93:\n        /* \"#utility.yul\":4052:4053   */\n      0x00\n        /* \"#utility.yul\":4041:4050   */\n      dup4\n        /* \"#utility.yul\":4037:4054   */\n      add\n        /* \"#utility.yul\":4024:4055   */\n      calldataload\n        /* \"#utility.yul\":4082:4100   */\n      0xffffffffffffffff\n        /* \"#utility.yul\":4074:4080   */\n      dup2\n        /* \"#utility.yul\":4071:4101   */\n      gt\n        /* \"#utility.yul\":4068:4185   */\n      iszero\n      tag_95\n      jumpi\n        /* \"#utility.yul\":4104:4183   */\n      tag_96\n      tag_27\n      jump\t// in\n    tag_96:\n        /* \"#utility.yul\":4068:4185   */\n    tag_95:\n        /* \"#utility.yul\":4209:4272   */\n      tag_97\n        /* \"#utility.yul\":4264:4271   */\n      dup6\n        /* \"#utility.yul\":4255:4261   */\n      dup3\n        /* \"#utility.yul\":4244:4253   */\n      dup7\n        /* \"#utility.yul\":4240:4262   */\n      add\n        /* \"#utility.yul\":4209:4272   */\n      tag_37\n      jump\t// in\n    tag_97:\n        /* \"#utility.yul\":4199:4272   */\n      swap3\n      pop\n        /* \"#utility.yul\":3995:4282   */\n      pop\n        /* \"#utility.yul\":4321:4323   */\n      0x20\n        /* \"#utility.yul\":4347:4398   */\n      tag_98\n        /* \"#utility.yul\":4390:4397   */\n      dup6\n        /* \"#utility.yul\":4381:4387   */\n      dup3\n        /* \"#utility.yul\":4370:4379   */\n      dup7\n        /* \"#utility.yul\":4366:4388   */\n      add\n        /* \"#utility.yul\":4347:4398   */\n      tag_41\n      jump\t// in\n    tag_98:\n        /* \"#utility.yul\":4337:4398   */\n      swap2\n      pop\n        /* \"#utility.yul\":4292:4408   */\n      pop\n        /* \"#utility.yul\":3765:4415   */\n      swap3\n      pop\n      swap3\n      swap1\n      pop\n      jump\t// out\n        /* \"#utility.yul\":4421:4520   */\n    tag_42:\n        /* \"#utility.yul\":4473:4479   */\n      0x00\n        /* \"#utility.yul\":4507:4512   */\n      dup2\n        /* \"#utility.yul\":4501:4513   */\n      mload\n        /* \"#utility.yul\":4491:4513   */\n      swap1\n      pop\n        /* \"#utility.yul\":4421:4520   */\n      swap2\n      swap1\n      pop\n      jump\t// out\n        /* \"#utility.yul\":4526:4674   */\n    tag_43:\n        /* \"#utility.yul\":4628:4639   */\n      0x00\n        /* \"#utility.yul\":4665:4668   */\n      dup2\n        /* \"#utility.yul\":4650:4668   */\n      swap1\n      pop\n        /* \"#utility.yul\":4526:4674   */\n      swap3\n      swap2\n      pop\n      pop\n      jump\t// out\n        /* \"#utility.yul\":4680:4819   */\n    tag_44:\n        /* \"#utility.yul\":4769:4775   */\n      dup3\n        /* \"#utility.yul\":4764:4767   */\n      dup2\n        /* \"#utility.yul\":4759:4762   */\n      dup4\n        /* \"#utility.yul\":4753:4776   */\n      mcopy\n        /* \"#utility.yul\":4810:4811   */\n      0x00\n        /* \"#utility.yul\":4801:4807   */\n      dup4\n        /* \"#utility.yul\":4796:4799   */\n      dup4\n        /* \"#utility.yul\":4792:4808   */\n      add\n        /* \"#utility.yul\":4785:4812   */\n      mstore\n        /* \"#utility.yul\":4680:4819   */\n      pop\n      pop\n      pop\n      jump\t// out\n        /* \"#utility.yul\":4825:5215   */\n    tag_45:\n        /* \"#utility.yul\":4931:4934   */\n      0x00\n        /* \"#utility.yul\":4959:4998   */\n      tag_103\n        /* \"#utility.yul\":4992:4997   */\n      dup3\n        /* \"#utility.yul\":4959:4998   */\n      tag_42\n      jump\t// in\n    tag_103:\n        /* \"#utility.yul\":5014:5103   */\n      tag_104\n        /* \"#utility.yul\":5096:5102   */\n      dup2\n        /* \"#utility.yul\":5091:5094   */\n      dup6\n        /* \"#utility.yul\":5014:5103   */\n      tag_43\n      jump\t// in\n    tag_104:\n        /* \"#utility.yul\":5007:5103   */\n      swap4\n      pop\n        /* \"#utility.yul\":5112:5177   */\n      tag_105\n        /* \"#utility.yul\":5170:5176   */\n      dup2\n        /* \"#utility.yul\":5165:5168   */\n      dup6\n        /* \"#utility.yul\":5158:5162   */\n      0x20\n        /* \"#utility.yul\":5151:5156   */\n      dup7\n        /* \"#utility.yul\":5147:5163   */\n      add\n        /* \"#utility.yul\":5112:5177   */\n      tag_44\n      jump\t// in\n    tag_105:\n        /* \"#utility.yul\":5202:5208   */\n      dup1\n        /* \"#utility.yul\":5197:5200   */\n      dup5\n        /* \"#utility.yul\":5193:5209   */\n      add\n        /* \"#utility.yul\":5186:5209   */\n      swap2\n      pop\n        /* \"#utility.yul\":4935:5215   */\n      pop\n        /* \"#utility.yul\":4825:5215   */\n      swap3\n      swap2\n      pop\n      pop\n      jump\t// out\n        /* \"#utility.yul\":5221:5496   */\n    tag_22:\n        /* \"#utility.yul\":5353:5356   */\n      0x00\n        /* \"#utility.yul\":5375:5470   */\n      tag_107\n        /* \"#utility.yul\":5466:5469   */\n      dup3\n        /* \"#utility.yul\":5457:5463   */\n      dup5\n        /* \"#utility.yul\":5375:5470   */\n      tag_45\n      jump\t// in\n    tag_107:\n        /* \"#utility.yul\":5368:5470   */\n      swap2\n      pop\n        /* \"#utility.yul\":5487:5490   */\n      dup2\n        /* \"#utility.yul\":5480:5490   */\n      swap1\n      pop\n        /* \"#utility.yul\":5221:5496   */\n      swap3\n      swap2\n      pop\n      pop\n      jump\t// out\n\n    auxdata: 0xa264697066735822122097a00503e5b87acb6a1e9971b2e854e15de1d667f9e7e4d5b8cfeef723d7c7c664736f6c634300081a0033\n}\n",
				"bytecode": {
					"linkReferences": {},
					"object": "6080604052348015600e575f80fd5b506104488061001c5f395ff3fe608060405234801561000f575f80fd5b506004361061003f575f3560e01c80636dcfe45214610043578063b351371a14610073578063d83880f01461008f575b5f80fd5b61005d600480360381019061005891906102ab565b6100bf565b60405161006a919061030d565b60405180910390f35b61008d60048036038101906100889190610350565b6100f3565b005b6100a960048036038101906100a491906102ab565b61012c565b6040516100b6919061030d565b60405180910390f35b5f818051602081018201805184825260208301602085012081835280955050505050505f915054906101000a900460ff1681565b805f8360405161010391906103fc565b90815260200160405180910390205f6101000a81548160ff021916908360ff1602179055505050565b5f808260405161013c91906103fc565b90815260200160405180910390205f9054906101000a900460ff169050919050565b5f604051905090565b5f80fd5b5f80fd5b5f80fd5b5f80fd5b5f601f19601f8301169050919050565b7f4e487b71000000000000000000000000000000000000000000000000000000005f52604160045260245ffd5b6101bd82610177565b810181811067ffffffffffffffff821117156101dc576101db610187565b5b80604052505050565b5f6101ee61015e565b90506101fa82826101b4565b919050565b5f67ffffffffffffffff82111561021957610218610187565b5b61022282610177565b9050602081019050919050565b828183375f83830152505050565b5f61024f61024a846101ff565b6101e5565b90508281526020810184848401111561026b5761026a610173565b5b61027684828561022f565b509392505050565b5f82601f8301126102925761029161016f565b5b81356102a284826020860161023d565b91505092915050565b5f602082840312156102c0576102bf610167565b5b5f82013567ffffffffffffffff8111156102dd576102dc61016b565b5b6102e98482850161027e565b91505092915050565b5f60ff82169050919050565b610307816102f2565b82525050565b5f6020820190506103205f8301846102fe565b92915050565b61032f816102f2565b8114610339575f80fd5b50565b5f8135905061034a81610326565b92915050565b5f806040838503121561036657610365610167565b5b5f83013567ffffffffffffffff8111156103835761038261016b565b5b61038f8582860161027e565b92505060206103a08582860161033c565b9150509250929050565b5f81519050919050565b5f81905092915050565b8281835e5f83830152505050565b5f6103d6826103aa565b6103e081856103b4565b93506103f08185602086016103be565b80840191505092915050565b5f61040782846103cc565b91508190509291505056fea264697066735822122097a00503e5b87acb6a1e9971b2e854e15de1d667f9e7e4d5b8cfeef723d7c7c664736f6c634300081a0033",
					"opcodes": "PUSH1 0x80 PUSH1 0x40 MSTORE CALLVALUE DUP1 ISZERO PUSH1 0xE JUMPI PUSH0 DUP1 REVERT JUMPDEST POP PUSH2 0x448 DUP1 PUSH2 0x1C PUSH0 CODECOPY PUSH0 RETURN INVALID PUSH1 0x80 PUSH1 0x40 MSTORE CALLVALUE DUP1 ISZERO PUSH2 0xF JUMPI PUSH0 DUP1 REVERT JUMPDEST POP PUSH1 0x4 CALLDATASIZE LT PUSH2 0x3F JUMPI PUSH0 CALLDATALOAD PUSH1 0xE0 SHR DUP1 PUSH4 0x6DCFE452 EQ PUSH2 0x43 JUMPI DUP1 PUSH4 0xB351371A EQ PUSH2 0x73 JUMPI DUP1 PUSH4 0xD83880F0 EQ PUSH2 0x8F JUMPI JUMPDEST PUSH0 DUP1 REVERT JUMPDEST PUSH2 0x5D PUSH1 0x4 DUP1 CALLDATASIZE SUB DUP2 ADD SWAP1 PUSH2 0x58 SWAP2 SWAP1 PUSH2 0x2AB JUMP JUMPDEST PUSH2 0xBF JUMP JUMPDEST PUSH1 0x40 MLOAD PUSH2 0x6A SWAP2 SWAP1 PUSH2 0x30D JUMP JUMPDEST PUSH1 0x40 MLOAD DUP1 SWAP2 SUB SWAP1 RETURN JUMPDEST PUSH2 0x8D PUSH1 0x4 DUP1 CALLDATASIZE SUB DUP2 ADD SWAP1 PUSH2 0x88 SWAP2 SWAP1 PUSH2 0x350 JUMP JUMPDEST PUSH2 0xF3 JUMP JUMPDEST STOP JUMPDEST PUSH2 0xA9 PUSH1 0x4 DUP1 CALLDATASIZE SUB DUP2 ADD SWAP1 PUSH2 0xA4 SWAP2 SWAP1 PUSH2 0x2AB JUMP JUMPDEST PUSH2 0x12C JUMP JUMPDEST PUSH1 0x40 MLOAD PUSH2 0xB6 SWAP2 SWAP1 PUSH2 0x30D JUMP JUMPDEST PUSH1 0x40 MLOAD DUP1 SWAP2 SUB SWAP1 RETURN JUMPDEST PUSH0 DUP2 DUP1 MLOAD PUSH1 0x20 DUP2 ADD DUP3 ADD DUP1 MLOAD DUP5 DUP3 MSTORE PUSH1 0x20 DUP4 ADD PUSH1 0x20 DUP6 ADD KECCAK256 DUP2 DUP4 MSTORE DUP1 SWAP6 POP POP POP POP POP POP PUSH0 SWAP2 POP SLOAD SWAP1 PUSH2 0x100 EXP SWAP1 DIV PUSH1 0xFF AND DUP2 JUMP JUMPDEST DUP1 PUSH0 DUP4 PUSH1 0x40 MLOAD PUSH2 0x103 SWAP2 SWAP1 PUSH2 0x3FC JUMP JUMPDEST SWAP1 DUP2 MSTORE PUSH1 0x20 ADD PUSH1 0x40 MLOAD DUP1 SWAP2 SUB SWAP1 KECCAK256 PUSH0 PUSH2 0x100 EXP DUP2 SLOAD DUP2 PUSH1 0xFF MUL NOT AND SWAP1 DUP4 PUSH1 0xFF AND MUL OR SWAP1 SSTORE POP POP POP JUMP JUMPDEST PUSH0 DUP1 DUP3 PUSH1 0x40 MLOAD PUSH2 0x13C SWAP2 SWAP1 PUSH2 0x3FC JUMP JUMPDEST SWAP1 DUP2 MSTORE PUSH1 0x20 ADD PUSH1 0x40 MLOAD DUP1 SWAP2 SUB SWAP1 KECCAK256 PUSH0 SWAP1 SLOAD SWAP1 PUSH2 0x100 EXP SWAP1 DIV PUSH1 0xFF AND SWAP1 POP SWAP2 SWAP1 POP JUMP JUMPDEST PUSH0 PUSH1 0x40 MLOAD SWAP1 POP SWAP1 JUMP JUMPDEST PUSH0 DUP1 REVERT JUMPDEST PUSH0 DUP1 REVERT JUMPDEST PUSH0 DUP1 REVERT JUMPDEST PUSH0 DUP1 REVERT JUMPDEST PUSH0 PUSH1 0x1F NOT PUSH1 0x1F DUP4 ADD AND SWAP1 POP SWAP2 SWAP1 POP JUMP JUMPDEST PUSH32 0x4E487B7100000000000000000000000000000000000000000000000000000000 PUSH0 MSTORE PUSH1 0x41 PUSH1 0x4 MSTORE PUSH1 0x24 PUSH0 REVERT JUMPDEST PUSH2 0x1BD DUP3 PUSH2 0x177 JUMP JUMPDEST DUP2 ADD DUP2 DUP2 LT PUSH8 0xFFFFFFFFFFFFFFFF DUP3 GT OR ISZERO PUSH2 0x1DC JUMPI PUSH2 0x1DB PUSH2 0x187 JUMP JUMPDEST JUMPDEST DUP1 PUSH1 0x40 MSTORE POP POP POP JUMP JUMPDEST PUSH0 PUSH2 0x1EE PUSH2 0x15E JUMP JUMPDEST SWAP1 POP PUSH2 0x1FA DUP3 DUP3 PUSH2 0x1B4 JUMP JUMPDEST SWAP2 SWAP1 POP JUMP JUMPDEST PUSH0 PUSH8 0xFFFFFFFFFFFFFFFF DUP3 GT ISZERO PUSH2 0x219 JUMPI PUSH2 0x218 PUSH2 0x187 JUMP JUMPDEST JUMPDEST PUSH2 0x222 DUP3 PUSH2 0x177 JUMP JUMPDEST SWAP1 POP PUSH1 0x20 DUP2 ADD SWAP1 POP SWAP2 SWAP1 POP JUMP JUMPDEST DUP3 DUP2 DUP4 CALLDATACOPY PUSH0 DUP4 DUP4 ADD MSTORE POP POP POP JUMP JUMPDEST PUSH0 PUSH2 0x24F PUSH2 0x24A DUP5 PUSH2 0x1FF JUMP JUMPDEST PUSH2 0x1E5 JUMP JUMPDEST SWAP1 POP DUP3 DUP2 MSTORE PUSH1 0x20 DUP2 ADD DUP5 DUP5 DUP5 ADD GT ISZERO PUSH2 0x26B JUMPI PUSH2 0x26A PUSH2 0x173 JUMP JUMPDEST JUMPDEST PUSH2 0x276 DUP5 DUP3 DUP6 PUSH2 0x22F JUMP JUMPDEST POP SWAP4 SWAP3 POP POP POP JUMP JUMPDEST PUSH0 DUP3 PUSH1 0x1F DUP4 ADD SLT PUSH2 0x292 JUMPI PUSH2 0x291 PUSH2 0x16F JUMP JUMPDEST JUMPDEST DUP2 CALLDATALOAD PUSH2 0x2A2 DUP5 DUP3 PUSH1 0x20 DUP7 ADD PUSH2 0x23D JUMP JUMPDEST SWAP2 POP POP SWAP3 SWAP2 POP POP JUMP JUMPDEST PUSH0 PUSH1 0x20 DUP3 DUP5 SUB SLT ISZERO PUSH2 0x2C0 JUMPI PUSH2 0x2BF PUSH2 0x167 JUMP JUMPDEST JUMPDEST PUSH0 DUP3 ADD CALLDATALOAD PUSH8 0xFFFFFFFFFFFFFFFF DUP2 GT ISZERO PUSH2 0x2DD JUMPI PUSH2 0x2DC PUSH2 0x16B JUMP JUMPDEST JUMPDEST PUSH2 0x2E9 DUP5 DUP3 DUP6 ADD PUSH2 0x27E JUMP JUMPDEST SWAP2 POP POP SWAP3 SWAP2 POP POP JUMP JUMPDEST PUSH0 PUSH1 0xFF DUP3 AND SWAP1 POP SWAP2 SWAP1 POP JUMP JUMPDEST PUSH2 0x307 DUP2 PUSH2 0x2F2 JUMP JUMPDEST DUP3 MSTORE POP POP JUMP JUMPDEST PUSH0 PUSH1 0x20 DUP3 ADD SWAP1 POP PUSH2 0x320 PUSH0 DUP4 ADD DUP5 PUSH2 0x2FE JUMP JUMPDEST SWAP3 SWAP2 POP POP JUMP JUMPDEST PUSH2 0x32F DUP2 PUSH2 0x2F2 JUMP JUMPDEST DUP2 EQ PUSH2 0x339 JUMPI PUSH0 DUP1 REVERT JUMPDEST POP JUMP JUMPDEST PUSH0 DUP2 CALLDATALOAD SWAP1 POP PUSH2 0x34A DUP2 PUSH2 0x326 JUMP JUMPDEST SWAP3 SWAP2 POP POP JUMP JUMPDEST PUSH0 DUP1 PUSH1 0x40 DUP4 DUP6 SUB SLT ISZERO PUSH2 0x366 JUMPI PUSH2 0x365 PUSH2 0x167 JUMP JUMPDEST JUMPDEST PUSH0 DUP4 ADD CALLDATALOAD PUSH8 0xFFFFFFFFFFFFFFFF DUP2 GT ISZERO PUSH2 0x383 JUMPI PUSH2 0x382 PUSH2 0x16B JUMP JUMPDEST JUMPDEST PUSH2 0x38F DUP6 DUP3 DUP7 ADD PUSH2 0x27E JUMP JUMPDEST SWAP3 POP POP PUSH1 0x20 PUSH2 0x3A0 DUP6 DUP3 DUP7 ADD PUSH2 0x33C JUMP JUMPDEST SWAP2 POP POP SWAP3 POP SWAP3 SWAP1 POP JUMP JUMPDEST PUSH0 DUP2 MLOAD SWAP1 POP SWAP2 SWAP1 POP JUMP JUMPDEST PUSH0 DUP2 SWAP1 POP SWAP3 SWAP2 POP POP JUMP JUMPDEST DUP3 DUP2 DUP4 MCOPY PUSH0 DUP4 DUP4 ADD MSTORE POP POP POP JUMP JUMPDEST PUSH0 PUSH2 0x3D6 DUP3 PUSH2 0x3AA JUMP JUMPDEST PUSH2 0x3E0 DUP2 DUP6 PUSH2 0x3B4 JUMP JUMPDEST SWAP4 POP PUSH2 0x3F0 DUP2 DUP6 PUSH1 0x20 DUP7 ADD PUSH2 0x3BE JUMP JUMPDEST DUP1 DUP5 ADD SWAP2 POP POP SWAP3 SWAP2 POP POP JUMP JUMPDEST PUSH0 PUSH2 0x407 DUP3 DUP5 PUSH2 0x3CC JUMP JUMPDEST SWAP2 POP DUP2 SWAP1 POP SWAP3 SWAP2 POP POP JUMP INVALID LOG2 PUSH5 0x6970667358 0x22 SLT KECCAK256 SWAP8 LOG0 SDIV SUB 0xE5 0xB8 PUSH27 0xCB6A1E9971B2E854E15DE1D667F9E7E4D5B8CFEEF723D7C7C66473 PUSH16 0x6C634300081A00330000000000000000 "
				},
				"gasEstimates": {
					"creation": {
						"codeDepositCost": "219200",
						"executionCost": "261",
						"totalCost": "219461"
					},
					"external": {
						"ages(string)": "infinite",
						"getAge(string)": "infinite",
						"setAge(string,uint8)": "infinite"
					}
				},
				"methodIdentifiers": {
					"ages(string)": "6dcfe452",
					"getAge(string)": "d83880f0",
					"setAge(string,uint8)": "b351371a"
				}
			},
			"storageLayout": {
				"storage": [
					{
						"astId": 5,
						"contract": "MappingType.sol:MappingType",
						"label": "ages",
						"offset": 0,
						"slot": "0",
						"type": "t_mapping(t_string_memory_ptr,t_uint8)"
					}
				],
				"types": {
					"t_mapping(t_string_memory_ptr,t_uint8)": {
						"encoding": "mapping",
						"key": "t_string_memory_ptr",
						"label": "mapping(string => uint8)",
						"numberOfBytes": "32",
						"value": "t_uint8"
					},
					"t_string_memory_ptr": {
						"encoding": "bytes",
						"label": "string",
						"numberOfBytes": "32"
					},
					"t_uint8": {
						"encoding": "inplace",
						"label": "uint8",
						"numberOfBytes": "1"
					}
				}
			},
			"userdoc": {
				"kind": "user",
				"methods": {},
				"version": 1
			}
		}
	}
}