{
	"ArrayType.sol": {
		"ArrayType": {
			"abi": [
				{
					"inputs": [
						{
							"internalType": "uint8",
							"name": "size",
							"type": "uint8"
						}
					],
					"name": "testMemoryDynamicArra",
					"outputs": [
						{
							"internalType": "uint8[]",
							"name": "",
							"type": "uint8[]"
						}
					],
					"stateMutability": "pure",
					"type": "function"
				},
				{
					"inputs": [],
					"name": "testReadDynamicArrayStorageArray",
					"outputs": [
						{
							"internalType": "uint8[]",
							"name": "",
							"type": "uint8[]"
						}
					],
					"stateMutability": "view",
					"type": "function"
				},
				{
					"inputs": [],
					"name": "testStaticArray",
					"outputs": [
						{
							"internalType": "uint8[3]",
							"name": "",
							"type": "uint8[3]"
						}
					],
					"stateMutability": "view",
					"type": "function"
				},
				{
					"inputs": [],
					"name": "testWriteDynamicStorageArray",
					"outputs": [],
					"stateMutability": "nonpayable",
					"type": "function"
				}
			],
			"devdoc": {
				"kind": "dev",
				"methods": {},
				"version": 1
			},
			"evm": {
				"assembly": "    /* \"ArrayType.sol\":65:1249  contract ArrayType{... */\n  mstore(0x40, 0x80)\n  callvalue\n  dup1\n  iszero\n  tag_1\n  jumpi\n  0x00\n  dup1\n  revert\ntag_1:\n  pop\n  dataSize(sub_0)\n  dup1\n  dataOffset(sub_0)\n  0x00\n  codecopy\n  0x00\n  return\nstop\n\nsub_0: assembly {\n        /* \"ArrayType.sol\":65:1249  contract ArrayType{... */\n      mstore(0x40, 0x80)\n      callvalue\n      dup1\n      iszero\n      tag_1\n      jumpi\n      0x00\n      dup1\n      revert\n    tag_1:\n      pop\n      jumpi(tag_2, lt(calldatasize, 0x04))\n      shr(0xe0, calldataload(0x00))\n      dup1\n      0x1ba296bc\n      eq\n      tag_3\n      jumpi\n      dup1\n      0xd12e9c9c\n      eq\n      tag_4\n      jumpi\n      dup1\n      0xe7c1a47c\n      eq\n      tag_5\n      jumpi\n      dup1\n      0xebb4b84d\n      eq\n      tag_6\n      jumpi\n    tag_2:\n      0x00\n      dup1\n      revert\n        /* \"ArrayType.sol\":1025:1247  function testMemoryDynamicArra(uint8 size)public pure returns(uint8[] memory){... */\n    tag_3:\n      tag_7\n      0x04\n      dup1\n      calldatasize\n      sub\n      dup2\n      add\n      swap1\n      tag_8\n      swap2\n      swap1\n      tag_9\n      jump\t// in\n    tag_8:\n      tag_10\n      jump\t// in\n    tag_7:\n      mload(0x40)\n      tag_11\n      swap2\n      swap1\n      tag_12\n      jump\t// in\n    tag_11:\n      mload(0x40)\n      dup1\n      swap2\n      sub\n      swap1\n      return\n        /* \"ArrayType.sol\":840:988  function testWriteDynamicStorageArray()public {... */\n    tag_4:\n      tag_13\n      tag_14\n      jump\t// in\n    tag_13:\n      stop\n        /* \"ArrayType.sol\":386:619  function testStaticArray()public view returns(uint8[3] memory){... */\n    tag_5:\n      tag_15\n      tag_16\n      jump\t// in\n    tag_15:\n      mload(0x40)\n      tag_17\n      swap2\n      swap1\n      tag_18\n      jump\t// in\n    tag_17:\n      mload(0x40)\n      dup1\n      swap2\n      sub\n      swap1\n      return\n        /* \"ArrayType.sol\":653:766  function testReadDynamicArrayStorageArray()public view  returns(uint8[] memory){... */\n    tag_6:\n      tag_19\n      tag_20\n      jump\t// in\n    tag_19:\n      mload(0x40)\n      tag_21\n      swap2\n      swap1\n      tag_12\n      jump\t// in\n    tag_21:\n      mload(0x40)\n      dup1\n      swap2\n      sub\n      swap1\n      return\n        /* \"ArrayType.sol\":1025:1247  function testMemoryDynamicArra(uint8 size)public pure returns(uint8[] memory){... */\n    tag_10:\n        /* \"ArrayType.sol\":1087:1101  uint8[] memory */\n      0x60\n        /* \"ArrayType.sol\":1112:1132  uint8[] memory mdata */\n      0x00\n        /* \"ArrayType.sol\":1147:1151  size */\n      dup3\n        /* \"ArrayType.sol\":1135:1152  new uint8[](size) */\n      0xff\n      and\n      0xffffffffffffffff\n      dup2\n      gt\n      iszero\n      tag_23\n      jumpi\n      tag_24\n      tag_25\n      jump\t// in\n    tag_24:\n    tag_23:\n      mload(0x40)\n      swap1\n      dup1\n      dup3\n      mstore\n      dup1\n      0x20\n      mul\n      0x20\n      add\n      dup3\n      add\n      0x40\n      mstore\n      dup1\n      iszero\n      tag_26\n      jumpi\n      dup2\n      0x20\n      add\n      0x20\n      dup3\n      mul\n      dup1\n      calldatasize\n      dup4\n      calldatacopy\n      dup1\n      dup3\n      add\n      swap2\n      pop\n      pop\n      swap1\n      pop\n    tag_26:\n      pop\n        /* \"ArrayType.sol\":1112:1152  uint8[] memory mdata = new uint8[](size) */\n      swap1\n      pop\n        /* \"ArrayType.sol\":1102:1247  {... */\n      pop\n        /* \"ArrayType.sol\":1025:1247  function testMemoryDynamicArra(uint8 size)public pure returns(uint8[] memory){... */\n      swap2\n      swap1\n      pop\n      jump\t// out\n        /* \"ArrayType.sol\":840:988  function testWriteDynamicStorageArray()public {... */\n    tag_14:\n        /* \"ArrayType.sol\":896:901  ddata */\n      0x01\n        /* \"ArrayType.sol\":907:909  12 */\n      0x0c\n        /* \"ArrayType.sol\":896:910  ddata.push(12) */\n      swap1\n      dup1\n      0x01\n      dup2\n      sload\n      add\n      dup1\n      dup3\n      sstore\n      dup1\n      swap2\n      pop\n      pop\n      0x01\n      swap1\n      sub\n      swap1\n      0x00\n      mstore\n      keccak256(0x00, 0x20)\n      swap1\n      0x20\n      swap2\n      dup3\n      dup3\n      div\n      add\n      swap2\n      swap1\n      mod\n      swap1\n      swap2\n      swap1\n      swap2\n      swap1\n      swap2\n      0x0100\n      exp\n      dup2\n      sload\n      dup2\n      0xff\n      mul\n      not\n      and\n      swap1\n      dup4\n      0xff\n      and\n      mul\n      or\n      swap1\n      sstore\n      pop\n        /* \"ArrayType.sol\":946:951  ddata */\n      0x01\n        /* \"ArrayType.sol\":946:957  ddata.pop() */\n      dup1\n      sload\n      dup1\n      tag_29\n      jumpi\n      tag_30\n      tag_31\n      jump\t// in\n    tag_30:\n    tag_29:\n      0x01\n      swap1\n      sub\n      dup2\n      dup2\n      swap1\n      0x00\n      mstore\n      keccak256(0x00, 0x20)\n      swap1\n      0x20\n      swap2\n      dup3\n      dup3\n      div\n      add\n      swap2\n      swap1\n      mod\n      0x0100\n      exp\n      dup2\n      sload\n      swap1\n      0xff\n      mul\n      not\n      and\n      swap1\n      sstore\n      swap1\n      sstore\n        /* \"ArrayType.sol\":967:972  ddata */\n      0x01\n        /* \"ArrayType.sol\":978:980  90 */\n      0x5a\n        /* \"ArrayType.sol\":967:981  ddata.push(90) */\n      swap1\n      dup1\n      0x01\n      dup2\n      sload\n      add\n      dup1\n      dup3\n      sstore\n      dup1\n      swap2\n      pop\n      pop\n      0x01\n      swap1\n      sub\n      swap1\n      0x00\n      mstore\n      keccak256(0x00, 0x20)\n      swap1\n      0x20\n      swap2\n      dup3\n      dup3\n      div\n      add\n      swap2\n      swap1\n      mod\n      swap1\n      swap2\n      swap1\n      swap2\n      swap1\n      swap2\n      0x0100\n      exp\n      dup2\n      sload\n      dup2\n      0xff\n      mul\n      not\n      and\n      swap1\n      dup4\n      0xff\n      and\n      mul\n      or\n      swap1\n      sstore\n      pop\n        /* \"ArrayType.sol\":840:988  function testWriteDynamicStorageArray()public {... */\n      jump\t// out\n        /* \"ArrayType.sol\":386:619  function testStaticArray()public view returns(uint8[3] memory){... */\n    tag_16:\n        /* \"ArrayType.sol\":432:447  uint8[3] memory */\n      tag_34\n      tag_35\n      jump\t// in\n    tag_34:\n        /* \"ArrayType.sol\":549:553  data */\n      0x00\n        /* \"ArrayType.sol\":542:553  return data */\n      0x03\n      dup1\n      0x20\n      mul\n      mload(0x40)\n      swap1\n      dup2\n      add\n      0x40\n      mstore\n      dup1\n      swap3\n      swap2\n      swap1\n      dup3\n      0x03\n      dup1\n      iszero\n      tag_37\n      jumpi\n      0x20\n      mul\n      dup3\n      add\n      swap2\n      0x00\n      swap1\n    tag_38:\n      dup3\n      dup3\n      swap1\n      sload\n      swap1\n      0x0100\n      exp\n      swap1\n      div\n      0xff\n      and\n      0xff\n      and\n      dup2\n      mstore\n      0x20\n      add\n      swap1\n      0x01\n      add\n      swap1\n      0x20\n      dup3\n      0x00\n      add\n      div\n      swap3\n      dup4\n      add\n      swap3\n      0x01\n      sub\n      dup3\n      mul\n      swap2\n      pop\n      dup1\n      dup5\n      gt\n      tag_38\n      jumpi\n      swap1\n      pop\n    tag_37:\n      pop\n      pop\n      pop\n      pop\n      pop\n      swap1\n      pop\n        /* \"ArrayType.sol\":386:619  function testStaticArray()public view returns(uint8[3] memory){... */\n      swap1\n      jump\t// out\n        /* \"ArrayType.sol\":653:766  function testReadDynamicArrayStorageArray()public view  returns(uint8[] memory){... */\n    tag_20:\n        /* \"ArrayType.sol\":717:731  uint8[] memory */\n      0x60\n        /* \"ArrayType.sol\":754:759  ddata */\n      0x01\n        /* \"ArrayType.sol\":740:759  return... */\n      dup1\n      sload\n      dup1\n      0x20\n      mul\n      0x20\n      add\n      mload(0x40)\n      swap1\n      dup2\n      add\n      0x40\n      mstore\n      dup1\n      swap3\n      swap2\n      swap1\n      dup2\n      dup2\n      mstore\n      0x20\n      add\n      dup3\n      dup1\n      sload\n      dup1\n      iszero\n      tag_40\n      jumpi\n      0x20\n      mul\n      dup3\n      add\n      swap2\n      swap1\n      0x00\n      mstore\n      keccak256(0x00, 0x20)\n      swap1\n      0x00\n      swap1\n    tag_41:\n      dup3\n      dup3\n      swap1\n      sload\n      swap1\n      0x0100\n      exp\n      swap1\n      div\n      0xff\n      and\n      0xff\n      and\n      dup2\n      mstore\n      0x20\n      add\n      swap1\n      0x01\n      add\n      swap1\n      0x20\n      dup3\n      0x00\n      add\n      div\n      swap3\n      dup4\n      add\n      swap3\n      0x01\n      sub\n      dup3\n      mul\n      swap2\n      pop\n      dup1\n      dup5\n      gt\n      tag_41\n      jumpi\n      swap1\n      pop\n    tag_40:\n      pop\n      pop\n      pop\n      pop\n      pop\n      swap1\n      pop\n        /* \"ArrayType.sol\":653:766  function testReadDynamicArrayStorageArray()public view  returns(uint8[] memory){... */\n      swap1\n      jump\t// out\n    tag_35:\n      mload(0x40)\n      dup1\n      0x60\n      add\n      0x40\n      mstore\n      dup1\n      0x03\n      swap1\n      0x20\n      dup3\n      mul\n      dup1\n      calldatasize\n      dup4\n      calldatacopy\n      dup1\n      dup3\n      add\n      swap2\n      pop\n      pop\n      swap1\n      pop\n      pop\n      swap1\n      jump\t// out\n        /* \"#utility.yul\":88:205   */\n    tag_43:\n        /* \"#utility.yul\":197:198   */\n      0x00\n        /* \"#utility.yul\":194:195   */\n      dup1\n        /* \"#utility.yul\":187:199   */\n      revert\n        /* \"#utility.yul\":334:420   */\n    tag_45:\n        /* \"#utility.yul\":369:376   */\n      0x00\n        /* \"#utility.yul\":409:413   */\n      0xff\n        /* \"#utility.yul\":402:407   */\n      dup3\n        /* \"#utility.yul\":398:414   */\n      and\n        /* \"#utility.yul\":387:414   */\n      swap1\n      pop\n        /* \"#utility.yul\":334:420   */\n      swap2\n      swap1\n      pop\n      jump\t// out\n        /* \"#utility.yul\":426:544   */\n    tag_46:\n        /* \"#utility.yul\":497:519   */\n      tag_66\n        /* \"#utility.yul\":513:518   */\n      dup2\n        /* \"#utility.yul\":497:519   */\n      tag_45\n      jump\t// in\n    tag_66:\n        /* \"#utility.yul\":490:495   */\n      dup2\n        /* \"#utility.yul\":487:520   */\n      eq\n        /* \"#utility.yul\":477:538   */\n      tag_67\n      jumpi\n        /* \"#utility.yul\":534:535   */\n      0x00\n        /* \"#utility.yul\":531:532   */\n      dup1\n        /* \"#utility.yul\":524:536   */\n      revert\n        /* \"#utility.yul\":477:538   */\n    tag_67:\n        /* \"#utility.yul\":426:544   */\n      pop\n      jump\t// out\n        /* \"#utility.yul\":550:685   */\n    tag_47:\n        /* \"#utility.yul\":594:599   */\n      0x00\n        /* \"#utility.yul\":632:638   */\n      dup2\n        /* \"#utility.yul\":619:639   */\n      calldataload\n        /* \"#utility.yul\":610:639   */\n      swap1\n      pop\n        /* \"#utility.yul\":648:679   */\n      tag_69\n        /* \"#utility.yul\":673:678   */\n      dup2\n        /* \"#utility.yul\":648:679   */\n      tag_46\n      jump\t// in\n    tag_69:\n        /* \"#utility.yul\":550:685   */\n      swap3\n      swap2\n      pop\n      pop\n      jump\t// out\n        /* \"#utility.yul\":691:1016   */\n    tag_9:\n        /* \"#utility.yul\":748:754   */\n      0x00\n        /* \"#utility.yul\":797:799   */\n      0x20\n        /* \"#utility.yul\":785:794   */\n      dup3\n        /* \"#utility.yul\":776:783   */\n      dup5\n        /* \"#utility.yul\":772:795   */\n      sub\n        /* \"#utility.yul\":768:800   */\n      slt\n        /* \"#utility.yul\":765:884   */\n      iszero\n      tag_71\n      jumpi\n        /* \"#utility.yul\":803:882   */\n      tag_72\n      tag_43\n      jump\t// in\n    tag_72:\n        /* \"#utility.yul\":765:884   */\n    tag_71:\n        /* \"#utility.yul\":923:924   */\n      0x00\n        /* \"#utility.yul\":948:999   */\n      tag_73\n        /* \"#utility.yul\":991:998   */\n      dup5\n        /* \"#utility.yul\":982:988   */\n      dup3\n        /* \"#utility.yul\":971:980   */\n      dup6\n        /* \"#utility.yul\":967:989   */\n      add\n        /* \"#utility.yul\":948:999   */\n      tag_47\n      jump\t// in\n    tag_73:\n        /* \"#utility.yul\":938:999   */\n      swap2\n      pop\n        /* \"#utility.yul\":894:1009   */\n      pop\n        /* \"#utility.yul\":691:1016   */\n      swap3\n      swap2\n      pop\n      pop\n      jump\t// out\n        /* \"#utility.yul\":1022:1134   */\n    tag_48:\n        /* \"#utility.yul\":1087:1093   */\n      0x00\n        /* \"#utility.yul\":1121:1126   */\n      dup2\n        /* \"#utility.yul\":1115:1127   */\n      mload\n        /* \"#utility.yul\":1105:1127   */\n      swap1\n      pop\n        /* \"#utility.yul\":1022:1134   */\n      swap2\n      swap1\n      pop\n      jump\t// out\n        /* \"#utility.yul\":1140:1322   */\n    tag_49:\n        /* \"#utility.yul\":1237:1248   */\n      0x00\n        /* \"#utility.yul\":1271:1277   */\n      dup3\n        /* \"#utility.yul\":1266:1269   */\n      dup3\n        /* \"#utility.yul\":1259:1278   */\n      mstore\n        /* \"#utility.yul\":1311:1315   */\n      0x20\n        /* \"#utility.yul\":1306:1309   */\n      dup3\n        /* \"#utility.yul\":1302:1316   */\n      add\n        /* \"#utility.yul\":1287:1316   */\n      swap1\n      pop\n        /* \"#utility.yul\":1140:1322   */\n      swap3\n      swap2\n      pop\n      pop\n      jump\t// out\n        /* \"#utility.yul\":1328:1458   */\n    tag_50:\n        /* \"#utility.yul\":1393:1397   */\n      0x00\n        /* \"#utility.yul\":1416:1419   */\n      dup2\n        /* \"#utility.yul\":1408:1419   */\n      swap1\n      pop\n        /* \"#utility.yul\":1446:1450   */\n      0x20\n        /* \"#utility.yul\":1441:1444   */\n      dup3\n        /* \"#utility.yul\":1437:1451   */\n      add\n        /* \"#utility.yul\":1429:1451   */\n      swap1\n      pop\n        /* \"#utility.yul\":1328:1458   */\n      swap2\n      swap1\n      pop\n      jump\t// out\n        /* \"#utility.yul\":1464:1566   */\n    tag_51:\n        /* \"#utility.yul\":1537:1559   */\n      tag_78\n        /* \"#utility.yul\":1553:1558   */\n      dup2\n        /* \"#utility.yul\":1537:1559   */\n      tag_45\n      jump\t// in\n    tag_78:\n        /* \"#utility.yul\":1532:1535   */\n      dup3\n        /* \"#utility.yul\":1525:1560   */\n      mstore\n        /* \"#utility.yul\":1464:1566   */\n      pop\n      pop\n      jump\t// out\n        /* \"#utility.yul\":1572:1743   */\n    tag_52:\n        /* \"#utility.yul\":1637:1647   */\n      0x00\n        /* \"#utility.yul\":1658:1700   */\n      tag_80\n        /* \"#utility.yul\":1696:1699   */\n      dup4\n        /* \"#utility.yul\":1688:1694   */\n      dup4\n        /* \"#utility.yul\":1658:1700   */\n      tag_51\n      jump\t// in\n    tag_80:\n        /* \"#utility.yul\":1732:1736   */\n      0x20\n        /* \"#utility.yul\":1727:1730   */\n      dup4\n        /* \"#utility.yul\":1723:1737   */\n      add\n        /* \"#utility.yul\":1709:1737   */\n      swap1\n      pop\n        /* \"#utility.yul\":1572:1743   */\n      swap3\n      swap2\n      pop\n      pop\n      jump\t// out\n        /* \"#utility.yul\":1749:1860   */\n    tag_53:\n        /* \"#utility.yul\":1817:1821   */\n      0x00\n        /* \"#utility.yul\":1849:1853   */\n      0x20\n        /* \"#utility.yul\":1844:1847   */\n      dup3\n        /* \"#utility.yul\":1840:1854   */\n      add\n        /* \"#utility.yul\":1832:1854   */\n      swap1\n      pop\n        /* \"#utility.yul\":1749:1860   */\n      swap2\n      swap1\n      pop\n      jump\t// out\n        /* \"#utility.yul\":1892:2608   */\n    tag_54:\n        /* \"#utility.yul\":2007:2010   */\n      0x00\n        /* \"#utility.yul\":2036:2088   */\n      tag_83\n        /* \"#utility.yul\":2082:2087   */\n      dup3\n        /* \"#utility.yul\":2036:2088   */\n      tag_48\n      jump\t// in\n    tag_83:\n        /* \"#utility.yul\":2104:2188   */\n      tag_84\n        /* \"#utility.yul\":2181:2187   */\n      dup2\n        /* \"#utility.yul\":2176:2179   */\n      dup6\n        /* \"#utility.yul\":2104:2188   */\n      tag_49\n      jump\t// in\n    tag_84:\n        /* \"#utility.yul\":2097:2188   */\n      swap4\n      pop\n        /* \"#utility.yul\":2212:2266   */\n      tag_85\n        /* \"#utility.yul\":2260:2265   */\n      dup4\n        /* \"#utility.yul\":2212:2266   */\n      tag_50\n      jump\t// in\n    tag_85:\n        /* \"#utility.yul\":2289:2296   */\n      dup1\n        /* \"#utility.yul\":2320:2321   */\n      0x00\n        /* \"#utility.yul\":2305:2583   */\n    tag_86:\n        /* \"#utility.yul\":2330:2336   */\n      dup4\n        /* \"#utility.yul\":2327:2328   */\n      dup2\n        /* \"#utility.yul\":2324:2337   */\n      lt\n        /* \"#utility.yul\":2305:2583   */\n      iszero\n      tag_88\n      jumpi\n        /* \"#utility.yul\":2406:2412   */\n      dup2\n        /* \"#utility.yul\":2400:2413   */\n      mload\n        /* \"#utility.yul\":2433:2492   */\n      tag_89\n        /* \"#utility.yul\":2488:2491   */\n      dup9\n        /* \"#utility.yul\":2473:2486   */\n      dup3\n        /* \"#utility.yul\":2433:2492   */\n      tag_52\n      jump\t// in\n    tag_89:\n        /* \"#utility.yul\":2426:2492   */\n      swap8\n      pop\n        /* \"#utility.yul\":2515:2573   */\n      tag_90\n        /* \"#utility.yul\":2566:2572   */\n      dup4\n        /* \"#utility.yul\":2515:2573   */\n      tag_53\n      jump\t// in\n    tag_90:\n        /* \"#utility.yul\":2505:2573   */\n      swap3\n      pop\n        /* \"#utility.yul\":2365:2583   */\n      pop\n        /* \"#utility.yul\":2352:2353   */\n      0x01\n        /* \"#utility.yul\":2349:2350   */\n      dup2\n        /* \"#utility.yul\":2345:2354   */\n      add\n        /* \"#utility.yul\":2340:2354   */\n      swap1\n      pop\n        /* \"#utility.yul\":2305:2583   */\n      jump(tag_86)\n    tag_88:\n        /* \"#utility.yul\":2309:2323   */\n      pop\n        /* \"#utility.yul\":2599:2602   */\n      dup6\n        /* \"#utility.yul\":2592:2602   */\n      swap4\n      pop\n        /* \"#utility.yul\":2012:2608   */\n      pop\n      pop\n      pop\n        /* \"#utility.yul\":1892:2608   */\n      swap3\n      swap2\n      pop\n      pop\n      jump\t// out\n        /* \"#utility.yul\":2614:2979   */\n    tag_12:\n        /* \"#utility.yul\":2753:2757   */\n      0x00\n        /* \"#utility.yul\":2791:2793   */\n      0x20\n        /* \"#utility.yul\":2780:2789   */\n      dup3\n        /* \"#utility.yul\":2776:2794   */\n      add\n        /* \"#utility.yul\":2768:2794   */\n      swap1\n      pop\n        /* \"#utility.yul\":2840:2849   */\n      dup2\n        /* \"#utility.yul\":2834:2838   */\n      dup2\n        /* \"#utility.yul\":2830:2850   */\n      sub\n        /* \"#utility.yul\":2826:2827   */\n      0x00\n        /* \"#utility.yul\":2815:2824   */\n      dup4\n        /* \"#utility.yul\":2811:2828   */\n      add\n        /* \"#utility.yul\":2804:2851   */\n      mstore\n        /* \"#utility.yul\":2868:2972   */\n      tag_92\n        /* \"#utility.yul\":2967:2971   */\n      dup2\n        /* \"#utility.yul\":2958:2964   */\n      dup5\n        /* \"#utility.yul\":2868:2972   */\n      tag_54\n      jump\t// in\n    tag_92:\n        /* \"#utility.yul\":2860:2972   */\n      swap1\n      pop\n        /* \"#utility.yul\":2614:2979   */\n      swap3\n      swap2\n      pop\n      pop\n      jump\t// out\n        /* \"#utility.yul\":2985:3087   */\n    tag_55:\n        /* \"#utility.yul\":3048:3054   */\n      0x00\n        /* \"#utility.yul\":3076:3080   */\n      0x03\n        /* \"#utility.yul\":3066:3080   */\n      swap1\n      pop\n        /* \"#utility.yul\":2985:3087   */\n      swap2\n      swap1\n      pop\n      jump\t// out\n        /* \"#utility.yul\":3093:3234   */\n    tag_56:\n        /* \"#utility.yul\":3188:3199   */\n      0x00\n        /* \"#utility.yul\":3225:3228   */\n      dup2\n        /* \"#utility.yul\":3210:3228   */\n      swap1\n      pop\n        /* \"#utility.yul\":3093:3234   */\n      swap3\n      swap2\n      pop\n      pop\n      jump\t// out\n        /* \"#utility.yul\":3240:3336   */\n    tag_57:\n        /* \"#utility.yul\":3303:3307   */\n      0x00\n        /* \"#utility.yul\":3326:3329   */\n      dup2\n        /* \"#utility.yul\":3318:3329   */\n      swap1\n      pop\n        /* \"#utility.yul\":3240:3336   */\n      swap2\n      swap1\n      pop\n      jump\t// out\n        /* \"#utility.yul\":3342:3451   */\n    tag_58:\n        /* \"#utility.yul\":3408:3412   */\n      0x00\n        /* \"#utility.yul\":3440:3444   */\n      0x20\n        /* \"#utility.yul\":3435:3438   */\n      dup3\n        /* \"#utility.yul\":3431:3445   */\n      add\n        /* \"#utility.yul\":3423:3445   */\n      swap1\n      pop\n        /* \"#utility.yul\":3342:3451   */\n      swap2\n      swap1\n      pop\n      jump\t// out\n        /* \"#utility.yul\":3485:4163   */\n    tag_59:\n        /* \"#utility.yul\":3617:3667   */\n      tag_98\n        /* \"#utility.yul\":3661:3666   */\n      dup2\n        /* \"#utility.yul\":3617:3667   */\n      tag_55\n      jump\t// in\n    tag_98:\n        /* \"#utility.yul\":3683:3765   */\n      tag_99\n        /* \"#utility.yul\":3758:3764   */\n      dup2\n        /* \"#utility.yul\":3753:3756   */\n      dup5\n        /* \"#utility.yul\":3683:3765   */\n      tag_56\n      jump\t// in\n    tag_99:\n        /* \"#utility.yul\":3676:3765   */\n      swap3\n      pop\n        /* \"#utility.yul\":3789:3841   */\n      tag_100\n        /* \"#utility.yul\":3835:3840   */\n      dup3\n        /* \"#utility.yul\":3789:3841   */\n      tag_57\n      jump\t// in\n    tag_100:\n        /* \"#utility.yul\":3864:3871   */\n      dup1\n        /* \"#utility.yul\":3895:3896   */\n      0x00\n        /* \"#utility.yul\":3880:4156   */\n    tag_101:\n        /* \"#utility.yul\":3905:3911   */\n      dup4\n        /* \"#utility.yul\":3902:3903   */\n      dup2\n        /* \"#utility.yul\":3899:3912   */\n      lt\n        /* \"#utility.yul\":3880:4156   */\n      iszero\n      tag_103\n      jumpi\n        /* \"#utility.yul\":3981:3987   */\n      dup2\n        /* \"#utility.yul\":3975:3988   */\n      mload\n        /* \"#utility.yul\":4008:4067   */\n      tag_104\n        /* \"#utility.yul\":4063:4066   */\n      dup8\n        /* \"#utility.yul\":4048:4061   */\n      dup3\n        /* \"#utility.yul\":4008:4067   */\n      tag_52\n      jump\t// in\n    tag_104:\n        /* \"#utility.yul\":4001:4067   */\n      swap7\n      pop\n        /* \"#utility.yul\":4090:4146   */\n      tag_105\n        /* \"#utility.yul\":4139:4145   */\n      dup4\n        /* \"#utility.yul\":4090:4146   */\n      tag_58\n      jump\t// in\n    tag_105:\n        /* \"#utility.yul\":4080:4146   */\n      swap3\n      pop\n        /* \"#utility.yul\":3940:4156   */\n      pop\n        /* \"#utility.yul\":3927:3928   */\n      0x01\n        /* \"#utility.yul\":3924:3925   */\n      dup2\n        /* \"#utility.yul\":3920:3929   */\n      add\n        /* \"#utility.yul\":3915:3929   */\n      swap1\n      pop\n        /* \"#utility.yul\":3880:4156   */\n      jump(tag_101)\n    tag_103:\n        /* \"#utility.yul\":3884:3898   */\n      pop\n        /* \"#utility.yul\":3593:4163   */\n      pop\n      pop\n      pop\n        /* \"#utility.yul\":3485:4163   */\n      pop\n      pop\n      jump\t// out\n        /* \"#utility.yul\":4169:4475   */\n    tag_18:\n        /* \"#utility.yul\":4304:4308   */\n      0x00\n        /* \"#utility.yul\":4342:4344   */\n      0x60\n        /* \"#utility.yul\":4331:4340   */\n      dup3\n        /* \"#utility.yul\":4327:4345   */\n      add\n        /* \"#utility.yul\":4319:4345   */\n      swap1\n      pop\n        /* \"#utility.yul\":4355:4468   */\n      tag_107\n        /* \"#utility.yul\":4465:4466   */\n      0x00\n        /* \"#utility.yul\":4454:4463   */\n      dup4\n        /* \"#utility.yul\":4450:4467   */\n      add\n        /* \"#utility.yul\":4441:4447   */\n      dup5\n        /* \"#utility.yul\":4355:4468   */\n      tag_59\n      jump\t// in\n    tag_107:\n        /* \"#utility.yul\":4169:4475   */\n      swap3\n      swap2\n      pop\n      pop\n      jump\t// out\n        /* \"#utility.yul\":4481:4661   */\n    tag_25:\n        /* \"#utility.yul\":4529:4606   */\n      0x4e487b7100000000000000000000000000000000000000000000000000000000\n        /* \"#utility.yul\":4526:4527   */\n      0x00\n        /* \"#utility.yul\":4519:4607   */\n      mstore\n        /* \"#utility.yul\":4626:4630   */\n      0x41\n        /* \"#utility.yul\":4623:4624   */\n      0x04\n        /* \"#utility.yul\":4616:4631   */\n      mstore\n        /* \"#utility.yul\":4650:4654   */\n      0x24\n        /* \"#utility.yul\":4647:4648   */\n      0x00\n        /* \"#utility.yul\":4640:4655   */\n      revert\n        /* \"#utility.yul\":4667:4847   */\n    tag_31:\n        /* \"#utility.yul\":4715:4792   */\n      0x4e487b7100000000000000000000000000000000000000000000000000000000\n        /* \"#utility.yul\":4712:4713   */\n      0x00\n        /* \"#utility.yul\":4705:4793   */\n      mstore\n        /* \"#utility.yul\":4812:4816   */\n      0x31\n        /* \"#utility.yul\":4809:4810   */\n      0x04\n        /* \"#utility.yul\":4802:4817   */\n      mstore\n        /* \"#utility.yul\":4836:4840   */\n      0x24\n        /* \"#utility.yul\":4833:4834   */\n      0x00\n        /* \"#utility.yul\":4826:4841   */\n      revert\n\n    auxdata: 0xa2646970667358221220b1da6ff47a20a6dbeb27df071829d35ef7be7e17f8469a9ad7028fad629814c264736f6c634300081a0033\n}\n",
				"bytecode": {
					"linkReferences": {},
					"object": "6080604052348015600e575f80fd5b5061054d8061001c5f395ff3fe608060405234801561000f575f80fd5b506004361061004a575f3560e01c80631ba296bc1461004e578063d12e9c9c1461007e578063e7c1a47c14610088578063ebb4b84d146100a6575b5f80fd5b61006860048036038101906100639190610323565b6100c4565b6040516100759190610405565b60405180910390f35b61008661011b565b005b6100906101df565b60405161009d91906104a4565b60405180910390f35b6100ae61024d565b6040516100bb9190610405565b60405180910390f35b60605f8260ff1667ffffffffffffffff8111156100e4576100e36104bd565b5b6040519080825280602002602001820160405280156101125781602001602082028036833780820191505090505b50905050919050565b6001600c908060018154018082558091505060019003905f5260205f2090602091828204019190069091909190916101000a81548160ff021916908360ff1602179055506001805480610171576101706104ea565b5b600190038181905f5260205f2090602091828204019190066101000a81549060ff021916905590556001605a908060018154018082558091505060019003905f5260205f2090602091828204019190069091909190916101000a81548160ff021916908360ff160217905550565b6101e76102c7565b5f600380602002604051908101604052809291908260038015610243576020028201915f905b82829054906101000a900460ff1660ff16815260200190600101906020825f0104928301926001038202915080841161020d5790505b5050505050905090565b606060018054806020026020016040519081016040528092919081815260200182805480156102bd57602002820191905f5260205f20905f905b82829054906101000a900460ff1660ff16815260200190600101906020825f010492830192600103820291508084116102875790505b5050505050905090565b6040518060600160405280600390602082028036833780820191505090505090565b5f80fd5b5f60ff82169050919050565b610302816102ed565b811461030c575f80fd5b50565b5f8135905061031d816102f9565b92915050565b5f60208284031215610338576103376102e9565b5b5f6103458482850161030f565b91505092915050565b5f81519050919050565b5f82825260208201905092915050565b5f819050602082019050919050565b610380816102ed565b82525050565b5f6103918383610377565b60208301905092915050565b5f602082019050919050565b5f6103b38261034e565b6103bd8185610358565b93506103c883610368565b805f5b838110156103f85781516103df8882610386565b97506103ea8361039d565b9250506001810190506103cb565b5085935050505092915050565b5f6020820190508181035f83015261041d81846103a9565b905092915050565b5f60039050919050565b5f81905092915050565b5f819050919050565b5f602082019050919050565b61045781610425565b610461818461042f565b925061046c82610439565b805f5b8381101561049c5781516104838782610386565b965061048e83610442565b92505060018101905061046f565b505050505050565b5f6060820190506104b75f83018461044e565b92915050565b7f4e487b71000000000000000000000000000000000000000000000000000000005f52604160045260245ffd5b7f4e487b71000000000000000000000000000000000000000000000000000000005f52603160045260245ffdfea2646970667358221220b1da6ff47a20a6dbeb27df071829d35ef7be7e17f8469a9ad7028fad629814c264736f6c634300081a0033",
					"opcodes": "PUSH1 0x80 PUSH1 0x40 MSTORE CALLVALUE DUP1 ISZERO PUSH1 0xE JUMPI PUSH0 DUP1 REVERT JUMPDEST POP PUSH2 0x54D DUP1 PUSH2 0x1C PUSH0 CODECOPY PUSH0 RETURN INVALID PUSH1 0x80 PUSH1 0x40 MSTORE CALLVALUE DUP1 ISZERO PUSH2 0xF JUMPI PUSH0 DUP1 REVERT JUMPDEST POP PUSH1 0x4 CALLDATASIZE LT PUSH2 0x4A JUMPI PUSH0 CALLDATALOAD PUSH1 0xE0 SHR DUP1 PUSH4 0x1BA296BC EQ PUSH2 0x4E JUMPI DUP1 PUSH4 0xD12E9C9C EQ PUSH2 0x7E JUMPI DUP1 PUSH4 0xE7C1A47C EQ PUSH2 0x88 JUMPI DUP1 PUSH4 0xEBB4B84D EQ PUSH2 0xA6 JUMPI JUMPDEST PUSH0 DUP1 REVERT JUMPDEST PUSH2 0x68 PUSH1 0x4 DUP1 CALLDATASIZE SUB DUP2 ADD SWAP1 PUSH2 0x63 SWAP2 SWAP1 PUSH2 0x323 JUMP JUMPDEST PUSH2 0xC4 JUMP JUMPDEST PUSH1 0x40 MLOAD PUSH2 0x75 SWAP2 SWAP1 PUSH2 0x405 JUMP JUMPDEST PUSH1 0x40 MLOAD DUP1 SWAP2 SUB SWAP1 RETURN JUMPDEST PUSH2 0x86 PUSH2 0x11B JUMP JUMPDEST STOP JUMPDEST PUSH2 0x90 PUSH2 0x1DF JUMP JUMPDEST PUSH1 0x40 MLOAD PUSH2 0x9D SWAP2 SWAP1 PUSH2 0x4A4 JUMP JUMPDEST PUSH1 0x40 MLOAD DUP1 SWAP2 SUB SWAP1 RETURN JUMPDEST PUSH2 0xAE PUSH2 0x24D JUMP JUMPDEST PUSH1 0x40 MLOAD PUSH2 0xBB SWAP2 SWAP1 PUSH2 0x405 JUMP JUMPDEST PUSH1 0x40 MLOAD DUP1 SWAP2 SUB SWAP1 RETURN JUMPDEST PUSH1 0x60 PUSH0 DUP3 PUSH1 0xFF AND PUSH8 0xFFFFFFFFFFFFFFFF DUP2 GT ISZERO PUSH2 0xE4 JUMPI PUSH2 0xE3 PUSH2 0x4BD JUMP JUMPDEST JUMPDEST PUSH1 0x40 MLOAD SWAP1 DUP1 DUP3 MSTORE DUP1 PUSH1 0x20 MUL PUSH1 0x20 ADD DUP3 ADD PUSH1 0x40 MSTORE DUP1 ISZERO PUSH2 0x112 JUMPI DUP2 PUSH1 0x20 ADD PUSH1 0x20 DUP3 MUL DUP1 CALLDATASIZE DUP4 CALLDATACOPY DUP1 DUP3 ADD SWAP2 POP POP SWAP1 POP JUMPDEST POP SWAP1 POP POP SWAP2 SWAP1 POP JUMP JUMPDEST PUSH1 0x1 PUSH1 0xC SWAP1 DUP1 PUSH1 0x1 DUP2 SLOAD ADD DUP1 DUP3 SSTORE DUP1 SWAP2 POP POP PUSH1 0x1 SWAP1 SUB SWAP1 PUSH0 MSTORE PUSH1 0x20 PUSH0 KECCAK256 SWAP1 PUSH1 0x20 SWAP2 DUP3 DUP3 DIV ADD SWAP2 SWAP1 MOD SWAP1 SWAP2 SWAP1 SWAP2 SWAP1 SWAP2 PUSH2 0x100 EXP DUP2 SLOAD DUP2 PUSH1 0xFF MUL NOT AND SWAP1 DUP4 PUSH1 0xFF AND MUL OR SWAP1 SSTORE POP PUSH1 0x1 DUP1 SLOAD DUP1 PUSH2 0x171 JUMPI PUSH2 0x170 PUSH2 0x4EA JUMP JUMPDEST JUMPDEST PUSH1 0x1 SWAP1 SUB DUP2 DUP2 SWAP1 PUSH0 MSTORE PUSH1 0x20 PUSH0 KECCAK256 SWAP1 PUSH1 0x20 SWAP2 DUP3 DUP3 DIV ADD SWAP2 SWAP1 MOD PUSH2 0x100 EXP DUP2 SLOAD SWAP1 PUSH1 0xFF MUL NOT AND SWAP1 SSTORE SWAP1 SSTORE PUSH1 0x1 PUSH1 0x5A SWAP1 DUP1 PUSH1 0x1 DUP2 SLOAD ADD DUP1 DUP3 SSTORE DUP1 SWAP2 POP POP PUSH1 0x1 SWAP1 SUB SWAP1 PUSH0 MSTORE PUSH1 0x20 PUSH0 KECCAK256 SWAP1 PUSH1 0x20 SWAP2 DUP3 DUP3 DIV ADD SWAP2 SWAP1 MOD SWAP1 SWAP2 SWAP1 SWAP2 SWAP1 SWAP2 PUSH2 0x100 EXP DUP2 SLOAD DUP2 PUSH1 0xFF MUL NOT AND SWAP1 DUP4 PUSH1 0xFF AND MUL OR SWAP1 SSTORE POP JUMP JUMPDEST PUSH2 0x1E7 PUSH2 0x2C7 JUMP JUMPDEST PUSH0 PUSH1 0x3 DUP1 PUSH1 0x20 MUL PUSH1 0x40 MLOAD SWAP1 DUP2 ADD PUSH1 0x40 MSTORE DUP1 SWAP3 SWAP2 SWAP1 DUP3 PUSH1 0x3 DUP1 ISZERO PUSH2 0x243 JUMPI PUSH1 0x20 MUL DUP3 ADD SWAP2 PUSH0 SWAP1 JUMPDEST DUP3 DUP3 SWAP1 SLOAD SWAP1 PUSH2 0x100 EXP SWAP1 DIV PUSH1 0xFF AND PUSH1 0xFF AND DUP2 MSTORE PUSH1 0x20 ADD SWAP1 PUSH1 0x1 ADD SWAP1 PUSH1 0x20 DUP3 PUSH0 ADD DIV SWAP3 DUP4 ADD SWAP3 PUSH1 0x1 SUB DUP3 MUL SWAP2 POP DUP1 DUP5 GT PUSH2 0x20D JUMPI SWAP1 POP JUMPDEST POP POP POP POP POP SWAP1 POP SWAP1 JUMP JUMPDEST PUSH1 0x60 PUSH1 0x1 DUP1 SLOAD DUP1 PUSH1 0x20 MUL PUSH1 0x20 ADD PUSH1 0x40 MLOAD SWAP1 DUP2 ADD PUSH1 0x40 MSTORE DUP1 SWAP3 SWAP2 SWAP1 DUP2 DUP2 MSTORE PUSH1 0x20 ADD DUP3 DUP1 SLOAD DUP1 ISZERO PUSH2 0x2BD JUMPI PUSH1 0x20 MUL DUP3 ADD SWAP2 SWAP1 PUSH0 MSTORE PUSH1 0x20 PUSH0 KECCAK256 SWAP1 PUSH0 SWAP1 JUMPDEST DUP3 DUP3 SWAP1 SLOAD SWAP1 PUSH2 0x100 EXP SWAP1 DIV PUSH1 0xFF AND PUSH1 0xFF AND DUP2 MSTORE PUSH1 0x20 ADD SWAP1 PUSH1 0x1 ADD SWAP1 PUSH1 0x20 DUP3 PUSH0 ADD DIV SWAP3 DUP4 ADD SWAP3 PUSH1 0x1 SUB DUP3 MUL SWAP2 POP DUP1 DUP5 GT PUSH2 0x287 JUMPI SWAP1 POP JUMPDEST POP POP POP POP POP SWAP1 POP SWAP1 JUMP JUMPDEST PUSH1 0x40 MLOAD DUP1 PUSH1 0x60 ADD PUSH1 0x40 MSTORE DUP1 PUSH1 0x3 SWAP1 PUSH1 0x20 DUP3 MUL DUP1 CALLDATASIZE DUP4 CALLDATACOPY DUP1 DUP3 ADD SWAP2 POP POP SWAP1 POP POP SWAP1 JUMP JUMPDEST PUSH0 DUP1 REVERT JUMPDEST PUSH0 PUSH1 0xFF DUP3 AND SWAP1 POP SWAP2 SWAP1 POP JUMP JUMPDEST PUSH2 0x302 DUP2 PUSH2 0x2ED JUMP JUMPDEST DUP2 EQ PUSH2 0x30C JUMPI PUSH0 DUP1 REVERT JUMPDEST POP JUMP JUMPDEST PUSH0 DUP2 CALLDATALOAD SWAP1 POP PUSH2 0x31D DUP2 PUSH2 0x2F9 JUMP JUMPDEST SWAP3 SWAP2 POP POP JUMP JUMPDEST PUSH0 PUSH1 0x20 DUP3 DUP5 SUB SLT ISZERO PUSH2 0x338 JUMPI PUSH2 0x337 PUSH2 0x2E9 JUMP JUMPDEST JUMPDEST PUSH0 PUSH2 0x345 DUP5 DUP3 DUP6 ADD PUSH2 0x30F JUMP JUMPDEST SWAP2 POP POP SWAP3 SWAP2 POP POP JUMP JUMPDEST PUSH0 DUP2 MLOAD SWAP1 POP SWAP2 SWAP1 POP JUMP JUMPDEST PUSH0 DUP3 DUP3 MSTORE PUSH1 0x20 DUP3 ADD SWAP1 POP SWAP3 SWAP2 POP POP JUMP JUMPDEST PUSH0 DUP2 SWAP1 POP PUSH1 0x20 DUP3 ADD SWAP1 POP SWAP2 SWAP1 POP JUMP JUMPDEST PUSH2 0x380 DUP2 PUSH2 0x2ED JUMP JUMPDEST DUP3 MSTORE POP POP JUMP JUMPDEST PUSH0 PUSH2 0x391 DUP4 DUP4 PUSH2 0x377 JUMP JUMPDEST PUSH1 0x20 DUP4 ADD SWAP1 POP SWAP3 SWAP2 POP POP JUMP JUMPDEST PUSH0 PUSH1 0x20 DUP3 ADD SWAP1 POP SWAP2 SWAP1 POP JUMP JUMPDEST PUSH0 PUSH2 0x3B3 DUP3 PUSH2 0x34E JUMP JUMPDEST PUSH2 0x3BD DUP2 DUP6 PUSH2 0x358 JUMP JUMPDEST SWAP4 POP PUSH2 0x3C8 DUP4 PUSH2 0x368 JUMP JUMPDEST DUP1 PUSH0 JUMPDEST DUP4 DUP2 LT ISZERO PUSH2 0x3F8 JUMPI DUP2 MLOAD PUSH2 0x3DF DUP9 DUP3 PUSH2 0x386 JUMP JUMPDEST SWAP8 POP PUSH2 0x3EA DUP4 PUSH2 0x39D JUMP JUMPDEST SWAP3 POP POP PUSH1 0x1 DUP2 ADD SWAP1 POP PUSH2 0x3CB JUMP JUMPDEST POP DUP6 SWAP4 POP POP POP POP SWAP3 SWAP2 POP POP JUMP JUMPDEST PUSH0 PUSH1 0x20 DUP3 ADD SWAP1 POP DUP2 DUP2 SUB PUSH0 DUP4 ADD MSTORE PUSH2 0x41D DUP2 DUP5 PUSH2 0x3A9 JUMP JUMPDEST SWAP1 POP SWAP3 SWAP2 POP POP JUMP JUMPDEST PUSH0 PUSH1 0x3 SWAP1 POP SWAP2 SWAP1 POP JUMP JUMPDEST PUSH0 DUP2 SWAP1 POP SWAP3 SWAP2 POP POP JUMP JUMPDEST PUSH0 DUP2 SWAP1 POP SWAP2 SWAP1 POP JUMP JUMPDEST PUSH0 PUSH1 0x20 DUP3 ADD SWAP1 POP SWAP2 SWAP1 POP JUMP JUMPDEST PUSH2 0x457 DUP2 PUSH2 0x425 JUMP JUMPDEST PUSH2 0x461 DUP2 DUP5 PUSH2 0x42F JUMP JUMPDEST SWAP3 POP PUSH2 0x46C DUP3 PUSH2 0x439 JUMP JUMPDEST DUP1 PUSH0 JUMPDEST DUP4 DUP2 LT ISZERO PUSH2 0x49C JUMPI DUP2 MLOAD PUSH2 0x483 DUP8 DUP3 PUSH2 0x386 JUMP JUMPDEST SWAP7 POP PUSH2 0x48E DUP4 PUSH2 0x442 JUMP JUMPDEST SWAP3 POP POP PUSH1 0x1 DUP2 ADD SWAP1 POP PUSH2 0x46F JUMP JUMPDEST POP POP POP POP POP POP JUMP JUMPDEST PUSH0 PUSH1 0x60 DUP3 ADD SWAP1 POP PUSH2 0x4B7 PUSH0 DUP4 ADD DUP5 PUSH2 0x44E JUMP JUMPDEST SWAP3 SWAP2 POP POP JUMP JUMPDEST PUSH32 0x4E487B7100000000000000000000000000000000000000000000000000000000 PUSH0 MSTORE PUSH1 0x41 PUSH1 0x4 MSTORE PUSH1 0x24 PUSH0 REVERT JUMPDEST PUSH32 0x4E487B7100000000000000000000000000000000000000000000000000000000 PUSH0 MSTORE PUSH1 0x31 PUSH1 0x4 MSTORE PUSH1 0x24 PUSH0 REVERT INVALID LOG2 PUSH5 0x6970667358 0x22 SLT KECCAK256 0xB1 0xDA PUSH16 0xF47A20A6DBEB27DF071829D35EF7BE7E OR 0xF8 CHAINID SWAP11 SWAP11 0xD7 MUL DUP16 0xAD PUSH3 0x9814C2 PUSH5 0x736F6C6343 STOP ADDMOD BYTE STOP CALLER "
				},
				"gasEstimates": {
					"creation": {
						"codeDepositCost": "271400",
						"executionCost": "310",
						"totalCost": "271710"
					},
					"external": {
						"testMemoryDynamicArra(uint8)": "infinite",
						"testReadDynamicArrayStorageArray()": "infinite",
						"testStaticArray()": "infinite",
						"testWriteDynamicStorageArray()": "150713"
					}
				},
				"methodIdentifiers": {
					"testMemoryDynamicArra(uint8)": "1ba296bc",
					"testReadDynamicArrayStorageArray()": "ebb4b84d",
					"testStaticArray()": "e7c1a47c",
					"testWriteDynamicStorageArray()": "d12e9c9c"
				}
			},
			"storageLayout": {
				"storage": [
					{
						"astId": 5,
						"contract": "ArrayType.sol:ArrayType",
						"label": "data",
						"offset": 0,
						"slot": "0",
						"type": "t_array(t_uint8)3_storage"
					},
					{
						"astId": 8,
						"contract": "ArrayType.sol:ArrayType",
						"label": "ddata",
						"offset": 0,
						"slot": "1",
						"type": "t_array(t_uint8)dyn_storage"
					}
				],
				"types": {
					"t_array(t_uint8)3_storage": {
						"base": "t_uint8",
						"encoding": "inplace",
						"label": "uint8[3]",
						"numberOfBytes": "32"
					},
					"t_array(t_uint8)dyn_storage": {
						"base": "t_uint8",
						"encoding": "dynamic_array",
						"label": "uint8[]",
						"numberOfBytes": "32"
					},
					"t_uint8": {
						"encoding": "inplace",
						"label": "uint8",
						"numberOfBytes": "1"
					}
				}
			},
			"userdoc": {
				"kind": "user",
				"methods": {},
				"version": 1
			}
		}
	}
}