{
	"data": {
		"bytecode": {
			"linkReferences": {},
			"object": "6080604052348015600e575f80fd5b506101ef8061001c5f395ff3fe608060405234801561000f575f80fd5b506004361061003f575f3560e01c806329f9d94f14610043578063c29855781461004d578063febb0f7e14610057575b5f80fd5b61004b610061565b005b61005561006b565b005b61005f6100a2565b005b6100696100a2565b565b7f96561394bac381230de4649200e8831afcab1f451881bbade9ef209f6dd3048060405161009890610133565b60405180910390a1565b7f96561394bac381230de4649200e8831afcab1f451881bbade9ef209f6dd304806040516100cf9061019b565b60405180910390a1565b5f82825260208201905092915050565b7f4368696c643120666f6f2063616c6c65640000000000000000000000000000005f82015250565b5f61011d6011836100d9565b9150610128826100e9565b602082019050919050565b5f6020820190508181035f83015261014a81610111565b9050919050565b7f42617365206261722063616c6c656400000000000000000000000000000000005f82015250565b5f610185600f836100d9565b915061019082610151565b602082019050919050565b5f6020820190508181035f8301526101b281610179565b905091905056fea264697066735822122029be3efa2e85761894bef8d77ee5d6dc38c79209ff838561e71071d9a3c6d58264736f6c634300081a0033",
			"opcodes": "PUSH1 0x80 PUSH1 0x40 MSTORE CALLVALUE DUP1 ISZERO PUSH1 0xE JUMPI PUSH0 DUP1 REVERT JUMPDEST POP PUSH2 0x1EF DUP1 PUSH2 0x1C PUSH0 CODECOPY PUSH0 RETURN INVALID PUSH1 0x80 PUSH1 0x40 MSTORE CALLVALUE DUP1 ISZERO PUSH2 0xF JUMPI PUSH0 DUP1 REVERT JUMPDEST POP PUSH1 0x4 CALLDATASIZE LT PUSH2 0x3F JUMPI PUSH0 CALLDATALOAD PUSH1 0xE0 SHR DUP1 PUSH4 0x29F9D94F EQ PUSH2 0x43 JUMPI DUP1 PUSH4 0xC2985578 EQ PUSH2 0x4D JUMPI DUP1 PUSH4 0xFEBB0F7E EQ PUSH2 0x57 JUMPI JUMPDEST PUSH0 DUP1 REVERT JUMPDEST PUSH2 0x4B PUSH2 0x61 JUMP JUMPDEST STOP JUMPDEST PUSH2 0x55 PUSH2 0x6B JUMP JUMPDEST STOP JUMPDEST PUSH2 0x5F PUSH2 0xA2 JUMP JUMPDEST STOP JUMPDEST PUSH2 0x69 PUSH2 0xA2 JUMP JUMPDEST JUMP JUMPDEST PUSH32 0x96561394BAC381230DE4649200E8831AFCAB1F451881BBADE9EF209F6DD30480 PUSH1 0x40 MLOAD PUSH2 0x98 SWAP1 PUSH2 0x133 JUMP JUMPDEST PUSH1 0x40 MLOAD DUP1 SWAP2 SUB SWAP1 LOG1 JUMP JUMPDEST PUSH32 0x96561394BAC381230DE4649200E8831AFCAB1F451881BBADE9EF209F6DD30480 PUSH1 0x40 MLOAD PUSH2 0xCF SWAP1 PUSH2 0x19B JUMP JUMPDEST PUSH1 0x40 MLOAD DUP1 SWAP2 SUB SWAP1 LOG1 JUMP JUMPDEST PUSH0 DUP3 DUP3 MSTORE PUSH1 0x20 DUP3 ADD SWAP1 POP SWAP3 SWAP2 POP POP JUMP JUMPDEST PUSH32 0x4368696C643120666F6F2063616C6C6564000000000000000000000000000000 PUSH0 DUP3 ADD MSTORE POP JUMP JUMPDEST PUSH0 PUSH2 0x11D PUSH1 0x11 DUP4 PUSH2 0xD9 JUMP JUMPDEST SWAP2 POP PUSH2 0x128 DUP3 PUSH2 0xE9 JUMP JUMPDEST PUSH1 0x20 DUP3 ADD SWAP1 POP SWAP2 SWAP1 POP JUMP JUMPDEST PUSH0 PUSH1 0x20 DUP3 ADD SWAP1 POP DUP2 DUP2 SUB PUSH0 DUP4 ADD MSTORE PUSH2 0x14A DUP2 PUSH2 0x111 JUMP JUMPDEST SWAP1 POP SWAP2 SWAP1 POP JUMP JUMPDEST PUSH32 0x42617365206261722063616C6C65640000000000000000000000000000000000 PUSH0 DUP3 ADD MSTORE POP JUMP JUMPDEST PUSH0 PUSH2 0x185 PUSH1 0xF DUP4 PUSH2 0xD9 JUMP JUMPDEST SWAP2 POP PUSH2 0x190 DUP3 PUSH2 0x151 JUMP JUMPDEST PUSH1 0x20 DUP3 ADD SWAP1 POP SWAP2 SWAP1 POP JUMP JUMPDEST PUSH0 PUSH1 0x20 DUP3 ADD SWAP1 POP DUP2 DUP2 SUB PUSH0 DUP4 ADD MSTORE PUSH2 0x1B2 DUP2 PUSH2 0x179 JUMP JUMPDEST SWAP1 POP SWAP2 SWAP1 POP JUMP INVALID LOG2 PUSH5 0x6970667358 0x22 SLT KECCAK256 0x29 0xBE RETURNDATACOPY STATICCALL 0x2E DUP6 PUSH23 0x1894BEF8D77EE5D6DC38C79209FF838561E71071D9A3C6 0xD5 DUP3 PUSH5 0x736F6C6343 STOP ADDMOD BYTE STOP CALLER "
		},
		"gasEstimates": {
			"creation": {
				"codeDepositCost": "99000",
				"executionCost": "145",
				"totalCost": "99145"
			},
			"external": {
				"bar()": "1962",
				"callBaseBar()": "1942",
				"foo()": "1940"
			}
		},
		"methodIdentifiers": {
			"bar()": "febb0f7e",
			"callBaseBar()": "29f9d94f",
			"foo()": "c2985578"
		}
	},
	"abi": [
		{
			"anonymous": false,
			"inputs": [
				{
					"indexed": false,
					"internalType": "string",
					"name": "message",
					"type": "string"
				}
			],
			"name": "LogMessage",
			"type": "event"
		},
		{
			"inputs": [],
			"name": "bar",
			"outputs": [],
			"stateMutability": "nonpayable",
			"type": "function"
		},
		{
			"inputs": [],
			"name": "callBaseBar",
			"outputs": [],
			"stateMutability": "nonpayable",
			"type": "function"
		},
		{
			"inputs": [],
			"name": "foo",
			"outputs": [],
			"stateMutability": "nonpayable",
			"type": "function"
		}
	]
}