{
	"data": {
		"bytecode": {
			"linkReferences": {},
			"object": "6080604052348015600e575f80fd5b506102e08061001c5f395ff3fe608060405234801561000f575f80fd5b5060043610610055575f3560e01c806329f9d94f146100595780635069698d14610063578063c29855781461006d578063e32850f414610077578063febb0f7e14610081575b5f80fd5b61006161008b565b005b61006b610095565b005b61007561009f565b005b61007f6100a9565b005b6100896100b3565b005b6100936100bd565b565b61009d6100f4565b565b6100a761012b565b565b6100b161012b565b565b6100bb6100f4565b565b7f96561394bac381230de4649200e8831afcab1f451881bbade9ef209f6dd304806040516100ea906101bc565b60405180910390a1565b7f96561394bac381230de4649200e8831afcab1f451881bbade9ef209f6dd3048060405161012190610224565b60405180910390a1565b7f96561394bac381230de4649200e8831afcab1f451881bbade9ef209f6dd304806040516101589061028c565b60405180910390a1565b5f82825260208201905092915050565b7f42617365206261722063616c6c656400000000000000000000000000000000005f82015250565b5f6101a6600f83610162565b91506101b182610172565b602082019050919050565b5f6020820190508181035f8301526101d38161019a565b9050919050565b7f4368696c6432206261722063616c6c65640000000000000000000000000000005f82015250565b5f61020e601183610162565b9150610219826101da565b602082019050919050565b5f6020820190508181035f83015261023b81610202565b9050919050565b7f4368696c643120666f6f2063616c6c65640000000000000000000000000000005f82015250565b5f610276601183610162565b915061028182610242565b602082019050919050565b5f6020820190508181035f8301526102a38161026a565b905091905056fea2646970667358221220f48f28a3294a0eb26e51b68b578d3c754d407f72f4f004daffe65efb33cccb3a64736f6c634300081a0033",
			"opcodes": "PUSH1 0x80 PUSH1 0x40 MSTORE CALLVALUE DUP1 ISZERO PUSH1 0xE JUMPI PUSH0 DUP1 REVERT JUMPDEST POP PUSH2 0x2E0 DUP1 PUSH2 0x1C PUSH0 CODECOPY PUSH0 RETURN INVALID PUSH1 0x80 PUSH1 0x40 MSTORE CALLVALUE DUP1 ISZERO PUSH2 0xF JUMPI PUSH0 DUP1 REVERT JUMPDEST POP PUSH1 0x4 CALLDATASIZE LT PUSH2 0x55 JUMPI PUSH0 CALLDATALOAD PUSH1 0xE0 SHR DUP1 PUSH4 0x29F9D94F EQ PUSH2 0x59 JUMPI DUP1 PUSH4 0x5069698D EQ PUSH2 0x63 JUMPI DUP1 PUSH4 0xC2985578 EQ PUSH2 0x6D JUMPI DUP1 PUSH4 0xE32850F4 EQ PUSH2 0x77 JUMPI DUP1 PUSH4 0xFEBB0F7E EQ PUSH2 0x81 JUMPI JUMPDEST PUSH0 DUP1 REVERT JUMPDEST PUSH2 0x61 PUSH2 0x8B JUMP JUMPDEST STOP JUMPDEST PUSH2 0x6B PUSH2 0x95 JUMP JUMPDEST STOP JUMPDEST PUSH2 0x75 PUSH2 0x9F JUMP JUMPDEST STOP JUMPDEST PUSH2 0x7F PUSH2 0xA9 JUMP JUMPDEST STOP JUMPDEST PUSH2 0x89 PUSH2 0xB3 JUMP JUMPDEST STOP JUMPDEST PUSH2 0x93 PUSH2 0xBD JUMP JUMPDEST JUMP JUMPDEST PUSH2 0x9D PUSH2 0xF4 JUMP JUMPDEST JUMP JUMPDEST PUSH2 0xA7 PUSH2 0x12B JUMP JUMPDEST JUMP JUMPDEST PUSH2 0xB1 PUSH2 0x12B JUMP JUMPDEST JUMP JUMPDEST PUSH2 0xBB PUSH2 0xF4 JUMP JUMPDEST JUMP JUMPDEST PUSH32 0x96561394BAC381230DE4649200E8831AFCAB1F451881BBADE9EF209F6DD30480 PUSH1 0x40 MLOAD PUSH2 0xEA SWAP1 PUSH2 0x1BC JUMP JUMPDEST PUSH1 0x40 MLOAD DUP1 SWAP2 SUB SWAP1 LOG1 JUMP JUMPDEST PUSH32 0x96561394BAC381230DE4649200E8831AFCAB1F451881BBADE9EF209F6DD30480 PUSH1 0x40 MLOAD PUSH2 0x121 SWAP1 PUSH2 0x224 JUMP JUMPDEST PUSH1 0x40 MLOAD DUP1 SWAP2 SUB SWAP1 LOG1 JUMP JUMPDEST PUSH32 0x96561394BAC381230DE4649200E8831AFCAB1F451881BBADE9EF209F6DD30480 PUSH1 0x40 MLOAD PUSH2 0x158 SWAP1 PUSH2 0x28C JUMP JUMPDEST PUSH1 0x40 MLOAD DUP1 SWAP2 SUB SWAP1 LOG1 JUMP JUMPDEST PUSH0 DUP3 DUP3 MSTORE PUSH1 0x20 DUP3 ADD SWAP1 POP SWAP3 SWAP2 POP POP JUMP JUMPDEST PUSH32 0x42617365206261722063616C6C65640000000000000000000000000000000000 PUSH0 DUP3 ADD MSTORE POP JUMP JUMPDEST PUSH0 PUSH2 0x1A6 PUSH1 0xF DUP4 PUSH2 0x162 JUMP JUMPDEST SWAP2 POP PUSH2 0x1B1 DUP3 PUSH2 0x172 JUMP JUMPDEST PUSH1 0x20 DUP3 ADD SWAP1 POP SWAP2 SWAP1 POP JUMP JUMPDEST PUSH0 PUSH1 0x20 DUP3 ADD SWAP1 POP DUP2 DUP2 SUB PUSH0 DUP4 ADD MSTORE PUSH2 0x1D3 DUP2 PUSH2 0x19A JUMP JUMPDEST SWAP1 POP SWAP2 SWAP1 POP JUMP JUMPDEST PUSH32 0x4368696C6432206261722063616C6C6564000000000000000000000000000000 PUSH0 DUP3 ADD MSTORE POP JUMP JUMPDEST PUSH0 PUSH2 0x20E PUSH1 0x11 DUP4 PUSH2 0x162 JUMP JUMPDEST SWAP2 POP PUSH2 0x219 DUP3 PUSH2 0x1DA JUMP JUMPDEST PUSH1 0x20 DUP3 ADD SWAP1 POP SWAP2 SWAP1 POP JUMP JUMPDEST PUSH0 PUSH1 0x20 DUP3 ADD SWAP1 POP DUP2 DUP2 SUB PUSH0 DUP4 ADD MSTORE PUSH2 0x23B DUP2 PUSH2 0x202 JUMP JUMPDEST SWAP1 POP SWAP2 SWAP1 POP JUMP JUMPDEST PUSH32 0x4368696C643120666F6F2063616C6C6564000000000000000000000000000000 PUSH0 DUP3 ADD MSTORE POP JUMP JUMPDEST PUSH0 PUSH2 0x276 PUSH1 0x11 DUP4 PUSH2 0x162 JUMP JUMPDEST SWAP2 POP PUSH2 0x281 DUP3 PUSH2 0x242 JUMP JUMPDEST PUSH1 0x20 DUP3 ADD SWAP1 POP SWAP2 SWAP1 POP JUMP JUMPDEST PUSH0 PUSH1 0x20 DUP3 ADD SWAP1 POP DUP2 DUP2 SUB PUSH0 DUP4 ADD MSTORE PUSH2 0x2A3 DUP2 PUSH2 0x26A JUMP JUMPDEST SWAP1 POP SWAP2 SWAP1 POP JUMP INVALID LOG2 PUSH5 0x6970667358 0x22 SLT KECCAK256 DELEGATECALL DUP16 0x28 LOG3 0x29 BLOBBASEFEE 0xE 0xB2 PUSH15 0x51B68B578D3C754D407F72F4F004DA SELFDESTRUCT 0xE6 MCOPY 0xFB CALLER 0xCC 0xCB GASPRICE PUSH5 0x736F6C6343 STOP ADDMOD BYTE STOP CALLER "
		},
		"gasEstimates": {
			"creation": {
				"codeDepositCost": "147200",
				"executionCost": "188",
				"totalCost": "147388"
			},
			"external": {
				"bar()": "2030",
				"callBaseBar()": "1942",
				"callChild1Foo()": "2008",
				"callSuperBar()": "1964",
				"foo()": "1986"
			}
		},
		"methodIdentifiers": {
			"bar()": "febb0f7e",
			"callBaseBar()": "29f9d94f",
			"callChild1Foo()": "e32850f4",
			"callSuperBar()": "5069698d",
			"foo()": "c2985578"
		}
	},
	"abi": [
		{
			"anonymous": false,
			"inputs": [
				{
					"indexed": false,
					"internalType": "string",
					"name": "message",
					"type": "string"
				}
			],
			"name": "LogMessage",
			"type": "event"
		},
		{
			"inputs": [],
			"name": "bar",
			"outputs": [],
			"stateMutability": "nonpayable",
			"type": "function"
		},
		{
			"inputs": [],
			"name": "callBaseBar",
			"outputs": [],
			"stateMutability": "nonpayable",
			"type": "function"
		},
		{
			"inputs": [],
			"name": "callChild1Foo",
			"outputs": [],
			"stateMutability": "nonpayable",
			"type": "function"
		},
		{
			"inputs": [],
			"name": "callSuperBar",
			"outputs": [],
			"stateMutability": "nonpayable",
			"type": "function"
		},
		{
			"inputs": [],
			"name": "foo",
			"outputs": [],
			"stateMutability": "nonpayable",
			"type": "function"
		}
	]
}