{
	"data": {
		"bytecode": {
			"linkReferences": {},
			"object": "6080604052348015600e575f80fd5b506105fb8061001c5f395ff3fe608060405234801561000f575f80fd5b506004361061007b575f3560e01c806370119d061161005957806370119d06146100c5578063b3bcfa82146100e1578063bedb86fb146100eb578063c2985578146101075761007b565b806306661abd1461007f578063371303c01461009d5780635c975abb146100a7575b5f80fd5b610087610111565b6040516100949190610317565b60405180910390f35b6100a5610117565b005b6100af61017e565b6040516100bc919061034a565b60405180910390f35b6100df60048036038101906100da9190610391565b61018e565b005b6100e961023b565b005b610105600480360381019061010091906103e6565b6102a2565b005b61010f6102bd565b005b60015481565b5f8054906101000a900460ff1615610164576040517f08c379a000000000000000000000000000000000000000000000000000000000815260040161015b9061046b565b60405180910390fd5b6001805f82825461017591906104b6565b92505081905550565b5f8054906101000a900460ff1681565b5f8054906101000a900460ff16156101db576040517f08c379a00000000000000000000000000000000000000000000000000000000081526004016101d29061046b565b60405180910390fd5b806064811061021f576040517f08c379a000000000000000000000000000000000000000000000000000000000815260040161021690610533565b60405180910390fd5b8160015f82825461023091906104b6565b925050819055505050565b5f8054906101000a900460ff1615610288576040517f08c379a000000000000000000000000000000000000000000000000000000000815260040161027f9061046b565b60405180910390fd5b6001805f8282546102999190610551565b92505081905550565b805f806101000a81548160ff02191690831515021790555050565b6001805f8282546102ce91906104b6565b925050819055506001805f8282546102e691906104b6565b9250508190555060026001546102fc9190610584565b50565b5f819050919050565b610311816102ff565b82525050565b5f60208201905061032a5f830184610308565b92915050565b5f8115159050919050565b61034481610330565b82525050565b5f60208201905061035d5f83018461033b565b92915050565b5f80fd5b610370816102ff565b811461037a575f80fd5b50565b5f8135905061038b81610367565b92915050565b5f602082840312156103a6576103a5610363565b5b5f6103b38482850161037d565b91505092915050565b6103c581610330565b81146103cf575f80fd5b50565b5f813590506103e0816103bc565b92915050565b5f602082840312156103fb576103fa610363565b5b5f610408848285016103d2565b91505092915050565b5f82825260208201905092915050565b7f70617573656400000000000000000000000000000000000000000000000000005f82015250565b5f610455600683610411565b915061046082610421565b602082019050919050565b5f6020820190508181035f83015261048281610449565b9050919050565b7f4e487b71000000000000000000000000000000000000000000000000000000005f52601160045260245ffd5b5f6104c0826102ff565b91506104cb836102ff565b92508282019050808211156104e3576104e2610489565b5b92915050565b7f783e3d31303000000000000000000000000000000000000000000000000000005f82015250565b5f61051d600683610411565b9150610528826104e9565b602082019050919050565b5f6020820190508181035f83015261054a81610511565b9050919050565b5f61055b826102ff565b9150610566836102ff565b925082820390508181111561057e5761057d610489565b5b92915050565b5f61058e826102ff565b9150610599836102ff565b92508282026105a7816102ff565b915082820484148315176105be576105bd610489565b5b509291505056fea264697066735822122051bf59a364d38a7807978fbbbdcb31fb03b3ac6557c54c575cdf41bdcf97421764736f6c634300081a0033",
			"opcodes": "PUSH1 0x80 PUSH1 0x40 MSTORE CALLVALUE DUP1 ISZERO PUSH1 0xE JUMPI PUSH0 DUP1 REVERT JUMPDEST POP PUSH2 0x5FB DUP1 PUSH2 0x1C PUSH0 CODECOPY PUSH0 RETURN INVALID PUSH1 0x80 PUSH1 0x40 MSTORE CALLVALUE DUP1 ISZERO PUSH2 0xF JUMPI PUSH0 DUP1 REVERT JUMPDEST POP PUSH1 0x4 CALLDATASIZE LT PUSH2 0x7B JUMPI PUSH0 CALLDATALOAD PUSH1 0xE0 SHR DUP1 PUSH4 0x70119D06 GT PUSH2 0x59 JUMPI DUP1 PUSH4 0x70119D06 EQ PUSH2 0xC5 JUMPI DUP1 PUSH4 0xB3BCFA82 EQ PUSH2 0xE1 JUMPI DUP1 PUSH4 0xBEDB86FB EQ PUSH2 0xEB JUMPI DUP1 PUSH4 0xC2985578 EQ PUSH2 0x107 JUMPI PUSH2 0x7B JUMP JUMPDEST DUP1 PUSH4 0x6661ABD EQ PUSH2 0x7F JUMPI DUP1 PUSH4 0x371303C0 EQ PUSH2 0x9D JUMPI DUP1 PUSH4 0x5C975ABB EQ PUSH2 0xA7 JUMPI JUMPDEST PUSH0 DUP1 REVERT JUMPDEST PUSH2 0x87 PUSH2 0x111 JUMP JUMPDEST PUSH1 0x40 MLOAD PUSH2 0x94 SWAP2 SWAP1 PUSH2 0x317 JUMP JUMPDEST PUSH1 0x40 MLOAD DUP1 SWAP2 SUB SWAP1 RETURN JUMPDEST PUSH2 0xA5 PUSH2 0x117 JUMP JUMPDEST STOP JUMPDEST PUSH2 0xAF PUSH2 0x17E JUMP JUMPDEST PUSH1 0x40 MLOAD PUSH2 0xBC SWAP2 SWAP1 PUSH2 0x34A JUMP JUMPDEST PUSH1 0x40 MLOAD DUP1 SWAP2 SUB SWAP1 RETURN JUMPDEST PUSH2 0xDF PUSH1 0x4 DUP1 CALLDATASIZE SUB DUP2 ADD SWAP1 PUSH2 0xDA SWAP2 SWAP1 PUSH2 0x391 JUMP JUMPDEST PUSH2 0x18E JUMP JUMPDEST STOP JUMPDEST PUSH2 0xE9 PUSH2 0x23B JUMP JUMPDEST STOP JUMPDEST PUSH2 0x105 PUSH1 0x4 DUP1 CALLDATASIZE SUB DUP2 ADD SWAP1 PUSH2 0x100 SWAP2 SWAP1 PUSH2 0x3E6 JUMP JUMPDEST PUSH2 0x2A2 JUMP JUMPDEST STOP JUMPDEST PUSH2 0x10F PUSH2 0x2BD JUMP JUMPDEST STOP JUMPDEST PUSH1 0x1 SLOAD DUP2 JUMP JUMPDEST PUSH0 DUP1 SLOAD SWAP1 PUSH2 0x100 EXP SWAP1 DIV PUSH1 0xFF AND ISZERO PUSH2 0x164 JUMPI PUSH1 0x40 MLOAD PUSH32 0x8C379A000000000000000000000000000000000000000000000000000000000 DUP2 MSTORE PUSH1 0x4 ADD PUSH2 0x15B SWAP1 PUSH2 0x46B JUMP JUMPDEST PUSH1 0x40 MLOAD DUP1 SWAP2 SUB SWAP1 REVERT JUMPDEST PUSH1 0x1 DUP1 PUSH0 DUP3 DUP3 SLOAD PUSH2 0x175 SWAP2 SWAP1 PUSH2 0x4B6 JUMP JUMPDEST SWAP3 POP POP DUP2 SWAP1 SSTORE POP JUMP JUMPDEST PUSH0 DUP1 SLOAD SWAP1 PUSH2 0x100 EXP SWAP1 DIV PUSH1 0xFF AND DUP2 JUMP JUMPDEST PUSH0 DUP1 SLOAD SWAP1 PUSH2 0x100 EXP SWAP1 DIV PUSH1 0xFF AND ISZERO PUSH2 0x1DB JUMPI PUSH1 0x40 MLOAD PUSH32 0x8C379A000000000000000000000000000000000000000000000000000000000 DUP2 MSTORE PUSH1 0x4 ADD PUSH2 0x1D2 SWAP1 PUSH2 0x46B JUMP JUMPDEST PUSH1 0x40 MLOAD DUP1 SWAP2 SUB SWAP1 REVERT JUMPDEST DUP1 PUSH1 0x64 DUP2 LT PUSH2 0x21F JUMPI PUSH1 0x40 MLOAD PUSH32 0x8C379A000000000000000000000000000000000000000000000000000000000 DUP2 MSTORE PUSH1 0x4 ADD PUSH2 0x216 SWAP1 PUSH2 0x533 JUMP JUMPDEST PUSH1 0x40 MLOAD DUP1 SWAP2 SUB SWAP1 REVERT JUMPDEST DUP2 PUSH1 0x1 PUSH0 DUP3 DUP3 SLOAD PUSH2 0x230 SWAP2 SWAP1 PUSH2 0x4B6 JUMP JUMPDEST SWAP3 POP POP DUP2 SWAP1 SSTORE POP POP POP JUMP JUMPDEST PUSH0 DUP1 SLOAD SWAP1 PUSH2 0x100 EXP SWAP1 DIV PUSH1 0xFF AND ISZERO PUSH2 0x288 JUMPI PUSH1 0x40 MLOAD PUSH32 0x8C379A000000000000000000000000000000000000000000000000000000000 DUP2 MSTORE PUSH1 0x4 ADD PUSH2 0x27F SWAP1 PUSH2 0x46B JUMP JUMPDEST PUSH1 0x40 MLOAD DUP1 SWAP2 SUB SWAP1 REVERT JUMPDEST PUSH1 0x1 DUP1 PUSH0 DUP3 DUP3 SLOAD PUSH2 0x299 SWAP2 SWAP1 PUSH2 0x551 JUMP JUMPDEST SWAP3 POP POP DUP2 SWAP1 SSTORE POP JUMP JUMPDEST DUP1 PUSH0 DUP1 PUSH2 0x100 EXP DUP2 SLOAD DUP2 PUSH1 0xFF MUL NOT AND SWAP1 DUP4 ISZERO ISZERO MUL OR SWAP1 SSTORE POP POP JUMP JUMPDEST PUSH1 0x1 DUP1 PUSH0 DUP3 DUP3 SLOAD PUSH2 0x2CE SWAP2 SWAP1 PUSH2 0x4B6 JUMP JUMPDEST SWAP3 POP POP DUP2 SWAP1 SSTORE POP PUSH1 0x1 DUP1 PUSH0 DUP3 DUP3 SLOAD PUSH2 0x2E6 SWAP2 SWAP1 PUSH2 0x4B6 JUMP JUMPDEST SWAP3 POP POP DUP2 SWAP1 SSTORE POP PUSH1 0x2 PUSH1 0x1 SLOAD PUSH2 0x2FC SWAP2 SWAP1 PUSH2 0x584 JUMP JUMPDEST POP JUMP JUMPDEST PUSH0 DUP2 SWAP1 POP SWAP2 SWAP1 POP JUMP JUMPDEST PUSH2 0x311 DUP2 PUSH2 0x2FF JUMP JUMPDEST DUP3 MSTORE POP POP JUMP JUMPDEST PUSH0 PUSH1 0x20 DUP3 ADD SWAP1 POP PUSH2 0x32A PUSH0 DUP4 ADD DUP5 PUSH2 0x308 JUMP JUMPDEST SWAP3 SWAP2 POP POP JUMP JUMPDEST PUSH0 DUP2 ISZERO ISZERO SWAP1 POP SWAP2 SWAP1 POP JUMP JUMPDEST PUSH2 0x344 DUP2 PUSH2 0x330 JUMP JUMPDEST DUP3 MSTORE POP POP JUMP JUMPDEST PUSH0 PUSH1 0x20 DUP3 ADD SWAP1 POP PUSH2 0x35D PUSH0 DUP4 ADD DUP5 PUSH2 0x33B JUMP JUMPDEST SWAP3 SWAP2 POP POP JUMP JUMPDEST PUSH0 DUP1 REVERT JUMPDEST PUSH2 0x370 DUP2 PUSH2 0x2FF JUMP JUMPDEST DUP2 EQ PUSH2 0x37A JUMPI PUSH0 DUP1 REVERT JUMPDEST POP JUMP JUMPDEST PUSH0 DUP2 CALLDATALOAD SWAP1 POP PUSH2 0x38B DUP2 PUSH2 0x367 JUMP JUMPDEST SWAP3 SWAP2 POP POP JUMP JUMPDEST PUSH0 PUSH1 0x20 DUP3 DUP5 SUB SLT ISZERO PUSH2 0x3A6 JUMPI PUSH2 0x3A5 PUSH2 0x363 JUMP JUMPDEST JUMPDEST PUSH0 PUSH2 0x3B3 DUP5 DUP3 DUP6 ADD PUSH2 0x37D JUMP JUMPDEST SWAP2 POP POP SWAP3 SWAP2 POP POP JUMP JUMPDEST PUSH2 0x3C5 DUP2 PUSH2 0x330 JUMP JUMPDEST DUP2 EQ PUSH2 0x3CF JUMPI PUSH0 DUP1 REVERT JUMPDEST POP JUMP JUMPDEST PUSH0 DUP2 CALLDATALOAD SWAP1 POP PUSH2 0x3E0 DUP2 PUSH2 0x3BC JUMP JUMPDEST SWAP3 SWAP2 POP POP JUMP JUMPDEST PUSH0 PUSH1 0x20 DUP3 DUP5 SUB SLT ISZERO PUSH2 0x3FB JUMPI PUSH2 0x3FA PUSH2 0x363 JUMP JUMPDEST JUMPDEST PUSH0 PUSH2 0x408 DUP5 DUP3 DUP6 ADD PUSH2 0x3D2 JUMP JUMPDEST SWAP2 POP POP SWAP3 SWAP2 POP POP JUMP JUMPDEST PUSH0 DUP3 DUP3 MSTORE PUSH1 0x20 DUP3 ADD SWAP1 POP SWAP3 SWAP2 POP POP JUMP JUMPDEST PUSH32 0x7061757365640000000000000000000000000000000000000000000000000000 PUSH0 DUP3 ADD MSTORE POP JUMP JUMPDEST PUSH0 PUSH2 0x455 PUSH1 0x6 DUP4 PUSH2 0x411 JUMP JUMPDEST SWAP2 POP PUSH2 0x460 DUP3 PUSH2 0x421 JUMP JUMPDEST PUSH1 0x20 DUP3 ADD SWAP1 POP SWAP2 SWAP1 POP JUMP JUMPDEST PUSH0 PUSH1 0x20 DUP3 ADD SWAP1 POP DUP2 DUP2 SUB PUSH0 DUP4 ADD MSTORE PUSH2 0x482 DUP2 PUSH2 0x449 JUMP JUMPDEST SWAP1 POP SWAP2 SWAP1 POP JUMP JUMPDEST PUSH32 0x4E487B7100000000000000000000000000000000000000000000000000000000 PUSH0 MSTORE PUSH1 0x11 PUSH1 0x4 MSTORE PUSH1 0x24 PUSH0 REVERT JUMPDEST PUSH0 PUSH2 0x4C0 DUP3 PUSH2 0x2FF JUMP JUMPDEST SWAP2 POP PUSH2 0x4CB DUP4 PUSH2 0x2FF JUMP JUMPDEST SWAP3 POP DUP3 DUP3 ADD SWAP1 POP DUP1 DUP3 GT ISZERO PUSH2 0x4E3 JUMPI PUSH2 0x4E2 PUSH2 0x489 JUMP JUMPDEST JUMPDEST SWAP3 SWAP2 POP POP JUMP JUMPDEST PUSH32 0x783E3D3130300000000000000000000000000000000000000000000000000000 PUSH0 DUP3 ADD MSTORE POP JUMP JUMPDEST PUSH0 PUSH2 0x51D PUSH1 0x6 DUP4 PUSH2 0x411 JUMP JUMPDEST SWAP2 POP PUSH2 0x528 DUP3 PUSH2 0x4E9 JUMP JUMPDEST PUSH1 0x20 DUP3 ADD SWAP1 POP SWAP2 SWAP1 POP JUMP JUMPDEST PUSH0 PUSH1 0x20 DUP3 ADD SWAP1 POP DUP2 DUP2 SUB PUSH0 DUP4 ADD MSTORE PUSH2 0x54A DUP2 PUSH2 0x511 JUMP JUMPDEST SWAP1 POP SWAP2 SWAP1 POP JUMP JUMPDEST PUSH0 PUSH2 0x55B DUP3 PUSH2 0x2FF JUMP JUMPDEST SWAP2 POP PUSH2 0x566 DUP4 PUSH2 0x2FF JUMP JUMPDEST SWAP3 POP DUP3 DUP3 SUB SWAP1 POP DUP2 DUP2 GT ISZERO PUSH2 0x57E JUMPI PUSH2 0x57D PUSH2 0x489 JUMP JUMPDEST JUMPDEST SWAP3 SWAP2 POP POP JUMP JUMPDEST PUSH0 PUSH2 0x58E DUP3 PUSH2 0x2FF JUMP JUMPDEST SWAP2 POP PUSH2 0x599 DUP4 PUSH2 0x2FF JUMP JUMPDEST SWAP3 POP DUP3 DUP3 MUL PUSH2 0x5A7 DUP2 PUSH2 0x2FF JUMP JUMPDEST SWAP2 POP DUP3 DUP3 DIV DUP5 EQ DUP4 ISZERO OR PUSH2 0x5BE JUMPI PUSH2 0x5BD PUSH2 0x489 JUMP JUMPDEST JUMPDEST POP SWAP3 SWAP2 POP POP JUMP INVALID LOG2 PUSH5 0x6970667358 0x22 SLT KECCAK256 MLOAD 0xBF MSIZE LOG3 PUSH5 0xD38A780797 DUP16 0xBB 0xBD 0xCB BALANCE 0xFB SUB 0xB3 0xAC PUSH6 0x57C54C575CDF COINBASE 0xBD 0xCF SWAP8 TIMESTAMP OR PUSH5 0x736F6C6343 STOP ADDMOD BYTE STOP CALLER "
		},
		"gasEstimates": {
			"creation": {
				"codeDepositCost": "306200",
				"executionCost": "341",
				"totalCost": "306541"
			},
			"external": {
				"count()": "2426",
				"dec()": "infinite",
				"foo()": "infinite",
				"inc()": "infinite",
				"incBy(uint256)": "infinite",
				"paused()": "2508",
				"setPause(bool)": "24717"
			}
		},
		"methodIdentifiers": {
			"count()": "06661abd",
			"dec()": "b3bcfa82",
			"foo()": "c2985578",
			"inc()": "371303c0",
			"incBy(uint256)": "70119d06",
			"paused()": "5c975abb",
			"setPause(bool)": "bedb86fb"
		}
	},
	"abi": [
		{
			"inputs": [],
			"name": "count",
			"outputs": [
				{
					"internalType": "uint256",
					"name": "",
					"type": "uint256"
				}
			],
			"stateMutability": "view",
			"type": "function"
		},
		{
			"inputs": [],
			"name": "dec",
			"outputs": [],
			"stateMutability": "nonpayable",
			"type": "function"
		},
		{
			"inputs": [],
			"name": "foo",
			"outputs": [],
			"stateMutability": "nonpayable",
			"type": "function"
		},
		{
			"inputs": [],
			"name": "inc",
			"outputs": [],
			"stateMutability": "nonpayable",
			"type": "function"
		},
		{
			"inputs": [
				{
					"internalType": "uint256",
					"name": "_x",
					"type": "uint256"
				}
			],
			"name": "incBy",
			"outputs": [],
			"stateMutability": "nonpayable",
			"type": "function"
		},
		{
			"inputs": [],
			"name": "paused",
			"outputs": [
				{
					"internalType": "bool",
					"name": "",
					"type": "bool"
				}
			],
			"stateMutability": "view",
			"type": "function"
		},
		{
			"inputs": [
				{
					"internalType": "bool",
					"name": "_puased",
					"type": "bool"
				}
			],
			"name": "setPause",
			"outputs": [],
			"stateMutability": "nonpayable",
			"type": "function"
		}
	]
}