{
	"data": {
		"bytecode": {
			"linkReferences": {},
			"object": "6080604052348015600e575f80fd5b506101fc8061001c5f395ff3fe608060405234801561000f575f80fd5b5060043610610034575f3560e01c80635035df81146100385780636036251414610042575b5f80fd5b61004061004c565b005b61004a610054565b005b5f8081905550565b5f805403610097576040517f08c379a000000000000000000000000000000000000000000000000000000000815260040161008e90610131565b60405180910390fd5b60025f808282546100a89190610185565b92505081905550565b5f82825260208201905092915050565b7f4e756d626572206973207a65726f20616e642063616e6e6f742062652070726f5f8201527f6365737365642e00000000000000000000000000000000000000000000000000602082015250565b5f61011b6027836100b1565b9150610126826100c1565b604082019050919050565b5f6020820190508181035f8301526101488161010f565b9050919050565b5f819050919050565b7f4e487b71000000000000000000000000000000000000000000000000000000005f52601160045260245ffd5b5f61018f8261014f565b915061019a8361014f565b92508282026101a88161014f565b915082820484148315176101bf576101be610158565b5b509291505056fea26469706673582212207d024e2aed7484c93d4d5e56175a1a7a52ebd558fea716cf013c6f79693a3a8264736f6c634300081a0033",
			"opcodes": "PUSH1 0x80 PUSH1 0x40 MSTORE CALLVALUE DUP1 ISZERO PUSH1 0xE JUMPI PUSH0 DUP1 REVERT JUMPDEST POP PUSH2 0x1FC DUP1 PUSH2 0x1C PUSH0 CODECOPY PUSH0 RETURN INVALID PUSH1 0x80 PUSH1 0x40 MSTORE CALLVALUE DUP1 ISZERO PUSH2 0xF JUMPI PUSH0 DUP1 REVERT JUMPDEST POP PUSH1 0x4 CALLDATASIZE LT PUSH2 0x34 JUMPI PUSH0 CALLDATALOAD PUSH1 0xE0 SHR DUP1 PUSH4 0x5035DF81 EQ PUSH2 0x38 JUMPI DUP1 PUSH4 0x60362514 EQ PUSH2 0x42 JUMPI JUMPDEST PUSH0 DUP1 REVERT JUMPDEST PUSH2 0x40 PUSH2 0x4C JUMP JUMPDEST STOP JUMPDEST PUSH2 0x4A PUSH2 0x54 JUMP JUMPDEST STOP JUMPDEST PUSH0 DUP1 DUP2 SWAP1 SSTORE POP JUMP JUMPDEST PUSH0 DUP1 SLOAD SUB PUSH2 0x97 JUMPI PUSH1 0x40 MLOAD PUSH32 0x8C379A000000000000000000000000000000000000000000000000000000000 DUP2 MSTORE PUSH1 0x4 ADD PUSH2 0x8E SWAP1 PUSH2 0x131 JUMP JUMPDEST PUSH1 0x40 MLOAD DUP1 SWAP2 SUB SWAP1 REVERT JUMPDEST PUSH1 0x2 PUSH0 DUP1 DUP3 DUP3 SLOAD PUSH2 0xA8 SWAP2 SWAP1 PUSH2 0x185 JUMP JUMPDEST SWAP3 POP POP DUP2 SWAP1 SSTORE POP JUMP JUMPDEST PUSH0 DUP3 DUP3 MSTORE PUSH1 0x20 DUP3 ADD SWAP1 POP SWAP3 SWAP2 POP POP JUMP JUMPDEST PUSH32 0x4E756D626572206973207A65726F20616E642063616E6E6F742062652070726F PUSH0 DUP3 ADD MSTORE PUSH32 0x6365737365642E00000000000000000000000000000000000000000000000000 PUSH1 0x20 DUP3 ADD MSTORE POP JUMP JUMPDEST PUSH0 PUSH2 0x11B PUSH1 0x27 DUP4 PUSH2 0xB1 JUMP JUMPDEST SWAP2 POP PUSH2 0x126 DUP3 PUSH2 0xC1 JUMP JUMPDEST PUSH1 0x40 DUP3 ADD SWAP1 POP SWAP2 SWAP1 POP JUMP JUMPDEST PUSH0 PUSH1 0x20 DUP3 ADD SWAP1 POP DUP2 DUP2 SUB PUSH0 DUP4 ADD MSTORE PUSH2 0x148 DUP2 PUSH2 0x10F JUMP JUMPDEST SWAP1 POP SWAP2 SWAP1 POP JUMP JUMPDEST PUSH0 DUP2 SWAP1 POP SWAP2 SWAP1 POP JUMP JUMPDEST PUSH32 0x4E487B7100000000000000000000000000000000000000000000000000000000 PUSH0 MSTORE PUSH1 0x11 PUSH1 0x4 MSTORE PUSH1 0x24 PUSH0 REVERT JUMPDEST PUSH0 PUSH2 0x18F DUP3 PUSH2 0x14F JUMP JUMPDEST SWAP2 POP PUSH2 0x19A DUP4 PUSH2 0x14F JUMP JUMPDEST SWAP3 POP DUP3 DUP3 MUL PUSH2 0x1A8 DUP2 PUSH2 0x14F JUMP JUMPDEST SWAP2 POP DUP3 DUP3 DIV DUP5 EQ DUP4 ISZERO OR PUSH2 0x1BF JUMPI PUSH2 0x1BE PUSH2 0x158 JUMP JUMPDEST JUMPDEST POP SWAP3 SWAP2 POP POP JUMP INVALID LOG2 PUSH5 0x6970667358 0x22 SLT KECCAK256 PUSH30 0x24E2AED7484C93D4D5E56175A1A7A52EBD558FEA716CF013C6F79693A3A DUP3 PUSH5 0x736F6C6343 STOP ADDMOD BYTE STOP CALLER "
		},
		"gasEstimates": {
			"creation": {
				"codeDepositCost": "101600",
				"executionCost": "145",
				"totalCost": "101745"
			},
			"external": {
				"doubleNumber()": "infinite",
				"resetNumber()": "5134"
			}
		},
		"methodIdentifiers": {
			"doubleNumber()": "60362514",
			"resetNumber()": "5035df81"
		}
	},
	"abi": [
		{
			"inputs": [],
			"name": "doubleNumber",
			"outputs": [],
			"stateMutability": "nonpayable",
			"type": "function"
		},
		{
			"inputs": [],
			"name": "resetNumber",
			"outputs": [],
			"stateMutability": "nonpayable",
			"type": "function"
		}
	]
}