{
	"data": {
		"bytecode": {
			"linkReferences": {},
			"object": "6080604052348015600e575f80fd5b50610b668061001c5f395ff3fe608060405234801561000f575f80fd5b5060043610610060575f3560e01c8063455f502414610064578063b6a46b3b14610080578063bc8bc2b41461009c578063bd991954146100cd578063cd111614146100eb578063d1323ed014610107575b5f80fd5b61007e600480360381019061007991906104fa565b610138565b005b61009a60048036038101906100959190610661565b6101e9565b005b6100b660048036038101906100b191906104fa565b61025f565b6040516100c4929190610722565b60405180910390f35b6100d561031f565b6040516100e2919061075f565b60405180910390f35b61010560048036038101906101009190610778565b61032a565b005b610121600480360381019061011c91906104fa565b6103a3565b60405161012f929190610722565b60405180910390f35b5f80549050811061017e576040517f08c379a00000000000000000000000000000000000000000000000000000000081526004016101759061081c565b60405180910390fd5b5f81815481106101915761019061083a565b5b905f5260205f2090600202016001015f9054906101000a900460ff16155f82815481106101c1576101c061083a565b5b905f5260205f2090600202016001015f6101000a81548160ff02191690831515021790555050565b5f60405180604001604052808381526020015f1515815250908060018154018082558091505060019003905f5260205f2090600202015f909190919091505f820151815f01908161023a9190610a61565b506020820151816001015f6101000a81548160ff021916908315150217905550505050565b5f818154811061026d575f80fd5b905f5260205f2090600202015f91509050805f01805461028c90610894565b80601f01602080910402602001604051908101604052809291908181526020018280546102b890610894565b80156103035780601f106102da57610100808354040283529160200191610303565b820191905f5260205f20905b8154815290600101906020018083116102e657829003601f168201915b505050505090806001015f9054906101000a900460ff16905082565b5f8080549050905090565b5f805490508210610370576040517f08c379a00000000000000000000000000000000000000000000000000000000081526004016103679061081c565b60405180910390fd5b805f83815481106103845761038361083a565b5b905f5260205f2090600202015f01908161039e9190610a61565b505050565b60605f808054905083106103ec576040517f08c379a00000000000000000000000000000000000000000000000000000000081526004016103e39061081c565b60405180910390fd5b5f808481548110610400576103ff61083a565b5b905f5260205f2090600202019050805f01816001015f9054906101000a900460ff1681805461042e90610894565b80601f016020809104026020016040519081016040528092919081815260200182805461045a90610894565b80156104a55780601f1061047c576101008083540402835291602001916104a5565b820191905f5260205f20905b81548152906001019060200180831161048857829003601f168201915b505050505091509250925050915091565b5f604051905090565b5f80fd5b5f80fd5b5f819050919050565b6104d9816104c7565b81146104e3575f80fd5b50565b5f813590506104f4816104d0565b92915050565b5f6020828403121561050f5761050e6104bf565b5b5f61051c848285016104e6565b91505092915050565b5f80fd5b5f80fd5b5f601f19601f8301169050919050565b7f4e487b71000000000000000000000000000000000000000000000000000000005f52604160045260245ffd5b6105738261052d565b810181811067ffffffffffffffff821117156105925761059161053d565b5b80604052505050565b5f6105a46104b6565b90506105b0828261056a565b919050565b5f67ffffffffffffffff8211156105cf576105ce61053d565b5b6105d88261052d565b9050602081019050919050565b828183375f83830152505050565b5f610605610600846105b5565b61059b565b90508281526020810184848401111561062157610620610529565b5b61062c8482856105e5565b509392505050565b5f82601f83011261064857610647610525565b5b81356106588482602086016105f3565b91505092915050565b5f60208284031215610676576106756104bf565b5b5f82013567ffffffffffffffff811115610693576106926104c3565b5b61069f84828501610634565b91505092915050565b5f81519050919050565b5f82825260208201905092915050565b8281835e5f83830152505050565b5f6106da826106a8565b6106e481856106b2565b93506106f48185602086016106c2565b6106fd8161052d565b840191505092915050565b5f8115159050919050565b61071c81610708565b82525050565b5f6040820190508181035f83015261073a81856106d0565b90506107496020830184610713565b9392505050565b610759816104c7565b82525050565b5f6020820190506107725f830184610750565b92915050565b5f806040838503121561078e5761078d6104bf565b5b5f61079b858286016104e6565b925050602083013567ffffffffffffffff8111156107bc576107bb6104c3565b5b6107c885828601610634565b9150509250929050565b7f496e76616c696420696e646578000000000000000000000000000000000000005f82015250565b5f610806600d836106b2565b9150610811826107d2565b602082019050919050565b5f6020820190508181035f830152610833816107fa565b9050919050565b7f4e487b71000000000000000000000000000000000000000000000000000000005f52603260045260245ffd5b7f4e487b71000000000000000000000000000000000000000000000000000000005f52602260045260245ffd5b5f60028204905060018216806108ab57607f821691505b6020821081036108be576108bd610867565b5b50919050565b5f819050815f5260205f209050919050565b5f6020601f8301049050919050565b5f82821b905092915050565b5f600883026109207fffffffffffffffffffffffffffffffffffffffffffffffffffffffffffffffff826108e5565b61092a86836108e5565b95508019841693508086168417925050509392505050565b5f819050919050565b5f61096561096061095b846104c7565b610942565b6104c7565b9050919050565b5f819050919050565b61097e8361094b565b61099261098a8261096c565b8484546108f1565b825550505050565b5f90565b6109a661099a565b6109b1818484610975565b505050565b5b818110156109d4576109c95f8261099e565b6001810190506109b7565b5050565b601f821115610a19576109ea816108c4565b6109f3846108d6565b81016020851015610a02578190505b610a16610a0e856108d6565b8301826109b6565b50505b505050565b5f82821c905092915050565b5f610a395f1984600802610a1e565b1980831691505092915050565b5f610a518383610a2a565b9150826002028217905092915050565b610a6a826106a8565b67ffffffffffffffff811115610a8357610a8261053d565b5b610a8d8254610894565b610a988282856109d8565b5f60209050601f831160018114610ac9575f8415610ab7578287015190505b610ac18582610a46565b865550610b28565b601f198416610ad7866108c4565b5f5b82811015610afe57848901518255600182019150602085019450602081019050610ad9565b86831015610b1b5784890151610b17601f891682610a2a565b8355505b6001600288020188555050505b50505050505056fea2646970667358221220566730e54eb3a79c946d81373fec0ada0edf5abb7898b70606b66537db7e614e64736f6c634300081a0033",
			"opcodes": "PUSH1 0x80 PUSH1 0x40 MSTORE CALLVALUE DUP1 ISZERO PUSH1 0xE JUMPI PUSH0 DUP1 REVERT JUMPDEST POP PUSH2 0xB66 DUP1 PUSH2 0x1C PUSH0 CODECOPY PUSH0 RETURN INVALID PUSH1 0x80 PUSH1 0x40 MSTORE CALLVALUE DUP1 ISZERO PUSH2 0xF JUMPI PUSH0 DUP1 REVERT JUMPDEST POP PUSH1 0x4 CALLDATASIZE LT PUSH2 0x60 JUMPI PUSH0 CALLDATALOAD PUSH1 0xE0 SHR DUP1 PUSH4 0x455F5024 EQ PUSH2 0x64 JUMPI DUP1 PUSH4 0xB6A46B3B EQ PUSH2 0x80 JUMPI DUP1 PUSH4 0xBC8BC2B4 EQ PUSH2 0x9C JUMPI DUP1 PUSH4 0xBD991954 EQ PUSH2 0xCD JUMPI DUP1 PUSH4 0xCD111614 EQ PUSH2 0xEB JUMPI DUP1 PUSH4 0xD1323ED0 EQ PUSH2 0x107 JUMPI JUMPDEST PUSH0 DUP1 REVERT JUMPDEST PUSH2 0x7E PUSH1 0x4 DUP1 CALLDATASIZE SUB DUP2 ADD SWAP1 PUSH2 0x79 SWAP2 SWAP1 PUSH2 0x4FA JUMP JUMPDEST PUSH2 0x138 JUMP JUMPDEST STOP JUMPDEST PUSH2 0x9A PUSH1 0x4 DUP1 CALLDATASIZE SUB DUP2 ADD SWAP1 PUSH2 0x95 SWAP2 SWAP1 PUSH2 0x661 JUMP JUMPDEST PUSH2 0x1E9 JUMP JUMPDEST STOP JUMPDEST PUSH2 0xB6 PUSH1 0x4 DUP1 CALLDATASIZE SUB DUP2 ADD SWAP1 PUSH2 0xB1 SWAP2 SWAP1 PUSH2 0x4FA JUMP JUMPDEST PUSH2 0x25F JUMP JUMPDEST PUSH1 0x40 MLOAD PUSH2 0xC4 SWAP3 SWAP2 SWAP1 PUSH2 0x722 JUMP JUMPDEST PUSH1 0x40 MLOAD DUP1 SWAP2 SUB SWAP1 RETURN JUMPDEST PUSH2 0xD5 PUSH2 0x31F JUMP JUMPDEST PUSH1 0x40 MLOAD PUSH2 0xE2 SWAP2 SWAP1 PUSH2 0x75F JUMP JUMPDEST PUSH1 0x40 MLOAD DUP1 SWAP2 SUB SWAP1 RETURN JUMPDEST PUSH2 0x105 PUSH1 0x4 DUP1 CALLDATASIZE SUB DUP2 ADD SWAP1 PUSH2 0x100 SWAP2 SWAP1 PUSH2 0x778 JUMP JUMPDEST PUSH2 0x32A JUMP JUMPDEST STOP JUMPDEST PUSH2 0x121 PUSH1 0x4 DUP1 CALLDATASIZE SUB DUP2 ADD SWAP1 PUSH2 0x11C SWAP2 SWAP1 PUSH2 0x4FA JUMP JUMPDEST PUSH2 0x3A3 JUMP JUMPDEST PUSH1 0x40 MLOAD PUSH2 0x12F SWAP3 SWAP2 SWAP1 PUSH2 0x722 JUMP JUMPDEST PUSH1 0x40 MLOAD DUP1 SWAP2 SUB SWAP1 RETURN JUMPDEST PUSH0 DUP1 SLOAD SWAP1 POP DUP2 LT PUSH2 0x17E JUMPI PUSH1 0x40 MLOAD PUSH32 0x8C379A000000000000000000000000000000000000000000000000000000000 DUP2 MSTORE PUSH1 0x4 ADD PUSH2 0x175 SWAP1 PUSH2 0x81C JUMP JUMPDEST PUSH1 0x40 MLOAD DUP1 SWAP2 SUB SWAP1 REVERT JUMPDEST PUSH0 DUP2 DUP2 SLOAD DUP2 LT PUSH2 0x191 JUMPI PUSH2 0x190 PUSH2 0x83A JUMP JUMPDEST JUMPDEST SWAP1 PUSH0 MSTORE PUSH1 0x20 PUSH0 KECCAK256 SWAP1 PUSH1 0x2 MUL ADD PUSH1 0x1 ADD PUSH0 SWAP1 SLOAD SWAP1 PUSH2 0x100 EXP SWAP1 DIV PUSH1 0xFF AND ISZERO PUSH0 DUP3 DUP2 SLOAD DUP2 LT PUSH2 0x1C1 JUMPI PUSH2 0x1C0 PUSH2 0x83A JUMP JUMPDEST JUMPDEST SWAP1 PUSH0 MSTORE PUSH1 0x20 PUSH0 KECCAK256 SWAP1 PUSH1 0x2 MUL ADD PUSH1 0x1 ADD PUSH0 PUSH2 0x100 EXP DUP2 SLOAD DUP2 PUSH1 0xFF MUL NOT AND SWAP1 DUP4 ISZERO ISZERO MUL OR SWAP1 SSTORE POP POP JUMP JUMPDEST PUSH0 PUSH1 0x40 MLOAD DUP1 PUSH1 0x40 ADD PUSH1 0x40 MSTORE DUP1 DUP4 DUP2 MSTORE PUSH1 0x20 ADD PUSH0 ISZERO ISZERO DUP2 MSTORE POP SWAP1 DUP1 PUSH1 0x1 DUP2 SLOAD ADD DUP1 DUP3 SSTORE DUP1 SWAP2 POP POP PUSH1 0x1 SWAP1 SUB SWAP1 PUSH0 MSTORE PUSH1 0x20 PUSH0 KECCAK256 SWAP1 PUSH1 0x2 MUL ADD PUSH0 SWAP1 SWAP2 SWAP1 SWAP2 SWAP1 SWAP2 POP PUSH0 DUP3 ADD MLOAD DUP2 PUSH0 ADD SWAP1 DUP2 PUSH2 0x23A SWAP2 SWAP1 PUSH2 0xA61 JUMP JUMPDEST POP PUSH1 0x20 DUP3 ADD MLOAD DUP2 PUSH1 0x1 ADD PUSH0 PUSH2 0x100 EXP DUP2 SLOAD DUP2 PUSH1 0xFF MUL NOT AND SWAP1 DUP4 ISZERO ISZERO MUL OR SWAP1 SSTORE POP POP POP POP JUMP JUMPDEST PUSH0 DUP2 DUP2 SLOAD DUP2 LT PUSH2 0x26D JUMPI PUSH0 DUP1 REVERT JUMPDEST SWAP1 PUSH0 MSTORE PUSH1 0x20 PUSH0 KECCAK256 SWAP1 PUSH1 0x2 MUL ADD PUSH0 SWAP2 POP SWAP1 POP DUP1 PUSH0 ADD DUP1 SLOAD PUSH2 0x28C SWAP1 PUSH2 0x894 JUMP JUMPDEST DUP1 PUSH1 0x1F ADD PUSH1 0x20 DUP1 SWAP2 DIV MUL PUSH1 0x20 ADD PUSH1 0x40 MLOAD SWAP1 DUP2 ADD PUSH1 0x40 MSTORE DUP1 SWAP3 SWAP2 SWAP1 DUP2 DUP2 MSTORE PUSH1 0x20 ADD DUP3 DUP1 SLOAD PUSH2 0x2B8 SWAP1 PUSH2 0x894 JUMP JUMPDEST DUP1 ISZERO PUSH2 0x303 JUMPI DUP1 PUSH1 0x1F LT PUSH2 0x2DA JUMPI PUSH2 0x100 DUP1 DUP4 SLOAD DIV MUL DUP4 MSTORE SWAP2 PUSH1 0x20 ADD SWAP2 PUSH2 0x303 JUMP JUMPDEST DUP3 ADD SWAP2 SWAP1 PUSH0 MSTORE PUSH1 0x20 PUSH0 KECCAK256 SWAP1 JUMPDEST DUP2 SLOAD DUP2 MSTORE SWAP1 PUSH1 0x1 ADD SWAP1 PUSH1 0x20 ADD DUP1 DUP4 GT PUSH2 0x2E6 JUMPI DUP3 SWAP1 SUB PUSH1 0x1F AND DUP3 ADD SWAP2 JUMPDEST POP POP POP POP POP SWAP1 DUP1 PUSH1 0x1 ADD PUSH0 SWAP1 SLOAD SWAP1 PUSH2 0x100 EXP SWAP1 DIV PUSH1 0xFF AND SWAP1 POP DUP3 JUMP JUMPDEST PUSH0 DUP1 DUP1 SLOAD SWAP1 POP SWAP1 POP SWAP1 JUMP JUMPDEST PUSH0 DUP1 SLOAD SWAP1 POP DUP3 LT PUSH2 0x370 JUMPI PUSH1 0x40 MLOAD PUSH32 0x8C379A000000000000000000000000000000000000000000000000000000000 DUP2 MSTORE PUSH1 0x4 ADD PUSH2 0x367 SWAP1 PUSH2 0x81C JUMP JUMPDEST PUSH1 0x40 MLOAD DUP1 SWAP2 SUB SWAP1 REVERT JUMPDEST DUP1 PUSH0 DUP4 DUP2 SLOAD DUP2 LT PUSH2 0x384 JUMPI PUSH2 0x383 PUSH2 0x83A JUMP JUMPDEST JUMPDEST SWAP1 PUSH0 MSTORE PUSH1 0x20 PUSH0 KECCAK256 SWAP1 PUSH1 0x2 MUL ADD PUSH0 ADD SWAP1 DUP2 PUSH2 0x39E SWAP2 SWAP1 PUSH2 0xA61 JUMP JUMPDEST POP POP POP JUMP JUMPDEST PUSH1 0x60 PUSH0 DUP1 DUP1 SLOAD SWAP1 POP DUP4 LT PUSH2 0x3EC JUMPI PUSH1 0x40 MLOAD PUSH32 0x8C379A000000000000000000000000000000000000000000000000000000000 DUP2 MSTORE PUSH1 0x4 ADD PUSH2 0x3E3 SWAP1 PUSH2 0x81C JUMP JUMPDEST PUSH1 0x40 MLOAD DUP1 SWAP2 SUB SWAP1 REVERT JUMPDEST PUSH0 DUP1 DUP5 DUP2 SLOAD DUP2 LT PUSH2 0x400 JUMPI PUSH2 0x3FF PUSH2 0x83A JUMP JUMPDEST JUMPDEST SWAP1 PUSH0 MSTORE PUSH1 0x20 PUSH0 KECCAK256 SWAP1 PUSH1 0x2 MUL ADD SWAP1 POP DUP1 PUSH0 ADD DUP2 PUSH1 0x1 ADD PUSH0 SWAP1 SLOAD SWAP1 PUSH2 0x100 EXP SWAP1 DIV PUSH1 0xFF AND DUP2 DUP1 SLOAD PUSH2 0x42E SWAP1 PUSH2 0x894 JUMP JUMPDEST DUP1 PUSH1 0x1F ADD PUSH1 0x20 DUP1 SWAP2 DIV MUL PUSH1 0x20 ADD PUSH1 0x40 MLOAD SWAP1 DUP2 ADD PUSH1 0x40 MSTORE DUP1 SWAP3 SWAP2 SWAP1 DUP2 DUP2 MSTORE PUSH1 0x20 ADD DUP3 DUP1 SLOAD PUSH2 0x45A SWAP1 PUSH2 0x894 JUMP JUMPDEST DUP1 ISZERO PUSH2 0x4A5 JUMPI DUP1 PUSH1 0x1F LT PUSH2 0x47C JUMPI PUSH2 0x100 DUP1 DUP4 SLOAD DIV MUL DUP4 MSTORE SWAP2 PUSH1 0x20 ADD SWAP2 PUSH2 0x4A5 JUMP JUMPDEST DUP3 ADD SWAP2 SWAP1 PUSH0 MSTORE PUSH1 0x20 PUSH0 KECCAK256 SWAP1 JUMPDEST DUP2 SLOAD DUP2 MSTORE SWAP1 PUSH1 0x1 ADD SWAP1 PUSH1 0x20 ADD DUP1 DUP4 GT PUSH2 0x488 JUMPI DUP3 SWAP1 SUB PUSH1 0x1F AND DUP3 ADD SWAP2 JUMPDEST POP POP POP POP POP SWAP2 POP SWAP3 POP SWAP3 POP POP SWAP2 POP SWAP2 JUMP JUMPDEST PUSH0 PUSH1 0x40 MLOAD SWAP1 POP SWAP1 JUMP JUMPDEST PUSH0 DUP1 REVERT JUMPDEST PUSH0 DUP1 REVERT JUMPDEST PUSH0 DUP2 SWAP1 POP SWAP2 SWAP1 POP JUMP JUMPDEST PUSH2 0x4D9 DUP2 PUSH2 0x4C7 JUMP JUMPDEST DUP2 EQ PUSH2 0x4E3 JUMPI PUSH0 DUP1 REVERT JUMPDEST POP JUMP JUMPDEST PUSH0 DUP2 CALLDATALOAD SWAP1 POP PUSH2 0x4F4 DUP2 PUSH2 0x4D0 JUMP JUMPDEST SWAP3 SWAP2 POP POP JUMP JUMPDEST PUSH0 PUSH1 0x20 DUP3 DUP5 SUB SLT ISZERO PUSH2 0x50F JUMPI PUSH2 0x50E PUSH2 0x4BF JUMP JUMPDEST JUMPDEST PUSH0 PUSH2 0x51C DUP5 DUP3 DUP6 ADD PUSH2 0x4E6 JUMP JUMPDEST SWAP2 POP POP SWAP3 SWAP2 POP POP JUMP JUMPDEST PUSH0 DUP1 REVERT JUMPDEST PUSH0 DUP1 REVERT JUMPDEST PUSH0 PUSH1 0x1F NOT PUSH1 0x1F DUP4 ADD AND SWAP1 POP SWAP2 SWAP1 POP JUMP JUMPDEST PUSH32 0x4E487B7100000000000000000000000000000000000000000000000000000000 PUSH0 MSTORE PUSH1 0x41 PUSH1 0x4 MSTORE PUSH1 0x24 PUSH0 REVERT JUMPDEST PUSH2 0x573 DUP3 PUSH2 0x52D JUMP JUMPDEST DUP2 ADD DUP2 DUP2 LT PUSH8 0xFFFFFFFFFFFFFFFF DUP3 GT OR ISZERO PUSH2 0x592 JUMPI PUSH2 0x591 PUSH2 0x53D JUMP JUMPDEST JUMPDEST DUP1 PUSH1 0x40 MSTORE POP POP POP JUMP JUMPDEST PUSH0 PUSH2 0x5A4 PUSH2 0x4B6 JUMP JUMPDEST SWAP1 POP PUSH2 0x5B0 DUP3 DUP3 PUSH2 0x56A JUMP JUMPDEST SWAP2 SWAP1 POP JUMP JUMPDEST PUSH0 PUSH8 0xFFFFFFFFFFFFFFFF DUP3 GT ISZERO PUSH2 0x5CF JUMPI PUSH2 0x5CE PUSH2 0x53D JUMP JUMPDEST JUMPDEST PUSH2 0x5D8 DUP3 PUSH2 0x52D JUMP JUMPDEST SWAP1 POP PUSH1 0x20 DUP2 ADD SWAP1 POP SWAP2 SWAP1 POP JUMP JUMPDEST DUP3 DUP2 DUP4 CALLDATACOPY PUSH0 DUP4 DUP4 ADD MSTORE POP POP POP JUMP JUMPDEST PUSH0 PUSH2 0x605 PUSH2 0x600 DUP5 PUSH2 0x5B5 JUMP JUMPDEST PUSH2 0x59B JUMP JUMPDEST SWAP1 POP DUP3 DUP2 MSTORE PUSH1 0x20 DUP2 ADD DUP5 DUP5 DUP5 ADD GT ISZERO PUSH2 0x621 JUMPI PUSH2 0x620 PUSH2 0x529 JUMP JUMPDEST JUMPDEST PUSH2 0x62C DUP5 DUP3 DUP6 PUSH2 0x5E5 JUMP JUMPDEST POP SWAP4 SWAP3 POP POP POP JUMP JUMPDEST PUSH0 DUP3 PUSH1 0x1F DUP4 ADD SLT PUSH2 0x648 JUMPI PUSH2 0x647 PUSH2 0x525 JUMP JUMPDEST JUMPDEST DUP2 CALLDATALOAD PUSH2 0x658 DUP5 DUP3 PUSH1 0x20 DUP7 ADD PUSH2 0x5F3 JUMP JUMPDEST SWAP2 POP POP SWAP3 SWAP2 POP POP JUMP JUMPDEST PUSH0 PUSH1 0x20 DUP3 DUP5 SUB SLT ISZERO PUSH2 0x676 JUMPI PUSH2 0x675 PUSH2 0x4BF JUMP JUMPDEST JUMPDEST PUSH0 DUP3 ADD CALLDATALOAD PUSH8 0xFFFFFFFFFFFFFFFF DUP2 GT ISZERO PUSH2 0x693 JUMPI PUSH2 0x692 PUSH2 0x4C3 JUMP JUMPDEST JUMPDEST PUSH2 0x69F DUP5 DUP3 DUP6 ADD PUSH2 0x634 JUMP JUMPDEST SWAP2 POP POP SWAP3 SWAP2 POP POP JUMP JUMPDEST PUSH0 DUP2 MLOAD SWAP1 POP SWAP2 SWAP1 POP JUMP JUMPDEST PUSH0 DUP3 DUP3 MSTORE PUSH1 0x20 DUP3 ADD SWAP1 POP SWAP3 SWAP2 POP POP JUMP JUMPDEST DUP3 DUP2 DUP4 MCOPY PUSH0 DUP4 DUP4 ADD MSTORE POP POP POP JUMP JUMPDEST PUSH0 PUSH2 0x6DA DUP3 PUSH2 0x6A8 JUMP JUMPDEST PUSH2 0x6E4 DUP2 DUP6 PUSH2 0x6B2 JUMP JUMPDEST SWAP4 POP PUSH2 0x6F4 DUP2 DUP6 PUSH1 0x20 DUP7 ADD PUSH2 0x6C2 JUMP JUMPDEST PUSH2 0x6FD DUP2 PUSH2 0x52D JUMP JUMPDEST DUP5 ADD SWAP2 POP POP SWAP3 SWAP2 POP POP JUMP JUMPDEST PUSH0 DUP2 ISZERO ISZERO SWAP1 POP SWAP2 SWAP1 POP JUMP JUMPDEST PUSH2 0x71C DUP2 PUSH2 0x708 JUMP JUMPDEST DUP3 MSTORE POP POP JUMP JUMPDEST PUSH0 PUSH1 0x40 DUP3 ADD SWAP1 POP DUP2 DUP2 SUB PUSH0 DUP4 ADD MSTORE PUSH2 0x73A DUP2 DUP6 PUSH2 0x6D0 JUMP JUMPDEST SWAP1 POP PUSH2 0x749 PUSH1 0x20 DUP4 ADD DUP5 PUSH2 0x713 JUMP JUMPDEST SWAP4 SWAP3 POP POP POP JUMP JUMPDEST PUSH2 0x759 DUP2 PUSH2 0x4C7 JUMP JUMPDEST DUP3 MSTORE POP POP JUMP JUMPDEST PUSH0 PUSH1 0x20 DUP3 ADD SWAP1 POP PUSH2 0x772 PUSH0 DUP4 ADD DUP5 PUSH2 0x750 JUMP JUMPDEST SWAP3 SWAP2 POP POP JUMP JUMPDEST PUSH0 DUP1 PUSH1 0x40 DUP4 DUP6 SUB SLT ISZERO PUSH2 0x78E JUMPI PUSH2 0x78D PUSH2 0x4BF JUMP JUMPDEST JUMPDEST PUSH0 PUSH2 0x79B DUP6 DUP3 DUP7 ADD PUSH2 0x4E6 JUMP JUMPDEST SWAP3 POP POP PUSH1 0x20 DUP4 ADD CALLDATALOAD PUSH8 0xFFFFFFFFFFFFFFFF DUP2 GT ISZERO PUSH2 0x7BC JUMPI PUSH2 0x7BB PUSH2 0x4C3 JUMP JUMPDEST JUMPDEST PUSH2 0x7C8 DUP6 DUP3 DUP7 ADD PUSH2 0x634 JUMP JUMPDEST SWAP2 POP POP SWAP3 POP SWAP3 SWAP1 POP JUMP JUMPDEST PUSH32 0x496E76616C696420696E64657800000000000000000000000000000000000000 PUSH0 DUP3 ADD MSTORE POP JUMP JUMPDEST PUSH0 PUSH2 0x806 PUSH1 0xD DUP4 PUSH2 0x6B2 JUMP JUMPDEST SWAP2 POP PUSH2 0x811 DUP3 PUSH2 0x7D2 JUMP JUMPDEST PUSH1 0x20 DUP3 ADD SWAP1 POP SWAP2 SWAP1 POP JUMP JUMPDEST PUSH0 PUSH1 0x20 DUP3 ADD SWAP1 POP DUP2 DUP2 SUB PUSH0 DUP4 ADD MSTORE PUSH2 0x833 DUP2 PUSH2 0x7FA JUMP JUMPDEST SWAP1 POP SWAP2 SWAP1 POP JUMP JUMPDEST PUSH32 0x4E487B7100000000000000000000000000000000000000000000000000000000 PUSH0 MSTORE PUSH1 0x32 PUSH1 0x4 MSTORE PUSH1 0x24 PUSH0 REVERT JUMPDEST PUSH32 0x4E487B7100000000000000000000000000000000000000000000000000000000 PUSH0 MSTORE PUSH1 0x22 PUSH1 0x4 MSTORE PUSH1 0x24 PUSH0 REVERT JUMPDEST PUSH0 PUSH1 0x2 DUP3 DIV SWAP1 POP PUSH1 0x1 DUP3 AND DUP1 PUSH2 0x8AB JUMPI PUSH1 0x7F DUP3 AND SWAP2 POP JUMPDEST PUSH1 0x20 DUP3 LT DUP2 SUB PUSH2 0x8BE JUMPI PUSH2 0x8BD PUSH2 0x867 JUMP JUMPDEST JUMPDEST POP SWAP2 SWAP1 POP JUMP JUMPDEST PUSH0 DUP2 SWAP1 POP DUP2 PUSH0 MSTORE PUSH1 0x20 PUSH0 KECCAK256 SWAP1 POP SWAP2 SWAP1 POP JUMP JUMPDEST PUSH0 PUSH1 0x20 PUSH1 0x1F DUP4 ADD DIV SWAP1 POP SWAP2 SWAP1 POP JUMP JUMPDEST PUSH0 DUP3 DUP3 SHL SWAP1 POP SWAP3 SWAP2 POP POP JUMP JUMPDEST PUSH0 PUSH1 0x8 DUP4 MUL PUSH2 0x920 PUSH32 0xFFFFFFFFFFFFFFFFFFFFFFFFFFFFFFFFFFFFFFFFFFFFFFFFFFFFFFFFFFFFFFFF DUP3 PUSH2 0x8E5 JUMP JUMPDEST PUSH2 0x92A DUP7 DUP4 PUSH2 0x8E5 JUMP JUMPDEST SWAP6 POP DUP1 NOT DUP5 AND SWAP4 POP DUP1 DUP7 AND DUP5 OR SWAP3 POP POP POP SWAP4 SWAP3 POP POP POP JUMP JUMPDEST PUSH0 DUP2 SWAP1 POP SWAP2 SWAP1 POP JUMP JUMPDEST PUSH0 PUSH2 0x965 PUSH2 0x960 PUSH2 0x95B DUP5 PUSH2 0x4C7 JUMP JUMPDEST PUSH2 0x942 JUMP JUMPDEST PUSH2 0x4C7 JUMP JUMPDEST SWAP1 POP SWAP2 SWAP1 POP JUMP JUMPDEST PUSH0 DUP2 SWAP1 POP SWAP2 SWAP1 POP JUMP JUMPDEST PUSH2 0x97E DUP4 PUSH2 0x94B JUMP JUMPDEST PUSH2 0x992 PUSH2 0x98A DUP3 PUSH2 0x96C JUMP JUMPDEST DUP5 DUP5 SLOAD PUSH2 0x8F1 JUMP JUMPDEST DUP3 SSTORE POP POP POP POP JUMP JUMPDEST PUSH0 SWAP1 JUMP JUMPDEST PUSH2 0x9A6 PUSH2 0x99A JUMP JUMPDEST PUSH2 0x9B1 DUP2 DUP5 DUP5 PUSH2 0x975 JUMP JUMPDEST POP POP POP JUMP JUMPDEST JUMPDEST DUP2 DUP2 LT ISZERO PUSH2 0x9D4 JUMPI PUSH2 0x9C9 PUSH0 DUP3 PUSH2 0x99E JUMP JUMPDEST PUSH1 0x1 DUP2 ADD SWAP1 POP PUSH2 0x9B7 JUMP JUMPDEST POP POP JUMP JUMPDEST PUSH1 0x1F DUP3 GT ISZERO PUSH2 0xA19 JUMPI PUSH2 0x9EA DUP2 PUSH2 0x8C4 JUMP JUMPDEST PUSH2 0x9F3 DUP5 PUSH2 0x8D6 JUMP JUMPDEST DUP2 ADD PUSH1 0x20 DUP6 LT ISZERO PUSH2 0xA02 JUMPI DUP2 SWAP1 POP JUMPDEST PUSH2 0xA16 PUSH2 0xA0E DUP6 PUSH2 0x8D6 JUMP JUMPDEST DUP4 ADD DUP3 PUSH2 0x9B6 JUMP JUMPDEST POP POP JUMPDEST POP POP POP JUMP JUMPDEST PUSH0 DUP3 DUP3 SHR SWAP1 POP SWAP3 SWAP2 POP POP JUMP JUMPDEST PUSH0 PUSH2 0xA39 PUSH0 NOT DUP5 PUSH1 0x8 MUL PUSH2 0xA1E JUMP JUMPDEST NOT DUP1 DUP4 AND SWAP2 POP POP SWAP3 SWAP2 POP POP JUMP JUMPDEST PUSH0 PUSH2 0xA51 DUP4 DUP4 PUSH2 0xA2A JUMP JUMPDEST SWAP2 POP DUP3 PUSH1 0x2 MUL DUP3 OR SWAP1 POP SWAP3 SWAP2 POP POP JUMP JUMPDEST PUSH2 0xA6A DUP3 PUSH2 0x6A8 JUMP JUMPDEST PUSH8 0xFFFFFFFFFFFFFFFF DUP2 GT ISZERO PUSH2 0xA83 JUMPI PUSH2 0xA82 PUSH2 0x53D JUMP JUMPDEST JUMPDEST PUSH2 0xA8D DUP3 SLOAD PUSH2 0x894 JUMP JUMPDEST PUSH2 0xA98 DUP3 DUP3 DUP6 PUSH2 0x9D8 JUMP JUMPDEST PUSH0 PUSH1 0x20 SWAP1 POP PUSH1 0x1F DUP4 GT PUSH1 0x1 DUP2 EQ PUSH2 0xAC9 JUMPI PUSH0 DUP5 ISZERO PUSH2 0xAB7 JUMPI DUP3 DUP8 ADD MLOAD SWAP1 POP JUMPDEST PUSH2 0xAC1 DUP6 DUP3 PUSH2 0xA46 JUMP JUMPDEST DUP7 SSTORE POP PUSH2 0xB28 JUMP JUMPDEST PUSH1 0x1F NOT DUP5 AND PUSH2 0xAD7 DUP7 PUSH2 0x8C4 JUMP JUMPDEST PUSH0 JUMPDEST DUP3 DUP2 LT ISZERO PUSH2 0xAFE JUMPI DUP5 DUP10 ADD MLOAD DUP3 SSTORE PUSH1 0x1 DUP3 ADD SWAP2 POP PUSH1 0x20 DUP6 ADD SWAP5 POP PUSH1 0x20 DUP2 ADD SWAP1 POP PUSH2 0xAD9 JUMP JUMPDEST DUP7 DUP4 LT ISZERO PUSH2 0xB1B JUMPI DUP5 DUP10 ADD MLOAD PUSH2 0xB17 PUSH1 0x1F DUP10 AND DUP3 PUSH2 0xA2A JUMP JUMPDEST DUP4 SSTORE POP JUMPDEST PUSH1 0x1 PUSH1 0x2 DUP9 MUL ADD DUP9 SSTORE POP POP POP JUMPDEST POP POP POP POP POP POP JUMP INVALID LOG2 PUSH5 0x6970667358 0x22 SLT KECCAK256 JUMP PUSH8 0x30E54EB3A79C946D DUP2 CALLDATACOPY EXTCODEHASH 0xEC EXP 0xDA 0xE 0xDF GAS 0xBB PUSH25 0x98B70606B66537DB7E614E64736F6C634300081A0033000000 "
		},
		"gasEstimates": {
			"creation": {
				"codeDepositCost": "583600",
				"executionCost": "617",
				"totalCost": "584217"
			},
			"external": {
				"create(string)": "infinite",
				"getToDo(uint256)": "infinite",
				"getTodosCount()": "2484",
				"todos(uint256)": "infinite",
				"toggleCompleted(uint256)": "33301",
				"updateText(uint256,string)": "infinite"
			}
		},
		"methodIdentifiers": {
			"create(string)": "b6a46b3b",
			"getToDo(uint256)": "d1323ed0",
			"getTodosCount()": "bd991954",
			"todos(uint256)": "bc8bc2b4",
			"toggleCompleted(uint256)": "455f5024",
			"updateText(uint256,string)": "cd111614"
		}
	},
	"abi": [
		{
			"inputs": [
				{
					"internalType": "string",
					"name": "_text",
					"type": "string"
				}
			],
			"name": "create",
			"outputs": [],
			"stateMutability": "nonpayable",
			"type": "function"
		},
		{
			"inputs": [
				{
					"internalType": "uint256",
					"name": "index",
					"type": "uint256"
				}
			],
			"name": "getToDo",
			"outputs": [
				{
					"internalType": "string",
					"name": "",
					"type": "string"
				},
				{
					"internalType": "bool",
					"name": "",
					"type": "bool"
				}
			],
			"stateMutability": "view",
			"type": "function"
		},
		{
			"inputs": [],
			"name": "getTodosCount",
			"outputs": [
				{
					"internalType": "uint256",
					"name": "",
					"type": "uint256"
				}
			],
			"stateMutability": "view",
			"type": "function"
		},
		{
			"inputs": [
				{
					"internalType": "uint256",
					"name": "",
					"type": "uint256"
				}
			],
			"name": "todos",
			"outputs": [
				{
					"internalType": "string",
					"name": "text",
					"type": "string"
				},
				{
					"internalType": "bool",
					"name": "completed",
					"type": "bool"
				}
			],
			"stateMutability": "view",
			"type": "function"
		},
		{
			"inputs": [
				{
					"internalType": "uint256",
					"name": "index",
					"type": "uint256"
				}
			],
			"name": "toggleCompleted",
			"outputs": [],
			"stateMutability": "nonpayable",
			"type": "function"
		},
		{
			"inputs": [
				{
					"internalType": "uint256",
					"name": "index",
					"type": "uint256"
				},
				{
					"internalType": "string",
					"name": "_newText",
					"type": "string"
				}
			],
			"name": "updateText",
			"outputs": [],
			"stateMutability": "nonpayable",
			"type": "function"
		}
	]
}