{
	"poke/FunctionOutputs.sol": {
		"FunctionOutputs": {
			"abi": [
				{
					"inputs": [],
					"name": "assigned",
					"outputs": [
						{
							"internalType": "uint256",
							"name": "x",
							"type": "uint256"
						},
						{
							"internalType": "bool",
							"name": "b",
							"type": "bool"
						}
					],
					"stateMutability": "pure",
					"type": "function"
				},
				{
					"inputs": [],
					"name": "captureOutputs",
					"outputs": [],
					"stateMutability": "pure",
					"type": "function"
				},
				{
					"inputs": [],
					"name": "destructingAssigments",
					"outputs": [],
					"stateMutability": "pure",
					"type": "function"
				},
				{
					"inputs": [],
					"name": "displayOutputs",
					"outputs": [
						{
							"internalType": "uint256",
							"name": "",
							"type": "uint256"
						},
						{
							"internalType": "bool",
							"name": "",
							"type": "bool"
						},
						{
							"internalType": "string",
							"name": "",
							"type": "string"
						}
					],
					"stateMutability": "pure",
					"type": "function"
				},
				{
					"inputs": [],
					"name": "named",
					"outputs": [
						{
							"internalType": "uint256",
							"name": "x",
							"type": "uint256"
						},
						{
							"internalType": "bool",
							"name": "b",
							"type": "bool"
						}
					],
					"stateMutability": "pure",
					"type": "function"
				},
				{
					"inputs": [],
					"name": "returnMany",
					"outputs": [
						{
							"internalType": "uint256",
							"name": "",
							"type": "uint256"
						},
						{
							"internalType": "bool",
							"name": "",
							"type": "bool"
						}
					],
					"stateMutability": "pure",
					"type": "function"
				},
				{
					"inputs": [],
					"name": "returnMultiple",
					"outputs": [
						{
							"internalType": "uint256",
							"name": "x",
							"type": "uint256"
						},
						{
							"internalType": "bool",
							"name": "y",
							"type": "bool"
						},
						{
							"internalType": "string",
							"name": "z",
							"type": "string"
						}
					],
					"stateMutability": "pure",
					"type": "function"
				}
			],
			"devdoc": {
				"kind": "dev",
				"methods": {},
				"version": 1
			},
			"evm": {
				"assembly": "    /* \"poke/FunctionOutputs.sol\":57:1033  contract FunctionOutputs {... */\n  mstore(0x40, 0x80)\n  callvalue\n  dup1\n  iszero\n  tag_1\n  jumpi\n  0x00\n  dup1\n  revert\ntag_1:\n  pop\n  dataSize(sub_0)\n  dup1\n  dataOffset(sub_0)\n  0x00\n  codecopy\n  0x00\n  return\nstop\n\nsub_0: assembly {\n        /* \"poke/FunctionOutputs.sol\":57:1033  contract FunctionOutputs {... */\n      mstore(0x40, 0x80)\n      callvalue\n      dup1\n      iszero\n      tag_1\n      jumpi\n      0x00\n      dup1\n      revert\n    tag_1:\n      pop\n      jumpi(tag_2, lt(calldatasize, 0x04))\n      shr(0xe0, calldataload(0x00))\n      dup1\n      0x64f13521\n      gt\n      tag_10\n      jumpi\n      dup1\n      0x64f13521\n      eq\n      tag_6\n      jumpi\n      dup1\n      0x86887544\n      eq\n      tag_7\n      jumpi\n      dup1\n      0xadb4d990\n      eq\n      tag_8\n      jumpi\n      dup1\n      0xe61e4008\n      eq\n      tag_9\n      jumpi\n      jump(tag_2)\n    tag_10:\n      dup1\n      0x26a89e04\n      eq\n      tag_3\n      jumpi\n      dup1\n      0x45f907a8\n      eq\n      tag_4\n      jumpi\n      dup1\n      0x53a6aadb\n      eq\n      tag_5\n      jumpi\n    tag_2:\n      0x00\n      dup1\n      revert\n        /* \"poke/FunctionOutputs.sol\":747:855  function captureOutputs() public pure {... */\n    tag_3:\n      tag_11\n      tag_12\n      jump\t// in\n    tag_11:\n      stop\n        /* \"poke/FunctionOutputs.sol\":180:266  function named() public pure returns (uint x,bool b) {... */\n    tag_4:\n      tag_13\n      tag_14\n      jump\t// in\n    tag_13:\n      mload(0x40)\n      tag_15\n      swap3\n      swap2\n      swap1\n      tag_16\n      jump\t// in\n    tag_15:\n      mload(0x40)\n      dup1\n      swap2\n      sub\n      swap1\n      return\n        /* \"poke/FunctionOutputs.sol\":411:589  function destructingAssigments() public pure {... */\n    tag_5:\n      tag_17\n      tag_18\n      jump\t// in\n    tag_17:\n      stop\n        /* \"poke/FunctionOutputs.sol\":860:1030  function displayOutputs() public pure returns(uint,bool,string memory){... */\n    tag_6:\n      tag_19\n      tag_20\n      jump\t// in\n    tag_19:\n      mload(0x40)\n      tag_21\n      swap4\n      swap3\n      swap2\n      swap1\n      tag_22\n      jump\t// in\n    tag_21:\n      mload(0x40)\n      dup1\n      swap2\n      sub\n      swap1\n      return\n        /* \"poke/FunctionOutputs.sol\":88:175  function returnMany() public pure returns (uint,bool) {... */\n    tag_7:\n      tag_23\n      tag_24\n      jump\t// in\n    tag_23:\n      mload(0x40)\n      tag_25\n      swap3\n      swap2\n      swap1\n      tag_16\n      jump\t// in\n    tag_25:\n      mload(0x40)\n      dup1\n      swap2\n      sub\n      swap1\n      return\n        /* \"poke/FunctionOutputs.sol\":271:400  function assigned() public pure returns (uint x,bool b) {... */\n    tag_8:\n      tag_26\n      tag_27\n      jump\t// in\n    tag_26:\n      mload(0x40)\n      tag_28\n      swap3\n      swap2\n      swap1\n      tag_16\n      jump\t// in\n    tag_28:\n      mload(0x40)\n      dup1\n      swap2\n      sub\n      swap1\n      return\n        /* \"poke/FunctionOutputs.sol\":595:741  function returnMultiple() public pure  returns (uint x,bool y,string memory z) {... */\n    tag_9:\n      tag_29\n      tag_30\n      jump\t// in\n    tag_29:\n      mload(0x40)\n      tag_31\n      swap4\n      swap3\n      swap2\n      swap1\n      tag_22\n      jump\t// in\n    tag_31:\n      mload(0x40)\n      dup1\n      swap2\n      sub\n      swap1\n      return\n        /* \"poke/FunctionOutputs.sol\":747:855  function captureOutputs() public pure {... */\n    tag_12:\n        /* \"poke/FunctionOutputs.sol\":795:802  uint x1 */\n      0x00\n        /* \"poke/FunctionOutputs.sol\":803:810  bool y1 */\n      dup1\n        /* \"poke/FunctionOutputs.sol\":811:827  string memory z1 */\n      0x00\n        /* \"poke/FunctionOutputs.sol\":831:847  returnMultiple() */\n      tag_33\n        /* \"poke/FunctionOutputs.sol\":831:845  returnMultiple */\n      tag_30\n        /* \"poke/FunctionOutputs.sol\":831:847  returnMultiple() */\n      jump\t// in\n    tag_33:\n        /* \"poke/FunctionOutputs.sol\":794:847  (uint x1,bool y1,string memory z1) = returnMultiple() */\n      swap3\n      pop\n      swap3\n      pop\n      swap3\n      pop\n        /* \"poke/FunctionOutputs.sol\":785:855  {... */\n      pop\n      pop\n      pop\n        /* \"poke/FunctionOutputs.sol\":747:855  function captureOutputs() public pure {... */\n      jump\t// out\n        /* \"poke/FunctionOutputs.sol\":180:266  function named() public pure returns (uint x,bool b) {... */\n    tag_14:\n        /* \"poke/FunctionOutputs.sol\":218:224  uint x */\n      0x00\n        /* \"poke/FunctionOutputs.sol\":225:231  bool b */\n      dup1\n        /* \"poke/FunctionOutputs.sol\":252:253  1 */\n      0x01\n        /* \"poke/FunctionOutputs.sol\":254:258  true */\n      dup1\n        /* \"poke/FunctionOutputs.sol\":244:259  return (1,true) */\n      swap2\n      pop\n      swap2\n      pop\n        /* \"poke/FunctionOutputs.sol\":180:266  function named() public pure returns (uint x,bool b) {... */\n      swap1\n      swap2\n      jump\t// out\n        /* \"poke/FunctionOutputs.sol\":411:589  function destructingAssigments() public pure {... */\n    tag_18:\n        /* \"poke/FunctionOutputs.sol\":467:473  uint x */\n      0x00\n        /* \"poke/FunctionOutputs.sol\":474:480  bool b */\n      dup1\n        /* \"poke/FunctionOutputs.sol\":485:497  returnMany() */\n      tag_36\n        /* \"poke/FunctionOutputs.sol\":485:495  returnMany */\n      tag_24\n        /* \"poke/FunctionOutputs.sol\":485:497  returnMany() */\n      jump\t// in\n    tag_36:\n        /* \"poke/FunctionOutputs.sol\":466:497  (uint x,bool b) =  returnMany() */\n      swap2\n      pop\n      swap2\n      pop\n        /* \"poke/FunctionOutputs.sol\":509:516  bool _b */\n      0x00\n        /* \"poke/FunctionOutputs.sol\":521:533  returnMany() */\n      tag_37\n        /* \"poke/FunctionOutputs.sol\":521:531  returnMany */\n      tag_24\n        /* \"poke/FunctionOutputs.sol\":521:533  returnMany() */\n      jump\t// in\n    tag_37:\n        /* \"poke/FunctionOutputs.sol\":507:533  (,bool _b) =  returnMany() */\n      swap2\n      pop\n      pop\n        /* \"poke/FunctionOutputs.sol\":456:589  {... */\n      pop\n      pop\n      pop\n        /* \"poke/FunctionOutputs.sol\":411:589  function destructingAssigments() public pure {... */\n      jump\t// out\n        /* \"poke/FunctionOutputs.sol\":860:1030  function displayOutputs() public pure returns(uint,bool,string memory){... */\n    tag_20:\n        /* \"poke/FunctionOutputs.sol\":906:910  uint */\n      0x00\n        /* \"poke/FunctionOutputs.sol\":911:915  bool */\n      dup1\n        /* \"poke/FunctionOutputs.sol\":916:929  string memory */\n      0x60\n        /* \"poke/FunctionOutputs.sol\":942:949  uint x1 */\n      0x00\n        /* \"poke/FunctionOutputs.sol\":950:957  bool y1 */\n      dup1\n        /* \"poke/FunctionOutputs.sol\":958:974  string memory z1 */\n      0x00\n        /* \"poke/FunctionOutputs.sol\":978:994  returnMultiple() */\n      tag_39\n        /* \"poke/FunctionOutputs.sol\":978:992  returnMultiple */\n      tag_30\n        /* \"poke/FunctionOutputs.sol\":978:994  returnMultiple() */\n      jump\t// in\n    tag_39:\n        /* \"poke/FunctionOutputs.sol\":941:994  (uint x1,bool y1,string memory z1) = returnMultiple() */\n      swap3\n      pop\n      swap3\n      pop\n      swap3\n      pop\n        /* \"poke/FunctionOutputs.sol\":1014:1016  x1 */\n      dup3\n        /* \"poke/FunctionOutputs.sol\":1017:1019  y1 */\n      dup3\n        /* \"poke/FunctionOutputs.sol\":1020:1022  z1 */\n      dup3\n        /* \"poke/FunctionOutputs.sol\":1006:1023  return (x1,y1,z1) */\n      swap6\n      pop\n      swap6\n      pop\n      swap6\n      pop\n      pop\n      pop\n      pop\n        /* \"poke/FunctionOutputs.sol\":860:1030  function displayOutputs() public pure returns(uint,bool,string memory){... */\n      swap1\n      swap2\n      swap3\n      jump\t// out\n        /* \"poke/FunctionOutputs.sol\":88:175  function returnMany() public pure returns (uint,bool) {... */\n    tag_24:\n        /* \"poke/FunctionOutputs.sol\":131:135  uint */\n      0x00\n        /* \"poke/FunctionOutputs.sol\":136:140  bool */\n      dup1\n        /* \"poke/FunctionOutputs.sol\":161:162  1 */\n      0x01\n        /* \"poke/FunctionOutputs.sol\":163:167  true */\n      dup1\n        /* \"poke/FunctionOutputs.sol\":153:168  return (1,true) */\n      swap2\n      pop\n      swap2\n      pop\n        /* \"poke/FunctionOutputs.sol\":88:175  function returnMany() public pure returns (uint,bool) {... */\n      swap1\n      swap2\n      jump\t// out\n        /* \"poke/FunctionOutputs.sol\":271:400  function assigned() public pure returns (uint x,bool b) {... */\n    tag_27:\n        /* \"poke/FunctionOutputs.sol\":312:318  uint x */\n      0x00\n        /* \"poke/FunctionOutputs.sol\":319:325  bool b */\n      dup1\n        /* \"poke/FunctionOutputs.sol\":370:371  1 */\n      0x01\n        /* \"poke/FunctionOutputs.sol\":366:371  x = 1 */\n      swap2\n      pop\n        /* \"poke/FunctionOutputs.sol\":385:389  true */\n      0x01\n        /* \"poke/FunctionOutputs.sol\":381:389  b = true */\n      swap1\n      pop\n        /* \"poke/FunctionOutputs.sol\":271:400  function assigned() public pure returns (uint x,bool b) {... */\n      swap1\n      swap2\n      jump\t// out\n        /* \"poke/FunctionOutputs.sol\":595:741  function returnMultiple() public pure  returns (uint x,bool y,string memory z) {... */\n    tag_30:\n        /* \"poke/FunctionOutputs.sol\":643:649  uint x */\n      0x00\n        /* \"poke/FunctionOutputs.sol\":650:656  bool y */\n      dup1\n        /* \"poke/FunctionOutputs.sol\":657:672  string memory z */\n      0x60\n        /* \"poke/FunctionOutputs.sol\":688:689  1 */\n      0x01\n        /* \"poke/FunctionOutputs.sol\":684:689  x = 1 */\n      swap3\n      pop\n        /* \"poke/FunctionOutputs.sol\":703:707  true */\n      0x01\n        /* \"poke/FunctionOutputs.sol\":699:707  y = true */\n      swap2\n      pop\n        /* \"poke/FunctionOutputs.sol\":717:734  z = \"hello world\" */\n      mload(0x40)\n      dup1\n      0x40\n      add\n      0x40\n      mstore\n      dup1\n      0x0b\n      dup2\n      mstore\n      0x20\n      add\n      0x68656c6c6f20776f726c64000000000000000000000000000000000000000000\n      dup2\n      mstore\n      pop\n      swap1\n      pop\n        /* \"poke/FunctionOutputs.sol\":595:741  function returnMultiple() public pure  returns (uint x,bool y,string memory z) {... */\n      swap1\n      swap2\n      swap3\n      jump\t// out\n        /* \"#utility.yul\":7:84   */\n    tag_43:\n        /* \"#utility.yul\":44:51   */\n      0x00\n        /* \"#utility.yul\":73:78   */\n      dup2\n        /* \"#utility.yul\":62:78   */\n      swap1\n      pop\n        /* \"#utility.yul\":7:84   */\n      swap2\n      swap1\n      pop\n      jump\t// out\n        /* \"#utility.yul\":90:208   */\n    tag_44:\n        /* \"#utility.yul\":177:201   */\n      tag_55\n        /* \"#utility.yul\":195:200   */\n      dup2\n        /* \"#utility.yul\":177:201   */\n      tag_43\n      jump\t// in\n    tag_55:\n        /* \"#utility.yul\":172:175   */\n      dup3\n        /* \"#utility.yul\":165:202   */\n      mstore\n        /* \"#utility.yul\":90:208   */\n      pop\n      pop\n      jump\t// out\n        /* \"#utility.yul\":214:304   */\n    tag_45:\n        /* \"#utility.yul\":248:255   */\n      0x00\n        /* \"#utility.yul\":291:296   */\n      dup2\n        /* \"#utility.yul\":284:297   */\n      iszero\n        /* \"#utility.yul\":277:298   */\n      iszero\n        /* \"#utility.yul\":266:298   */\n      swap1\n      pop\n        /* \"#utility.yul\":214:304   */\n      swap2\n      swap1\n      pop\n      jump\t// out\n        /* \"#utility.yul\":310:419   */\n    tag_46:\n        /* \"#utility.yul\":391:412   */\n      tag_58\n        /* \"#utility.yul\":406:411   */\n      dup2\n        /* \"#utility.yul\":391:412   */\n      tag_45\n      jump\t// in\n    tag_58:\n        /* \"#utility.yul\":386:389   */\n      dup3\n        /* \"#utility.yul\":379:413   */\n      mstore\n        /* \"#utility.yul\":310:419   */\n      pop\n      pop\n      jump\t// out\n        /* \"#utility.yul\":425:745   */\n    tag_16:\n        /* \"#utility.yul\":540:544   */\n      0x00\n        /* \"#utility.yul\":578:580   */\n      0x40\n        /* \"#utility.yul\":567:576   */\n      dup3\n        /* \"#utility.yul\":563:581   */\n      add\n        /* \"#utility.yul\":555:581   */\n      swap1\n      pop\n        /* \"#utility.yul\":591:662   */\n      tag_60\n        /* \"#utility.yul\":659:660   */\n      0x00\n        /* \"#utility.yul\":648:657   */\n      dup4\n        /* \"#utility.yul\":644:661   */\n      add\n        /* \"#utility.yul\":635:641   */\n      dup6\n        /* \"#utility.yul\":591:662   */\n      tag_44\n      jump\t// in\n    tag_60:\n        /* \"#utility.yul\":672:738   */\n      tag_61\n        /* \"#utility.yul\":734:736   */\n      0x20\n        /* \"#utility.yul\":723:732   */\n      dup4\n        /* \"#utility.yul\":719:737   */\n      add\n        /* \"#utility.yul\":710:716   */\n      dup5\n        /* \"#utility.yul\":672:738   */\n      tag_46\n      jump\t// in\n    tag_61:\n        /* \"#utility.yul\":425:745   */\n      swap4\n      swap3\n      pop\n      pop\n      pop\n      jump\t// out\n        /* \"#utility.yul\":751:850   */\n    tag_47:\n        /* \"#utility.yul\":803:809   */\n      0x00\n        /* \"#utility.yul\":837:842   */\n      dup2\n        /* \"#utility.yul\":831:843   */\n      mload\n        /* \"#utility.yul\":821:843   */\n      swap1\n      pop\n        /* \"#utility.yul\":751:850   */\n      swap2\n      swap1\n      pop\n      jump\t// out\n        /* \"#utility.yul\":856:1025   */\n    tag_48:\n        /* \"#utility.yul\":940:951   */\n      0x00\n        /* \"#utility.yul\":974:980   */\n      dup3\n        /* \"#utility.yul\":969:972   */\n      dup3\n        /* \"#utility.yul\":962:981   */\n      mstore\n        /* \"#utility.yul\":1014:1018   */\n      0x20\n        /* \"#utility.yul\":1009:1012   */\n      dup3\n        /* \"#utility.yul\":1005:1019   */\n      add\n        /* \"#utility.yul\":990:1019   */\n      swap1\n      pop\n        /* \"#utility.yul\":856:1025   */\n      swap3\n      swap2\n      pop\n      pop\n      jump\t// out\n        /* \"#utility.yul\":1031:1170   */\n    tag_49:\n        /* \"#utility.yul\":1120:1126   */\n      dup3\n        /* \"#utility.yul\":1115:1118   */\n      dup2\n        /* \"#utility.yul\":1110:1113   */\n      dup4\n        /* \"#utility.yul\":1104:1127   */\n      mcopy\n        /* \"#utility.yul\":1161:1162   */\n      0x00\n        /* \"#utility.yul\":1152:1158   */\n      dup4\n        /* \"#utility.yul\":1147:1150   */\n      dup4\n        /* \"#utility.yul\":1143:1159   */\n      add\n        /* \"#utility.yul\":1136:1163   */\n      mstore\n        /* \"#utility.yul\":1031:1170   */\n      pop\n      pop\n      pop\n      jump\t// out\n        /* \"#utility.yul\":1176:1278   */\n    tag_50:\n        /* \"#utility.yul\":1217:1223   */\n      0x00\n        /* \"#utility.yul\":1268:1270   */\n      0x1f\n        /* \"#utility.yul\":1264:1271   */\n      not\n        /* \"#utility.yul\":1259:1261   */\n      0x1f\n        /* \"#utility.yul\":1252:1257   */\n      dup4\n        /* \"#utility.yul\":1248:1262   */\n      add\n        /* \"#utility.yul\":1244:1272   */\n      and\n        /* \"#utility.yul\":1234:1272   */\n      swap1\n      pop\n        /* \"#utility.yul\":1176:1278   */\n      swap2\n      swap1\n      pop\n      jump\t// out\n        /* \"#utility.yul\":1284:1661   */\n    tag_51:\n        /* \"#utility.yul\":1372:1375   */\n      0x00\n        /* \"#utility.yul\":1400:1439   */\n      tag_67\n        /* \"#utility.yul\":1433:1438   */\n      dup3\n        /* \"#utility.yul\":1400:1439   */\n      tag_47\n      jump\t// in\n    tag_67:\n        /* \"#utility.yul\":1455:1526   */\n      tag_68\n        /* \"#utility.yul\":1519:1525   */\n      dup2\n        /* \"#utility.yul\":1514:1517   */\n      dup6\n        /* \"#utility.yul\":1455:1526   */\n      tag_48\n      jump\t// in\n    tag_68:\n        /* \"#utility.yul\":1448:1526   */\n      swap4\n      pop\n        /* \"#utility.yul\":1535:1600   */\n      tag_69\n        /* \"#utility.yul\":1593:1599   */\n      dup2\n        /* \"#utility.yul\":1588:1591   */\n      dup6\n        /* \"#utility.yul\":1581:1585   */\n      0x20\n        /* \"#utility.yul\":1574:1579   */\n      dup7\n        /* \"#utility.yul\":1570:1586   */\n      add\n        /* \"#utility.yul\":1535:1600   */\n      tag_49\n      jump\t// in\n    tag_69:\n        /* \"#utility.yul\":1625:1654   */\n      tag_70\n        /* \"#utility.yul\":1647:1653   */\n      dup2\n        /* \"#utility.yul\":1625:1654   */\n      tag_50\n      jump\t// in\n    tag_70:\n        /* \"#utility.yul\":1620:1623   */\n      dup5\n        /* \"#utility.yul\":1616:1655   */\n      add\n        /* \"#utility.yul\":1609:1655   */\n      swap2\n      pop\n        /* \"#utility.yul\":1376:1661   */\n      pop\n        /* \"#utility.yul\":1284:1661   */\n      swap3\n      swap2\n      pop\n      pop\n      jump\t// out\n        /* \"#utility.yul\":1667:2188   */\n    tag_22:\n        /* \"#utility.yul\":1830:1834   */\n      0x00\n        /* \"#utility.yul\":1868:1870   */\n      0x60\n        /* \"#utility.yul\":1857:1866   */\n      dup3\n        /* \"#utility.yul\":1853:1871   */\n      add\n        /* \"#utility.yul\":1845:1871   */\n      swap1\n      pop\n        /* \"#utility.yul\":1881:1952   */\n      tag_72\n        /* \"#utility.yul\":1949:1950   */\n      0x00\n        /* \"#utility.yul\":1938:1947   */\n      dup4\n        /* \"#utility.yul\":1934:1951   */\n      add\n        /* \"#utility.yul\":1925:1931   */\n      dup7\n        /* \"#utility.yul\":1881:1952   */\n      tag_44\n      jump\t// in\n    tag_72:\n        /* \"#utility.yul\":1962:2028   */\n      tag_73\n        /* \"#utility.yul\":2024:2026   */\n      0x20\n        /* \"#utility.yul\":2013:2022   */\n      dup4\n        /* \"#utility.yul\":2009:2027   */\n      add\n        /* \"#utility.yul\":2000:2006   */\n      dup6\n        /* \"#utility.yul\":1962:2028   */\n      tag_46\n      jump\t// in\n    tag_73:\n        /* \"#utility.yul\":2075:2084   */\n      dup2\n        /* \"#utility.yul\":2069:2073   */\n      dup2\n        /* \"#utility.yul\":2065:2085   */\n      sub\n        /* \"#utility.yul\":2060:2062   */\n      0x40\n        /* \"#utility.yul\":2049:2058   */\n      dup4\n        /* \"#utility.yul\":2045:2063   */\n      add\n        /* \"#utility.yul\":2038:2086   */\n      mstore\n        /* \"#utility.yul\":2103:2181   */\n      tag_74\n        /* \"#utility.yul\":2176:2180   */\n      dup2\n        /* \"#utility.yul\":2167:2173   */\n      dup5\n        /* \"#utility.yul\":2103:2181   */\n      tag_51\n      jump\t// in\n    tag_74:\n        /* \"#utility.yul\":2095:2181   */\n      swap1\n      pop\n        /* \"#utility.yul\":1667:2188   */\n      swap5\n      swap4\n      pop\n      pop\n      pop\n      pop\n      jump\t// out\n\n    auxdata: 0xa26469706673582212209919b24bdf44174cbc8bc3c16ae6d0af0e3d49fe412258b5f6e36fa80af0492a64736f6c634300081a0033\n}\n",
				"bytecode": {
					"linkReferences": {},
					"object": "6080604052348015600e575f80fd5b506103378061001c5f395ff3fe608060405234801561000f575f80fd5b506004361061007b575f3560e01c806364f135211161005957806364f13521146100b257806386887544146100d2578063adb4d990146100f1578063e61e4008146101105761007b565b806326a89e041461007f57806345f907a81461008957806353a6aadb146100a8575b5f80fd5b610087610130565b005b610091610146565b60405161009f92919061022e565b60405180910390f35b6100b0610153565b005b6100ba610172565b6040516100c9939291906102c5565b60405180910390f35b6100da610198565b6040516100e892919061022e565b60405180910390f35b6100f96101a5565b60405161010792919061022e565b60405180910390f35b6101186101b3565b604051610127939291906102c5565b60405180910390f35b5f805f61013b6101b3565b925092509250505050565b5f80600180915091509091565b5f8061015d610198565b915091505f61016a610198565b915050505050565b5f8060605f805f6101816101b3565b925092509250828282955095509550505050909192565b5f80600180915091509091565b5f8060019150600190509091565b5f80606060019250600191506040518060400160405280600b81526020017f68656c6c6f20776f726c640000000000000000000000000000000000000000008152509050909192565b5f819050919050565b61020e816101fc565b82525050565b5f8115159050919050565b61022881610214565b82525050565b5f6040820190506102415f830185610205565b61024e602083018461021f565b9392505050565b5f81519050919050565b5f82825260208201905092915050565b8281835e5f83830152505050565b5f601f19601f8301169050919050565b5f61029782610255565b6102a1818561025f565b93506102b181856020860161026f565b6102ba8161027d565b840191505092915050565b5f6060820190506102d85f830186610205565b6102e5602083018561021f565b81810360408301526102f7818461028d565b905094935050505056fea26469706673582212209919b24bdf44174cbc8bc3c16ae6d0af0e3d49fe412258b5f6e36fa80af0492a64736f6c634300081a0033",
					"opcodes": "PUSH1 0x80 PUSH1 0x40 MSTORE CALLVALUE DUP1 ISZERO PUSH1 0xE JUMPI PUSH0 DUP1 REVERT JUMPDEST POP PUSH2 0x337 DUP1 PUSH2 0x1C PUSH0 CODECOPY PUSH0 RETURN INVALID PUSH1 0x80 PUSH1 0x40 MSTORE CALLVALUE DUP1 ISZERO PUSH2 0xF JUMPI PUSH0 DUP1 REVERT JUMPDEST POP PUSH1 0x4 CALLDATASIZE LT PUSH2 0x7B JUMPI PUSH0 CALLDATALOAD PUSH1 0xE0 SHR DUP1 PUSH4 0x64F13521 GT PUSH2 0x59 JUMPI DUP1 PUSH4 0x64F13521 EQ PUSH2 0xB2 JUMPI DUP1 PUSH4 0x86887544 EQ PUSH2 0xD2 JUMPI DUP1 PUSH4 0xADB4D990 EQ PUSH2 0xF1 JUMPI DUP1 PUSH4 0xE61E4008 EQ PUSH2 0x110 JUMPI PUSH2 0x7B JUMP JUMPDEST DUP1 PUSH4 0x26A89E04 EQ PUSH2 0x7F JUMPI DUP1 PUSH4 0x45F907A8 EQ PUSH2 0x89 JUMPI DUP1 PUSH4 0x53A6AADB EQ PUSH2 0xA8 JUMPI JUMPDEST PUSH0 DUP1 REVERT JUMPDEST PUSH2 0x87 PUSH2 0x130 JUMP JUMPDEST STOP JUMPDEST PUSH2 0x91 PUSH2 0x146 JUMP JUMPDEST PUSH1 0x40 MLOAD PUSH2 0x9F SWAP3 SWAP2 SWAP1 PUSH2 0x22E JUMP JUMPDEST PUSH1 0x40 MLOAD DUP1 SWAP2 SUB SWAP1 RETURN JUMPDEST PUSH2 0xB0 PUSH2 0x153 JUMP JUMPDEST STOP JUMPDEST PUSH2 0xBA PUSH2 0x172 JUMP JUMPDEST PUSH1 0x40 MLOAD PUSH2 0xC9 SWAP4 SWAP3 SWAP2 SWAP1 PUSH2 0x2C5 JUMP JUMPDEST PUSH1 0x40 MLOAD DUP1 SWAP2 SUB SWAP1 RETURN JUMPDEST PUSH2 0xDA PUSH2 0x198 JUMP JUMPDEST PUSH1 0x40 MLOAD PUSH2 0xE8 SWAP3 SWAP2 SWAP1 PUSH2 0x22E JUMP JUMPDEST PUSH1 0x40 MLOAD DUP1 SWAP2 SUB SWAP1 RETURN JUMPDEST PUSH2 0xF9 PUSH2 0x1A5 JUMP JUMPDEST PUSH1 0x40 MLOAD PUSH2 0x107 SWAP3 SWAP2 SWAP1 PUSH2 0x22E JUMP JUMPDEST PUSH1 0x40 MLOAD DUP1 SWAP2 SUB SWAP1 RETURN JUMPDEST PUSH2 0x118 PUSH2 0x1B3 JUMP JUMPDEST PUSH1 0x40 MLOAD PUSH2 0x127 SWAP4 SWAP3 SWAP2 SWAP1 PUSH2 0x2C5 JUMP JUMPDEST PUSH1 0x40 MLOAD DUP1 SWAP2 SUB SWAP1 RETURN JUMPDEST PUSH0 DUP1 PUSH0 PUSH2 0x13B PUSH2 0x1B3 JUMP JUMPDEST SWAP3 POP SWAP3 POP SWAP3 POP POP POP POP JUMP JUMPDEST PUSH0 DUP1 PUSH1 0x1 DUP1 SWAP2 POP SWAP2 POP SWAP1 SWAP2 JUMP JUMPDEST PUSH0 DUP1 PUSH2 0x15D PUSH2 0x198 JUMP JUMPDEST SWAP2 POP SWAP2 POP PUSH0 PUSH2 0x16A PUSH2 0x198 JUMP JUMPDEST SWAP2 POP POP POP POP POP JUMP JUMPDEST PUSH0 DUP1 PUSH1 0x60 PUSH0 DUP1 PUSH0 PUSH2 0x181 PUSH2 0x1B3 JUMP JUMPDEST SWAP3 POP SWAP3 POP SWAP3 POP DUP3 DUP3 DUP3 SWAP6 POP SWAP6 POP SWAP6 POP POP POP POP SWAP1 SWAP2 SWAP3 JUMP JUMPDEST PUSH0 DUP1 PUSH1 0x1 DUP1 SWAP2 POP SWAP2 POP SWAP1 SWAP2 JUMP JUMPDEST PUSH0 DUP1 PUSH1 0x1 SWAP2 POP PUSH1 0x1 SWAP1 POP SWAP1 SWAP2 JUMP JUMPDEST PUSH0 DUP1 PUSH1 0x60 PUSH1 0x1 SWAP3 POP PUSH1 0x1 SWAP2 POP PUSH1 0x40 MLOAD DUP1 PUSH1 0x40 ADD PUSH1 0x40 MSTORE DUP1 PUSH1 0xB DUP2 MSTORE PUSH1 0x20 ADD PUSH32 0x68656C6C6F20776F726C64000000000000000000000000000000000000000000 DUP2 MSTORE POP SWAP1 POP SWAP1 SWAP2 SWAP3 JUMP JUMPDEST PUSH0 DUP2 SWAP1 POP SWAP2 SWAP1 POP JUMP JUMPDEST PUSH2 0x20E DUP2 PUSH2 0x1FC JUMP JUMPDEST DUP3 MSTORE POP POP JUMP JUMPDEST PUSH0 DUP2 ISZERO ISZERO SWAP1 POP SWAP2 SWAP1 POP JUMP JUMPDEST PUSH2 0x228 DUP2 PUSH2 0x214 JUMP JUMPDEST DUP3 MSTORE POP POP JUMP JUMPDEST PUSH0 PUSH1 0x40 DUP3 ADD SWAP1 POP PUSH2 0x241 PUSH0 DUP4 ADD DUP6 PUSH2 0x205 JUMP JUMPDEST PUSH2 0x24E PUSH1 0x20 DUP4 ADD DUP5 PUSH2 0x21F JUMP JUMPDEST SWAP4 SWAP3 POP POP POP JUMP JUMPDEST PUSH0 DUP2 MLOAD SWAP1 POP SWAP2 SWAP1 POP JUMP JUMPDEST PUSH0 DUP3 DUP3 MSTORE PUSH1 0x20 DUP3 ADD SWAP1 POP SWAP3 SWAP2 POP POP JUMP JUMPDEST DUP3 DUP2 DUP4 MCOPY PUSH0 DUP4 DUP4 ADD MSTORE POP POP POP JUMP JUMPDEST PUSH0 PUSH1 0x1F NOT PUSH1 0x1F DUP4 ADD AND SWAP1 POP SWAP2 SWAP1 POP JUMP JUMPDEST PUSH0 PUSH2 0x297 DUP3 PUSH2 0x255 JUMP JUMPDEST PUSH2 0x2A1 DUP2 DUP6 PUSH2 0x25F JUMP JUMPDEST SWAP4 POP PUSH2 0x2B1 DUP2 DUP6 PUSH1 0x20 DUP7 ADD PUSH2 0x26F JUMP JUMPDEST PUSH2 0x2BA DUP2 PUSH2 0x27D JUMP JUMPDEST DUP5 ADD SWAP2 POP POP SWAP3 SWAP2 POP POP JUMP JUMPDEST PUSH0 PUSH1 0x60 DUP3 ADD SWAP1 POP PUSH2 0x2D8 PUSH0 DUP4 ADD DUP7 PUSH2 0x205 JUMP JUMPDEST PUSH2 0x2E5 PUSH1 0x20 DUP4 ADD DUP6 PUSH2 0x21F JUMP JUMPDEST DUP2 DUP2 SUB PUSH1 0x40 DUP4 ADD MSTORE PUSH2 0x2F7 DUP2 DUP5 PUSH2 0x28D JUMP JUMPDEST SWAP1 POP SWAP5 SWAP4 POP POP POP POP JUMP INVALID LOG2 PUSH5 0x6970667358 0x22 SLT KECCAK256 SWAP10 NOT 0xB2 0x4B 0xDF PREVRANDAO OR 0x4C 0xBC DUP12 0xC3 0xC1 PUSH11 0xE6D0AF0E3D49FE412258B5 0xF6 0xE3 PUSH16 0xA80AF0492A64736F6C634300081A0033 "
				},
				"gasEstimates": {
					"creation": {
						"codeDepositCost": "164600",
						"executionCost": "206",
						"totalCost": "164806"
					},
					"external": {
						"assigned()": "495",
						"captureOutputs()": "293",
						"destructingAssigments()": "infinite",
						"displayOutputs()": "infinite",
						"named()": "474",
						"returnMany()": "473",
						"returnMultiple()": "infinite"
					}
				},
				"methodIdentifiers": {
					"assigned()": "adb4d990",
					"captureOutputs()": "26a89e04",
					"destructingAssigments()": "53a6aadb",
					"displayOutputs()": "64f13521",
					"named()": "45f907a8",
					"returnMany()": "86887544",
					"returnMultiple()": "e61e4008"
				}
			},
			"storageLayout": {
				"storage": [],
				"types": null
			},
			"userdoc": {
				"kind": "user",
				"methods": {},
				"version": 1
			}
		}
	}
}