{
	"poke/ifElse.sol": {
		"IfElse": {
			"abi": [
				{
					"inputs": [
						{
							"internalType": "uint256",
							"name": "_x",
							"type": "uint256"
						}
					],
					"name": "example",
					"outputs": [
						{
							"internalType": "uint256",
							"name": "",
							"type": "uint256"
						}
					],
					"stateMutability": "pure",
					"type": "function"
				},
				{
					"inputs": [
						{
							"internalType": "uint256",
							"name": "_x",
							"type": "uint256"
						}
					],
					"name": "tenary",
					"outputs": [
						{
							"internalType": "uint256",
							"name": "",
							"type": "uint256"
						}
					],
					"stateMutability": "pure",
					"type": "function"
				}
			],
			"devdoc": {
				"kind": "dev",
				"methods": {},
				"version": 1
			},
			"evm": {
				"assembly": "    /* \"poke/ifElse.sol\":57:371  contract IfElse {... */\n  mstore(0x40, 0x80)\n  callvalue\n  dup1\n  iszero\n  tag_1\n  jumpi\n  0x00\n  dup1\n  revert\ntag_1:\n  pop\n  dataSize(sub_0)\n  dup1\n  dataOffset(sub_0)\n  0x00\n  codecopy\n  0x00\n  return\nstop\n\nsub_0: assembly {\n        /* \"poke/ifElse.sol\":57:371  contract IfElse {... */\n      mstore(0x40, 0x80)\n      callvalue\n      dup1\n      iszero\n      tag_1\n      jumpi\n      0x00\n      dup1\n      revert\n    tag_1:\n      pop\n      jumpi(tag_2, lt(calldatasize, 0x04))\n      shr(0xe0, calldataload(0x00))\n      dup1\n      0x477e4a02\n      eq\n      tag_3\n      jumpi\n      dup1\n      0x67b58887\n      eq\n      tag_4\n      jumpi\n    tag_2:\n      0x00\n      dup1\n      revert\n        /* \"poke/ifElse.sol\":79:257  function example (uint _x ) external pure returns(uint){... */\n    tag_3:\n      tag_5\n      0x04\n      dup1\n      calldatasize\n      sub\n      dup2\n      add\n      swap1\n      tag_6\n      swap2\n      swap1\n      tag_7\n      jump\t// in\n    tag_6:\n      tag_8\n      jump\t// in\n    tag_5:\n      mload(0x40)\n      tag_9\n      swap2\n      swap1\n      tag_10\n      jump\t// in\n    tag_9:\n      mload(0x40)\n      dup1\n      swap2\n      sub\n      swap1\n      return\n        /* \"poke/ifElse.sol\":283:369  function tenary(uint _x) external pure returns (uint){... */\n    tag_4:\n      tag_11\n      0x04\n      dup1\n      calldatasize\n      sub\n      dup2\n      add\n      swap1\n      tag_12\n      swap2\n      swap1\n      tag_7\n      jump\t// in\n    tag_12:\n      tag_13\n      jump\t// in\n    tag_11:\n      mload(0x40)\n      tag_14\n      swap2\n      swap1\n      tag_10\n      jump\t// in\n    tag_14:\n      mload(0x40)\n      dup1\n      swap2\n      sub\n      swap1\n      return\n        /* \"poke/ifElse.sol\":79:257  function example (uint _x ) external pure returns(uint){... */\n    tag_8:\n        /* \"poke/ifElse.sol\":129:133  uint */\n      0x00\n        /* \"poke/ifElse.sol\":150:152  10 */\n      0x0a\n        /* \"poke/ifElse.sol\":147:149  _x */\n      dup3\n        /* \"poke/ifElse.sol\":147:152  _x<10 */\n      lt\n        /* \"poke/ifElse.sol\":144:233  if(_x<10){... */\n      iszero\n      tag_16\n      jumpi\n        /* \"poke/ifElse.sol\":174:175  1 */\n      0x01\n        /* \"poke/ifElse.sol\":167:175  return 1 */\n      swap1\n      pop\n      jump(tag_15)\n        /* \"poke/ifElse.sol\":144:233  if(_x<10){... */\n    tag_16:\n        /* \"poke/ifElse.sol\":197:199  20 */\n      0x14\n        /* \"poke/ifElse.sol\":194:196  _x */\n      dup3\n        /* \"poke/ifElse.sol\":194:199  _x<20 */\n      lt\n        /* \"poke/ifElse.sol\":191:233  if(_x<20){... */\n      iszero\n      tag_18\n      jumpi\n        /* \"poke/ifElse.sol\":221:222  2 */\n      0x02\n        /* \"poke/ifElse.sol\":214:222  return 2 */\n      swap1\n      pop\n      jump(tag_15)\n        /* \"poke/ifElse.sol\":191:233  if(_x<20){... */\n    tag_18:\n        /* \"poke/ifElse.sol\":249:250  3 */\n      0x03\n        /* \"poke/ifElse.sol\":242:250  return 3 */\n      swap1\n      pop\n        /* \"poke/ifElse.sol\":79:257  function example (uint _x ) external pure returns(uint){... */\n    tag_15:\n      swap2\n      swap1\n      pop\n      jump\t// out\n        /* \"poke/ifElse.sol\":283:369  function tenary(uint _x) external pure returns (uint){... */\n    tag_13:\n        /* \"poke/ifElse.sol\":331:335  uint */\n      0x00\n        /* \"poke/ifElse.sol\":356:358  10 */\n      0x0a\n        /* \"poke/ifElse.sol\":353:355  _x */\n      dup3\n        /* \"poke/ifElse.sol\":353:358  _x<10 */\n      lt\n        /* \"poke/ifElse.sol\":353:362  _x<10?1:2 */\n      tag_20\n      jumpi\n        /* \"poke/ifElse.sol\":361:362  2 */\n      0x02\n        /* \"poke/ifElse.sol\":353:362  _x<10?1:2 */\n      jump(tag_21)\n    tag_20:\n        /* \"poke/ifElse.sol\":359:360  1 */\n      0x01\n        /* \"poke/ifElse.sol\":353:362  _x<10?1:2 */\n    tag_21:\n        /* \"poke/ifElse.sol\":346:362  return _x<10?1:2 */\n      0xff\n      and\n      swap1\n      pop\n        /* \"poke/ifElse.sol\":283:369  function tenary(uint _x) external pure returns (uint){... */\n      swap2\n      swap1\n      pop\n      jump\t// out\n        /* \"#utility.yul\":88:205   */\n    tag_23:\n        /* \"#utility.yul\":197:198   */\n      0x00\n        /* \"#utility.yul\":194:195   */\n      dup1\n        /* \"#utility.yul\":187:199   */\n      revert\n        /* \"#utility.yul\":334:411   */\n    tag_25:\n        /* \"#utility.yul\":371:378   */\n      0x00\n        /* \"#utility.yul\":400:405   */\n      dup2\n        /* \"#utility.yul\":389:405   */\n      swap1\n      pop\n        /* \"#utility.yul\":334:411   */\n      swap2\n      swap1\n      pop\n      jump\t// out\n        /* \"#utility.yul\":417:539   */\n    tag_26:\n        /* \"#utility.yul\":490:514   */\n      tag_35\n        /* \"#utility.yul\":508:513   */\n      dup2\n        /* \"#utility.yul\":490:514   */\n      tag_25\n      jump\t// in\n    tag_35:\n        /* \"#utility.yul\":483:488   */\n      dup2\n        /* \"#utility.yul\":480:515   */\n      eq\n        /* \"#utility.yul\":470:533   */\n      tag_36\n      jumpi\n        /* \"#utility.yul\":529:530   */\n      0x00\n        /* \"#utility.yul\":526:527   */\n      dup1\n        /* \"#utility.yul\":519:531   */\n      revert\n        /* \"#utility.yul\":470:533   */\n    tag_36:\n        /* \"#utility.yul\":417:539   */\n      pop\n      jump\t// out\n        /* \"#utility.yul\":545:684   */\n    tag_27:\n        /* \"#utility.yul\":591:596   */\n      0x00\n        /* \"#utility.yul\":629:635   */\n      dup2\n        /* \"#utility.yul\":616:636   */\n      calldataload\n        /* \"#utility.yul\":607:636   */\n      swap1\n      pop\n        /* \"#utility.yul\":645:678   */\n      tag_38\n        /* \"#utility.yul\":672:677   */\n      dup2\n        /* \"#utility.yul\":645:678   */\n      tag_26\n      jump\t// in\n    tag_38:\n        /* \"#utility.yul\":545:684   */\n      swap3\n      swap2\n      pop\n      pop\n      jump\t// out\n        /* \"#utility.yul\":690:1019   */\n    tag_7:\n        /* \"#utility.yul\":749:755   */\n      0x00\n        /* \"#utility.yul\":798:800   */\n      0x20\n        /* \"#utility.yul\":786:795   */\n      dup3\n        /* \"#utility.yul\":777:784   */\n      dup5\n        /* \"#utility.yul\":773:796   */\n      sub\n        /* \"#utility.yul\":769:801   */\n      slt\n        /* \"#utility.yul\":766:885   */\n      iszero\n      tag_40\n      jumpi\n        /* \"#utility.yul\":804:883   */\n      tag_41\n      tag_23\n      jump\t// in\n    tag_41:\n        /* \"#utility.yul\":766:885   */\n    tag_40:\n        /* \"#utility.yul\":924:925   */\n      0x00\n        /* \"#utility.yul\":949:1002   */\n      tag_42\n        /* \"#utility.yul\":994:1001   */\n      dup5\n        /* \"#utility.yul\":985:991   */\n      dup3\n        /* \"#utility.yul\":974:983   */\n      dup6\n        /* \"#utility.yul\":970:992   */\n      add\n        /* \"#utility.yul\":949:1002   */\n      tag_27\n      jump\t// in\n    tag_42:\n        /* \"#utility.yul\":939:1002   */\n      swap2\n      pop\n        /* \"#utility.yul\":895:1012   */\n      pop\n        /* \"#utility.yul\":690:1019   */\n      swap3\n      swap2\n      pop\n      pop\n      jump\t// out\n        /* \"#utility.yul\":1025:1143   */\n    tag_28:\n        /* \"#utility.yul\":1112:1136   */\n      tag_44\n        /* \"#utility.yul\":1130:1135   */\n      dup2\n        /* \"#utility.yul\":1112:1136   */\n      tag_25\n      jump\t// in\n    tag_44:\n        /* \"#utility.yul\":1107:1110   */\n      dup3\n        /* \"#utility.yul\":1100:1137   */\n      mstore\n        /* \"#utility.yul\":1025:1143   */\n      pop\n      pop\n      jump\t// out\n        /* \"#utility.yul\":1149:1371   */\n    tag_10:\n        /* \"#utility.yul\":1242:1246   */\n      0x00\n        /* \"#utility.yul\":1280:1282   */\n      0x20\n        /* \"#utility.yul\":1269:1278   */\n      dup3\n        /* \"#utility.yul\":1265:1283   */\n      add\n        /* \"#utility.yul\":1257:1283   */\n      swap1\n      pop\n        /* \"#utility.yul\":1293:1364   */\n      tag_46\n        /* \"#utility.yul\":1361:1362   */\n      0x00\n        /* \"#utility.yul\":1350:1359   */\n      dup4\n        /* \"#utility.yul\":1346:1363   */\n      add\n        /* \"#utility.yul\":1337:1343   */\n      dup5\n        /* \"#utility.yul\":1293:1364   */\n      tag_28\n      jump\t// in\n    tag_46:\n        /* \"#utility.yul\":1149:1371   */\n      swap3\n      swap2\n      pop\n      pop\n      jump\t// out\n\n    auxdata: 0xa26469706673582212200a6bfc96c116197a38ffc692bc316d14c6745ed18d79c96f93c3a64f94320da464736f6c634300081a0033\n}\n",
				"bytecode": {
					"linkReferences": {},
					"object": "6080604052348015600e575f80fd5b506101a48061001c5f395ff3fe608060405234801561000f575f80fd5b5060043610610034575f3560e01c8063477e4a021461003857806367b5888714610068575b5f80fd5b610052600480360381019061004d919061011b565b610098565b60405161005f9190610155565b60405180910390f35b610082600480360381019061007d919061011b565b6100c7565b60405161008f9190610155565b60405180910390f35b5f600a8210156100ab57600190506100c2565b60148210156100bd57600290506100c2565b600390505b919050565b5f600a82106100d75760026100da565b60015b60ff169050919050565b5f80fd5b5f819050919050565b6100fa816100e8565b8114610104575f80fd5b50565b5f81359050610115816100f1565b92915050565b5f602082840312156101305761012f6100e4565b5b5f61013d84828501610107565b91505092915050565b61014f816100e8565b82525050565b5f6020820190506101685f830184610146565b9291505056fea26469706673582212200a6bfc96c116197a38ffc692bc316d14c6745ed18d79c96f93c3a64f94320da464736f6c634300081a0033",
					"opcodes": "PUSH1 0x80 PUSH1 0x40 MSTORE CALLVALUE DUP1 ISZERO PUSH1 0xE JUMPI PUSH0 DUP1 REVERT JUMPDEST POP PUSH2 0x1A4 DUP1 PUSH2 0x1C PUSH0 CODECOPY PUSH0 RETURN INVALID PUSH1 0x80 PUSH1 0x40 MSTORE CALLVALUE DUP1 ISZERO PUSH2 0xF JUMPI PUSH0 DUP1 REVERT JUMPDEST POP PUSH1 0x4 CALLDATASIZE LT PUSH2 0x34 JUMPI PUSH0 CALLDATALOAD PUSH1 0xE0 SHR DUP1 PUSH4 0x477E4A02 EQ PUSH2 0x38 JUMPI DUP1 PUSH4 0x67B58887 EQ PUSH2 0x68 JUMPI JUMPDEST PUSH0 DUP1 REVERT JUMPDEST PUSH2 0x52 PUSH1 0x4 DUP1 CALLDATASIZE SUB DUP2 ADD SWAP1 PUSH2 0x4D SWAP2 SWAP1 PUSH2 0x11B JUMP JUMPDEST PUSH2 0x98 JUMP JUMPDEST PUSH1 0x40 MLOAD PUSH2 0x5F SWAP2 SWAP1 PUSH2 0x155 JUMP JUMPDEST PUSH1 0x40 MLOAD DUP1 SWAP2 SUB SWAP1 RETURN JUMPDEST PUSH2 0x82 PUSH1 0x4 DUP1 CALLDATASIZE SUB DUP2 ADD SWAP1 PUSH2 0x7D SWAP2 SWAP1 PUSH2 0x11B JUMP JUMPDEST PUSH2 0xC7 JUMP JUMPDEST PUSH1 0x40 MLOAD PUSH2 0x8F SWAP2 SWAP1 PUSH2 0x155 JUMP JUMPDEST PUSH1 0x40 MLOAD DUP1 SWAP2 SUB SWAP1 RETURN JUMPDEST PUSH0 PUSH1 0xA DUP3 LT ISZERO PUSH2 0xAB JUMPI PUSH1 0x1 SWAP1 POP PUSH2 0xC2 JUMP JUMPDEST PUSH1 0x14 DUP3 LT ISZERO PUSH2 0xBD JUMPI PUSH1 0x2 SWAP1 POP PUSH2 0xC2 JUMP JUMPDEST PUSH1 0x3 SWAP1 POP JUMPDEST SWAP2 SWAP1 POP JUMP JUMPDEST PUSH0 PUSH1 0xA DUP3 LT PUSH2 0xD7 JUMPI PUSH1 0x2 PUSH2 0xDA JUMP JUMPDEST PUSH1 0x1 JUMPDEST PUSH1 0xFF AND SWAP1 POP SWAP2 SWAP1 POP JUMP JUMPDEST PUSH0 DUP1 REVERT JUMPDEST PUSH0 DUP2 SWAP1 POP SWAP2 SWAP1 POP JUMP JUMPDEST PUSH2 0xFA DUP2 PUSH2 0xE8 JUMP JUMPDEST DUP2 EQ PUSH2 0x104 JUMPI PUSH0 DUP1 REVERT JUMPDEST POP JUMP JUMPDEST PUSH0 DUP2 CALLDATALOAD SWAP1 POP PUSH2 0x115 DUP2 PUSH2 0xF1 JUMP JUMPDEST SWAP3 SWAP2 POP POP JUMP JUMPDEST PUSH0 PUSH1 0x20 DUP3 DUP5 SUB SLT ISZERO PUSH2 0x130 JUMPI PUSH2 0x12F PUSH2 0xE4 JUMP JUMPDEST JUMPDEST PUSH0 PUSH2 0x13D DUP5 DUP3 DUP6 ADD PUSH2 0x107 JUMP JUMPDEST SWAP2 POP POP SWAP3 SWAP2 POP POP JUMP JUMPDEST PUSH2 0x14F DUP2 PUSH2 0xE8 JUMP JUMPDEST DUP3 MSTORE POP POP JUMP JUMPDEST PUSH0 PUSH1 0x20 DUP3 ADD SWAP1 POP PUSH2 0x168 PUSH0 DUP4 ADD DUP5 PUSH2 0x146 JUMP JUMPDEST SWAP3 SWAP2 POP POP JUMP INVALID LOG2 PUSH5 0x6970667358 0x22 SLT KECCAK256 EXP PUSH12 0xFC96C116197A38FFC692BC31 PUSH14 0x14C6745ED18D79C96F93C3A64F94 ORIGIN 0xD LOG4 PUSH5 0x736F6C6343 STOP ADDMOD BYTE STOP CALLER "
				},
				"gasEstimates": {
					"creation": {
						"codeDepositCost": "84000",
						"executionCost": "133",
						"totalCost": "84133"
					},
					"external": {
						"example(uint256)": "infinite",
						"tenary(uint256)": "infinite"
					}
				},
				"methodIdentifiers": {
					"example(uint256)": "477e4a02",
					"tenary(uint256)": "67b58887"
				}
			},
			"storageLayout": {
				"storage": [],
				"types": null
			},
			"userdoc": {
				"kind": "user",
				"methods": {},
				"version": 1
			}
		}
	}
}