{
	"poke/ArrayManipulation.sol": {
		"ArrayManipulation": {
			"abi": [
				{
					"inputs": [
						{
							"internalType": "uint256[]",
							"name": "arr",
							"type": "uint256[]"
						},
						{
							"internalType": "uint256",
							"name": "index",
							"type": "uint256"
						}
					],
					"name": "removeElement",
					"outputs": [
						{
							"internalType": "uint256[]",
							"name": "",
							"type": "uint256[]"
						}
					],
					"stateMutability": "pure",
					"type": "function"
				}
			],
			"devdoc": {
				"kind": "dev",
				"methods": {},
				"version": 1
			},
			"evm": {
				"assembly": "    /* \"poke/ArrayManipulation.sol\":58:823  contract ArrayManipulation {... */\n  mstore(0x40, 0x80)\n  callvalue\n  dup1\n  iszero\n  tag_1\n  jumpi\n  0x00\n  dup1\n  revert\ntag_1:\n  pop\n  dataSize(sub_0)\n  dup1\n  dataOffset(sub_0)\n  0x00\n  codecopy\n  0x00\n  return\nstop\n\nsub_0: assembly {\n        /* \"poke/ArrayManipulation.sol\":58:823  contract ArrayManipulation {... */\n      mstore(0x40, 0x80)\n      callvalue\n      dup1\n      iszero\n      tag_1\n      jumpi\n      0x00\n      dup1\n      revert\n    tag_1:\n      pop\n      jumpi(tag_2, lt(calldatasize, 0x04))\n      shr(0xe0, calldataload(0x00))\n      dup1\n      0x329af2e4\n      eq\n      tag_3\n      jumpi\n    tag_2:\n      0x00\n      dup1\n      revert\n        /* \"poke/ArrayManipulation.sol\":148:821  function removeElement(uint[] memory arr, uint index) public pure returns (uint[] memory) {... */\n    tag_3:\n      tag_4\n      0x04\n      dup1\n      calldatasize\n      sub\n      dup2\n      add\n      swap1\n      tag_5\n      swap2\n      swap1\n      tag_6\n      jump\t// in\n    tag_5:\n      tag_7\n      jump\t// in\n    tag_4:\n      mload(0x40)\n      tag_8\n      swap2\n      swap1\n      tag_9\n      jump\t// in\n    tag_8:\n      mload(0x40)\n      dup1\n      swap2\n      sub\n      swap1\n      return\n    tag_7:\n        /* \"poke/ArrayManipulation.sol\":223:236  uint[] memory */\n      0x60\n        /* \"poke/ArrayManipulation.sol\":335:336  0 */\n      0x00\n        /* \"poke/ArrayManipulation.sol\":322:325  arr */\n      dup4\n        /* \"poke/ArrayManipulation.sol\":322:332  arr.length */\n      mload\n        /* \"poke/ArrayManipulation.sol\":322:336  arr.length > 0 */\n      gt\n        /* \"poke/ArrayManipulation.sol\":314:355  require(arr.length > 0, \"Array is empty\") */\n      tag_11\n      jumpi\n      mload(0x40)\n      0x08c379a000000000000000000000000000000000000000000000000000000000\n      dup2\n      mstore\n      0x04\n      add\n      tag_12\n      swap1\n      tag_13\n      jump\t// in\n    tag_12:\n      mload(0x40)\n      dup1\n      swap2\n      sub\n      swap1\n      revert\n    tag_11:\n        /* \"poke/ArrayManipulation.sol\":381:384  arr */\n      dup3\n        /* \"poke/ArrayManipulation.sol\":381:391  arr.length */\n      mload\n        /* \"poke/ArrayManipulation.sol\":373:378  index */\n      dup3\n        /* \"poke/ArrayManipulation.sol\":373:391  index < arr.length */\n      lt\n        /* \"poke/ArrayManipulation.sol\":365:409  require(index < arr.length, \"Invalid index\") */\n      tag_14\n      jumpi\n      mload(0x40)\n      0x08c379a000000000000000000000000000000000000000000000000000000000\n      dup2\n      mstore\n      0x04\n      add\n      tag_15\n      swap1\n      tag_16\n      jump\t// in\n    tag_15:\n      mload(0x40)\n      dup1\n      swap2\n      sub\n      swap1\n      revert\n    tag_14:\n        /* \"poke/ArrayManipulation.sol\":481:501  uint[] memory newArr */\n      0x00\n        /* \"poke/ArrayManipulation.sol\":528:529  1 */\n      0x01\n        /* \"poke/ArrayManipulation.sol\":515:518  arr */\n      dup5\n        /* \"poke/ArrayManipulation.sol\":515:525  arr.length */\n      mload\n        /* \"poke/ArrayManipulation.sol\":515:529  arr.length - 1 */\n      tag_17\n      swap2\n      swap1\n      tag_18\n      jump\t// in\n    tag_17:\n        /* \"poke/ArrayManipulation.sol\":504:530  new uint[](arr.length - 1) */\n      0xffffffffffffffff\n      dup2\n      gt\n      iszero\n      tag_19\n      jumpi\n      tag_20\n      tag_21\n      jump\t// in\n    tag_20:\n    tag_19:\n      mload(0x40)\n      swap1\n      dup1\n      dup3\n      mstore\n      dup1\n      0x20\n      mul\n      0x20\n      add\n      dup3\n      add\n      0x40\n      mstore\n      dup1\n      iszero\n      tag_22\n      jumpi\n      dup2\n      0x20\n      add\n      0x20\n      dup3\n      mul\n      dup1\n      calldatasize\n      dup4\n      calldatacopy\n      dup1\n      dup3\n      add\n      swap2\n      pop\n      pop\n      swap1\n      pop\n    tag_22:\n      pop\n        /* \"poke/ArrayManipulation.sol\":481:530  uint[] memory newArr = new uint[](arr.length - 1) */\n      swap1\n      pop\n        /* \"poke/ArrayManipulation.sol\":618:624  uint i */\n      0x00\n        /* \"poke/ArrayManipulation.sol\":613:689  for (uint i = 0; i < index; i++) {... */\n    tag_23:\n        /* \"poke/ArrayManipulation.sol\":634:639  index */\n      dup4\n        /* \"poke/ArrayManipulation.sol\":630:631  i */\n      dup2\n        /* \"poke/ArrayManipulation.sol\":630:639  i < index */\n      lt\n        /* \"poke/ArrayManipulation.sol\":613:689  for (uint i = 0; i < index; i++) {... */\n      iszero\n      tag_24\n      jumpi\n        /* \"poke/ArrayManipulation.sol\":672:675  arr */\n      dup5\n        /* \"poke/ArrayManipulation.sol\":676:677  i */\n      dup2\n        /* \"poke/ArrayManipulation.sol\":672:678  arr[i] */\n      dup2\n      mload\n      dup2\n      lt\n      tag_26\n      jumpi\n      tag_27\n      tag_28\n      jump\t// in\n    tag_27:\n    tag_26:\n      0x20\n      mul\n      0x20\n      add\n      add\n      mload\n        /* \"poke/ArrayManipulation.sol\":660:666  newArr */\n      dup3\n        /* \"poke/ArrayManipulation.sol\":667:668  i */\n      dup3\n        /* \"poke/ArrayManipulation.sol\":660:669  newArr[i] */\n      dup2\n      mload\n      dup2\n      lt\n      tag_29\n      jumpi\n      tag_30\n      tag_28\n      jump\t// in\n    tag_30:\n    tag_29:\n      0x20\n      mul\n      0x20\n      add\n      add\n        /* \"poke/ArrayManipulation.sol\":660:678  newArr[i] = arr[i] */\n      dup2\n      dup2\n      mstore\n      pop\n      pop\n        /* \"poke/ArrayManipulation.sol\":641:644  i++ */\n      dup1\n      dup1\n      0x01\n      add\n      swap2\n      pop\n      pop\n        /* \"poke/ArrayManipulation.sol\":613:689  for (uint i = 0; i < index; i++) {... */\n      jump(tag_23)\n    tag_24:\n      pop\n        /* \"poke/ArrayManipulation.sol\":703:709  uint i */\n      0x00\n        /* \"poke/ArrayManipulation.sol\":712:717  index */\n      dup4\n        /* \"poke/ArrayManipulation.sol\":703:717  uint i = index */\n      swap1\n      pop\n        /* \"poke/ArrayManipulation.sol\":698:791  for (uint i = index; i < arr.length - 1; i++) {... */\n    tag_31:\n        /* \"poke/ArrayManipulation.sol\":736:737  1 */\n      0x01\n        /* \"poke/ArrayManipulation.sol\":723:726  arr */\n      dup6\n        /* \"poke/ArrayManipulation.sol\":723:733  arr.length */\n      mload\n        /* \"poke/ArrayManipulation.sol\":723:737  arr.length - 1 */\n      tag_34\n      swap2\n      swap1\n      tag_18\n      jump\t// in\n    tag_34:\n        /* \"poke/ArrayManipulation.sol\":719:720  i */\n      dup2\n        /* \"poke/ArrayManipulation.sol\":719:737  i < arr.length - 1 */\n      lt\n        /* \"poke/ArrayManipulation.sol\":698:791  for (uint i = index; i < arr.length - 1; i++) {... */\n      iszero\n      tag_32\n      jumpi\n        /* \"poke/ArrayManipulation.sol\":770:773  arr */\n      dup5\n        /* \"poke/ArrayManipulation.sol\":778:779  1 */\n      0x01\n        /* \"poke/ArrayManipulation.sol\":774:775  i */\n      dup3\n        /* \"poke/ArrayManipulation.sol\":774:779  i + 1 */\n      tag_35\n      swap2\n      swap1\n      tag_36\n      jump\t// in\n    tag_35:\n        /* \"poke/ArrayManipulation.sol\":770:780  arr[i + 1] */\n      dup2\n      mload\n      dup2\n      lt\n      tag_37\n      jumpi\n      tag_38\n      tag_28\n      jump\t// in\n    tag_38:\n    tag_37:\n      0x20\n      mul\n      0x20\n      add\n      add\n      mload\n        /* \"poke/ArrayManipulation.sol\":758:764  newArr */\n      dup3\n        /* \"poke/ArrayManipulation.sol\":765:766  i */\n      dup3\n        /* \"poke/ArrayManipulation.sol\":758:767  newArr[i] */\n      dup2\n      mload\n      dup2\n      lt\n      tag_39\n      jumpi\n      tag_40\n      tag_28\n      jump\t// in\n    tag_40:\n    tag_39:\n      0x20\n      mul\n      0x20\n      add\n      add\n        /* \"poke/ArrayManipulation.sol\":758:780  newArr[i] = arr[i + 1] */\n      dup2\n      dup2\n      mstore\n      pop\n      pop\n        /* \"poke/ArrayManipulation.sol\":739:742  i++ */\n      dup1\n      dup1\n      0x01\n      add\n      swap2\n      pop\n      pop\n        /* \"poke/ArrayManipulation.sol\":698:791  for (uint i = index; i < arr.length - 1; i++) {... */\n      jump(tag_31)\n    tag_32:\n      pop\n        /* \"poke/ArrayManipulation.sol\":808:814  newArr */\n      dup1\n        /* \"poke/ArrayManipulation.sol\":801:814  return newArr */\n      swap2\n      pop\n      pop\n        /* \"poke/ArrayManipulation.sol\":148:821  function removeElement(uint[] memory arr, uint index) public pure returns (uint[] memory) {... */\n      swap3\n      swap2\n      pop\n      pop\n      jump\t// out\n        /* \"#utility.yul\":7:82   */\n    tag_41:\n        /* \"#utility.yul\":40:46   */\n      0x00\n        /* \"#utility.yul\":73:75   */\n      0x40\n        /* \"#utility.yul\":67:76   */\n      mload\n        /* \"#utility.yul\":57:76   */\n      swap1\n      pop\n        /* \"#utility.yul\":7:82   */\n      swap1\n      jump\t// out\n        /* \"#utility.yul\":88:205   */\n    tag_42:\n        /* \"#utility.yul\":197:198   */\n      0x00\n        /* \"#utility.yul\":194:195   */\n      dup1\n        /* \"#utility.yul\":187:199   */\n      revert\n        /* \"#utility.yul\":211:328   */\n    tag_43:\n        /* \"#utility.yul\":320:321   */\n      0x00\n        /* \"#utility.yul\":317:318   */\n      dup1\n        /* \"#utility.yul\":310:322   */\n      revert\n        /* \"#utility.yul\":334:451   */\n    tag_44:\n        /* \"#utility.yul\":443:444   */\n      0x00\n        /* \"#utility.yul\":440:441   */\n      dup1\n        /* \"#utility.yul\":433:445   */\n      revert\n        /* \"#utility.yul\":457:559   */\n    tag_45:\n        /* \"#utility.yul\":498:504   */\n      0x00\n        /* \"#utility.yul\":549:551   */\n      0x1f\n        /* \"#utility.yul\":545:552   */\n      not\n        /* \"#utility.yul\":540:542   */\n      0x1f\n        /* \"#utility.yul\":533:538   */\n      dup4\n        /* \"#utility.yul\":529:543   */\n      add\n        /* \"#utility.yul\":525:553   */\n      and\n        /* \"#utility.yul\":515:553   */\n      swap1\n      pop\n        /* \"#utility.yul\":457:559   */\n      swap2\n      swap1\n      pop\n      jump\t// out\n        /* \"#utility.yul\":565:745   */\n    tag_21:\n        /* \"#utility.yul\":613:690   */\n      0x4e487b7100000000000000000000000000000000000000000000000000000000\n        /* \"#utility.yul\":610:611   */\n      0x00\n        /* \"#utility.yul\":603:691   */\n      mstore\n        /* \"#utility.yul\":710:714   */\n      0x41\n        /* \"#utility.yul\":707:708   */\n      0x04\n        /* \"#utility.yul\":700:715   */\n      mstore\n        /* \"#utility.yul\":734:738   */\n      0x24\n        /* \"#utility.yul\":731:732   */\n      0x00\n        /* \"#utility.yul\":724:739   */\n      revert\n        /* \"#utility.yul\":751:1032   */\n    tag_46:\n        /* \"#utility.yul\":834:861   */\n      tag_76\n        /* \"#utility.yul\":856:860   */\n      dup3\n        /* \"#utility.yul\":834:861   */\n      tag_45\n      jump\t// in\n    tag_76:\n        /* \"#utility.yul\":826:832   */\n      dup2\n        /* \"#utility.yul\":822:862   */\n      add\n        /* \"#utility.yul\":964:970   */\n      dup2\n        /* \"#utility.yul\":952:962   */\n      dup2\n        /* \"#utility.yul\":949:971   */\n      lt\n        /* \"#utility.yul\":928:946   */\n      0xffffffffffffffff\n        /* \"#utility.yul\":916:926   */\n      dup3\n        /* \"#utility.yul\":913:947   */\n      gt\n        /* \"#utility.yul\":910:972   */\n      or\n        /* \"#utility.yul\":907:995   */\n      iszero\n      tag_77\n      jumpi\n        /* \"#utility.yul\":975:993   */\n      tag_78\n      tag_21\n      jump\t// in\n    tag_78:\n        /* \"#utility.yul\":907:995   */\n    tag_77:\n        /* \"#utility.yul\":1015:1025   */\n      dup1\n        /* \"#utility.yul\":1011:1013   */\n      0x40\n        /* \"#utility.yul\":1004:1026   */\n      mstore\n        /* \"#utility.yul\":794:1032   */\n      pop\n        /* \"#utility.yul\":751:1032   */\n      pop\n      pop\n      jump\t// out\n        /* \"#utility.yul\":1038:1167   */\n    tag_47:\n        /* \"#utility.yul\":1072:1078   */\n      0x00\n        /* \"#utility.yul\":1099:1119   */\n      tag_80\n      tag_41\n      jump\t// in\n    tag_80:\n        /* \"#utility.yul\":1089:1119   */\n      swap1\n      pop\n        /* \"#utility.yul\":1128:1161   */\n      tag_81\n        /* \"#utility.yul\":1156:1160   */\n      dup3\n        /* \"#utility.yul\":1148:1154   */\n      dup3\n        /* \"#utility.yul\":1128:1161   */\n      tag_46\n      jump\t// in\n    tag_81:\n        /* \"#utility.yul\":1038:1167   */\n      swap2\n      swap1\n      pop\n      jump\t// out\n        /* \"#utility.yul\":1173:1484   */\n    tag_48:\n        /* \"#utility.yul\":1250:1254   */\n      0x00\n        /* \"#utility.yul\":1340:1358   */\n      0xffffffffffffffff\n        /* \"#utility.yul\":1332:1338   */\n      dup3\n        /* \"#utility.yul\":1329:1359   */\n      gt\n        /* \"#utility.yul\":1326:1382   */\n      iszero\n      tag_83\n      jumpi\n        /* \"#utility.yul\":1362:1380   */\n      tag_84\n      tag_21\n      jump\t// in\n    tag_84:\n        /* \"#utility.yul\":1326:1382   */\n    tag_83:\n        /* \"#utility.yul\":1412:1416   */\n      0x20\n        /* \"#utility.yul\":1404:1410   */\n      dup3\n        /* \"#utility.yul\":1400:1417   */\n      mul\n        /* \"#utility.yul\":1392:1417   */\n      swap1\n      pop\n        /* \"#utility.yul\":1472:1476   */\n      0x20\n        /* \"#utility.yul\":1466:1470   */\n      dup2\n        /* \"#utility.yul\":1462:1477   */\n      add\n        /* \"#utility.yul\":1454:1477   */\n      swap1\n      pop\n        /* \"#utility.yul\":1173:1484   */\n      swap2\n      swap1\n      pop\n      jump\t// out\n        /* \"#utility.yul\":1490:1607   */\n    tag_49:\n        /* \"#utility.yul\":1599:1600   */\n      0x00\n        /* \"#utility.yul\":1596:1597   */\n      dup1\n        /* \"#utility.yul\":1589:1601   */\n      revert\n        /* \"#utility.yul\":1613:1690   */\n    tag_50:\n        /* \"#utility.yul\":1650:1657   */\n      0x00\n        /* \"#utility.yul\":1679:1684   */\n      dup2\n        /* \"#utility.yul\":1668:1684   */\n      swap1\n      pop\n        /* \"#utility.yul\":1613:1690   */\n      swap2\n      swap1\n      pop\n      jump\t// out\n        /* \"#utility.yul\":1696:1818   */\n    tag_51:\n        /* \"#utility.yul\":1769:1793   */\n      tag_88\n        /* \"#utility.yul\":1787:1792   */\n      dup2\n        /* \"#utility.yul\":1769:1793   */\n      tag_50\n      jump\t// in\n    tag_88:\n        /* \"#utility.yul\":1762:1767   */\n      dup2\n        /* \"#utility.yul\":1759:1794   */\n      eq\n        /* \"#utility.yul\":1749:1812   */\n      tag_89\n      jumpi\n        /* \"#utility.yul\":1808:1809   */\n      0x00\n        /* \"#utility.yul\":1805:1806   */\n      dup1\n        /* \"#utility.yul\":1798:1810   */\n      revert\n        /* \"#utility.yul\":1749:1812   */\n    tag_89:\n        /* \"#utility.yul\":1696:1818   */\n      pop\n      jump\t// out\n        /* \"#utility.yul\":1824:1963   */\n    tag_52:\n        /* \"#utility.yul\":1870:1875   */\n      0x00\n        /* \"#utility.yul\":1908:1914   */\n      dup2\n        /* \"#utility.yul\":1895:1915   */\n      calldataload\n        /* \"#utility.yul\":1886:1915   */\n      swap1\n      pop\n        /* \"#utility.yul\":1924:1957   */\n      tag_91\n        /* \"#utility.yul\":1951:1956   */\n      dup2\n        /* \"#utility.yul\":1924:1957   */\n      tag_51\n      jump\t// in\n    tag_91:\n        /* \"#utility.yul\":1824:1963   */\n      swap3\n      swap2\n      pop\n      pop\n      jump\t// out\n        /* \"#utility.yul\":1986:2696   */\n    tag_53:\n        /* \"#utility.yul\":2082:2087   */\n      0x00\n        /* \"#utility.yul\":2107:2188   */\n      tag_93\n        /* \"#utility.yul\":2123:2187   */\n      tag_94\n        /* \"#utility.yul\":2180:2186   */\n      dup5\n        /* \"#utility.yul\":2123:2187   */\n      tag_48\n      jump\t// in\n    tag_94:\n        /* \"#utility.yul\":2107:2188   */\n      tag_47\n      jump\t// in\n    tag_93:\n        /* \"#utility.yul\":2098:2188   */\n      swap1\n      pop\n        /* \"#utility.yul\":2208:2213   */\n      dup1\n        /* \"#utility.yul\":2237:2243   */\n      dup4\n        /* \"#utility.yul\":2230:2235   */\n      dup3\n        /* \"#utility.yul\":2223:2244   */\n      mstore\n        /* \"#utility.yul\":2271:2275   */\n      0x20\n        /* \"#utility.yul\":2264:2269   */\n      dup3\n        /* \"#utility.yul\":2260:2276   */\n      add\n        /* \"#utility.yul\":2253:2276   */\n      swap1\n      pop\n        /* \"#utility.yul\":2324:2328   */\n      0x20\n        /* \"#utility.yul\":2316:2322   */\n      dup5\n        /* \"#utility.yul\":2312:2329   */\n      mul\n        /* \"#utility.yul\":2304:2310   */\n      dup4\n        /* \"#utility.yul\":2300:2330   */\n      add\n        /* \"#utility.yul\":2353:2356   */\n      dup6\n        /* \"#utility.yul\":2345:2351   */\n      dup2\n        /* \"#utility.yul\":2342:2357   */\n      gt\n        /* \"#utility.yul\":2339:2461   */\n      iszero\n      tag_95\n      jumpi\n        /* \"#utility.yul\":2372:2451   */\n      tag_96\n      tag_49\n      jump\t// in\n    tag_96:\n        /* \"#utility.yul\":2339:2461   */\n    tag_95:\n        /* \"#utility.yul\":2487:2493   */\n      dup4\n        /* \"#utility.yul\":2470:2690   */\n    tag_97:\n        /* \"#utility.yul\":2504:2510   */\n      dup2\n        /* \"#utility.yul\":2499:2502   */\n      dup2\n        /* \"#utility.yul\":2496:2511   */\n      lt\n        /* \"#utility.yul\":2470:2690   */\n      iszero\n      tag_99\n      jumpi\n        /* \"#utility.yul\":2579:2582   */\n      dup1\n        /* \"#utility.yul\":2608:2645   */\n      tag_100\n        /* \"#utility.yul\":2641:2644   */\n      dup9\n        /* \"#utility.yul\":2629:2639   */\n      dup3\n        /* \"#utility.yul\":2608:2645   */\n      tag_52\n      jump\t// in\n    tag_100:\n        /* \"#utility.yul\":2603:2606   */\n      dup5\n        /* \"#utility.yul\":2596:2646   */\n      mstore\n        /* \"#utility.yul\":2675:2679   */\n      0x20\n        /* \"#utility.yul\":2670:2673   */\n      dup5\n        /* \"#utility.yul\":2666:2680   */\n      add\n        /* \"#utility.yul\":2659:2680   */\n      swap4\n      pop\n        /* \"#utility.yul\":2546:2690   */\n      pop\n        /* \"#utility.yul\":2530:2534   */\n      0x20\n        /* \"#utility.yul\":2525:2528   */\n      dup2\n        /* \"#utility.yul\":2521:2535   */\n      add\n        /* \"#utility.yul\":2514:2535   */\n      swap1\n      pop\n        /* \"#utility.yul\":2470:2690   */\n      jump(tag_97)\n    tag_99:\n        /* \"#utility.yul\":2474:2495   */\n      pop\n        /* \"#utility.yul\":2088:2696   */\n      pop\n      pop\n        /* \"#utility.yul\":1986:2696   */\n      swap4\n      swap3\n      pop\n      pop\n      pop\n      jump\t// out\n        /* \"#utility.yul\":2719:3089   */\n    tag_54:\n        /* \"#utility.yul\":2790:2795   */\n      0x00\n        /* \"#utility.yul\":2839:2842   */\n      dup3\n        /* \"#utility.yul\":2832:2836   */\n      0x1f\n        /* \"#utility.yul\":2824:2830   */\n      dup4\n        /* \"#utility.yul\":2820:2837   */\n      add\n        /* \"#utility.yul\":2816:2843   */\n      slt\n        /* \"#utility.yul\":2806:2928   */\n      tag_102\n      jumpi\n        /* \"#utility.yul\":2847:2926   */\n      tag_103\n      tag_44\n      jump\t// in\n    tag_103:\n        /* \"#utility.yul\":2806:2928   */\n    tag_102:\n        /* \"#utility.yul\":2964:2970   */\n      dup2\n        /* \"#utility.yul\":2951:2971   */\n      calldataload\n        /* \"#utility.yul\":2989:3083   */\n      tag_104\n        /* \"#utility.yul\":3079:3082   */\n      dup5\n        /* \"#utility.yul\":3071:3077   */\n      dup3\n        /* \"#utility.yul\":3064:3068   */\n      0x20\n        /* \"#utility.yul\":3056:3062   */\n      dup7\n        /* \"#utility.yul\":3052:3069   */\n      add\n        /* \"#utility.yul\":2989:3083   */\n      tag_53\n      jump\t// in\n    tag_104:\n        /* \"#utility.yul\":2980:3083   */\n      swap2\n      pop\n        /* \"#utility.yul\":2796:3089   */\n      pop\n        /* \"#utility.yul\":2719:3089   */\n      swap3\n      swap2\n      pop\n      pop\n      jump\t// out\n        /* \"#utility.yul\":3095:3779   */\n    tag_6:\n        /* \"#utility.yul\":3188:3194   */\n      0x00\n        /* \"#utility.yul\":3196:3202   */\n      dup1\n        /* \"#utility.yul\":3245:3247   */\n      0x40\n        /* \"#utility.yul\":3233:3242   */\n      dup4\n        /* \"#utility.yul\":3224:3231   */\n      dup6\n        /* \"#utility.yul\":3220:3243   */\n      sub\n        /* \"#utility.yul\":3216:3248   */\n      slt\n        /* \"#utility.yul\":3213:3332   */\n      iszero\n      tag_106\n      jumpi\n        /* \"#utility.yul\":3251:3330   */\n      tag_107\n      tag_42\n      jump\t// in\n    tag_107:\n        /* \"#utility.yul\":3213:3332   */\n    tag_106:\n        /* \"#utility.yul\":3399:3400   */\n      0x00\n        /* \"#utility.yul\":3388:3397   */\n      dup4\n        /* \"#utility.yul\":3384:3401   */\n      add\n        /* \"#utility.yul\":3371:3402   */\n      calldataload\n        /* \"#utility.yul\":3429:3447   */\n      0xffffffffffffffff\n        /* \"#utility.yul\":3421:3427   */\n      dup2\n        /* \"#utility.yul\":3418:3448   */\n      gt\n        /* \"#utility.yul\":3415:3532   */\n      iszero\n      tag_108\n      jumpi\n        /* \"#utility.yul\":3451:3530   */\n      tag_109\n      tag_43\n      jump\t// in\n    tag_109:\n        /* \"#utility.yul\":3415:3532   */\n    tag_108:\n        /* \"#utility.yul\":3556:3634   */\n      tag_110\n        /* \"#utility.yul\":3626:3633   */\n      dup6\n        /* \"#utility.yul\":3617:3623   */\n      dup3\n        /* \"#utility.yul\":3606:3615   */\n      dup7\n        /* \"#utility.yul\":3602:3624   */\n      add\n        /* \"#utility.yul\":3556:3634   */\n      tag_54\n      jump\t// in\n    tag_110:\n        /* \"#utility.yul\":3546:3634   */\n      swap3\n      pop\n        /* \"#utility.yul\":3342:3644   */\n      pop\n        /* \"#utility.yul\":3683:3685   */\n      0x20\n        /* \"#utility.yul\":3709:3762   */\n      tag_111\n        /* \"#utility.yul\":3754:3761   */\n      dup6\n        /* \"#utility.yul\":3745:3751   */\n      dup3\n        /* \"#utility.yul\":3734:3743   */\n      dup7\n        /* \"#utility.yul\":3730:3752   */\n      add\n        /* \"#utility.yul\":3709:3762   */\n      tag_52\n      jump\t// in\n    tag_111:\n        /* \"#utility.yul\":3699:3762   */\n      swap2\n      pop\n        /* \"#utility.yul\":3654:3772   */\n      pop\n        /* \"#utility.yul\":3095:3779   */\n      swap3\n      pop\n      swap3\n      swap1\n      pop\n      jump\t// out\n        /* \"#utility.yul\":3785:3899   */\n    tag_55:\n        /* \"#utility.yul\":3852:3858   */\n      0x00\n        /* \"#utility.yul\":3886:3891   */\n      dup2\n        /* \"#utility.yul\":3880:3892   */\n      mload\n        /* \"#utility.yul\":3870:3892   */\n      swap1\n      pop\n        /* \"#utility.yul\":3785:3899   */\n      swap2\n      swap1\n      pop\n      jump\t// out\n        /* \"#utility.yul\":3905:4089   */\n    tag_56:\n        /* \"#utility.yul\":4004:4015   */\n      0x00\n        /* \"#utility.yul\":4038:4044   */\n      dup3\n        /* \"#utility.yul\":4033:4036   */\n      dup3\n        /* \"#utility.yul\":4026:4045   */\n      mstore\n        /* \"#utility.yul\":4078:4082   */\n      0x20\n        /* \"#utility.yul\":4073:4076   */\n      dup3\n        /* \"#utility.yul\":4069:4083   */\n      add\n        /* \"#utility.yul\":4054:4083   */\n      swap1\n      pop\n        /* \"#utility.yul\":3905:4089   */\n      swap3\n      swap2\n      pop\n      pop\n      jump\t// out\n        /* \"#utility.yul\":4095:4227   */\n    tag_57:\n        /* \"#utility.yul\":4162:4166   */\n      0x00\n        /* \"#utility.yul\":4185:4188   */\n      dup2\n        /* \"#utility.yul\":4177:4188   */\n      swap1\n      pop\n        /* \"#utility.yul\":4215:4219   */\n      0x20\n        /* \"#utility.yul\":4210:4213   */\n      dup3\n        /* \"#utility.yul\":4206:4220   */\n      add\n        /* \"#utility.yul\":4198:4220   */\n      swap1\n      pop\n        /* \"#utility.yul\":4095:4227   */\n      swap2\n      swap1\n      pop\n      jump\t// out\n        /* \"#utility.yul\":4233:4341   */\n    tag_58:\n        /* \"#utility.yul\":4310:4334   */\n      tag_116\n        /* \"#utility.yul\":4328:4333   */\n      dup2\n        /* \"#utility.yul\":4310:4334   */\n      tag_50\n      jump\t// in\n    tag_116:\n        /* \"#utility.yul\":4305:4308   */\n      dup3\n        /* \"#utility.yul\":4298:4335   */\n      mstore\n        /* \"#utility.yul\":4233:4341   */\n      pop\n      pop\n      jump\t// out\n        /* \"#utility.yul\":4347:4526   */\n    tag_59:\n        /* \"#utility.yul\":4416:4426   */\n      0x00\n        /* \"#utility.yul\":4437:4483   */\n      tag_118\n        /* \"#utility.yul\":4479:4482   */\n      dup4\n        /* \"#utility.yul\":4471:4477   */\n      dup4\n        /* \"#utility.yul\":4437:4483   */\n      tag_58\n      jump\t// in\n    tag_118:\n        /* \"#utility.yul\":4515:4519   */\n      0x20\n        /* \"#utility.yul\":4510:4513   */\n      dup4\n        /* \"#utility.yul\":4506:4520   */\n      add\n        /* \"#utility.yul\":4492:4520   */\n      swap1\n      pop\n        /* \"#utility.yul\":4347:4526   */\n      swap3\n      swap2\n      pop\n      pop\n      jump\t// out\n        /* \"#utility.yul\":4532:4645   */\n    tag_60:\n        /* \"#utility.yul\":4602:4606   */\n      0x00\n        /* \"#utility.yul\":4634:4638   */\n      0x20\n        /* \"#utility.yul\":4629:4632   */\n      dup3\n        /* \"#utility.yul\":4625:4639   */\n      add\n        /* \"#utility.yul\":4617:4639   */\n      swap1\n      pop\n        /* \"#utility.yul\":4532:4645   */\n      swap2\n      swap1\n      pop\n      jump\t// out\n        /* \"#utility.yul\":4681:5413   */\n    tag_61:\n        /* \"#utility.yul\":4800:4803   */\n      0x00\n        /* \"#utility.yul\":4829:4883   */\n      tag_121\n        /* \"#utility.yul\":4877:4882   */\n      dup3\n        /* \"#utility.yul\":4829:4883   */\n      tag_55\n      jump\t// in\n    tag_121:\n        /* \"#utility.yul\":4899:4985   */\n      tag_122\n        /* \"#utility.yul\":4978:4984   */\n      dup2\n        /* \"#utility.yul\":4973:4976   */\n      dup6\n        /* \"#utility.yul\":4899:4985   */\n      tag_56\n      jump\t// in\n    tag_122:\n        /* \"#utility.yul\":4892:4985   */\n      swap4\n      pop\n        /* \"#utility.yul\":5009:5065   */\n      tag_123\n        /* \"#utility.yul\":5059:5064   */\n      dup4\n        /* \"#utility.yul\":5009:5065   */\n      tag_57\n      jump\t// in\n    tag_123:\n        /* \"#utility.yul\":5088:5095   */\n      dup1\n        /* \"#utility.yul\":5119:5120   */\n      0x00\n        /* \"#utility.yul\":5104:5388   */\n    tag_124:\n        /* \"#utility.yul\":5129:5135   */\n      dup4\n        /* \"#utility.yul\":5126:5127   */\n      dup2\n        /* \"#utility.yul\":5123:5136   */\n      lt\n        /* \"#utility.yul\":5104:5388   */\n      iszero\n      tag_126\n      jumpi\n        /* \"#utility.yul\":5205:5211   */\n      dup2\n        /* \"#utility.yul\":5199:5212   */\n      mload\n        /* \"#utility.yul\":5232:5295   */\n      tag_127\n        /* \"#utility.yul\":5291:5294   */\n      dup9\n        /* \"#utility.yul\":5276:5289   */\n      dup3\n        /* \"#utility.yul\":5232:5295   */\n      tag_59\n      jump\t// in\n    tag_127:\n        /* \"#utility.yul\":5225:5295   */\n      swap8\n      pop\n        /* \"#utility.yul\":5318:5378   */\n      tag_128\n        /* \"#utility.yul\":5371:5377   */\n      dup4\n        /* \"#utility.yul\":5318:5378   */\n      tag_60\n      jump\t// in\n    tag_128:\n        /* \"#utility.yul\":5308:5378   */\n      swap3\n      pop\n        /* \"#utility.yul\":5164:5388   */\n      pop\n        /* \"#utility.yul\":5151:5152   */\n      0x01\n        /* \"#utility.yul\":5148:5149   */\n      dup2\n        /* \"#utility.yul\":5144:5153   */\n      add\n        /* \"#utility.yul\":5139:5153   */\n      swap1\n      pop\n        /* \"#utility.yul\":5104:5388   */\n      jump(tag_124)\n    tag_126:\n        /* \"#utility.yul\":5108:5122   */\n      pop\n        /* \"#utility.yul\":5404:5407   */\n      dup6\n        /* \"#utility.yul\":5397:5407   */\n      swap4\n      pop\n        /* \"#utility.yul\":4805:5413   */\n      pop\n      pop\n      pop\n        /* \"#utility.yul\":4681:5413   */\n      swap3\n      swap2\n      pop\n      pop\n      jump\t// out\n        /* \"#utility.yul\":5419:5792   */\n    tag_9:\n        /* \"#utility.yul\":5562:5566   */\n      0x00\n        /* \"#utility.yul\":5600:5602   */\n      0x20\n        /* \"#utility.yul\":5589:5598   */\n      dup3\n        /* \"#utility.yul\":5585:5603   */\n      add\n        /* \"#utility.yul\":5577:5603   */\n      swap1\n      pop\n        /* \"#utility.yul\":5649:5658   */\n      dup2\n        /* \"#utility.yul\":5643:5647   */\n      dup2\n        /* \"#utility.yul\":5639:5659   */\n      sub\n        /* \"#utility.yul\":5635:5636   */\n      0x00\n        /* \"#utility.yul\":5624:5633   */\n      dup4\n        /* \"#utility.yul\":5620:5637   */\n      add\n        /* \"#utility.yul\":5613:5660   */\n      mstore\n        /* \"#utility.yul\":5677:5785   */\n      tag_130\n        /* \"#utility.yul\":5780:5784   */\n      dup2\n        /* \"#utility.yul\":5771:5777   */\n      dup5\n        /* \"#utility.yul\":5677:5785   */\n      tag_61\n      jump\t// in\n    tag_130:\n        /* \"#utility.yul\":5669:5785   */\n      swap1\n      pop\n        /* \"#utility.yul\":5419:5792   */\n      swap3\n      swap2\n      pop\n      pop\n      jump\t// out\n        /* \"#utility.yul\":5798:5967   */\n    tag_62:\n        /* \"#utility.yul\":5882:5893   */\n      0x00\n        /* \"#utility.yul\":5916:5922   */\n      dup3\n        /* \"#utility.yul\":5911:5914   */\n      dup3\n        /* \"#utility.yul\":5904:5923   */\n      mstore\n        /* \"#utility.yul\":5956:5960   */\n      0x20\n        /* \"#utility.yul\":5951:5954   */\n      dup3\n        /* \"#utility.yul\":5947:5961   */\n      add\n        /* \"#utility.yul\":5932:5961   */\n      swap1\n      pop\n        /* \"#utility.yul\":5798:5967   */\n      swap3\n      swap2\n      pop\n      pop\n      jump\t// out\n        /* \"#utility.yul\":5973:6137   */\n    tag_63:\n        /* \"#utility.yul\":6113:6129   */\n      0x417272617920697320656d707479000000000000000000000000000000000000\n        /* \"#utility.yul\":6109:6110   */\n      0x00\n        /* \"#utility.yul\":6101:6107   */\n      dup3\n        /* \"#utility.yul\":6097:6111   */\n      add\n        /* \"#utility.yul\":6090:6130   */\n      mstore\n        /* \"#utility.yul\":5973:6137   */\n      pop\n      jump\t// out\n        /* \"#utility.yul\":6143:6509   */\n    tag_64:\n        /* \"#utility.yul\":6285:6288   */\n      0x00\n        /* \"#utility.yul\":6306:6373   */\n      tag_134\n        /* \"#utility.yul\":6370:6372   */\n      0x0e\n        /* \"#utility.yul\":6365:6368   */\n      dup4\n        /* \"#utility.yul\":6306:6373   */\n      tag_62\n      jump\t// in\n    tag_134:\n        /* \"#utility.yul\":6299:6373   */\n      swap2\n      pop\n        /* \"#utility.yul\":6382:6475   */\n      tag_135\n        /* \"#utility.yul\":6471:6474   */\n      dup3\n        /* \"#utility.yul\":6382:6475   */\n      tag_63\n      jump\t// in\n    tag_135:\n        /* \"#utility.yul\":6500:6502   */\n      0x20\n        /* \"#utility.yul\":6495:6498   */\n      dup3\n        /* \"#utility.yul\":6491:6503   */\n      add\n        /* \"#utility.yul\":6484:6503   */\n      swap1\n      pop\n        /* \"#utility.yul\":6143:6509   */\n      swap2\n      swap1\n      pop\n      jump\t// out\n        /* \"#utility.yul\":6515:6934   */\n    tag_13:\n        /* \"#utility.yul\":6681:6685   */\n      0x00\n        /* \"#utility.yul\":6719:6721   */\n      0x20\n        /* \"#utility.yul\":6708:6717   */\n      dup3\n        /* \"#utility.yul\":6704:6722   */\n      add\n        /* \"#utility.yul\":6696:6722   */\n      swap1\n      pop\n        /* \"#utility.yul\":6768:6777   */\n      dup2\n        /* \"#utility.yul\":6762:6766   */\n      dup2\n        /* \"#utility.yul\":6758:6778   */\n      sub\n        /* \"#utility.yul\":6754:6755   */\n      0x00\n        /* \"#utility.yul\":6743:6752   */\n      dup4\n        /* \"#utility.yul\":6739:6756   */\n      add\n        /* \"#utility.yul\":6732:6779   */\n      mstore\n        /* \"#utility.yul\":6796:6927   */\n      tag_137\n        /* \"#utility.yul\":6922:6926   */\n      dup2\n        /* \"#utility.yul\":6796:6927   */\n      tag_64\n      jump\t// in\n    tag_137:\n        /* \"#utility.yul\":6788:6927   */\n      swap1\n      pop\n        /* \"#utility.yul\":6515:6934   */\n      swap2\n      swap1\n      pop\n      jump\t// out\n        /* \"#utility.yul\":6940:7103   */\n    tag_65:\n        /* \"#utility.yul\":7080:7095   */\n      0x496e76616c696420696e64657800000000000000000000000000000000000000\n        /* \"#utility.yul\":7076:7077   */\n      0x00\n        /* \"#utility.yul\":7068:7074   */\n      dup3\n        /* \"#utility.yul\":7064:7078   */\n      add\n        /* \"#utility.yul\":7057:7096   */\n      mstore\n        /* \"#utility.yul\":6940:7103   */\n      pop\n      jump\t// out\n        /* \"#utility.yul\":7109:7475   */\n    tag_66:\n        /* \"#utility.yul\":7251:7254   */\n      0x00\n        /* \"#utility.yul\":7272:7339   */\n      tag_140\n        /* \"#utility.yul\":7336:7338   */\n      0x0d\n        /* \"#utility.yul\":7331:7334   */\n      dup4\n        /* \"#utility.yul\":7272:7339   */\n      tag_62\n      jump\t// in\n    tag_140:\n        /* \"#utility.yul\":7265:7339   */\n      swap2\n      pop\n        /* \"#utility.yul\":7348:7441   */\n      tag_141\n        /* \"#utility.yul\":7437:7440   */\n      dup3\n        /* \"#utility.yul\":7348:7441   */\n      tag_65\n      jump\t// in\n    tag_141:\n        /* \"#utility.yul\":7466:7468   */\n      0x20\n        /* \"#utility.yul\":7461:7464   */\n      dup3\n        /* \"#utility.yul\":7457:7469   */\n      add\n        /* \"#utility.yul\":7450:7469   */\n      swap1\n      pop\n        /* \"#utility.yul\":7109:7475   */\n      swap2\n      swap1\n      pop\n      jump\t// out\n        /* \"#utility.yul\":7481:7900   */\n    tag_16:\n        /* \"#utility.yul\":7647:7651   */\n      0x00\n        /* \"#utility.yul\":7685:7687   */\n      0x20\n        /* \"#utility.yul\":7674:7683   */\n      dup3\n        /* \"#utility.yul\":7670:7688   */\n      add\n        /* \"#utility.yul\":7662:7688   */\n      swap1\n      pop\n        /* \"#utility.yul\":7734:7743   */\n      dup2\n        /* \"#utility.yul\":7728:7732   */\n      dup2\n        /* \"#utility.yul\":7724:7744   */\n      sub\n        /* \"#utility.yul\":7720:7721   */\n      0x00\n        /* \"#utility.yul\":7709:7718   */\n      dup4\n        /* \"#utility.yul\":7705:7722   */\n      add\n        /* \"#utility.yul\":7698:7745   */\n      mstore\n        /* \"#utility.yul\":7762:7893   */\n      tag_143\n        /* \"#utility.yul\":7888:7892   */\n      dup2\n        /* \"#utility.yul\":7762:7893   */\n      tag_66\n      jump\t// in\n    tag_143:\n        /* \"#utility.yul\":7754:7893   */\n      swap1\n      pop\n        /* \"#utility.yul\":7481:7900   */\n      swap2\n      swap1\n      pop\n      jump\t// out\n        /* \"#utility.yul\":7906:8086   */\n    tag_67:\n        /* \"#utility.yul\":7954:8031   */\n      0x4e487b7100000000000000000000000000000000000000000000000000000000\n        /* \"#utility.yul\":7951:7952   */\n      0x00\n        /* \"#utility.yul\":7944:8032   */\n      mstore\n        /* \"#utility.yul\":8051:8055   */\n      0x11\n        /* \"#utility.yul\":8048:8049   */\n      0x04\n        /* \"#utility.yul\":8041:8056   */\n      mstore\n        /* \"#utility.yul\":8075:8079   */\n      0x24\n        /* \"#utility.yul\":8072:8073   */\n      0x00\n        /* \"#utility.yul\":8065:8080   */\n      revert\n        /* \"#utility.yul\":8092:8286   */\n    tag_18:\n        /* \"#utility.yul\":8132:8136   */\n      0x00\n        /* \"#utility.yul\":8152:8172   */\n      tag_146\n        /* \"#utility.yul\":8170:8171   */\n      dup3\n        /* \"#utility.yul\":8152:8172   */\n      tag_50\n      jump\t// in\n    tag_146:\n        /* \"#utility.yul\":8147:8172   */\n      swap2\n      pop\n        /* \"#utility.yul\":8186:8206   */\n      tag_147\n        /* \"#utility.yul\":8204:8205   */\n      dup4\n        /* \"#utility.yul\":8186:8206   */\n      tag_50\n      jump\t// in\n    tag_147:\n        /* \"#utility.yul\":8181:8206   */\n      swap3\n      pop\n        /* \"#utility.yul\":8230:8231   */\n      dup3\n        /* \"#utility.yul\":8227:8228   */\n      dup3\n        /* \"#utility.yul\":8223:8232   */\n      sub\n        /* \"#utility.yul\":8215:8232   */\n      swap1\n      pop\n        /* \"#utility.yul\":8254:8255   */\n      dup2\n        /* \"#utility.yul\":8248:8252   */\n      dup2\n        /* \"#utility.yul\":8245:8256   */\n      gt\n        /* \"#utility.yul\":8242:8279   */\n      iszero\n      tag_148\n      jumpi\n        /* \"#utility.yul\":8259:8277   */\n      tag_149\n      tag_67\n      jump\t// in\n    tag_149:\n        /* \"#utility.yul\":8242:8279   */\n    tag_148:\n        /* \"#utility.yul\":8092:8286   */\n      swap3\n      swap2\n      pop\n      pop\n      jump\t// out\n        /* \"#utility.yul\":8292:8472   */\n    tag_28:\n        /* \"#utility.yul\":8340:8417   */\n      0x4e487b7100000000000000000000000000000000000000000000000000000000\n        /* \"#utility.yul\":8337:8338   */\n      0x00\n        /* \"#utility.yul\":8330:8418   */\n      mstore\n        /* \"#utility.yul\":8437:8441   */\n      0x32\n        /* \"#utility.yul\":8434:8435   */\n      0x04\n        /* \"#utility.yul\":8427:8442   */\n      mstore\n        /* \"#utility.yul\":8461:8465   */\n      0x24\n        /* \"#utility.yul\":8458:8459   */\n      0x00\n        /* \"#utility.yul\":8451:8466   */\n      revert\n        /* \"#utility.yul\":8478:8669   */\n    tag_36:\n        /* \"#utility.yul\":8518:8521   */\n      0x00\n        /* \"#utility.yul\":8537:8557   */\n      tag_152\n        /* \"#utility.yul\":8555:8556   */\n      dup3\n        /* \"#utility.yul\":8537:8557   */\n      tag_50\n      jump\t// in\n    tag_152:\n        /* \"#utility.yul\":8532:8557   */\n      swap2\n      pop\n        /* \"#utility.yul\":8571:8591   */\n      tag_153\n        /* \"#utility.yul\":8589:8590   */\n      dup4\n        /* \"#utility.yul\":8571:8591   */\n      tag_50\n      jump\t// in\n    tag_153:\n        /* \"#utility.yul\":8566:8591   */\n      swap3\n      pop\n        /* \"#utility.yul\":8614:8615   */\n      dup3\n        /* \"#utility.yul\":8611:8612   */\n      dup3\n        /* \"#utility.yul\":8607:8616   */\n      add\n        /* \"#utility.yul\":8600:8616   */\n      swap1\n      pop\n        /* \"#utility.yul\":8635:8638   */\n      dup1\n        /* \"#utility.yul\":8632:8633   */\n      dup3\n        /* \"#utility.yul\":8629:8639   */\n      gt\n        /* \"#utility.yul\":8626:8662   */\n      iszero\n      tag_154\n      jumpi\n        /* \"#utility.yul\":8642:8660   */\n      tag_155\n      tag_67\n      jump\t// in\n    tag_155:\n        /* \"#utility.yul\":8626:8662   */\n    tag_154:\n        /* \"#utility.yul\":8478:8669   */\n      swap3\n      swap2\n      pop\n      pop\n      jump\t// out\n\n    auxdata: 0xa2646970667358221220879fe5027bafe2c952de42b62761a08314d99478cd0b4d36885d065b012a182764736f6c634300081a0033\n}\n",
				"bytecode": {
					"linkReferences": {},
					"object": "6080604052348015600e575f80fd5b506106a38061001c5f395ff3fe608060405234801561000f575f80fd5b5060043610610029575f3560e01c8063329af2e41461002d575b5f80fd5b6100476004803603810190610042919061039c565b61005d565b60405161005491906104ad565b60405180910390f35b60605f8351116100a2576040517f08c379a000000000000000000000000000000000000000000000000000000000815260040161009990610527565b60405180910390fd5b825182106100e5576040517f08c379a00000000000000000000000000000000000000000000000000000000081526004016100dc9061058f565b60405180910390fd5b5f600184516100f491906105da565b67ffffffffffffffff81111561010d5761010c61022d565b5b60405190808252806020026020018201604052801561013b5781602001602082028036833780820191505090505b5090505f5b8381101561018f5784818151811061015b5761015a61060d565b5b60200260200101518282815181106101765761017561060d565b5b6020026020010181815250508080600101915050610140565b505f8390505b600185516101a391906105da565b8110156101fd57846001826101b8919061063a565b815181106101c9576101c861060d565b5b60200260200101518282815181106101e4576101e361060d565b5b6020026020010181815250508080600101915050610195565b508091505092915050565b5f604051905090565b5f80fd5b5f80fd5b5f80fd5b5f601f19601f8301169050919050565b7f4e487b71000000000000000000000000000000000000000000000000000000005f52604160045260245ffd5b6102638261021d565b810181811067ffffffffffffffff821117156102825761028161022d565b5b80604052505050565b5f610294610208565b90506102a0828261025a565b919050565b5f67ffffffffffffffff8211156102bf576102be61022d565b5b602082029050602081019050919050565b5f80fd5b5f819050919050565b6102e6816102d4565b81146102f0575f80fd5b50565b5f81359050610301816102dd565b92915050565b5f610319610314846102a5565b61028b565b9050808382526020820190506020840283018581111561033c5761033b6102d0565b5b835b81811015610365578061035188826102f3565b84526020840193505060208101905061033e565b5050509392505050565b5f82601f83011261038357610382610219565b5b8135610393848260208601610307565b91505092915050565b5f80604083850312156103b2576103b1610211565b5b5f83013567ffffffffffffffff8111156103cf576103ce610215565b5b6103db8582860161036f565b92505060206103ec858286016102f3565b9150509250929050565b5f81519050919050565b5f82825260208201905092915050565b5f819050602082019050919050565b610428816102d4565b82525050565b5f610439838361041f565b60208301905092915050565b5f602082019050919050565b5f61045b826103f6565b6104658185610400565b935061047083610410565b805f5b838110156104a0578151610487888261042e565b975061049283610445565b925050600181019050610473565b5085935050505092915050565b5f6020820190508181035f8301526104c58184610451565b905092915050565b5f82825260208201905092915050565b7f417272617920697320656d7074790000000000000000000000000000000000005f82015250565b5f610511600e836104cd565b915061051c826104dd565b602082019050919050565b5f6020820190508181035f83015261053e81610505565b9050919050565b7f496e76616c696420696e646578000000000000000000000000000000000000005f82015250565b5f610579600d836104cd565b915061058482610545565b602082019050919050565b5f6020820190508181035f8301526105a68161056d565b9050919050565b7f4e487b71000000000000000000000000000000000000000000000000000000005f52601160045260245ffd5b5f6105e4826102d4565b91506105ef836102d4565b9250828203905081811115610607576106066105ad565b5b92915050565b7f4e487b71000000000000000000000000000000000000000000000000000000005f52603260045260245ffd5b5f610644826102d4565b915061064f836102d4565b9250828201905080821115610667576106666105ad565b5b9291505056fea2646970667358221220879fe5027bafe2c952de42b62761a08314d99478cd0b4d36885d065b012a182764736f6c634300081a0033",
					"opcodes": "PUSH1 0x80 PUSH1 0x40 MSTORE CALLVALUE DUP1 ISZERO PUSH1 0xE JUMPI PUSH0 DUP1 REVERT JUMPDEST POP PUSH2 0x6A3 DUP1 PUSH2 0x1C PUSH0 CODECOPY PUSH0 RETURN INVALID PUSH1 0x80 PUSH1 0x40 MSTORE CALLVALUE DUP1 ISZERO PUSH2 0xF JUMPI PUSH0 DUP1 REVERT JUMPDEST POP PUSH1 0x4 CALLDATASIZE LT PUSH2 0x29 JUMPI PUSH0 CALLDATALOAD PUSH1 0xE0 SHR DUP1 PUSH4 0x329AF2E4 EQ PUSH2 0x2D JUMPI JUMPDEST PUSH0 DUP1 REVERT JUMPDEST PUSH2 0x47 PUSH1 0x4 DUP1 CALLDATASIZE SUB DUP2 ADD SWAP1 PUSH2 0x42 SWAP2 SWAP1 PUSH2 0x39C JUMP JUMPDEST PUSH2 0x5D JUMP JUMPDEST PUSH1 0x40 MLOAD PUSH2 0x54 SWAP2 SWAP1 PUSH2 0x4AD JUMP JUMPDEST PUSH1 0x40 MLOAD DUP1 SWAP2 SUB SWAP1 RETURN JUMPDEST PUSH1 0x60 PUSH0 DUP4 MLOAD GT PUSH2 0xA2 JUMPI PUSH1 0x40 MLOAD PUSH32 0x8C379A000000000000000000000000000000000000000000000000000000000 DUP2 MSTORE PUSH1 0x4 ADD PUSH2 0x99 SWAP1 PUSH2 0x527 JUMP JUMPDEST PUSH1 0x40 MLOAD DUP1 SWAP2 SUB SWAP1 REVERT JUMPDEST DUP3 MLOAD DUP3 LT PUSH2 0xE5 JUMPI PUSH1 0x40 MLOAD PUSH32 0x8C379A000000000000000000000000000000000000000000000000000000000 DUP2 MSTORE PUSH1 0x4 ADD PUSH2 0xDC SWAP1 PUSH2 0x58F JUMP JUMPDEST PUSH1 0x40 MLOAD DUP1 SWAP2 SUB SWAP1 REVERT JUMPDEST PUSH0 PUSH1 0x1 DUP5 MLOAD PUSH2 0xF4 SWAP2 SWAP1 PUSH2 0x5DA JUMP JUMPDEST PUSH8 0xFFFFFFFFFFFFFFFF DUP2 GT ISZERO PUSH2 0x10D JUMPI PUSH2 0x10C PUSH2 0x22D JUMP JUMPDEST JUMPDEST PUSH1 0x40 MLOAD SWAP1 DUP1 DUP3 MSTORE DUP1 PUSH1 0x20 MUL PUSH1 0x20 ADD DUP3 ADD PUSH1 0x40 MSTORE DUP1 ISZERO PUSH2 0x13B JUMPI DUP2 PUSH1 0x20 ADD PUSH1 0x20 DUP3 MUL DUP1 CALLDATASIZE DUP4 CALLDATACOPY DUP1 DUP3 ADD SWAP2 POP POP SWAP1 POP JUMPDEST POP SWAP1 POP PUSH0 JUMPDEST DUP4 DUP2 LT ISZERO PUSH2 0x18F JUMPI DUP5 DUP2 DUP2 MLOAD DUP2 LT PUSH2 0x15B JUMPI PUSH2 0x15A PUSH2 0x60D JUMP JUMPDEST JUMPDEST PUSH1 0x20 MUL PUSH1 0x20 ADD ADD MLOAD DUP3 DUP3 DUP2 MLOAD DUP2 LT PUSH2 0x176 JUMPI PUSH2 0x175 PUSH2 0x60D JUMP JUMPDEST JUMPDEST PUSH1 0x20 MUL PUSH1 0x20 ADD ADD DUP2 DUP2 MSTORE POP POP DUP1 DUP1 PUSH1 0x1 ADD SWAP2 POP POP PUSH2 0x140 JUMP JUMPDEST POP PUSH0 DUP4 SWAP1 POP JUMPDEST PUSH1 0x1 DUP6 MLOAD PUSH2 0x1A3 SWAP2 SWAP1 PUSH2 0x5DA JUMP JUMPDEST DUP2 LT ISZERO PUSH2 0x1FD JUMPI DUP5 PUSH1 0x1 DUP3 PUSH2 0x1B8 SWAP2 SWAP1 PUSH2 0x63A JUMP JUMPDEST DUP2 MLOAD DUP2 LT PUSH2 0x1C9 JUMPI PUSH2 0x1C8 PUSH2 0x60D JUMP JUMPDEST JUMPDEST PUSH1 0x20 MUL PUSH1 0x20 ADD ADD MLOAD DUP3 DUP3 DUP2 MLOAD DUP2 LT PUSH2 0x1E4 JUMPI PUSH2 0x1E3 PUSH2 0x60D JUMP JUMPDEST JUMPDEST PUSH1 0x20 MUL PUSH1 0x20 ADD ADD DUP2 DUP2 MSTORE POP POP DUP1 DUP1 PUSH1 0x1 ADD SWAP2 POP POP PUSH2 0x195 JUMP JUMPDEST POP DUP1 SWAP2 POP POP SWAP3 SWAP2 POP POP JUMP JUMPDEST PUSH0 PUSH1 0x40 MLOAD SWAP1 POP SWAP1 JUMP JUMPDEST PUSH0 DUP1 REVERT JUMPDEST PUSH0 DUP1 REVERT JUMPDEST PUSH0 DUP1 REVERT JUMPDEST PUSH0 PUSH1 0x1F NOT PUSH1 0x1F DUP4 ADD AND SWAP1 POP SWAP2 SWAP1 POP JUMP JUMPDEST PUSH32 0x4E487B7100000000000000000000000000000000000000000000000000000000 PUSH0 MSTORE PUSH1 0x41 PUSH1 0x4 MSTORE PUSH1 0x24 PUSH0 REVERT JUMPDEST PUSH2 0x263 DUP3 PUSH2 0x21D JUMP JUMPDEST DUP2 ADD DUP2 DUP2 LT PUSH8 0xFFFFFFFFFFFFFFFF DUP3 GT OR ISZERO PUSH2 0x282 JUMPI PUSH2 0x281 PUSH2 0x22D JUMP JUMPDEST JUMPDEST DUP1 PUSH1 0x40 MSTORE POP POP POP JUMP JUMPDEST PUSH0 PUSH2 0x294 PUSH2 0x208 JUMP JUMPDEST SWAP1 POP PUSH2 0x2A0 DUP3 DUP3 PUSH2 0x25A JUMP JUMPDEST SWAP2 SWAP1 POP JUMP JUMPDEST PUSH0 PUSH8 0xFFFFFFFFFFFFFFFF DUP3 GT ISZERO PUSH2 0x2BF JUMPI PUSH2 0x2BE PUSH2 0x22D JUMP JUMPDEST JUMPDEST PUSH1 0x20 DUP3 MUL SWAP1 POP PUSH1 0x20 DUP2 ADD SWAP1 POP SWAP2 SWAP1 POP JUMP JUMPDEST PUSH0 DUP1 REVERT JUMPDEST PUSH0 DUP2 SWAP1 POP SWAP2 SWAP1 POP JUMP JUMPDEST PUSH2 0x2E6 DUP2 PUSH2 0x2D4 JUMP JUMPDEST DUP2 EQ PUSH2 0x2F0 JUMPI PUSH0 DUP1 REVERT JUMPDEST POP JUMP JUMPDEST PUSH0 DUP2 CALLDATALOAD SWAP1 POP PUSH2 0x301 DUP2 PUSH2 0x2DD JUMP JUMPDEST SWAP3 SWAP2 POP POP JUMP JUMPDEST PUSH0 PUSH2 0x319 PUSH2 0x314 DUP5 PUSH2 0x2A5 JUMP JUMPDEST PUSH2 0x28B JUMP JUMPDEST SWAP1 POP DUP1 DUP4 DUP3 MSTORE PUSH1 0x20 DUP3 ADD SWAP1 POP PUSH1 0x20 DUP5 MUL DUP4 ADD DUP6 DUP2 GT ISZERO PUSH2 0x33C JUMPI PUSH2 0x33B PUSH2 0x2D0 JUMP JUMPDEST JUMPDEST DUP4 JUMPDEST DUP2 DUP2 LT ISZERO PUSH2 0x365 JUMPI DUP1 PUSH2 0x351 DUP9 DUP3 PUSH2 0x2F3 JUMP JUMPDEST DUP5 MSTORE PUSH1 0x20 DUP5 ADD SWAP4 POP POP PUSH1 0x20 DUP2 ADD SWAP1 POP PUSH2 0x33E JUMP JUMPDEST POP POP POP SWAP4 SWAP3 POP POP POP JUMP JUMPDEST PUSH0 DUP3 PUSH1 0x1F DUP4 ADD SLT PUSH2 0x383 JUMPI PUSH2 0x382 PUSH2 0x219 JUMP JUMPDEST JUMPDEST DUP2 CALLDATALOAD PUSH2 0x393 DUP5 DUP3 PUSH1 0x20 DUP7 ADD PUSH2 0x307 JUMP JUMPDEST SWAP2 POP POP SWAP3 SWAP2 POP POP JUMP JUMPDEST PUSH0 DUP1 PUSH1 0x40 DUP4 DUP6 SUB SLT ISZERO PUSH2 0x3B2 JUMPI PUSH2 0x3B1 PUSH2 0x211 JUMP JUMPDEST JUMPDEST PUSH0 DUP4 ADD CALLDATALOAD PUSH8 0xFFFFFFFFFFFFFFFF DUP2 GT ISZERO PUSH2 0x3CF JUMPI PUSH2 0x3CE PUSH2 0x215 JUMP JUMPDEST JUMPDEST PUSH2 0x3DB DUP6 DUP3 DUP7 ADD PUSH2 0x36F JUMP JUMPDEST SWAP3 POP POP PUSH1 0x20 PUSH2 0x3EC DUP6 DUP3 DUP7 ADD PUSH2 0x2F3 JUMP JUMPDEST SWAP2 POP POP SWAP3 POP SWAP3 SWAP1 POP JUMP JUMPDEST PUSH0 DUP2 MLOAD SWAP1 POP SWAP2 SWAP1 POP JUMP JUMPDEST PUSH0 DUP3 DUP3 MSTORE PUSH1 0x20 DUP3 ADD SWAP1 POP SWAP3 SWAP2 POP POP JUMP JUMPDEST PUSH0 DUP2 SWAP1 POP PUSH1 0x20 DUP3 ADD SWAP1 POP SWAP2 SWAP1 POP JUMP JUMPDEST PUSH2 0x428 DUP2 PUSH2 0x2D4 JUMP JUMPDEST DUP3 MSTORE POP POP JUMP JUMPDEST PUSH0 PUSH2 0x439 DUP4 DUP4 PUSH2 0x41F JUMP JUMPDEST PUSH1 0x20 DUP4 ADD SWAP1 POP SWAP3 SWAP2 POP POP JUMP JUMPDEST PUSH0 PUSH1 0x20 DUP3 ADD SWAP1 POP SWAP2 SWAP1 POP JUMP JUMPDEST PUSH0 PUSH2 0x45B DUP3 PUSH2 0x3F6 JUMP JUMPDEST PUSH2 0x465 DUP2 DUP6 PUSH2 0x400 JUMP JUMPDEST SWAP4 POP PUSH2 0x470 DUP4 PUSH2 0x410 JUMP JUMPDEST DUP1 PUSH0 JUMPDEST DUP4 DUP2 LT ISZERO PUSH2 0x4A0 JUMPI DUP2 MLOAD PUSH2 0x487 DUP9 DUP3 PUSH2 0x42E JUMP JUMPDEST SWAP8 POP PUSH2 0x492 DUP4 PUSH2 0x445 JUMP JUMPDEST SWAP3 POP POP PUSH1 0x1 DUP2 ADD SWAP1 POP PUSH2 0x473 JUMP JUMPDEST POP DUP6 SWAP4 POP POP POP POP SWAP3 SWAP2 POP POP JUMP JUMPDEST PUSH0 PUSH1 0x20 DUP3 ADD SWAP1 POP DUP2 DUP2 SUB PUSH0 DUP4 ADD MSTORE PUSH2 0x4C5 DUP2 DUP5 PUSH2 0x451 JUMP JUMPDEST SWAP1 POP SWAP3 SWAP2 POP POP JUMP JUMPDEST PUSH0 DUP3 DUP3 MSTORE PUSH1 0x20 DUP3 ADD SWAP1 POP SWAP3 SWAP2 POP POP JUMP JUMPDEST PUSH32 0x417272617920697320656D707479000000000000000000000000000000000000 PUSH0 DUP3 ADD MSTORE POP JUMP JUMPDEST PUSH0 PUSH2 0x511 PUSH1 0xE DUP4 PUSH2 0x4CD JUMP JUMPDEST SWAP2 POP PUSH2 0x51C DUP3 PUSH2 0x4DD JUMP JUMPDEST PUSH1 0x20 DUP3 ADD SWAP1 POP SWAP2 SWAP1 POP JUMP JUMPDEST PUSH0 PUSH1 0x20 DUP3 ADD SWAP1 POP DUP2 DUP2 SUB PUSH0 DUP4 ADD MSTORE PUSH2 0x53E DUP2 PUSH2 0x505 JUMP JUMPDEST SWAP1 POP SWAP2 SWAP1 POP JUMP JUMPDEST PUSH32 0x496E76616C696420696E64657800000000000000000000000000000000000000 PUSH0 DUP3 ADD MSTORE POP JUMP JUMPDEST PUSH0 PUSH2 0x579 PUSH1 0xD DUP4 PUSH2 0x4CD JUMP JUMPDEST SWAP2 POP PUSH2 0x584 DUP3 PUSH2 0x545 JUMP JUMPDEST PUSH1 0x20 DUP3 ADD SWAP1 POP SWAP2 SWAP1 POP JUMP JUMPDEST PUSH0 PUSH1 0x20 DUP3 ADD SWAP1 POP DUP2 DUP2 SUB PUSH0 DUP4 ADD MSTORE PUSH2 0x5A6 DUP2 PUSH2 0x56D JUMP JUMPDEST SWAP1 POP SWAP2 SWAP1 POP JUMP JUMPDEST PUSH32 0x4E487B7100000000000000000000000000000000000000000000000000000000 PUSH0 MSTORE PUSH1 0x11 PUSH1 0x4 MSTORE PUSH1 0x24 PUSH0 REVERT JUMPDEST PUSH0 PUSH2 0x5E4 DUP3 PUSH2 0x2D4 JUMP JUMPDEST SWAP2 POP PUSH2 0x5EF DUP4 PUSH2 0x2D4 JUMP JUMPDEST SWAP3 POP DUP3 DUP3 SUB SWAP1 POP DUP2 DUP2 GT ISZERO PUSH2 0x607 JUMPI PUSH2 0x606 PUSH2 0x5AD JUMP JUMPDEST JUMPDEST SWAP3 SWAP2 POP POP JUMP JUMPDEST PUSH32 0x4E487B7100000000000000000000000000000000000000000000000000000000 PUSH0 MSTORE PUSH1 0x32 PUSH1 0x4 MSTORE PUSH1 0x24 PUSH0 REVERT JUMPDEST PUSH0 PUSH2 0x644 DUP3 PUSH2 0x2D4 JUMP JUMPDEST SWAP2 POP PUSH2 0x64F DUP4 PUSH2 0x2D4 JUMP JUMPDEST SWAP3 POP DUP3 DUP3 ADD SWAP1 POP DUP1 DUP3 GT ISZERO PUSH2 0x667 JUMPI PUSH2 0x666 PUSH2 0x5AD JUMP JUMPDEST JUMPDEST SWAP3 SWAP2 POP POP JUMP INVALID LOG2 PUSH5 0x6970667358 0x22 SLT KECCAK256 DUP8 SWAP16 0xE5 MUL PUSH28 0xAFE2C952DE42B62761A08314D99478CD0B4D36885D065B012A182764 PUSH20 0x6F6C634300081A00330000000000000000000000 "
				},
				"gasEstimates": {
					"creation": {
						"codeDepositCost": "339800",
						"executionCost": "378",
						"totalCost": "340178"
					},
					"external": {
						"removeElement(uint256[],uint256)": "infinite"
					}
				},
				"methodIdentifiers": {
					"removeElement(uint256[],uint256)": "329af2e4"
				}
			},
			"storageLayout": {
				"storage": [],
				"types": null
			},
			"userdoc": {
				"kind": "user",
				"methods": {},
				"version": 1
			}
		}
	}
}