{
	"contracts/4-2-super.sol": {
		"A": {
			"abi": [
				{
					"anonymous": false,
					"inputs": [
						{
							"indexed": false,
							"internalType": "string",
							"name": "message",
							"type": "string"
						}
					],
					"name": "Log",
					"type": "event"
				},
				{
					"inputs": [],
					"name": "bar",
					"outputs": [],
					"stateMutability": "nonpayable",
					"type": "function"
				}
			],
			"devdoc": {
				"kind": "dev",
				"methods": {},
				"version": 1
			},
			"evm": {
				"assembly": "    /* \"contracts/4-2-super.sol\":65:187  contract A {... */\n  mstore(0x40, 0x80)\n  callvalue\n  dup1\n  iszero\n  tag_1\n  jumpi\n  0x00\n  dup1\n  revert\ntag_1:\n  pop\n  dataSize(sub_0)\n  dup1\n  dataOffset(sub_0)\n  0x00\n  codecopy\n  0x00\n  return\nstop\n\nsub_0: assembly {\n        /* \"contracts/4-2-super.sol\":65:187  contract A {... */\n      mstore(0x40, 0x80)\n      callvalue\n      dup1\n      iszero\n      tag_1\n      jumpi\n      0x00\n      dup1\n      revert\n    tag_1:\n      pop\n      jumpi(tag_2, lt(calldatasize, 0x04))\n      shr(0xe0, calldataload(0x00))\n      dup1\n      0xfebb0f7e\n      eq\n      tag_3\n      jumpi\n    tag_2:\n      0x00\n      dup1\n      revert\n        /* \"contracts/4-2-super.sol\":114:185  function bar() public virtual {... */\n    tag_3:\n      tag_4\n      tag_5\n      jump\t// in\n    tag_4:\n      stop\n    tag_5:\n        /* \"contracts/4-2-super.sol\":159:178  Log(\"A.bar called\") */\n      0xcf34ef537ac33ee1ac626ca1587a0a7e8e51561e5514f8cb36afa1c5102b3bab\n      mload(0x40)\n      tag_7\n      swap1\n      tag_8\n      jump\t// in\n    tag_7:\n      mload(0x40)\n      dup1\n      swap2\n      sub\n      swap1\n      log1\n        /* \"contracts/4-2-super.sol\":114:185  function bar() public virtual {... */\n      jump\t// out\n        /* \"#utility.yul\":7:176   */\n    tag_9:\n        /* \"#utility.yul\":91:102   */\n      0x00\n        /* \"#utility.yul\":125:131   */\n      dup3\n        /* \"#utility.yul\":120:123   */\n      dup3\n        /* \"#utility.yul\":113:132   */\n      mstore\n        /* \"#utility.yul\":165:169   */\n      0x20\n        /* \"#utility.yul\":160:163   */\n      dup3\n        /* \"#utility.yul\":156:170   */\n      add\n        /* \"#utility.yul\":141:170   */\n      swap1\n      pop\n        /* \"#utility.yul\":7:176   */\n      swap3\n      swap2\n      pop\n      pop\n      jump\t// out\n        /* \"#utility.yul\":182:344   */\n    tag_10:\n        /* \"#utility.yul\":322:336   */\n      0x412e6261722063616c6c65640000000000000000000000000000000000000000\n        /* \"#utility.yul\":318:319   */\n      0x00\n        /* \"#utility.yul\":310:316   */\n      dup3\n        /* \"#utility.yul\":306:320   */\n      add\n        /* \"#utility.yul\":299:337   */\n      mstore\n        /* \"#utility.yul\":182:344   */\n      pop\n      jump\t// out\n        /* \"#utility.yul\":350:716   */\n    tag_11:\n        /* \"#utility.yul\":492:495   */\n      0x00\n        /* \"#utility.yul\":513:580   */\n      tag_16\n        /* \"#utility.yul\":577:579   */\n      0x0c\n        /* \"#utility.yul\":572:575   */\n      dup4\n        /* \"#utility.yul\":513:580   */\n      tag_9\n      jump\t// in\n    tag_16:\n        /* \"#utility.yul\":506:580   */\n      swap2\n      pop\n        /* \"#utility.yul\":589:682   */\n      tag_17\n        /* \"#utility.yul\":678:681   */\n      dup3\n        /* \"#utility.yul\":589:682   */\n      tag_10\n      jump\t// in\n    tag_17:\n        /* \"#utility.yul\":707:709   */\n      0x20\n        /* \"#utility.yul\":702:705   */\n      dup3\n        /* \"#utility.yul\":698:710   */\n      add\n        /* \"#utility.yul\":691:710   */\n      swap1\n      pop\n        /* \"#utility.yul\":350:716   */\n      swap2\n      swap1\n      pop\n      jump\t// out\n        /* \"#utility.yul\":722:1141   */\n    tag_8:\n        /* \"#utility.yul\":888:892   */\n      0x00\n        /* \"#utility.yul\":926:928   */\n      0x20\n        /* \"#utility.yul\":915:924   */\n      dup3\n        /* \"#utility.yul\":911:929   */\n      add\n        /* \"#utility.yul\":903:929   */\n      swap1\n      pop\n        /* \"#utility.yul\":975:984   */\n      dup2\n        /* \"#utility.yul\":969:973   */\n      dup2\n        /* \"#utility.yul\":965:985   */\n      sub\n        /* \"#utility.yul\":961:962   */\n      0x00\n        /* \"#utility.yul\":950:959   */\n      dup4\n        /* \"#utility.yul\":946:963   */\n      add\n        /* \"#utility.yul\":939:986   */\n      mstore\n        /* \"#utility.yul\":1003:1134   */\n      tag_19\n        /* \"#utility.yul\":1129:1133   */\n      dup2\n        /* \"#utility.yul\":1003:1134   */\n      tag_11\n      jump\t// in\n    tag_19:\n        /* \"#utility.yul\":995:1134   */\n      swap1\n      pop\n        /* \"#utility.yul\":722:1141   */\n      swap2\n      swap1\n      pop\n      jump\t// out\n\n    auxdata: 0xa2646970667358221220336f3d7182cecb8ef14350d7942395f459465624bc1ee402cc8abca987fb09d764736f6c634300081a0033\n}\n",
				"bytecode": {
					"linkReferences": {},
					"object": "6080604052348015600e575f80fd5b5061010f8061001c5f395ff3fe6080604052348015600e575f80fd5b50600436106026575f3560e01c8063febb0f7e14602a575b5f80fd5b60306032565b005b7fcf34ef537ac33ee1ac626ca1587a0a7e8e51561e5514f8cb36afa1c5102b3bab604051605d9060bd565b60405180910390a1565b5f82825260208201905092915050565b7f412e6261722063616c6c656400000000000000000000000000000000000000005f82015250565b5f60a9600c836067565b915060b2826077565b602082019050919050565b5f6020820190508181035f83015260d281609f565b905091905056fea2646970667358221220336f3d7182cecb8ef14350d7942395f459465624bc1ee402cc8abca987fb09d764736f6c634300081a0033",
					"opcodes": "PUSH1 0x80 PUSH1 0x40 MSTORE CALLVALUE DUP1 ISZERO PUSH1 0xE JUMPI PUSH0 DUP1 REVERT JUMPDEST POP PUSH2 0x10F DUP1 PUSH2 0x1C PUSH0 CODECOPY PUSH0 RETURN INVALID PUSH1 0x80 PUSH1 0x40 MSTORE CALLVALUE DUP1 ISZERO PUSH1 0xE JUMPI PUSH0 DUP1 REVERT JUMPDEST POP PUSH1 0x4 CALLDATASIZE LT PUSH1 0x26 JUMPI PUSH0 CALLDATALOAD PUSH1 0xE0 SHR DUP1 PUSH4 0xFEBB0F7E EQ PUSH1 0x2A JUMPI JUMPDEST PUSH0 DUP1 REVERT JUMPDEST PUSH1 0x30 PUSH1 0x32 JUMP JUMPDEST STOP JUMPDEST PUSH32 0xCF34EF537AC33EE1AC626CA1587A0A7E8E51561E5514F8CB36AFA1C5102B3BAB PUSH1 0x40 MLOAD PUSH1 0x5D SWAP1 PUSH1 0xBD JUMP JUMPDEST PUSH1 0x40 MLOAD DUP1 SWAP2 SUB SWAP1 LOG1 JUMP JUMPDEST PUSH0 DUP3 DUP3 MSTORE PUSH1 0x20 DUP3 ADD SWAP1 POP SWAP3 SWAP2 POP POP JUMP JUMPDEST PUSH32 0x412E6261722063616C6C65640000000000000000000000000000000000000000 PUSH0 DUP3 ADD MSTORE POP JUMP JUMPDEST PUSH0 PUSH1 0xA9 PUSH1 0xC DUP4 PUSH1 0x67 JUMP JUMPDEST SWAP2 POP PUSH1 0xB2 DUP3 PUSH1 0x77 JUMP JUMPDEST PUSH1 0x20 DUP3 ADD SWAP1 POP SWAP2 SWAP1 POP JUMP JUMPDEST PUSH0 PUSH1 0x20 DUP3 ADD SWAP1 POP DUP2 DUP2 SUB PUSH0 DUP4 ADD MSTORE PUSH1 0xD2 DUP2 PUSH1 0x9F JUMP JUMPDEST SWAP1 POP SWAP2 SWAP1 POP JUMP INVALID LOG2 PUSH5 0x6970667358 0x22 SLT KECCAK256 CALLER PUSH16 0x3D7182CECB8EF14350D7942395F45946 JUMP 0x24 0xBC 0x1E 0xE4 MUL 0xCC DUP11 0xBC 0xA9 DUP8 0xFB MULMOD 0xD7 PUSH5 0x736F6C6343 STOP ADDMOD BYTE STOP CALLER "
				},
				"gasEstimates": {
					"creation": {
						"codeDepositCost": "54200",
						"executionCost": "103",
						"totalCost": "54303"
					},
					"external": {
						"bar()": "1918"
					}
				},
				"methodIdentifiers": {
					"bar()": "febb0f7e"
				}
			},
			"storageLayout": {
				"storage": [],
				"types": null
			},
			"userdoc": {
				"kind": "user",
				"methods": {},
				"version": 1
			}
		}
	}
}