{
	"contracts/4-1-constructor.sol": {
		"D": {
			"abi": [
				{
					"inputs": [],
					"name": "x",
					"outputs": [
						{
							"internalType": "uint256",
							"name": "",
							"type": "uint256"
						}
					],
					"stateMutability": "view",
					"type": "function"
				}
			],
			"devdoc": {
				"kind": "dev",
				"methods": {},
				"version": 1
			},
			"evm": {
				"assembly": "    /* \"contracts/4-1-constructor.sol\":243:281  contract D is C,B{... */\n  mstore(0x40, 0x80)\n    /* \"contracts/4-1-constructor.sol\":97:98  5 */\n  0x05\n    /* \"contracts/4-1-constructor.sol\":81:98  uint public x = 5 */\n  0x00\n  sstore\n    /* \"contracts/4-1-constructor.sol\":243:281  contract D is C,B{... */\n  callvalue\n  dup1\n  iszero\n  tag_1\n  jumpi\n  0x00\n  dup1\n  revert\ntag_1:\n  pop\n    /* \"contracts/4-1-constructor.sol\":230:232  10 */\n  0x0a\n    /* \"contracts/4-1-constructor.sol\":227:228  x */\n  0x00\n  dup1\n    /* \"contracts/4-1-constructor.sol\":227:232  x*=10 */\n  dup3\n  dup3\n  sload\n  tag_7\n  swap2\n  swap1\n  tag_8\n  jump\t// in\ntag_7:\n  swap3\n  pop\n  pop\n  dup2\n  swap1\n  sstore\n  pop\n    /* \"contracts/4-1-constructor.sol\":170:172  10 */\n  0x0a\n    /* \"contracts/4-1-constructor.sol\":167:168  x */\n  0x00\n  dup1\n    /* \"contracts/4-1-constructor.sol\":167:172  x+=10 */\n  dup3\n  dup3\n  sload\n  tag_10\n  swap2\n  swap1\n  tag_11\n  jump\t// in\ntag_10:\n  swap3\n  pop\n  pop\n  dup2\n  swap1\n  sstore\n  pop\n    /* \"contracts/4-1-constructor.sol\":243:281  contract D is C,B{... */\n  jump(tag_12)\n    /* \"#utility.yul\":7:84   */\ntag_13:\n    /* \"#utility.yul\":44:51   */\n  0x00\n    /* \"#utility.yul\":73:78   */\n  dup2\n    /* \"#utility.yul\":62:78   */\n  swap1\n  pop\n    /* \"#utility.yul\":7:84   */\n  swap2\n  swap1\n  pop\n  jump\t// out\n    /* \"#utility.yul\":90:270   */\ntag_14:\n    /* \"#utility.yul\":138:215   */\n  0x4e487b7100000000000000000000000000000000000000000000000000000000\n    /* \"#utility.yul\":135:136   */\n  0x00\n    /* \"#utility.yul\":128:216   */\n  mstore\n    /* \"#utility.yul\":235:239   */\n  0x11\n    /* \"#utility.yul\":232:233   */\n  0x04\n    /* \"#utility.yul\":225:240   */\n  mstore\n    /* \"#utility.yul\":259:263   */\n  0x24\n    /* \"#utility.yul\":256:257   */\n  0x00\n    /* \"#utility.yul\":249:264   */\n  revert\n    /* \"#utility.yul\":276:686   */\ntag_8:\n    /* \"#utility.yul\":316:323   */\n  0x00\n    /* \"#utility.yul\":339:359   */\n  tag_19\n    /* \"#utility.yul\":357:358   */\n  dup3\n    /* \"#utility.yul\":339:359   */\n  tag_13\n  jump\t// in\ntag_19:\n    /* \"#utility.yul\":334:359   */\n  swap2\n  pop\n    /* \"#utility.yul\":373:393   */\n  tag_20\n    /* \"#utility.yul\":391:392   */\n  dup4\n    /* \"#utility.yul\":373:393   */\n  tag_13\n  jump\t// in\ntag_20:\n    /* \"#utility.yul\":368:393   */\n  swap3\n  pop\n    /* \"#utility.yul\":428:429   */\n  dup3\n    /* \"#utility.yul\":425:426   */\n  dup3\n    /* \"#utility.yul\":421:430   */\n  mul\n    /* \"#utility.yul\":450:480   */\n  tag_21\n    /* \"#utility.yul\":468:479   */\n  dup2\n    /* \"#utility.yul\":450:480   */\n  tag_13\n  jump\t// in\ntag_21:\n    /* \"#utility.yul\":439:480   */\n  swap2\n  pop\n    /* \"#utility.yul\":629:630   */\n  dup3\n    /* \"#utility.yul\":620:627   */\n  dup3\n    /* \"#utility.yul\":616:631   */\n  div\n    /* \"#utility.yul\":613:614   */\n  dup5\n    /* \"#utility.yul\":610:632   */\n  eq\n    /* \"#utility.yul\":590:591   */\n  dup4\n    /* \"#utility.yul\":583:592   */\n  iszero\n    /* \"#utility.yul\":563:646   */\n  or\n    /* \"#utility.yul\":540:679   */\n  tag_22\n  jumpi\n    /* \"#utility.yul\":659:677   */\n  tag_23\n  tag_14\n  jump\t// in\ntag_23:\n    /* \"#utility.yul\":540:679   */\ntag_22:\n    /* \"#utility.yul\":324:686   */\n  pop\n    /* \"#utility.yul\":276:686   */\n  swap3\n  swap2\n  pop\n  pop\n  jump\t// out\n    /* \"#utility.yul\":692:883   */\ntag_11:\n    /* \"#utility.yul\":732:735   */\n  0x00\n    /* \"#utility.yul\":751:771   */\n  tag_25\n    /* \"#utility.yul\":769:770   */\n  dup3\n    /* \"#utility.yul\":751:771   */\n  tag_13\n  jump\t// in\ntag_25:\n    /* \"#utility.yul\":746:771   */\n  swap2\n  pop\n    /* \"#utility.yul\":785:805   */\n  tag_26\n    /* \"#utility.yul\":803:804   */\n  dup4\n    /* \"#utility.yul\":785:805   */\n  tag_13\n  jump\t// in\ntag_26:\n    /* \"#utility.yul\":780:805   */\n  swap3\n  pop\n    /* \"#utility.yul\":828:829   */\n  dup3\n    /* \"#utility.yul\":825:826   */\n  dup3\n    /* \"#utility.yul\":821:830   */\n  add\n    /* \"#utility.yul\":814:830   */\n  swap1\n  pop\n    /* \"#utility.yul\":849:852   */\n  dup1\n    /* \"#utility.yul\":846:847   */\n  dup3\n    /* \"#utility.yul\":843:853   */\n  gt\n    /* \"#utility.yul\":840:876   */\n  iszero\n  tag_27\n  jumpi\n    /* \"#utility.yul\":856:874   */\n  tag_28\n  tag_14\n  jump\t// in\ntag_28:\n    /* \"#utility.yul\":840:876   */\ntag_27:\n    /* \"#utility.yul\":692:883   */\n  swap3\n  swap2\n  pop\n  pop\n  jump\t// out\n    /* \"contracts/4-1-constructor.sol\":243:281  contract D is C,B{... */\ntag_12:\n  dataSize(sub_0)\n  dup1\n  dataOffset(sub_0)\n  0x00\n  codecopy\n  0x00\n  return\nstop\n\nsub_0: assembly {\n        /* \"contracts/4-1-constructor.sol\":243:281  contract D is C,B{... */\n      mstore(0x40, 0x80)\n      callvalue\n      dup1\n      iszero\n      tag_1\n      jumpi\n      0x00\n      dup1\n      revert\n    tag_1:\n      pop\n      jumpi(tag_2, lt(calldatasize, 0x04))\n      shr(0xe0, calldataload(0x00))\n      dup1\n      0x0c55699c\n      eq\n      tag_3\n      jumpi\n    tag_2:\n      0x00\n      dup1\n      revert\n        /* \"contracts/4-1-constructor.sol\":81:98  uint public x = 5 */\n    tag_3:\n      tag_4\n      tag_5\n      jump\t// in\n    tag_4:\n      mload(0x40)\n      tag_6\n      swap2\n      swap1\n      tag_7\n      jump\t// in\n    tag_6:\n      mload(0x40)\n      dup1\n      swap2\n      sub\n      swap1\n      return\n    tag_5:\n      sload(0x00)\n      dup2\n      jump\t// out\n        /* \"#utility.yul\":7:84   */\n    tag_8:\n        /* \"#utility.yul\":44:51   */\n      0x00\n        /* \"#utility.yul\":73:78   */\n      dup2\n        /* \"#utility.yul\":62:78   */\n      swap1\n      pop\n        /* \"#utility.yul\":7:84   */\n      swap2\n      swap1\n      pop\n      jump\t// out\n        /* \"#utility.yul\":90:208   */\n    tag_9:\n        /* \"#utility.yul\":177:201   */\n      tag_13\n        /* \"#utility.yul\":195:200   */\n      dup2\n        /* \"#utility.yul\":177:201   */\n      tag_8\n      jump\t// in\n    tag_13:\n        /* \"#utility.yul\":172:175   */\n      dup3\n        /* \"#utility.yul\":165:202   */\n      mstore\n        /* \"#utility.yul\":90:208   */\n      pop\n      pop\n      jump\t// out\n        /* \"#utility.yul\":214:436   */\n    tag_7:\n        /* \"#utility.yul\":307:311   */\n      0x00\n        /* \"#utility.yul\":345:347   */\n      0x20\n        /* \"#utility.yul\":334:343   */\n      dup3\n        /* \"#utility.yul\":330:348   */\n      add\n        /* \"#utility.yul\":322:348   */\n      swap1\n      pop\n        /* \"#utility.yul\":358:429   */\n      tag_15\n        /* \"#utility.yul\":426:427   */\n      0x00\n        /* \"#utility.yul\":415:424   */\n      dup4\n        /* \"#utility.yul\":411:428   */\n      add\n        /* \"#utility.yul\":402:408   */\n      dup5\n        /* \"#utility.yul\":358:429   */\n      tag_9\n      jump\t// in\n    tag_15:\n        /* \"#utility.yul\":214:436   */\n      swap3\n      swap2\n      pop\n      pop\n      jump\t// out\n\n    auxdata: 0xa2646970667358221220bab4ed8caa096a2252a6b3bcc1c0a97b0bc23a444d266e5107c7baf678e7c40564736f6c634300081a0033\n}\n",
				"bytecode": {
					"linkReferences": {},
					"object": "608060405260055f553480156012575f80fd5b50600a5f80828254602291906079565b92505081905550600a5f808282546038919060b1565b9250508190555060dd565b5f819050919050565b7f4e487b71000000000000000000000000000000000000000000000000000000005f52601160045260245ffd5b5f6081826043565b9150608a836043565b92508282026096816043565b9150828204841483151760aa5760a9604c565b5b5092915050565b5f60b9826043565b915060c2836043565b925082820190508082111560d75760d6604c565b5b92915050565b60ac806100e95f395ff3fe6080604052348015600e575f80fd5b50600436106026575f3560e01c80630c55699c14602a575b5f80fd5b60306044565b604051603b9190605f565b60405180910390f35b5f5481565b5f819050919050565b6059816049565b82525050565b5f60208201905060705f8301846052565b9291505056fea2646970667358221220bab4ed8caa096a2252a6b3bcc1c0a97b0bc23a444d266e5107c7baf678e7c40564736f6c634300081a0033",
					"opcodes": "PUSH1 0x80 PUSH1 0x40 MSTORE PUSH1 0x5 PUSH0 SSTORE CALLVALUE DUP1 ISZERO PUSH1 0x12 JUMPI PUSH0 DUP1 REVERT JUMPDEST POP PUSH1 0xA PUSH0 DUP1 DUP3 DUP3 SLOAD PUSH1 0x22 SWAP2 SWAP1 PUSH1 0x79 JUMP JUMPDEST SWAP3 POP POP DUP2 SWAP1 SSTORE POP PUSH1 0xA PUSH0 DUP1 DUP3 DUP3 SLOAD PUSH1 0x38 SWAP2 SWAP1 PUSH1 0xB1 JUMP JUMPDEST SWAP3 POP POP DUP2 SWAP1 SSTORE POP PUSH1 0xDD JUMP JUMPDEST PUSH0 DUP2 SWAP1 POP SWAP2 SWAP1 POP JUMP JUMPDEST PUSH32 0x4E487B7100000000000000000000000000000000000000000000000000000000 PUSH0 MSTORE PUSH1 0x11 PUSH1 0x4 MSTORE PUSH1 0x24 PUSH0 REVERT JUMPDEST PUSH0 PUSH1 0x81 DUP3 PUSH1 0x43 JUMP JUMPDEST SWAP2 POP PUSH1 0x8A DUP4 PUSH1 0x43 JUMP JUMPDEST SWAP3 POP DUP3 DUP3 MUL PUSH1 0x96 DUP2 PUSH1 0x43 JUMP JUMPDEST SWAP2 POP DUP3 DUP3 DIV DUP5 EQ DUP4 ISZERO OR PUSH1 0xAA JUMPI PUSH1 0xA9 PUSH1 0x4C JUMP JUMPDEST JUMPDEST POP SWAP3 SWAP2 POP POP JUMP JUMPDEST PUSH0 PUSH1 0xB9 DUP3 PUSH1 0x43 JUMP JUMPDEST SWAP2 POP PUSH1 0xC2 DUP4 PUSH1 0x43 JUMP JUMPDEST SWAP3 POP DUP3 DUP3 ADD SWAP1 POP DUP1 DUP3 GT ISZERO PUSH1 0xD7 JUMPI PUSH1 0xD6 PUSH1 0x4C JUMP JUMPDEST JUMPDEST SWAP3 SWAP2 POP POP JUMP JUMPDEST PUSH1 0xAC DUP1 PUSH2 0xE9 PUSH0 CODECOPY PUSH0 RETURN INVALID PUSH1 0x80 PUSH1 0x40 MSTORE CALLVALUE DUP1 ISZERO PUSH1 0xE JUMPI PUSH0 DUP1 REVERT JUMPDEST POP PUSH1 0x4 CALLDATASIZE LT PUSH1 0x26 JUMPI PUSH0 CALLDATALOAD PUSH1 0xE0 SHR DUP1 PUSH4 0xC55699C EQ PUSH1 0x2A JUMPI JUMPDEST PUSH0 DUP1 REVERT JUMPDEST PUSH1 0x30 PUSH1 0x44 JUMP JUMPDEST PUSH1 0x40 MLOAD PUSH1 0x3B SWAP2 SWAP1 PUSH1 0x5F JUMP JUMPDEST PUSH1 0x40 MLOAD DUP1 SWAP2 SUB SWAP1 RETURN JUMPDEST PUSH0 SLOAD DUP2 JUMP JUMPDEST PUSH0 DUP2 SWAP1 POP SWAP2 SWAP1 POP JUMP JUMPDEST PUSH1 0x59 DUP2 PUSH1 0x49 JUMP JUMPDEST DUP3 MSTORE POP POP JUMP JUMPDEST PUSH0 PUSH1 0x20 DUP3 ADD SWAP1 POP PUSH1 0x70 PUSH0 DUP4 ADD DUP5 PUSH1 0x52 JUMP JUMPDEST SWAP3 SWAP2 POP POP JUMP INVALID LOG2 PUSH5 0x6970667358 0x22 SLT KECCAK256 0xBA 0xB4 0xED DUP13 0xAA MULMOD PUSH11 0x2252A6B3BCC1C0A97B0BC2 GASPRICE PREVRANDAO 0x4D 0x26 PUSH15 0x5107C7BAF678E7C40564736F6C6343 STOP ADDMOD BYTE STOP CALLER "
				},
				"gasEstimates": {
					"creation": {
						"codeDepositCost": "34400",
						"executionCost": "infinite",
						"totalCost": "infinite"
					},
					"external": {
						"x()": "2402"
					}
				},
				"methodIdentifiers": {
					"x()": "0c55699c"
				}
			},
			"storageLayout": {
				"storage": [
					{
						"astId": 4,
						"contract": "contracts/4-1-constructor.sol:D",
						"label": "x",
						"offset": 0,
						"slot": "0",
						"type": "t_uint256"
					}
				],
				"types": {
					"t_uint256": {
						"encoding": "inplace",
						"label": "uint256",
						"numberOfBytes": "32"
					}
				}
			},
			"userdoc": {
				"kind": "user",
				"methods": {},
				"version": 1
			}
		}
	}
}