{
	"contracts/Gas.sol": {
		"GasCaller": {
			"abi": [
				{
					"inputs": [
						{
							"internalType": "contract Gas",
							"name": "_gas",
							"type": "address"
						}
					],
					"stateMutability": "nonpayable",
					"type": "constructor"
				},
				{
					"inputs": [],
					"name": "callForever",
					"outputs": [],
					"stateMutability": "nonpayable",
					"type": "function"
				}
			],
			"devdoc": {
				"kind": "dev",
				"methods": {},
				"version": 1
			},
			"evm": {
				"assembly": "    /* \"contracts/Gas.sol\":318:492  contract GasCaller{... */\n  mstore(0x40, 0x80)\n    /* \"contracts/Gas.sol\":364:413  constructor(Gas _gas) {... */\n  callvalue\n  dup1\n  iszero\n  tag_1\n  jumpi\n  0x00\n  dup1\n  revert\ntag_1:\n  pop\n  mload(0x40)\n  sub(codesize, bytecodeSize)\n  dup1\n  bytecodeSize\n  dup4\n  codecopy\n  dup2\n  dup2\n  add\n  0x40\n  mstore\n  dup2\n  add\n  swap1\n  tag_2\n  swap2\n  swap1\n  tag_3\n  jump\t// in\ntag_2:\n    /* \"contracts/Gas.sol\":402:406  _gas */\n  dup1\n    /* \"contracts/Gas.sol\":396:399  gas */\n  0x00\n  dup1\n    /* \"contracts/Gas.sol\":396:406  gas = _gas */\n  0x0100\n  exp\n  dup2\n  sload\n  dup2\n  0xffffffffffffffffffffffffffffffffffffffff\n  mul\n  not\n  and\n  swap1\n  dup4\n  0xffffffffffffffffffffffffffffffffffffffff\n  and\n  mul\n  or\n  swap1\n  sstore\n  pop\n    /* \"contracts/Gas.sol\":364:413  constructor(Gas _gas) {... */\n  pop\n    /* \"contracts/Gas.sol\":318:492  contract GasCaller{... */\n  jump(tag_6)\n    /* \"#utility.yul\":88:205   */\ntag_8:\n    /* \"#utility.yul\":197:198   */\n  0x00\n    /* \"#utility.yul\":194:195   */\n  dup1\n    /* \"#utility.yul\":187:199   */\n  revert\n    /* \"#utility.yul\":334:460   */\ntag_10:\n    /* \"#utility.yul\":371:378   */\n  0x00\n    /* \"#utility.yul\":411:453   */\n  0xffffffffffffffffffffffffffffffffffffffff\n    /* \"#utility.yul\":404:409   */\n  dup3\n    /* \"#utility.yul\":400:454   */\n  and\n    /* \"#utility.yul\":389:454   */\n  swap1\n  pop\n    /* \"#utility.yul\":334:460   */\n  swap2\n  swap1\n  pop\n  jump\t// out\n    /* \"#utility.yul\":466:562   */\ntag_11:\n    /* \"#utility.yul\":503:510   */\n  0x00\n    /* \"#utility.yul\":532:556   */\n  tag_21\n    /* \"#utility.yul\":550:555   */\n  dup3\n    /* \"#utility.yul\":532:556   */\n  tag_10\n  jump\t// in\ntag_21:\n    /* \"#utility.yul\":521:556   */\n  swap1\n  pop\n    /* \"#utility.yul\":466:562   */\n  swap2\n  swap1\n  pop\n  jump\t// out\n    /* \"#utility.yul\":568:674   */\ntag_12:\n    /* \"#utility.yul\":615:622   */\n  0x00\n    /* \"#utility.yul\":644:668   */\n  tag_23\n    /* \"#utility.yul\":662:667   */\n  dup3\n    /* \"#utility.yul\":644:668   */\n  tag_11\n  jump\t// in\ntag_23:\n    /* \"#utility.yul\":633:668   */\n  swap1\n  pop\n    /* \"#utility.yul\":568:674   */\n  swap2\n  swap1\n  pop\n  jump\t// out\n    /* \"#utility.yul\":680:822   */\ntag_13:\n    /* \"#utility.yul\":763:797   */\n  tag_25\n    /* \"#utility.yul\":791:796   */\n  dup2\n    /* \"#utility.yul\":763:797   */\n  tag_12\n  jump\t// in\ntag_25:\n    /* \"#utility.yul\":756:761   */\n  dup2\n    /* \"#utility.yul\":753:798   */\n  eq\n    /* \"#utility.yul\":743:816   */\n  tag_26\n  jumpi\n    /* \"#utility.yul\":812:813   */\n  0x00\n    /* \"#utility.yul\":809:810   */\n  dup1\n    /* \"#utility.yul\":802:814   */\n  revert\n    /* \"#utility.yul\":743:816   */\ntag_26:\n    /* \"#utility.yul\":680:822   */\n  pop\n  jump\t// out\n    /* \"#utility.yul\":828:991   */\ntag_14:\n    /* \"#utility.yul\":895:900   */\n  0x00\n    /* \"#utility.yul\":926:932   */\n  dup2\n    /* \"#utility.yul\":920:933   */\n  mload\n    /* \"#utility.yul\":911:933   */\n  swap1\n  pop\n    /* \"#utility.yul\":942:985   */\n  tag_28\n    /* \"#utility.yul\":979:984   */\n  dup2\n    /* \"#utility.yul\":942:985   */\n  tag_13\n  jump\t// in\ntag_28:\n    /* \"#utility.yul\":828:991   */\n  swap3\n  swap2\n  pop\n  pop\n  jump\t// out\n    /* \"#utility.yul\":997:1368   */\ntag_3:\n    /* \"#utility.yul\":1077:1083   */\n  0x00\n    /* \"#utility.yul\":1126:1128   */\n  0x20\n    /* \"#utility.yul\":1114:1123   */\n  dup3\n    /* \"#utility.yul\":1105:1112   */\n  dup5\n    /* \"#utility.yul\":1101:1124   */\n  sub\n    /* \"#utility.yul\":1097:1129   */\n  slt\n    /* \"#utility.yul\":1094:1213   */\n  iszero\n  tag_30\n  jumpi\n    /* \"#utility.yul\":1132:1211   */\n  tag_31\n  tag_8\n  jump\t// in\ntag_31:\n    /* \"#utility.yul\":1094:1213   */\ntag_30:\n    /* \"#utility.yul\":1252:1253   */\n  0x00\n    /* \"#utility.yul\":1277:1351   */\n  tag_32\n    /* \"#utility.yul\":1343:1350   */\n  dup5\n    /* \"#utility.yul\":1334:1340   */\n  dup3\n    /* \"#utility.yul\":1323:1332   */\n  dup6\n    /* \"#utility.yul\":1319:1341   */\n  add\n    /* \"#utility.yul\":1277:1351   */\n  tag_14\n  jump\t// in\ntag_32:\n    /* \"#utility.yul\":1267:1351   */\n  swap2\n  pop\n    /* \"#utility.yul\":1223:1361   */\n  pop\n    /* \"#utility.yul\":997:1368   */\n  swap3\n  swap2\n  pop\n  pop\n  jump\t// out\n    /* \"contracts/Gas.sol\":318:492  contract GasCaller{... */\ntag_6:\n  dataSize(sub_0)\n  dup1\n  dataOffset(sub_0)\n  0x00\n  codecopy\n  0x00\n  return\nstop\n\nsub_0: assembly {\n        /* \"contracts/Gas.sol\":318:492  contract GasCaller{... */\n      mstore(0x40, 0x80)\n      callvalue\n      dup1\n      iszero\n      tag_1\n      jumpi\n      0x00\n      dup1\n      revert\n    tag_1:\n      pop\n      jumpi(tag_2, lt(calldatasize, 0x04))\n      shr(0xe0, calldataload(0x00))\n      dup1\n      0xc6a48535\n      eq\n      tag_3\n      jumpi\n    tag_2:\n      0x00\n      dup1\n      revert\n        /* \"contracts/Gas.sol\":418:490  function callForever() public {... */\n    tag_3:\n      tag_4\n      tag_5\n      jump\t// in\n    tag_4:\n      stop\n    tag_5:\n        /* \"contracts/Gas.sol\":458:461  gas */\n      0x00\n      dup1\n      sload\n      swap1\n      0x0100\n      exp\n      swap1\n      div\n      0xffffffffffffffffffffffffffffffffffffffff\n      and\n        /* \"contracts/Gas.sol\":458:469  gas.forever */\n      0xffffffffffffffffffffffffffffffffffffffff\n      and\n      0x9ff9a603\n        /* \"contracts/Gas.sol\":474:480  200000 */\n      0x030d40\n        /* \"contracts/Gas.sol\":458:483  gas.forever{gas:200000}() */\n      mload(0x40)\n      dup3\n      0xffffffff\n      and\n      0xe0\n      shl\n      dup2\n      mstore\n      0x04\n      add\n      0x00\n      mload(0x40)\n      dup1\n      dup4\n      sub\n      dup2\n      0x00\n      dup9\n      dup1\n      extcodesize\n      iszero\n      dup1\n      iszero\n      tag_7\n      jumpi\n      0x00\n      dup1\n      revert\n    tag_7:\n      pop\n      dup8\n      call\n      iszero\n      dup1\n      iszero\n      tag_9\n      jumpi\n      returndatasize\n      0x00\n      dup1\n      returndatacopy\n      revert(0x00, returndatasize)\n    tag_9:\n      pop\n      pop\n      pop\n      pop\n      pop\n        /* \"contracts/Gas.sol\":418:490  function callForever() public {... */\n      jump\t// out\n\n    auxdata: 0xa2646970667358221220acaca60a828b7eaae72dcd4ef54095c58c5f280259ce14476f3163cdc2af560d64736f6c634300081a0033\n}\n",
				"bytecode": {
					"linkReferences": {},
					"object": "608060405234801561000f575f80fd5b50604051610203380380610203833981810160405281019061003191906100e5565b805f806101000a81548173ffffffffffffffffffffffffffffffffffffffff021916908373ffffffffffffffffffffffffffffffffffffffff16021790555050610110565b5f80fd5b5f73ffffffffffffffffffffffffffffffffffffffff82169050919050565b5f6100a38261007a565b9050919050565b5f6100b482610099565b9050919050565b6100c4816100aa565b81146100ce575f80fd5b50565b5f815190506100df816100bb565b92915050565b5f602082840312156100fa576100f9610076565b5b5f610107848285016100d1565b91505092915050565b60e78061011c5f395ff3fe6080604052348015600e575f80fd5b50600436106026575f3560e01c8063c6a4853514602a575b5f80fd5b60306032565b005b5f8054906101000a900473ffffffffffffffffffffffffffffffffffffffff1673ffffffffffffffffffffffffffffffffffffffff16639ff9a60362030d406040518263ffffffff1660e01b81526004015f604051808303815f88803b1580156099575f80fd5b5087f115801560aa573d5f803e3d5ffd5b505050505056fea2646970667358221220acaca60a828b7eaae72dcd4ef54095c58c5f280259ce14476f3163cdc2af560d64736f6c634300081a0033",
					"opcodes": "PUSH1 0x80 PUSH1 0x40 MSTORE CALLVALUE DUP1 ISZERO PUSH2 0xF JUMPI PUSH0 DUP1 REVERT JUMPDEST POP PUSH1 0x40 MLOAD PUSH2 0x203 CODESIZE SUB DUP1 PUSH2 0x203 DUP4 CODECOPY DUP2 DUP2 ADD PUSH1 0x40 MSTORE DUP2 ADD SWAP1 PUSH2 0x31 SWAP2 SWAP1 PUSH2 0xE5 JUMP JUMPDEST DUP1 PUSH0 DUP1 PUSH2 0x100 EXP DUP2 SLOAD DUP2 PUSH20 0xFFFFFFFFFFFFFFFFFFFFFFFFFFFFFFFFFFFFFFFF MUL NOT AND SWAP1 DUP4 PUSH20 0xFFFFFFFFFFFFFFFFFFFFFFFFFFFFFFFFFFFFFFFF AND MUL OR SWAP1 SSTORE POP POP PUSH2 0x110 JUMP JUMPDEST PUSH0 DUP1 REVERT JUMPDEST PUSH0 PUSH20 0xFFFFFFFFFFFFFFFFFFFFFFFFFFFFFFFFFFFFFFFF DUP3 AND SWAP1 POP SWAP2 SWAP1 POP JUMP JUMPDEST PUSH0 PUSH2 0xA3 DUP3 PUSH2 0x7A JUMP JUMPDEST SWAP1 POP SWAP2 SWAP1 POP JUMP JUMPDEST PUSH0 PUSH2 0xB4 DUP3 PUSH2 0x99 JUMP JUMPDEST SWAP1 POP SWAP2 SWAP1 POP JUMP JUMPDEST PUSH2 0xC4 DUP2 PUSH2 0xAA JUMP JUMPDEST DUP2 EQ PUSH2 0xCE JUMPI PUSH0 DUP1 REVERT JUMPDEST POP JUMP JUMPDEST PUSH0 DUP2 MLOAD SWAP1 POP PUSH2 0xDF DUP2 PUSH2 0xBB JUMP JUMPDEST SWAP3 SWAP2 POP POP JUMP JUMPDEST PUSH0 PUSH1 0x20 DUP3 DUP5 SUB SLT ISZERO PUSH2 0xFA JUMPI PUSH2 0xF9 PUSH2 0x76 JUMP JUMPDEST JUMPDEST PUSH0 PUSH2 0x107 DUP5 DUP3 DUP6 ADD PUSH2 0xD1 JUMP JUMPDEST SWAP2 POP POP SWAP3 SWAP2 POP POP JUMP JUMPDEST PUSH1 0xE7 DUP1 PUSH2 0x11C PUSH0 CODECOPY PUSH0 RETURN INVALID PUSH1 0x80 PUSH1 0x40 MSTORE CALLVALUE DUP1 ISZERO PUSH1 0xE JUMPI PUSH0 DUP1 REVERT JUMPDEST POP PUSH1 0x4 CALLDATASIZE LT PUSH1 0x26 JUMPI PUSH0 CALLDATALOAD PUSH1 0xE0 SHR DUP1 PUSH4 0xC6A48535 EQ PUSH1 0x2A JUMPI JUMPDEST PUSH0 DUP1 REVERT JUMPDEST PUSH1 0x30 PUSH1 0x32 JUMP JUMPDEST STOP JUMPDEST PUSH0 DUP1 SLOAD SWAP1 PUSH2 0x100 EXP SWAP1 DIV PUSH20 0xFFFFFFFFFFFFFFFFFFFFFFFFFFFFFFFFFFFFFFFF AND PUSH20 0xFFFFFFFFFFFFFFFFFFFFFFFFFFFFFFFFFFFFFFFF AND PUSH4 0x9FF9A603 PUSH3 0x30D40 PUSH1 0x40 MLOAD DUP3 PUSH4 0xFFFFFFFF AND PUSH1 0xE0 SHL DUP2 MSTORE PUSH1 0x4 ADD PUSH0 PUSH1 0x40 MLOAD DUP1 DUP4 SUB DUP2 PUSH0 DUP9 DUP1 EXTCODESIZE ISZERO DUP1 ISZERO PUSH1 0x99 JUMPI PUSH0 DUP1 REVERT JUMPDEST POP DUP8 CALL ISZERO DUP1 ISZERO PUSH1 0xAA JUMPI RETURNDATASIZE PUSH0 DUP1 RETURNDATACOPY RETURNDATASIZE PUSH0 REVERT JUMPDEST POP POP POP POP POP JUMP INVALID LOG2 PUSH5 0x6970667358 0x22 SLT KECCAK256 0xAC 0xAC 0xA6 EXP DUP3 DUP12 PUSH31 0xAAE72DCD4EF54095C58C5F280259CE14476F3163CDC2AF560D64736F6C6343 STOP ADDMOD BYTE STOP CALLER "
				},
				"gasEstimates": {
					"creation": {
						"codeDepositCost": "46200",
						"executionCost": "infinite",
						"totalCost": "infinite"
					},
					"external": {
						"callForever()": "infinite"
					}
				},
				"methodIdentifiers": {
					"callForever()": "c6a48535"
				}
			},
			"storageLayout": {
				"storage": [
					{
						"astId": 36,
						"contract": "contracts/Gas.sol:GasCaller",
						"label": "gas",
						"offset": 0,
						"slot": "0",
						"type": "t_contract(Gas)33"
					}
				],
				"types": {
					"t_contract(Gas)33": {
						"encoding": "inplace",
						"label": "contract Gas",
						"numberOfBytes": "20"
					}
				}
			},
			"userdoc": {
				"kind": "user",
				"methods": {},
				"version": 1
			}
		}
	}
}