{
	"contracts/Caller.sol": {
		"Caller": {
			"abi": [
				{
					"inputs": [
						{
							"internalType": "address",
							"name": "_callee",
							"type": "address"
						}
					],
					"stateMutability": "nonpayable",
					"type": "constructor"
				},
				{
					"inputs": [
						{
							"internalType": "uint256",
							"name": "_x",
							"type": "uint256"
						}
					],
					"name": "setCalleeX",
					"outputs": [],
					"stateMutability": "nonpayable",
					"type": "function"
				},
				{
					"inputs": [],
					"name": "xx",
					"outputs": [
						{
							"internalType": "uint256",
							"name": "",
							"type": "uint256"
						}
					],
					"stateMutability": "view",
					"type": "function"
				}
			],
			"devdoc": {
				"kind": "dev",
				"methods": {},
				"version": 1
			},
			"evm": {
				"assembly": "    /* \"contracts/Caller.sol\":80:667  contract Caller{... */\n  mstore(0x40, 0x80)\n    /* \"contracts/Caller.sol\":146:209  constructor(address _callee){... */\n  callvalue\n  dup1\n  iszero\n  tag_1\n  jumpi\n  0x00\n  dup1\n  revert\ntag_1:\n  pop\n  mload(0x40)\n  sub(codesize, bytecodeSize)\n  dup1\n  bytecodeSize\n  dup4\n  codecopy\n  dup2\n  dup2\n  add\n  0x40\n  mstore\n  dup2\n  add\n  swap1\n  tag_2\n  swap2\n  swap1\n  tag_3\n  jump\t// in\ntag_2:\n    /* \"contracts/Caller.sol\":196:203  _callee */\n  dup1\n    /* \"contracts/Caller.sol\":180:193  calleeAddress */\n  0x01\n  0x00\n    /* \"contracts/Caller.sol\":180:203  calleeAddress = _callee */\n  0x0100\n  exp\n  dup2\n  sload\n  dup2\n  0xffffffffffffffffffffffffffffffffffffffff\n  mul\n  not\n  and\n  swap1\n  dup4\n  0xffffffffffffffffffffffffffffffffffffffff\n  and\n  mul\n  or\n  swap1\n  sstore\n  pop\n    /* \"contracts/Caller.sol\":146:209  constructor(address _callee){... */\n  pop\n    /* \"contracts/Caller.sol\":80:667  contract Caller{... */\n  jump(tag_6)\n    /* \"#utility.yul\":88:205   */\ntag_8:\n    /* \"#utility.yul\":197:198   */\n  0x00\n    /* \"#utility.yul\":194:195   */\n  dup1\n    /* \"#utility.yul\":187:199   */\n  revert\n    /* \"#utility.yul\":334:460   */\ntag_10:\n    /* \"#utility.yul\":371:378   */\n  0x00\n    /* \"#utility.yul\":411:453   */\n  0xffffffffffffffffffffffffffffffffffffffff\n    /* \"#utility.yul\":404:409   */\n  dup3\n    /* \"#utility.yul\":400:454   */\n  and\n    /* \"#utility.yul\":389:454   */\n  swap1\n  pop\n    /* \"#utility.yul\":334:460   */\n  swap2\n  swap1\n  pop\n  jump\t// out\n    /* \"#utility.yul\":466:562   */\ntag_11:\n    /* \"#utility.yul\":503:510   */\n  0x00\n    /* \"#utility.yul\":532:556   */\n  tag_20\n    /* \"#utility.yul\":550:555   */\n  dup3\n    /* \"#utility.yul\":532:556   */\n  tag_10\n  jump\t// in\ntag_20:\n    /* \"#utility.yul\":521:556   */\n  swap1\n  pop\n    /* \"#utility.yul\":466:562   */\n  swap2\n  swap1\n  pop\n  jump\t// out\n    /* \"#utility.yul\":568:690   */\ntag_12:\n    /* \"#utility.yul\":641:665   */\n  tag_22\n    /* \"#utility.yul\":659:664   */\n  dup2\n    /* \"#utility.yul\":641:665   */\n  tag_11\n  jump\t// in\ntag_22:\n    /* \"#utility.yul\":634:639   */\n  dup2\n    /* \"#utility.yul\":631:666   */\n  eq\n    /* \"#utility.yul\":621:684   */\n  tag_23\n  jumpi\n    /* \"#utility.yul\":680:681   */\n  0x00\n    /* \"#utility.yul\":677:678   */\n  dup1\n    /* \"#utility.yul\":670:682   */\n  revert\n    /* \"#utility.yul\":621:684   */\ntag_23:\n    /* \"#utility.yul\":568:690   */\n  pop\n  jump\t// out\n    /* \"#utility.yul\":696:839   */\ntag_13:\n    /* \"#utility.yul\":753:758   */\n  0x00\n    /* \"#utility.yul\":784:790   */\n  dup2\n    /* \"#utility.yul\":778:791   */\n  mload\n    /* \"#utility.yul\":769:791   */\n  swap1\n  pop\n    /* \"#utility.yul\":800:833   */\n  tag_25\n    /* \"#utility.yul\":827:832   */\n  dup2\n    /* \"#utility.yul\":800:833   */\n  tag_12\n  jump\t// in\ntag_25:\n    /* \"#utility.yul\":696:839   */\n  swap3\n  swap2\n  pop\n  pop\n  jump\t// out\n    /* \"#utility.yul\":845:1196   */\ntag_3:\n    /* \"#utility.yul\":915:921   */\n  0x00\n    /* \"#utility.yul\":964:966   */\n  0x20\n    /* \"#utility.yul\":952:961   */\n  dup3\n    /* \"#utility.yul\":943:950   */\n  dup5\n    /* \"#utility.yul\":939:962   */\n  sub\n    /* \"#utility.yul\":935:967   */\n  slt\n    /* \"#utility.yul\":932:1051   */\n  iszero\n  tag_27\n  jumpi\n    /* \"#utility.yul\":970:1049   */\n  tag_28\n  tag_8\n  jump\t// in\ntag_28:\n    /* \"#utility.yul\":932:1051   */\ntag_27:\n    /* \"#utility.yul\":1090:1091   */\n  0x00\n    /* \"#utility.yul\":1115:1179   */\n  tag_29\n    /* \"#utility.yul\":1171:1178   */\n  dup5\n    /* \"#utility.yul\":1162:1168   */\n  dup3\n    /* \"#utility.yul\":1151:1160   */\n  dup6\n    /* \"#utility.yul\":1147:1169   */\n  add\n    /* \"#utility.yul\":1115:1179   */\n  tag_13\n  jump\t// in\ntag_29:\n    /* \"#utility.yul\":1105:1179   */\n  swap2\n  pop\n    /* \"#utility.yul\":1061:1189   */\n  pop\n    /* \"#utility.yul\":845:1196   */\n  swap3\n  swap2\n  pop\n  pop\n  jump\t// out\n    /* \"contracts/Caller.sol\":80:667  contract Caller{... */\ntag_6:\n  dataSize(sub_0)\n  dup1\n  dataOffset(sub_0)\n  0x00\n  codecopy\n  0x00\n  return\nstop\n\nsub_0: assembly {\n        /* \"contracts/Caller.sol\":80:667  contract Caller{... */\n      mstore(0x40, 0x80)\n      callvalue\n      dup1\n      iszero\n      tag_1\n      jumpi\n      0x00\n      dup1\n      revert\n    tag_1:\n      pop\n      jumpi(tag_2, lt(calldatasize, 0x04))\n      shr(0xe0, calldataload(0x00))\n      dup1\n      0x5f6cce24\n      eq\n      tag_3\n      jumpi\n      dup1\n      0xece57b04\n      eq\n      tag_4\n      jumpi\n    tag_2:\n      0x00\n      dup1\n      revert\n        /* \"contracts/Caller.sol\":213:665  function setCalleeX(uint _x) public {... */\n    tag_3:\n      tag_5\n      0x04\n      dup1\n      calldatasize\n      sub\n      dup2\n      add\n      swap1\n      tag_6\n      swap2\n      swap1\n      tag_7\n      jump\t// in\n    tag_6:\n      tag_8\n      jump\t// in\n    tag_5:\n      stop\n        /* \"contracts/Caller.sol\":100:115  uint public  xx */\n    tag_4:\n      tag_9\n      tag_10\n      jump\t// in\n    tag_9:\n      mload(0x40)\n      tag_11\n      swap2\n      swap1\n      tag_12\n      jump\t// in\n    tag_11:\n      mload(0x40)\n      dup1\n      swap2\n      sub\n      swap1\n      return\n        /* \"contracts/Caller.sol\":213:665  function setCalleeX(uint _x) public {... */\n    tag_8:\n        /* \"contracts/Caller.sol\":257:272  bytes memory cd */\n      0x00\n        /* \"contracts/Caller.sol\":316:318  _x */\n      dup2\n        /* \"contracts/Caller.sol\":275:319  abi.encodeWithSignature(\"setX(uint256)\", _x) */\n      add(0x24, mload(0x40))\n      tag_14\n      swap2\n      swap1\n      tag_12\n      jump\t// in\n    tag_14:\n      mload(0x40)\n      0x20\n      dup2\n      dup4\n      sub\n      sub\n      dup2\n      mstore\n      swap1\n      0x40\n      mstore\n      and(not(0xffffffffffffffffffffffffffffffffffffffffffffffffffffffff), 0x4018d9aa00000000000000000000000000000000000000000000000000000000)\n      0x20\n      dup3\n      add\n      dup1\n      mload\n      0xffffffffffffffffffffffffffffffffffffffffffffffffffffffff\n      dup4\n      dup2\n      dup4\n      and\n      or\n      dup4\n      mstore\n      pop\n      pop\n      pop\n      pop\n        /* \"contracts/Caller.sol\":257:319  bytes memory cd = abi.encodeWithSignature(\"setX(uint256)\", _x) */\n      swap1\n      pop\n        /* \"contracts/Caller.sol\":414:423  bool succ */\n      0x00\n        /* \"contracts/Caller.sol\":424:443  bytes memory result */\n      dup1\n        /* \"contracts/Caller.sol\":447:460  calleeAddress */\n      0x01\n      0x00\n      swap1\n      sload\n      swap1\n      0x0100\n      exp\n      swap1\n      div\n      0xffffffffffffffffffffffffffffffffffffffff\n      and\n        /* \"contracts/Caller.sol\":447:465  calleeAddress.call */\n      0xffffffffffffffffffffffffffffffffffffffff\n      and\n        /* \"contracts/Caller.sol\":466:468  cd */\n      dup4\n        /* \"contracts/Caller.sol\":447:469  calleeAddress.call(cd) */\n      mload(0x40)\n      tag_15\n      swap2\n      swap1\n      tag_16\n      jump\t// in\n    tag_15:\n      0x00\n      mload(0x40)\n      dup1\n      dup4\n      sub\n      dup2\n      0x00\n      dup7\n      gas\n      call\n      swap2\n      pop\n      pop\n      returndatasize\n      dup1\n      0x00\n      dup2\n      eq\n      tag_19\n      jumpi\n      mload(0x40)\n      swap2\n      pop\n      and(add(returndatasize, 0x3f), not(0x1f))\n      dup3\n      add\n      0x40\n      mstore\n      returndatasize\n      dup3\n      mstore\n      returndatasize\n      0x00\n      0x20\n      dup5\n      add\n      returndatacopy\n      jump(tag_18)\n    tag_19:\n      0x60\n      swap2\n      pop\n    tag_18:\n      pop\n        /* \"contracts/Caller.sol\":413:469  (bool succ,bytes memory result) = calleeAddress.call(cd) */\n      swap2\n      pop\n      swap2\n      pop\n        /* \"contracts/Caller.sol\":481:485  succ */\n      dup2\n        /* \"contracts/Caller.sol\":477:527  if(!succ){... */\n      tag_20\n      jumpi\n        /* \"contracts/Caller.sol\":497:518  revert(\"call failed\") */\n      mload(0x40)\n      0x08c379a000000000000000000000000000000000000000000000000000000000\n      dup2\n      mstore\n      0x04\n      add\n      tag_21\n      swap1\n      tag_22\n      jump\t// in\n    tag_21:\n      mload(0x40)\n      dup1\n      swap2\n      sub\n      swap1\n      revert\n        /* \"contracts/Caller.sol\":477:527  if(!succ){... */\n    tag_20:\n        /* \"contracts/Caller.sol\":535:541  uint x */\n      0x00\n        /* \"contracts/Caller.sol\":555:561  result */\n      dup2\n        /* \"contracts/Caller.sol\":544:570  abi.decode(result, (uint)) */\n      dup1\n      0x20\n      add\n      swap1\n      mload\n      dup2\n      add\n      swap1\n      tag_23\n      swap2\n      swap1\n      tag_24\n      jump\t// in\n    tag_23:\n        /* \"contracts/Caller.sol\":534:570  (uint x) =abi.decode(result, (uint)) */\n      swap1\n      pop\n        /* \"contracts/Caller.sol\":582:583  x */\n      dup1\n        /* \"contracts/Caller.sol\":578:580  xx */\n      0x00\n        /* \"contracts/Caller.sol\":578:583  xx =x */\n      dup2\n      swap1\n      sstore\n      pop\n        /* \"contracts/Caller.sol\":249:665  {... */\n      pop\n      pop\n      pop\n      pop\n        /* \"contracts/Caller.sol\":213:665  function setCalleeX(uint _x) public {... */\n      pop\n      jump\t// out\n        /* \"contracts/Caller.sol\":100:115  uint public  xx */\n    tag_10:\n      sload(0x00)\n      dup2\n      jump\t// out\n        /* \"#utility.yul\":88:205   */\n    tag_26:\n        /* \"#utility.yul\":197:198   */\n      0x00\n        /* \"#utility.yul\":194:195   */\n      dup1\n        /* \"#utility.yul\":187:199   */\n      revert\n        /* \"#utility.yul\":334:411   */\n    tag_28:\n        /* \"#utility.yul\":371:378   */\n      0x00\n        /* \"#utility.yul\":400:405   */\n      dup2\n        /* \"#utility.yul\":389:405   */\n      swap1\n      pop\n        /* \"#utility.yul\":334:411   */\n      swap2\n      swap1\n      pop\n      jump\t// out\n        /* \"#utility.yul\":417:539   */\n    tag_29:\n        /* \"#utility.yul\":490:514   */\n      tag_46\n        /* \"#utility.yul\":508:513   */\n      dup2\n        /* \"#utility.yul\":490:514   */\n      tag_28\n      jump\t// in\n    tag_46:\n        /* \"#utility.yul\":483:488   */\n      dup2\n        /* \"#utility.yul\":480:515   */\n      eq\n        /* \"#utility.yul\":470:533   */\n      tag_47\n      jumpi\n        /* \"#utility.yul\":529:530   */\n      0x00\n        /* \"#utility.yul\":526:527   */\n      dup1\n        /* \"#utility.yul\":519:531   */\n      revert\n        /* \"#utility.yul\":470:533   */\n    tag_47:\n        /* \"#utility.yul\":417:539   */\n      pop\n      jump\t// out\n        /* \"#utility.yul\":545:684   */\n    tag_30:\n        /* \"#utility.yul\":591:596   */\n      0x00\n        /* \"#utility.yul\":629:635   */\n      dup2\n        /* \"#utility.yul\":616:636   */\n      calldataload\n        /* \"#utility.yul\":607:636   */\n      swap1\n      pop\n        /* \"#utility.yul\":645:678   */\n      tag_49\n        /* \"#utility.yul\":672:677   */\n      dup2\n        /* \"#utility.yul\":645:678   */\n      tag_29\n      jump\t// in\n    tag_49:\n        /* \"#utility.yul\":545:684   */\n      swap3\n      swap2\n      pop\n      pop\n      jump\t// out\n        /* \"#utility.yul\":690:1019   */\n    tag_7:\n        /* \"#utility.yul\":749:755   */\n      0x00\n        /* \"#utility.yul\":798:800   */\n      0x20\n        /* \"#utility.yul\":786:795   */\n      dup3\n        /* \"#utility.yul\":777:784   */\n      dup5\n        /* \"#utility.yul\":773:796   */\n      sub\n        /* \"#utility.yul\":769:801   */\n      slt\n        /* \"#utility.yul\":766:885   */\n      iszero\n      tag_51\n      jumpi\n        /* \"#utility.yul\":804:883   */\n      tag_52\n      tag_26\n      jump\t// in\n    tag_52:\n        /* \"#utility.yul\":766:885   */\n    tag_51:\n        /* \"#utility.yul\":924:925   */\n      0x00\n        /* \"#utility.yul\":949:1002   */\n      tag_53\n        /* \"#utility.yul\":994:1001   */\n      dup5\n        /* \"#utility.yul\":985:991   */\n      dup3\n        /* \"#utility.yul\":974:983   */\n      dup6\n        /* \"#utility.yul\":970:992   */\n      add\n        /* \"#utility.yul\":949:1002   */\n      tag_30\n      jump\t// in\n    tag_53:\n        /* \"#utility.yul\":939:1002   */\n      swap2\n      pop\n        /* \"#utility.yul\":895:1012   */\n      pop\n        /* \"#utility.yul\":690:1019   */\n      swap3\n      swap2\n      pop\n      pop\n      jump\t// out\n        /* \"#utility.yul\":1025:1143   */\n    tag_31:\n        /* \"#utility.yul\":1112:1136   */\n      tag_55\n        /* \"#utility.yul\":1130:1135   */\n      dup2\n        /* \"#utility.yul\":1112:1136   */\n      tag_28\n      jump\t// in\n    tag_55:\n        /* \"#utility.yul\":1107:1110   */\n      dup3\n        /* \"#utility.yul\":1100:1137   */\n      mstore\n        /* \"#utility.yul\":1025:1143   */\n      pop\n      pop\n      jump\t// out\n        /* \"#utility.yul\":1149:1371   */\n    tag_12:\n        /* \"#utility.yul\":1242:1246   */\n      0x00\n        /* \"#utility.yul\":1280:1282   */\n      0x20\n        /* \"#utility.yul\":1269:1278   */\n      dup3\n        /* \"#utility.yul\":1265:1283   */\n      add\n        /* \"#utility.yul\":1257:1283   */\n      swap1\n      pop\n        /* \"#utility.yul\":1293:1364   */\n      tag_57\n        /* \"#utility.yul\":1361:1362   */\n      0x00\n        /* \"#utility.yul\":1350:1359   */\n      dup4\n        /* \"#utility.yul\":1346:1363   */\n      add\n        /* \"#utility.yul\":1337:1343   */\n      dup5\n        /* \"#utility.yul\":1293:1364   */\n      tag_31\n      jump\t// in\n    tag_57:\n        /* \"#utility.yul\":1149:1371   */\n      swap3\n      swap2\n      pop\n      pop\n      jump\t// out\n        /* \"#utility.yul\":1377:1475   */\n    tag_32:\n        /* \"#utility.yul\":1428:1434   */\n      0x00\n        /* \"#utility.yul\":1462:1467   */\n      dup2\n        /* \"#utility.yul\":1456:1468   */\n      mload\n        /* \"#utility.yul\":1446:1468   */\n      swap1\n      pop\n        /* \"#utility.yul\":1377:1475   */\n      swap2\n      swap1\n      pop\n      jump\t// out\n        /* \"#utility.yul\":1481:1628   */\n    tag_33:\n        /* \"#utility.yul\":1582:1593   */\n      0x00\n        /* \"#utility.yul\":1619:1622   */\n      dup2\n        /* \"#utility.yul\":1604:1622   */\n      swap1\n      pop\n        /* \"#utility.yul\":1481:1628   */\n      swap3\n      swap2\n      pop\n      pop\n      jump\t// out\n        /* \"#utility.yul\":1634:1773   */\n    tag_34:\n        /* \"#utility.yul\":1723:1729   */\n      dup3\n        /* \"#utility.yul\":1718:1721   */\n      dup2\n        /* \"#utility.yul\":1713:1716   */\n      dup4\n        /* \"#utility.yul\":1707:1730   */\n      mcopy\n        /* \"#utility.yul\":1764:1765   */\n      0x00\n        /* \"#utility.yul\":1755:1761   */\n      dup4\n        /* \"#utility.yul\":1750:1753   */\n      dup4\n        /* \"#utility.yul\":1746:1762   */\n      add\n        /* \"#utility.yul\":1739:1766   */\n      mstore\n        /* \"#utility.yul\":1634:1773   */\n      pop\n      pop\n      pop\n      jump\t// out\n        /* \"#utility.yul\":1779:2165   */\n    tag_35:\n        /* \"#utility.yul\":1883:1886   */\n      0x00\n        /* \"#utility.yul\":1911:1949   */\n      tag_62\n        /* \"#utility.yul\":1943:1948   */\n      dup3\n        /* \"#utility.yul\":1911:1949   */\n      tag_32\n      jump\t// in\n    tag_62:\n        /* \"#utility.yul\":1965:2053   */\n      tag_63\n        /* \"#utility.yul\":2046:2052   */\n      dup2\n        /* \"#utility.yul\":2041:2044   */\n      dup6\n        /* \"#utility.yul\":1965:2053   */\n      tag_33\n      jump\t// in\n    tag_63:\n        /* \"#utility.yul\":1958:2053   */\n      swap4\n      pop\n        /* \"#utility.yul\":2062:2127   */\n      tag_64\n        /* \"#utility.yul\":2120:2126   */\n      dup2\n        /* \"#utility.yul\":2115:2118   */\n      dup6\n        /* \"#utility.yul\":2108:2112   */\n      0x20\n        /* \"#utility.yul\":2101:2106   */\n      dup7\n        /* \"#utility.yul\":2097:2113   */\n      add\n        /* \"#utility.yul\":2062:2127   */\n      tag_34\n      jump\t// in\n    tag_64:\n        /* \"#utility.yul\":2152:2158   */\n      dup1\n        /* \"#utility.yul\":2147:2150   */\n      dup5\n        /* \"#utility.yul\":2143:2159   */\n      add\n        /* \"#utility.yul\":2136:2159   */\n      swap2\n      pop\n        /* \"#utility.yul\":1887:2165   */\n      pop\n        /* \"#utility.yul\":1779:2165   */\n      swap3\n      swap2\n      pop\n      pop\n      jump\t// out\n        /* \"#utility.yul\":2171:2442   */\n    tag_16:\n        /* \"#utility.yul\":2301:2304   */\n      0x00\n        /* \"#utility.yul\":2323:2416   */\n      tag_66\n        /* \"#utility.yul\":2412:2415   */\n      dup3\n        /* \"#utility.yul\":2403:2409   */\n      dup5\n        /* \"#utility.yul\":2323:2416   */\n      tag_35\n      jump\t// in\n    tag_66:\n        /* \"#utility.yul\":2316:2416   */\n      swap2\n      pop\n        /* \"#utility.yul\":2433:2436   */\n      dup2\n        /* \"#utility.yul\":2426:2436   */\n      swap1\n      pop\n        /* \"#utility.yul\":2171:2442   */\n      swap3\n      swap2\n      pop\n      pop\n      jump\t// out\n        /* \"#utility.yul\":2448:2617   */\n    tag_36:\n        /* \"#utility.yul\":2532:2543   */\n      0x00\n        /* \"#utility.yul\":2566:2572   */\n      dup3\n        /* \"#utility.yul\":2561:2564   */\n      dup3\n        /* \"#utility.yul\":2554:2573   */\n      mstore\n        /* \"#utility.yul\":2606:2610   */\n      0x20\n        /* \"#utility.yul\":2601:2604   */\n      dup3\n        /* \"#utility.yul\":2597:2611   */\n      add\n        /* \"#utility.yul\":2582:2611   */\n      swap1\n      pop\n        /* \"#utility.yul\":2448:2617   */\n      swap3\n      swap2\n      pop\n      pop\n      jump\t// out\n        /* \"#utility.yul\":2623:2784   */\n    tag_37:\n        /* \"#utility.yul\":2763:2776   */\n      0x63616c6c206661696c6564000000000000000000000000000000000000000000\n        /* \"#utility.yul\":2759:2760   */\n      0x00\n        /* \"#utility.yul\":2751:2757   */\n      dup3\n        /* \"#utility.yul\":2747:2761   */\n      add\n        /* \"#utility.yul\":2740:2777   */\n      mstore\n        /* \"#utility.yul\":2623:2784   */\n      pop\n      jump\t// out\n        /* \"#utility.yul\":2790:3156   */\n    tag_38:\n        /* \"#utility.yul\":2932:2935   */\n      0x00\n        /* \"#utility.yul\":2953:3020   */\n      tag_70\n        /* \"#utility.yul\":3017:3019   */\n      0x0b\n        /* \"#utility.yul\":3012:3015   */\n      dup4\n        /* \"#utility.yul\":2953:3020   */\n      tag_36\n      jump\t// in\n    tag_70:\n        /* \"#utility.yul\":2946:3020   */\n      swap2\n      pop\n        /* \"#utility.yul\":3029:3122   */\n      tag_71\n        /* \"#utility.yul\":3118:3121   */\n      dup3\n        /* \"#utility.yul\":3029:3122   */\n      tag_37\n      jump\t// in\n    tag_71:\n        /* \"#utility.yul\":3147:3149   */\n      0x20\n        /* \"#utility.yul\":3142:3145   */\n      dup3\n        /* \"#utility.yul\":3138:3150   */\n      add\n        /* \"#utility.yul\":3131:3150   */\n      swap1\n      pop\n        /* \"#utility.yul\":2790:3156   */\n      swap2\n      swap1\n      pop\n      jump\t// out\n        /* \"#utility.yul\":3162:3581   */\n    tag_22:\n        /* \"#utility.yul\":3328:3332   */\n      0x00\n        /* \"#utility.yul\":3366:3368   */\n      0x20\n        /* \"#utility.yul\":3355:3364   */\n      dup3\n        /* \"#utility.yul\":3351:3369   */\n      add\n        /* \"#utility.yul\":3343:3369   */\n      swap1\n      pop\n        /* \"#utility.yul\":3415:3424   */\n      dup2\n        /* \"#utility.yul\":3409:3413   */\n      dup2\n        /* \"#utility.yul\":3405:3425   */\n      sub\n        /* \"#utility.yul\":3401:3402   */\n      0x00\n        /* \"#utility.yul\":3390:3399   */\n      dup4\n        /* \"#utility.yul\":3386:3403   */\n      add\n        /* \"#utility.yul\":3379:3426   */\n      mstore\n        /* \"#utility.yul\":3443:3574   */\n      tag_73\n        /* \"#utility.yul\":3569:3573   */\n      dup2\n        /* \"#utility.yul\":3443:3574   */\n      tag_38\n      jump\t// in\n    tag_73:\n        /* \"#utility.yul\":3435:3574   */\n      swap1\n      pop\n        /* \"#utility.yul\":3162:3581   */\n      swap2\n      swap1\n      pop\n      jump\t// out\n        /* \"#utility.yul\":3587:3730   */\n    tag_39:\n        /* \"#utility.yul\":3644:3649   */\n      0x00\n        /* \"#utility.yul\":3675:3681   */\n      dup2\n        /* \"#utility.yul\":3669:3682   */\n      mload\n        /* \"#utility.yul\":3660:3682   */\n      swap1\n      pop\n        /* \"#utility.yul\":3691:3724   */\n      tag_75\n        /* \"#utility.yul\":3718:3723   */\n      dup2\n        /* \"#utility.yul\":3691:3724   */\n      tag_29\n      jump\t// in\n    tag_75:\n        /* \"#utility.yul\":3587:3730   */\n      swap3\n      swap2\n      pop\n      pop\n      jump\t// out\n        /* \"#utility.yul\":3736:4087   */\n    tag_24:\n        /* \"#utility.yul\":3806:3812   */\n      0x00\n        /* \"#utility.yul\":3855:3857   */\n      0x20\n        /* \"#utility.yul\":3843:3852   */\n      dup3\n        /* \"#utility.yul\":3834:3841   */\n      dup5\n        /* \"#utility.yul\":3830:3853   */\n      sub\n        /* \"#utility.yul\":3826:3858   */\n      slt\n        /* \"#utility.yul\":3823:3942   */\n      iszero\n      tag_77\n      jumpi\n        /* \"#utility.yul\":3861:3940   */\n      tag_78\n      tag_26\n      jump\t// in\n    tag_78:\n        /* \"#utility.yul\":3823:3942   */\n    tag_77:\n        /* \"#utility.yul\":3981:3982   */\n      0x00\n        /* \"#utility.yul\":4006:4070   */\n      tag_79\n        /* \"#utility.yul\":4062:4069   */\n      dup5\n        /* \"#utility.yul\":4053:4059   */\n      dup3\n        /* \"#utility.yul\":4042:4051   */\n      dup6\n        /* \"#utility.yul\":4038:4060   */\n      add\n        /* \"#utility.yul\":4006:4070   */\n      tag_39\n      jump\t// in\n    tag_79:\n        /* \"#utility.yul\":3996:4070   */\n      swap2\n      pop\n        /* \"#utility.yul\":3952:4080   */\n      pop\n        /* \"#utility.yul\":3736:4087   */\n      swap3\n      swap2\n      pop\n      pop\n      jump\t// out\n\n    auxdata: 0xa26469706673582212206e76c8d76598452b9d31478a7ee46d43e7d43d3b1fb1faa59276c0192c71312964736f6c634300081a0033\n}\n",
				"bytecode": {
					"linkReferences": {},
					"object": "608060405234801561000f575f80fd5b506040516104e33803806104e3833981810160405281019061003191906100d5565b8060015f6101000a81548173ffffffffffffffffffffffffffffffffffffffff021916908373ffffffffffffffffffffffffffffffffffffffff16021790555050610100565b5f80fd5b5f73ffffffffffffffffffffffffffffffffffffffff82169050919050565b5f6100a48261007b565b9050919050565b6100b48161009a565b81146100be575f80fd5b50565b5f815190506100cf816100ab565b92915050565b5f602082840312156100ea576100e9610077565b5b5f6100f7848285016100c1565b91505092915050565b6103d68061010d5f395ff3fe608060405234801561000f575f80fd5b5060043610610034575f3560e01c80635f6cce2414610038578063ece57b0414610054575b5f80fd5b610052600480360381019061004d919061022e565b610072565b005b61005c6101f2565b6040516100699190610268565b60405180910390f35b5f816040516024016100849190610268565b6040516020818303038152906040527f4018d9aa000000000000000000000000000000000000000000000000000000007bffffffffffffffffffffffffffffffffffffffffffffffffffffffff19166020820180517bffffffffffffffffffffffffffffffffffffffffffffffffffffffff838183161783525050505090505f8060015f9054906101000a900473ffffffffffffffffffffffffffffffffffffffff1673ffffffffffffffffffffffffffffffffffffffff168360405161014b91906102d3565b5f604051808303815f865af19150503d805f8114610184576040519150601f19603f3d011682016040523d82523d5f602084013e610189565b606091505b5091509150816101ce576040517f08c379a00000000000000000000000000000000000000000000000000000000081526004016101c590610343565b60405180910390fd5b5f818060200190518101906101e39190610375565b9050805f819055505050505050565b5f5481565b5f80fd5b5f819050919050565b61020d816101fb565b8114610217575f80fd5b50565b5f8135905061022881610204565b92915050565b5f60208284031215610243576102426101f7565b5b5f6102508482850161021a565b91505092915050565b610262816101fb565b82525050565b5f60208201905061027b5f830184610259565b92915050565b5f81519050919050565b5f81905092915050565b8281835e5f83830152505050565b5f6102ad82610281565b6102b7818561028b565b93506102c7818560208601610295565b80840191505092915050565b5f6102de82846102a3565b915081905092915050565b5f82825260208201905092915050565b7f63616c6c206661696c65640000000000000000000000000000000000000000005f82015250565b5f61032d600b836102e9565b9150610338826102f9565b602082019050919050565b5f6020820190508181035f83015261035a81610321565b9050919050565b5f8151905061036f81610204565b92915050565b5f6020828403121561038a576103896101f7565b5b5f61039784828501610361565b9150509291505056fea26469706673582212206e76c8d76598452b9d31478a7ee46d43e7d43d3b1fb1faa59276c0192c71312964736f6c634300081a0033",
					"opcodes": "PUSH1 0x80 PUSH1 0x40 MSTORE CALLVALUE DUP1 ISZERO PUSH2 0xF JUMPI PUSH0 DUP1 REVERT JUMPDEST POP PUSH1 0x40 MLOAD PUSH2 0x4E3 CODESIZE SUB DUP1 PUSH2 0x4E3 DUP4 CODECOPY DUP2 DUP2 ADD PUSH1 0x40 MSTORE DUP2 ADD SWAP1 PUSH2 0x31 SWAP2 SWAP1 PUSH2 0xD5 JUMP JUMPDEST DUP1 PUSH1 0x1 PUSH0 PUSH2 0x100 EXP DUP2 SLOAD DUP2 PUSH20 0xFFFFFFFFFFFFFFFFFFFFFFFFFFFFFFFFFFFFFFFF MUL NOT AND SWAP1 DUP4 PUSH20 0xFFFFFFFFFFFFFFFFFFFFFFFFFFFFFFFFFFFFFFFF AND MUL OR SWAP1 SSTORE POP POP PUSH2 0x100 JUMP JUMPDEST PUSH0 DUP1 REVERT JUMPDEST PUSH0 PUSH20 0xFFFFFFFFFFFFFFFFFFFFFFFFFFFFFFFFFFFFFFFF DUP3 AND SWAP1 POP SWAP2 SWAP1 POP JUMP JUMPDEST PUSH0 PUSH2 0xA4 DUP3 PUSH2 0x7B JUMP JUMPDEST SWAP1 POP SWAP2 SWAP1 POP JUMP JUMPDEST PUSH2 0xB4 DUP2 PUSH2 0x9A JUMP JUMPDEST DUP2 EQ PUSH2 0xBE JUMPI PUSH0 DUP1 REVERT JUMPDEST POP JUMP JUMPDEST PUSH0 DUP2 MLOAD SWAP1 POP PUSH2 0xCF DUP2 PUSH2 0xAB JUMP JUMPDEST SWAP3 SWAP2 POP POP JUMP JUMPDEST PUSH0 PUSH1 0x20 DUP3 DUP5 SUB SLT ISZERO PUSH2 0xEA JUMPI PUSH2 0xE9 PUSH2 0x77 JUMP JUMPDEST JUMPDEST PUSH0 PUSH2 0xF7 DUP5 DUP3 DUP6 ADD PUSH2 0xC1 JUMP JUMPDEST SWAP2 POP POP SWAP3 SWAP2 POP POP JUMP JUMPDEST PUSH2 0x3D6 DUP1 PUSH2 0x10D PUSH0 CODECOPY PUSH0 RETURN INVALID PUSH1 0x80 PUSH1 0x40 MSTORE CALLVALUE DUP1 ISZERO PUSH2 0xF JUMPI PUSH0 DUP1 REVERT JUMPDEST POP PUSH1 0x4 CALLDATASIZE LT PUSH2 0x34 JUMPI PUSH0 CALLDATALOAD PUSH1 0xE0 SHR DUP1 PUSH4 0x5F6CCE24 EQ PUSH2 0x38 JUMPI DUP1 PUSH4 0xECE57B04 EQ PUSH2 0x54 JUMPI JUMPDEST PUSH0 DUP1 REVERT JUMPDEST PUSH2 0x52 PUSH1 0x4 DUP1 CALLDATASIZE SUB DUP2 ADD SWAP1 PUSH2 0x4D SWAP2 SWAP1 PUSH2 0x22E JUMP JUMPDEST PUSH2 0x72 JUMP JUMPDEST STOP JUMPDEST PUSH2 0x5C PUSH2 0x1F2 JUMP JUMPDEST PUSH1 0x40 MLOAD PUSH2 0x69 SWAP2 SWAP1 PUSH2 0x268 JUMP JUMPDEST PUSH1 0x40 MLOAD DUP1 SWAP2 SUB SWAP1 RETURN JUMPDEST PUSH0 DUP2 PUSH1 0x40 MLOAD PUSH1 0x24 ADD PUSH2 0x84 SWAP2 SWAP1 PUSH2 0x268 JUMP JUMPDEST PUSH1 0x40 MLOAD PUSH1 0x20 DUP2 DUP4 SUB SUB DUP2 MSTORE SWAP1 PUSH1 0x40 MSTORE PUSH32 0x4018D9AA00000000000000000000000000000000000000000000000000000000 PUSH28 0xFFFFFFFFFFFFFFFFFFFFFFFFFFFFFFFFFFFFFFFFFFFFFFFFFFFFFFFF NOT AND PUSH1 0x20 DUP3 ADD DUP1 MLOAD PUSH28 0xFFFFFFFFFFFFFFFFFFFFFFFFFFFFFFFFFFFFFFFFFFFFFFFFFFFFFFFF DUP4 DUP2 DUP4 AND OR DUP4 MSTORE POP POP POP POP SWAP1 POP PUSH0 DUP1 PUSH1 0x1 PUSH0 SWAP1 SLOAD SWAP1 PUSH2 0x100 EXP SWAP1 DIV PUSH20 0xFFFFFFFFFFFFFFFFFFFFFFFFFFFFFFFFFFFFFFFF AND PUSH20 0xFFFFFFFFFFFFFFFFFFFFFFFFFFFFFFFFFFFFFFFF AND DUP4 PUSH1 0x40 MLOAD PUSH2 0x14B SWAP2 SWAP1 PUSH2 0x2D3 JUMP JUMPDEST PUSH0 PUSH1 0x40 MLOAD DUP1 DUP4 SUB DUP2 PUSH0 DUP7 GAS CALL SWAP2 POP POP RETURNDATASIZE DUP1 PUSH0 DUP2 EQ PUSH2 0x184 JUMPI PUSH1 0x40 MLOAD SWAP2 POP PUSH1 0x1F NOT PUSH1 0x3F RETURNDATASIZE ADD AND DUP3 ADD PUSH1 0x40 MSTORE RETURNDATASIZE DUP3 MSTORE RETURNDATASIZE PUSH0 PUSH1 0x20 DUP5 ADD RETURNDATACOPY PUSH2 0x189 JUMP JUMPDEST PUSH1 0x60 SWAP2 POP JUMPDEST POP SWAP2 POP SWAP2 POP DUP2 PUSH2 0x1CE JUMPI PUSH1 0x40 MLOAD PUSH32 0x8C379A000000000000000000000000000000000000000000000000000000000 DUP2 MSTORE PUSH1 0x4 ADD PUSH2 0x1C5 SWAP1 PUSH2 0x343 JUMP JUMPDEST PUSH1 0x40 MLOAD DUP1 SWAP2 SUB SWAP1 REVERT JUMPDEST PUSH0 DUP2 DUP1 PUSH1 0x20 ADD SWAP1 MLOAD DUP2 ADD SWAP1 PUSH2 0x1E3 SWAP2 SWAP1 PUSH2 0x375 JUMP JUMPDEST SWAP1 POP DUP1 PUSH0 DUP2 SWAP1 SSTORE POP POP POP POP POP POP JUMP JUMPDEST PUSH0 SLOAD DUP2 JUMP JUMPDEST PUSH0 DUP1 REVERT JUMPDEST PUSH0 DUP2 SWAP1 POP SWAP2 SWAP1 POP JUMP JUMPDEST PUSH2 0x20D DUP2 PUSH2 0x1FB JUMP JUMPDEST DUP2 EQ PUSH2 0x217 JUMPI PUSH0 DUP1 REVERT JUMPDEST POP JUMP JUMPDEST PUSH0 DUP2 CALLDATALOAD SWAP1 POP PUSH2 0x228 DUP2 PUSH2 0x204 JUMP JUMPDEST SWAP3 SWAP2 POP POP JUMP JUMPDEST PUSH0 PUSH1 0x20 DUP3 DUP5 SUB SLT ISZERO PUSH2 0x243 JUMPI PUSH2 0x242 PUSH2 0x1F7 JUMP JUMPDEST JUMPDEST PUSH0 PUSH2 0x250 DUP5 DUP3 DUP6 ADD PUSH2 0x21A JUMP JUMPDEST SWAP2 POP POP SWAP3 SWAP2 POP POP JUMP JUMPDEST PUSH2 0x262 DUP2 PUSH2 0x1FB JUMP JUMPDEST DUP3 MSTORE POP POP JUMP JUMPDEST PUSH0 PUSH1 0x20 DUP3 ADD SWAP1 POP PUSH2 0x27B PUSH0 DUP4 ADD DUP5 PUSH2 0x259 JUMP JUMPDEST SWAP3 SWAP2 POP POP JUMP JUMPDEST PUSH0 DUP2 MLOAD SWAP1 POP SWAP2 SWAP1 POP JUMP JUMPDEST PUSH0 DUP2 SWAP1 POP SWAP3 SWAP2 POP POP JUMP JUMPDEST DUP3 DUP2 DUP4 MCOPY PUSH0 DUP4 DUP4 ADD MSTORE POP POP POP JUMP JUMPDEST PUSH0 PUSH2 0x2AD DUP3 PUSH2 0x281 JUMP JUMPDEST PUSH2 0x2B7 DUP2 DUP6 PUSH2 0x28B JUMP JUMPDEST SWAP4 POP PUSH2 0x2C7 DUP2 DUP6 PUSH1 0x20 DUP7 ADD PUSH2 0x295 JUMP JUMPDEST DUP1 DUP5 ADD SWAP2 POP POP SWAP3 SWAP2 POP POP JUMP JUMPDEST PUSH0 PUSH2 0x2DE DUP3 DUP5 PUSH2 0x2A3 JUMP JUMPDEST SWAP2 POP DUP2 SWAP1 POP SWAP3 SWAP2 POP POP JUMP JUMPDEST PUSH0 DUP3 DUP3 MSTORE PUSH1 0x20 DUP3 ADD SWAP1 POP SWAP3 SWAP2 POP POP JUMP JUMPDEST PUSH32 0x63616C6C206661696C6564000000000000000000000000000000000000000000 PUSH0 DUP3 ADD MSTORE POP JUMP JUMPDEST PUSH0 PUSH2 0x32D PUSH1 0xB DUP4 PUSH2 0x2E9 JUMP JUMPDEST SWAP2 POP PUSH2 0x338 DUP3 PUSH2 0x2F9 JUMP JUMPDEST PUSH1 0x20 DUP3 ADD SWAP1 POP SWAP2 SWAP1 POP JUMP JUMPDEST PUSH0 PUSH1 0x20 DUP3 ADD SWAP1 POP DUP2 DUP2 SUB PUSH0 DUP4 ADD MSTORE PUSH2 0x35A DUP2 PUSH2 0x321 JUMP JUMPDEST SWAP1 POP SWAP2 SWAP1 POP JUMP JUMPDEST PUSH0 DUP2 MLOAD SWAP1 POP PUSH2 0x36F DUP2 PUSH2 0x204 JUMP JUMPDEST SWAP3 SWAP2 POP POP JUMP JUMPDEST PUSH0 PUSH1 0x20 DUP3 DUP5 SUB SLT ISZERO PUSH2 0x38A JUMPI PUSH2 0x389 PUSH2 0x1F7 JUMP JUMPDEST JUMPDEST PUSH0 PUSH2 0x397 DUP5 DUP3 DUP6 ADD PUSH2 0x361 JUMP JUMPDEST SWAP2 POP POP SWAP3 SWAP2 POP POP JUMP INVALID LOG2 PUSH5 0x6970667358 0x22 SLT KECCAK256 PUSH15 0x76C8D76598452B9D31478A7EE46D43 0xE7 0xD4 RETURNDATASIZE EXTCODESIZE 0x1F 0xB1 STATICCALL 0xA5 SWAP3 PUSH23 0xC0192C71312964736F6C634300081A0033000000000000 "
				},
				"gasEstimates": {
					"creation": {
						"codeDepositCost": "196400",
						"executionCost": "infinite",
						"totalCost": "infinite"
					},
					"external": {
						"setCalleeX(uint256)": "infinite",
						"xx()": "2424"
					}
				},
				"methodIdentifiers": {
					"setCalleeX(uint256)": "5f6cce24",
					"xx()": "ece57b04"
				}
			},
			"storageLayout": {
				"storage": [
					{
						"astId": 3,
						"contract": "contracts/Caller.sol:Caller",
						"label": "xx",
						"offset": 0,
						"slot": "0",
						"type": "t_uint256"
					},
					{
						"astId": 5,
						"contract": "contracts/Caller.sol:Caller",
						"label": "calleeAddress",
						"offset": 0,
						"slot": "1",
						"type": "t_address"
					}
				],
				"types": {
					"t_address": {
						"encoding": "inplace",
						"label": "address",
						"numberOfBytes": "20"
					},
					"t_uint256": {
						"encoding": "inplace",
						"label": "uint256",
						"numberOfBytes": "32"
					}
				}
			},
			"userdoc": {
				"kind": "user",
				"methods": {},
				"version": 1
			}
		}
	}
}