{
	"contracts/ReceiveEther.sol": {
		"SendEther": {
			"abi": [
				{
					"inputs": [],
					"name": "deposit",
					"outputs": [],
					"stateMutability": "payable",
					"type": "function"
				},
				{
					"inputs": [],
					"name": "received",
					"outputs": [
						{
							"internalType": "uint256",
							"name": "",
							"type": "uint256"
						}
					],
					"stateMutability": "view",
					"type": "function"
				},
				{
					"inputs": [
						{
							"internalType": "address payable",
							"name": "_to",
							"type": "address"
						},
						{
							"internalType": "uint256",
							"name": "amount",
							"type": "uint256"
						}
					],
					"name": "sendTo",
					"outputs": [],
					"stateMutability": "payable",
					"type": "function"
				},
				{
					"inputs": [
						{
							"internalType": "address payable",
							"name": "_to",
							"type": "address"
						}
					],
					"name": "sendViaCall",
					"outputs": [],
					"stateMutability": "payable",
					"type": "function"
				},
				{
					"inputs": [
						{
							"internalType": "address payable",
							"name": "_to",
							"type": "address"
						}
					],
					"name": "sendViaSend",
					"outputs": [],
					"stateMutability": "payable",
					"type": "function"
				},
				{
					"inputs": [
						{
							"internalType": "address payable",
							"name": "_to",
							"type": "address"
						}
					],
					"name": "sendViaTransfer",
					"outputs": [],
					"stateMutability": "payable",
					"type": "function"
				}
			],
			"devdoc": {
				"kind": "dev",
				"methods": {},
				"version": 1
			},
			"evm": {
				"assembly": "    /* \"contracts/ReceiveEther.sol\":435:1198  contract SendEther {... */\n  mstore(0x40, 0x80)\n  callvalue\n  dup1\n  iszero\n  tag_1\n  jumpi\n  0x00\n  dup1\n  revert\ntag_1:\n  pop\n  dataSize(sub_0)\n  dup1\n  dataOffset(sub_0)\n  0x00\n  codecopy\n  0x00\n  return\nstop\n\nsub_0: assembly {\n        /* \"contracts/ReceiveEther.sol\":435:1198  contract SendEther {... */\n      mstore(0x40, 0x80)\n      jumpi(tag_1, lt(calldatasize, 0x04))\n      shr(0xe0, calldataload(0x00))\n      dup1\n      0x636e082b\n      eq\n      tag_2\n      jumpi\n      dup1\n      0x74be4806\n      eq\n      tag_3\n      jumpi\n      dup1\n      0x830c29ae\n      eq\n      tag_4\n      jumpi\n      dup1\n      0x83a6deb5\n      eq\n      tag_5\n      jumpi\n      dup1\n      0x9e1a00aa\n      eq\n      tag_6\n      jumpi\n      dup1\n      0xd0e30db0\n      eq\n      tag_7\n      jumpi\n    tag_1:\n      0x00\n      dup1\n      revert\n        /* \"contracts/ReceiveEther.sol\":460:561  function sendViaTransfer(address payable _to) public payable {... */\n    tag_2:\n      tag_8\n      0x04\n      dup1\n      calldatasize\n      sub\n      dup2\n      add\n      swap1\n      tag_9\n      swap2\n      swap1\n      tag_10\n      jump\t// in\n    tag_9:\n      tag_11\n      jump\t// in\n    tag_8:\n      stop\n        /* \"contracts/ReceiveEther.sol\":567:719  function sendViaSend(address payable _to) public payable {... */\n    tag_3:\n      tag_12\n      0x04\n      dup1\n      calldatasize\n      sub\n      dup2\n      add\n      swap1\n      tag_13\n      swap2\n      swap1\n      tag_10\n      jump\t// in\n    tag_13:\n      tag_14\n      jump\t// in\n    tag_12:\n      stop\n        /* \"contracts/ReceiveEther.sol\":725:905  function sendViaCall(address payable _to) public payable {... */\n    tag_4:\n      tag_15\n      0x04\n      dup1\n      calldatasize\n      sub\n      dup2\n      add\n      swap1\n      tag_16\n      swap2\n      swap1\n      tag_10\n      jump\t// in\n    tag_16:\n      tag_17\n      jump\t// in\n    tag_15:\n      stop\n        /* \"contracts/ReceiveEther.sol\":910:930  uint public received */\n    tag_5:\n      callvalue\n      dup1\n      iszero\n      tag_18\n      jumpi\n      0x00\n      dup1\n      revert\n    tag_18:\n      pop\n      tag_19\n      tag_20\n      jump\t// in\n    tag_19:\n      mload(0x40)\n      tag_21\n      swap2\n      swap1\n      tag_22\n      jump\t// in\n    tag_21:\n      mload(0x40)\n      dup1\n      swap2\n      sub\n      swap1\n      return\n        /* \"contracts/ReceiveEther.sol\":1012:1196  function sendTo(address payable _to,uint amount) public payable {... */\n    tag_6:\n      tag_23\n      0x04\n      dup1\n      calldatasize\n      sub\n      dup2\n      add\n      swap1\n      tag_24\n      swap2\n      swap1\n      tag_25\n      jump\t// in\n    tag_24:\n      tag_26\n      jump\t// in\n    tag_23:\n      stop\n        /* \"contracts/ReceiveEther.sol\":936:1006  function deposit() public payable {... */\n    tag_7:\n      tag_27\n      tag_28\n      jump\t// in\n    tag_27:\n      stop\n        /* \"contracts/ReceiveEther.sol\":460:561  function sendViaTransfer(address payable _to) public payable {... */\n    tag_11:\n        /* \"contracts/ReceiveEther.sol\":531:534  _to */\n      dup1\n        /* \"contracts/ReceiveEther.sol\":531:543  _to.transfer */\n      0xffffffffffffffffffffffffffffffffffffffff\n      and\n        /* \"contracts/ReceiveEther.sol\":531:554  _to.transfer(msg.value) */\n      0x08fc\n        /* \"contracts/ReceiveEther.sol\":544:553  msg.value */\n      callvalue\n        /* \"contracts/ReceiveEther.sol\":531:554  _to.transfer(msg.value) */\n      swap1\n      dup2\n      iszero\n      mul\n      swap1\n      mload(0x40)\n      0x00\n      mload(0x40)\n      dup1\n      dup4\n      sub\n      dup2\n      dup6\n      dup9\n      dup9\n      call\n      swap4\n      pop\n      pop\n      pop\n      pop\n      iszero\n      dup1\n      iszero\n      tag_31\n      jumpi\n      returndatasize\n      0x00\n      dup1\n      returndatacopy\n      revert(0x00, returndatasize)\n    tag_31:\n      pop\n        /* \"contracts/ReceiveEther.sol\":460:561  function sendViaTransfer(address payable _to) public payable {... */\n      pop\n      jump\t// out\n        /* \"contracts/ReceiveEther.sol\":567:719  function sendViaSend(address payable _to) public payable {... */\n    tag_14:\n        /* \"contracts/ReceiveEther.sol\":634:643  bool sent */\n      0x00\n        /* \"contracts/ReceiveEther.sol\":646:649  _to */\n      dup2\n        /* \"contracts/ReceiveEther.sol\":646:654  _to.send */\n      0xffffffffffffffffffffffffffffffffffffffff\n      and\n        /* \"contracts/ReceiveEther.sol\":646:665  _to.send(msg.value) */\n      0x08fc\n        /* \"contracts/ReceiveEther.sol\":655:664  msg.value */\n      callvalue\n        /* \"contracts/ReceiveEther.sol\":646:665  _to.send(msg.value) */\n      swap1\n      dup2\n      iszero\n      mul\n      swap1\n      mload(0x40)\n      0x00\n      mload(0x40)\n      dup1\n      dup4\n      sub\n      dup2\n      dup6\n      dup9\n      dup9\n      call\n      swap4\n      pop\n      pop\n      pop\n      pop\n        /* \"contracts/ReceiveEther.sol\":634:665  bool sent = _to.send(msg.value) */\n      swap1\n      pop\n        /* \"contracts/ReceiveEther.sol\":683:687  sent */\n      dup1\n        /* \"contracts/ReceiveEther.sol\":675:712  require(sent, \"Failed to send Ether\") */\n      tag_34\n      jumpi\n      mload(0x40)\n      0x08c379a000000000000000000000000000000000000000000000000000000000\n      dup2\n      mstore\n      0x04\n      add\n      tag_35\n      swap1\n      tag_36\n      jump\t// in\n    tag_35:\n      mload(0x40)\n      dup1\n      swap2\n      sub\n      swap1\n      revert\n    tag_34:\n        /* \"contracts/ReceiveEther.sol\":624:719  {... */\n      pop\n        /* \"contracts/ReceiveEther.sol\":567:719  function sendViaSend(address payable _to) public payable {... */\n      pop\n      jump\t// out\n        /* \"contracts/ReceiveEther.sol\":725:905  function sendViaCall(address payable _to) public payable {... */\n    tag_17:\n        /* \"contracts/ReceiveEther.sol\":793:802  bool sent */\n      0x00\n        /* \"contracts/ReceiveEther.sol\":803:820  bytes memory data */\n      dup1\n        /* \"contracts/ReceiveEther.sol\":824:827  _to */\n      dup3\n        /* \"contracts/ReceiveEther.sol\":824:832  _to.call */\n      0xffffffffffffffffffffffffffffffffffffffff\n      and\n        /* \"contracts/ReceiveEther.sol\":839:848  msg.value */\n      callvalue\n        /* \"contracts/ReceiveEther.sol\":824:853  _to.call{value:msg.value}(\"\") */\n      mload(0x40)\n      tag_38\n      swap1\n      tag_39\n      jump\t// in\n    tag_38:\n      0x00\n      mload(0x40)\n      dup1\n      dup4\n      sub\n      dup2\n      dup6\n      dup8\n      gas\n      call\n      swap3\n      pop\n      pop\n      pop\n      returndatasize\n      dup1\n      0x00\n      dup2\n      eq\n      tag_42\n      jumpi\n      mload(0x40)\n      swap2\n      pop\n      and(add(returndatasize, 0x3f), not(0x1f))\n      dup3\n      add\n      0x40\n      mstore\n      returndatasize\n      dup3\n      mstore\n      returndatasize\n      0x00\n      0x20\n      dup5\n      add\n      returndatacopy\n      jump(tag_41)\n    tag_42:\n      0x60\n      swap2\n      pop\n    tag_41:\n      pop\n        /* \"contracts/ReceiveEther.sol\":792:853  (bool sent,bytes memory data) = _to.call{value:msg.value}(\"\") */\n      swap2\n      pop\n      swap2\n      pop\n        /* \"contracts/ReceiveEther.sol\":871:875  sent */\n      dup2\n        /* \"contracts/ReceiveEther.sol\":863:898  require(sent,\"Failed to send Ethe\") */\n      tag_43\n      jumpi\n      mload(0x40)\n      0x08c379a000000000000000000000000000000000000000000000000000000000\n      dup2\n      mstore\n      0x04\n      add\n      tag_44\n      swap1\n      tag_45\n      jump\t// in\n    tag_44:\n      mload(0x40)\n      dup1\n      swap2\n      sub\n      swap1\n      revert\n    tag_43:\n        /* \"contracts/ReceiveEther.sol\":782:905  {... */\n      pop\n      pop\n        /* \"contracts/ReceiveEther.sol\":725:905  function sendViaCall(address payable _to) public payable {... */\n      pop\n      jump\t// out\n        /* \"contracts/ReceiveEther.sol\":910:930  uint public received */\n    tag_20:\n      sload(0x00)\n      dup2\n      jump\t// out\n        /* \"contracts/ReceiveEther.sol\":1012:1196  function sendTo(address payable _to,uint amount) public payable {... */\n    tag_26:\n        /* \"contracts/ReceiveEther.sol\":1087:1096  bool sent */\n      0x00\n        /* \"contracts/ReceiveEther.sol\":1097:1114  bytes memory data */\n      dup1\n        /* \"contracts/ReceiveEther.sol\":1118:1121  _to */\n      dup4\n        /* \"contracts/ReceiveEther.sol\":1118:1126  _to.call */\n      0xffffffffffffffffffffffffffffffffffffffff\n      and\n        /* \"contracts/ReceiveEther.sol\":1133:1139  amount */\n      dup4\n        /* \"contracts/ReceiveEther.sol\":1118:1144  _to.call{value:amount}(\"\") */\n      mload(0x40)\n      tag_47\n      swap1\n      tag_39\n      jump\t// in\n    tag_47:\n      0x00\n      mload(0x40)\n      dup1\n      dup4\n      sub\n      dup2\n      dup6\n      dup8\n      gas\n      call\n      swap3\n      pop\n      pop\n      pop\n      returndatasize\n      dup1\n      0x00\n      dup2\n      eq\n      tag_50\n      jumpi\n      mload(0x40)\n      swap2\n      pop\n      and(add(returndatasize, 0x3f), not(0x1f))\n      dup3\n      add\n      0x40\n      mstore\n      returndatasize\n      dup3\n      mstore\n      returndatasize\n      0x00\n      0x20\n      dup5\n      add\n      returndatacopy\n      jump(tag_49)\n    tag_50:\n      0x60\n      swap2\n      pop\n    tag_49:\n      pop\n        /* \"contracts/ReceiveEther.sol\":1086:1144  (bool sent,bytes memory data) = _to.call{value:amount}(\"\") */\n      swap2\n      pop\n      swap2\n      pop\n        /* \"contracts/ReceiveEther.sol\":1162:1166  sent */\n      dup2\n        /* \"contracts/ReceiveEther.sol\":1154:1189  require(sent,\"Failed to send Ethe\") */\n      tag_51\n      jumpi\n      mload(0x40)\n      0x08c379a000000000000000000000000000000000000000000000000000000000\n      dup2\n      mstore\n      0x04\n      add\n      tag_52\n      swap1\n      tag_45\n      jump\t// in\n    tag_52:\n      mload(0x40)\n      dup1\n      swap2\n      sub\n      swap1\n      revert\n    tag_51:\n        /* \"contracts/ReceiveEther.sol\":1076:1196  {... */\n      pop\n      pop\n        /* \"contracts/ReceiveEther.sol\":1012:1196  function sendTo(address payable _to,uint amount) public payable {... */\n      pop\n      pop\n      jump\t// out\n        /* \"contracts/ReceiveEther.sol\":936:1006  function deposit() public payable {... */\n    tag_28:\n        /* \"contracts/ReceiveEther.sol\":990:999  msg.value */\n      callvalue\n        /* \"contracts/ReceiveEther.sol\":980:988  received */\n      0x00\n      dup1\n        /* \"contracts/ReceiveEther.sol\":980:999  received+=msg.value */\n      dup3\n      dup3\n      sload\n      tag_54\n      swap2\n      swap1\n      tag_55\n      jump\t// in\n    tag_54:\n      swap3\n      pop\n      pop\n      dup2\n      swap1\n      sstore\n      pop\n        /* \"contracts/ReceiveEther.sol\":936:1006  function deposit() public payable {... */\n      jump\t// out\n        /* \"#utility.yul\":88:205   */\n    tag_57:\n        /* \"#utility.yul\":197:198   */\n      0x00\n        /* \"#utility.yul\":194:195   */\n      dup1\n        /* \"#utility.yul\":187:199   */\n      revert\n        /* \"#utility.yul\":334:460   */\n    tag_59:\n        /* \"#utility.yul\":371:378   */\n      0x00\n        /* \"#utility.yul\":411:453   */\n      0xffffffffffffffffffffffffffffffffffffffff\n        /* \"#utility.yul\":404:409   */\n      dup3\n        /* \"#utility.yul\":400:454   */\n      and\n        /* \"#utility.yul\":389:454   */\n      swap1\n      pop\n        /* \"#utility.yul\":334:460   */\n      swap2\n      swap1\n      pop\n      jump\t// out\n        /* \"#utility.yul\":466:570   */\n    tag_60:\n        /* \"#utility.yul\":511:518   */\n      0x00\n        /* \"#utility.yul\":540:564   */\n      tag_82\n        /* \"#utility.yul\":558:563   */\n      dup3\n        /* \"#utility.yul\":540:564   */\n      tag_59\n      jump\t// in\n    tag_82:\n        /* \"#utility.yul\":529:564   */\n      swap1\n      pop\n        /* \"#utility.yul\":466:570   */\n      swap2\n      swap1\n      pop\n      jump\t// out\n        /* \"#utility.yul\":576:714   */\n    tag_61:\n        /* \"#utility.yul\":657:689   */\n      tag_84\n        /* \"#utility.yul\":683:688   */\n      dup2\n        /* \"#utility.yul\":657:689   */\n      tag_60\n      jump\t// in\n    tag_84:\n        /* \"#utility.yul\":650:655   */\n      dup2\n        /* \"#utility.yul\":647:690   */\n      eq\n        /* \"#utility.yul\":637:708   */\n      tag_85\n      jumpi\n        /* \"#utility.yul\":704:705   */\n      0x00\n        /* \"#utility.yul\":701:702   */\n      dup1\n        /* \"#utility.yul\":694:706   */\n      revert\n        /* \"#utility.yul\":637:708   */\n    tag_85:\n        /* \"#utility.yul\":576:714   */\n      pop\n      jump\t// out\n        /* \"#utility.yul\":720:875   */\n    tag_62:\n        /* \"#utility.yul\":774:779   */\n      0x00\n        /* \"#utility.yul\":812:818   */\n      dup2\n        /* \"#utility.yul\":799:819   */\n      calldataload\n        /* \"#utility.yul\":790:819   */\n      swap1\n      pop\n        /* \"#utility.yul\":828:869   */\n      tag_87\n        /* \"#utility.yul\":863:868   */\n      dup2\n        /* \"#utility.yul\":828:869   */\n      tag_61\n      jump\t// in\n    tag_87:\n        /* \"#utility.yul\":720:875   */\n      swap3\n      swap2\n      pop\n      pop\n      jump\t// out\n        /* \"#utility.yul\":881:1226   */\n    tag_10:\n        /* \"#utility.yul\":948:954   */\n      0x00\n        /* \"#utility.yul\":997:999   */\n      0x20\n        /* \"#utility.yul\":985:994   */\n      dup3\n        /* \"#utility.yul\":976:983   */\n      dup5\n        /* \"#utility.yul\":972:995   */\n      sub\n        /* \"#utility.yul\":968:1000   */\n      slt\n        /* \"#utility.yul\":965:1084   */\n      iszero\n      tag_89\n      jumpi\n        /* \"#utility.yul\":1003:1082   */\n      tag_90\n      tag_57\n      jump\t// in\n    tag_90:\n        /* \"#utility.yul\":965:1084   */\n    tag_89:\n        /* \"#utility.yul\":1123:1124   */\n      0x00\n        /* \"#utility.yul\":1148:1209   */\n      tag_91\n        /* \"#utility.yul\":1201:1208   */\n      dup5\n        /* \"#utility.yul\":1192:1198   */\n      dup3\n        /* \"#utility.yul\":1181:1190   */\n      dup6\n        /* \"#utility.yul\":1177:1199   */\n      add\n        /* \"#utility.yul\":1148:1209   */\n      tag_62\n      jump\t// in\n    tag_91:\n        /* \"#utility.yul\":1138:1209   */\n      swap2\n      pop\n        /* \"#utility.yul\":1094:1219   */\n      pop\n        /* \"#utility.yul\":881:1226   */\n      swap3\n      swap2\n      pop\n      pop\n      jump\t// out\n        /* \"#utility.yul\":1232:1309   */\n    tag_63:\n        /* \"#utility.yul\":1269:1276   */\n      0x00\n        /* \"#utility.yul\":1298:1303   */\n      dup2\n        /* \"#utility.yul\":1287:1303   */\n      swap1\n      pop\n        /* \"#utility.yul\":1232:1309   */\n      swap2\n      swap1\n      pop\n      jump\t// out\n        /* \"#utility.yul\":1315:1433   */\n    tag_64:\n        /* \"#utility.yul\":1402:1426   */\n      tag_94\n        /* \"#utility.yul\":1420:1425   */\n      dup2\n        /* \"#utility.yul\":1402:1426   */\n      tag_63\n      jump\t// in\n    tag_94:\n        /* \"#utility.yul\":1397:1400   */\n      dup3\n        /* \"#utility.yul\":1390:1427   */\n      mstore\n        /* \"#utility.yul\":1315:1433   */\n      pop\n      pop\n      jump\t// out\n        /* \"#utility.yul\":1439:1661   */\n    tag_22:\n        /* \"#utility.yul\":1532:1536   */\n      0x00\n        /* \"#utility.yul\":1570:1572   */\n      0x20\n        /* \"#utility.yul\":1559:1568   */\n      dup3\n        /* \"#utility.yul\":1555:1573   */\n      add\n        /* \"#utility.yul\":1547:1573   */\n      swap1\n      pop\n        /* \"#utility.yul\":1583:1654   */\n      tag_96\n        /* \"#utility.yul\":1651:1652   */\n      0x00\n        /* \"#utility.yul\":1640:1649   */\n      dup4\n        /* \"#utility.yul\":1636:1653   */\n      add\n        /* \"#utility.yul\":1627:1633   */\n      dup5\n        /* \"#utility.yul\":1583:1654   */\n      tag_64\n      jump\t// in\n    tag_96:\n        /* \"#utility.yul\":1439:1661   */\n      swap3\n      swap2\n      pop\n      pop\n      jump\t// out\n        /* \"#utility.yul\":1667:1789   */\n    tag_65:\n        /* \"#utility.yul\":1740:1764   */\n      tag_98\n        /* \"#utility.yul\":1758:1763   */\n      dup2\n        /* \"#utility.yul\":1740:1764   */\n      tag_63\n      jump\t// in\n    tag_98:\n        /* \"#utility.yul\":1733:1738   */\n      dup2\n        /* \"#utility.yul\":1730:1765   */\n      eq\n        /* \"#utility.yul\":1720:1783   */\n      tag_99\n      jumpi\n        /* \"#utility.yul\":1779:1780   */\n      0x00\n        /* \"#utility.yul\":1776:1777   */\n      dup1\n        /* \"#utility.yul\":1769:1781   */\n      revert\n        /* \"#utility.yul\":1720:1783   */\n    tag_99:\n        /* \"#utility.yul\":1667:1789   */\n      pop\n      jump\t// out\n        /* \"#utility.yul\":1795:1934   */\n    tag_66:\n        /* \"#utility.yul\":1841:1846   */\n      0x00\n        /* \"#utility.yul\":1879:1885   */\n      dup2\n        /* \"#utility.yul\":1866:1886   */\n      calldataload\n        /* \"#utility.yul\":1857:1886   */\n      swap1\n      pop\n        /* \"#utility.yul\":1895:1928   */\n      tag_101\n        /* \"#utility.yul\":1922:1927   */\n      dup2\n        /* \"#utility.yul\":1895:1928   */\n      tag_65\n      jump\t// in\n    tag_101:\n        /* \"#utility.yul\":1795:1934   */\n      swap3\n      swap2\n      pop\n      pop\n      jump\t// out\n        /* \"#utility.yul\":1940:2430   */\n    tag_25:\n        /* \"#utility.yul\":2016:2022   */\n      0x00\n        /* \"#utility.yul\":2024:2030   */\n      dup1\n        /* \"#utility.yul\":2073:2075   */\n      0x40\n        /* \"#utility.yul\":2061:2070   */\n      dup4\n        /* \"#utility.yul\":2052:2059   */\n      dup6\n        /* \"#utility.yul\":2048:2071   */\n      sub\n        /* \"#utility.yul\":2044:2076   */\n      slt\n        /* \"#utility.yul\":2041:2160   */\n      iszero\n      tag_103\n      jumpi\n        /* \"#utility.yul\":2079:2158   */\n      tag_104\n      tag_57\n      jump\t// in\n    tag_104:\n        /* \"#utility.yul\":2041:2160   */\n    tag_103:\n        /* \"#utility.yul\":2199:2200   */\n      0x00\n        /* \"#utility.yul\":2224:2285   */\n      tag_105\n        /* \"#utility.yul\":2277:2284   */\n      dup6\n        /* \"#utility.yul\":2268:2274   */\n      dup3\n        /* \"#utility.yul\":2257:2266   */\n      dup7\n        /* \"#utility.yul\":2253:2275   */\n      add\n        /* \"#utility.yul\":2224:2285   */\n      tag_62\n      jump\t// in\n    tag_105:\n        /* \"#utility.yul\":2214:2285   */\n      swap3\n      pop\n        /* \"#utility.yul\":2170:2295   */\n      pop\n        /* \"#utility.yul\":2334:2336   */\n      0x20\n        /* \"#utility.yul\":2360:2413   */\n      tag_106\n        /* \"#utility.yul\":2405:2412   */\n      dup6\n        /* \"#utility.yul\":2396:2402   */\n      dup3\n        /* \"#utility.yul\":2385:2394   */\n      dup7\n        /* \"#utility.yul\":2381:2403   */\n      add\n        /* \"#utility.yul\":2360:2413   */\n      tag_66\n      jump\t// in\n    tag_106:\n        /* \"#utility.yul\":2350:2413   */\n      swap2\n      pop\n        /* \"#utility.yul\":2305:2423   */\n      pop\n        /* \"#utility.yul\":1940:2430   */\n      swap3\n      pop\n      swap3\n      swap1\n      pop\n      jump\t// out\n        /* \"#utility.yul\":2436:2605   */\n    tag_67:\n        /* \"#utility.yul\":2520:2531   */\n      0x00\n        /* \"#utility.yul\":2554:2560   */\n      dup3\n        /* \"#utility.yul\":2549:2552   */\n      dup3\n        /* \"#utility.yul\":2542:2561   */\n      mstore\n        /* \"#utility.yul\":2594:2598   */\n      0x20\n        /* \"#utility.yul\":2589:2592   */\n      dup3\n        /* \"#utility.yul\":2585:2599   */\n      add\n        /* \"#utility.yul\":2570:2599   */\n      swap1\n      pop\n        /* \"#utility.yul\":2436:2605   */\n      swap3\n      swap2\n      pop\n      pop\n      jump\t// out\n        /* \"#utility.yul\":2611:2781   */\n    tag_68:\n        /* \"#utility.yul\":2751:2773   */\n      0x4661696c656420746f2073656e64204574686572000000000000000000000000\n        /* \"#utility.yul\":2747:2748   */\n      0x00\n        /* \"#utility.yul\":2739:2745   */\n      dup3\n        /* \"#utility.yul\":2735:2749   */\n      add\n        /* \"#utility.yul\":2728:2774   */\n      mstore\n        /* \"#utility.yul\":2611:2781   */\n      pop\n      jump\t// out\n        /* \"#utility.yul\":2787:3153   */\n    tag_69:\n        /* \"#utility.yul\":2929:2932   */\n      0x00\n        /* \"#utility.yul\":2950:3017   */\n      tag_110\n        /* \"#utility.yul\":3014:3016   */\n      0x14\n        /* \"#utility.yul\":3009:3012   */\n      dup4\n        /* \"#utility.yul\":2950:3017   */\n      tag_67\n      jump\t// in\n    tag_110:\n        /* \"#utility.yul\":2943:3017   */\n      swap2\n      pop\n        /* \"#utility.yul\":3026:3119   */\n      tag_111\n        /* \"#utility.yul\":3115:3118   */\n      dup3\n        /* \"#utility.yul\":3026:3119   */\n      tag_68\n      jump\t// in\n    tag_111:\n        /* \"#utility.yul\":3144:3146   */\n      0x20\n        /* \"#utility.yul\":3139:3142   */\n      dup3\n        /* \"#utility.yul\":3135:3147   */\n      add\n        /* \"#utility.yul\":3128:3147   */\n      swap1\n      pop\n        /* \"#utility.yul\":2787:3153   */\n      swap2\n      swap1\n      pop\n      jump\t// out\n        /* \"#utility.yul\":3159:3578   */\n    tag_36:\n        /* \"#utility.yul\":3325:3329   */\n      0x00\n        /* \"#utility.yul\":3363:3365   */\n      0x20\n        /* \"#utility.yul\":3352:3361   */\n      dup3\n        /* \"#utility.yul\":3348:3366   */\n      add\n        /* \"#utility.yul\":3340:3366   */\n      swap1\n      pop\n        /* \"#utility.yul\":3412:3421   */\n      dup2\n        /* \"#utility.yul\":3406:3410   */\n      dup2\n        /* \"#utility.yul\":3402:3422   */\n      sub\n        /* \"#utility.yul\":3398:3399   */\n      0x00\n        /* \"#utility.yul\":3387:3396   */\n      dup4\n        /* \"#utility.yul\":3383:3400   */\n      add\n        /* \"#utility.yul\":3376:3423   */\n      mstore\n        /* \"#utility.yul\":3440:3571   */\n      tag_113\n        /* \"#utility.yul\":3566:3570   */\n      dup2\n        /* \"#utility.yul\":3440:3571   */\n      tag_69\n      jump\t// in\n    tag_113:\n        /* \"#utility.yul\":3432:3571   */\n      swap1\n      pop\n        /* \"#utility.yul\":3159:3578   */\n      swap2\n      swap1\n      pop\n      jump\t// out\n        /* \"#utility.yul\":3584:3731   */\n    tag_70:\n        /* \"#utility.yul\":3685:3696   */\n      0x00\n        /* \"#utility.yul\":3722:3725   */\n      dup2\n        /* \"#utility.yul\":3707:3725   */\n      swap1\n      pop\n        /* \"#utility.yul\":3584:3731   */\n      swap3\n      swap2\n      pop\n      pop\n      jump\t// out\n        /* \"#utility.yul\":3737:3851   */\n    tag_71:\n      pop\n      jump\t// out\n        /* \"#utility.yul\":3857:4255   */\n    tag_72:\n        /* \"#utility.yul\":4016:4019   */\n      0x00\n        /* \"#utility.yul\":4037:4120   */\n      tag_117\n        /* \"#utility.yul\":4118:4119   */\n      0x00\n        /* \"#utility.yul\":4113:4116   */\n      dup4\n        /* \"#utility.yul\":4037:4120   */\n      tag_70\n      jump\t// in\n    tag_117:\n        /* \"#utility.yul\":4030:4120   */\n      swap2\n      pop\n        /* \"#utility.yul\":4129:4222   */\n      tag_118\n        /* \"#utility.yul\":4218:4221   */\n      dup3\n        /* \"#utility.yul\":4129:4222   */\n      tag_71\n      jump\t// in\n    tag_118:\n        /* \"#utility.yul\":4247:4248   */\n      0x00\n        /* \"#utility.yul\":4242:4245   */\n      dup3\n        /* \"#utility.yul\":4238:4249   */\n      add\n        /* \"#utility.yul\":4231:4249   */\n      swap1\n      pop\n        /* \"#utility.yul\":3857:4255   */\n      swap2\n      swap1\n      pop\n      jump\t// out\n        /* \"#utility.yul\":4261:4640   */\n    tag_39:\n        /* \"#utility.yul\":4445:4448   */\n      0x00\n        /* \"#utility.yul\":4467:4614   */\n      tag_120\n        /* \"#utility.yul\":4610:4613   */\n      dup3\n        /* \"#utility.yul\":4467:4614   */\n      tag_72\n      jump\t// in\n    tag_120:\n        /* \"#utility.yul\":4460:4614   */\n      swap2\n      pop\n        /* \"#utility.yul\":4631:4634   */\n      dup2\n        /* \"#utility.yul\":4624:4634   */\n      swap1\n      pop\n        /* \"#utility.yul\":4261:4640   */\n      swap2\n      swap1\n      pop\n      jump\t// out\n        /* \"#utility.yul\":4646:4815   */\n    tag_73:\n        /* \"#utility.yul\":4786:4807   */\n      0x4661696c656420746f2073656e64204574686500000000000000000000000000\n        /* \"#utility.yul\":4782:4783   */\n      0x00\n        /* \"#utility.yul\":4774:4780   */\n      dup3\n        /* \"#utility.yul\":4770:4784   */\n      add\n        /* \"#utility.yul\":4763:4808   */\n      mstore\n        /* \"#utility.yul\":4646:4815   */\n      pop\n      jump\t// out\n        /* \"#utility.yul\":4821:5187   */\n    tag_74:\n        /* \"#utility.yul\":4963:4966   */\n      0x00\n        /* \"#utility.yul\":4984:5051   */\n      tag_123\n        /* \"#utility.yul\":5048:5050   */\n      0x13\n        /* \"#utility.yul\":5043:5046   */\n      dup4\n        /* \"#utility.yul\":4984:5051   */\n      tag_67\n      jump\t// in\n    tag_123:\n        /* \"#utility.yul\":4977:5051   */\n      swap2\n      pop\n        /* \"#utility.yul\":5060:5153   */\n      tag_124\n        /* \"#utility.yul\":5149:5152   */\n      dup3\n        /* \"#utility.yul\":5060:5153   */\n      tag_73\n      jump\t// in\n    tag_124:\n        /* \"#utility.yul\":5178:5180   */\n      0x20\n        /* \"#utility.yul\":5173:5176   */\n      dup3\n        /* \"#utility.yul\":5169:5181   */\n      add\n        /* \"#utility.yul\":5162:5181   */\n      swap1\n      pop\n        /* \"#utility.yul\":4821:5187   */\n      swap2\n      swap1\n      pop\n      jump\t// out\n        /* \"#utility.yul\":5193:5612   */\n    tag_45:\n        /* \"#utility.yul\":5359:5363   */\n      0x00\n        /* \"#utility.yul\":5397:5399   */\n      0x20\n        /* \"#utility.yul\":5386:5395   */\n      dup3\n        /* \"#utility.yul\":5382:5400   */\n      add\n        /* \"#utility.yul\":5374:5400   */\n      swap1\n      pop\n        /* \"#utility.yul\":5446:5455   */\n      dup2\n        /* \"#utility.yul\":5440:5444   */\n      dup2\n        /* \"#utility.yul\":5436:5456   */\n      sub\n        /* \"#utility.yul\":5432:5433   */\n      0x00\n        /* \"#utility.yul\":5421:5430   */\n      dup4\n        /* \"#utility.yul\":5417:5434   */\n      add\n        /* \"#utility.yul\":5410:5457   */\n      mstore\n        /* \"#utility.yul\":5474:5605   */\n      tag_126\n        /* \"#utility.yul\":5600:5604   */\n      dup2\n        /* \"#utility.yul\":5474:5605   */\n      tag_74\n      jump\t// in\n    tag_126:\n        /* \"#utility.yul\":5466:5605   */\n      swap1\n      pop\n        /* \"#utility.yul\":5193:5612   */\n      swap2\n      swap1\n      pop\n      jump\t// out\n        /* \"#utility.yul\":5618:5798   */\n    tag_75:\n        /* \"#utility.yul\":5666:5743   */\n      0x4e487b7100000000000000000000000000000000000000000000000000000000\n        /* \"#utility.yul\":5663:5664   */\n      0x00\n        /* \"#utility.yul\":5656:5744   */\n      mstore\n        /* \"#utility.yul\":5763:5767   */\n      0x11\n        /* \"#utility.yul\":5760:5761   */\n      0x04\n        /* \"#utility.yul\":5753:5768   */\n      mstore\n        /* \"#utility.yul\":5787:5791   */\n      0x24\n        /* \"#utility.yul\":5784:5785   */\n      0x00\n        /* \"#utility.yul\":5777:5792   */\n      revert\n        /* \"#utility.yul\":5804:5995   */\n    tag_55:\n        /* \"#utility.yul\":5844:5847   */\n      0x00\n        /* \"#utility.yul\":5863:5883   */\n      tag_129\n        /* \"#utility.yul\":5881:5882   */\n      dup3\n        /* \"#utility.yul\":5863:5883   */\n      tag_63\n      jump\t// in\n    tag_129:\n        /* \"#utility.yul\":5858:5883   */\n      swap2\n      pop\n        /* \"#utility.yul\":5897:5917   */\n      tag_130\n        /* \"#utility.yul\":5915:5916   */\n      dup4\n        /* \"#utility.yul\":5897:5917   */\n      tag_63\n      jump\t// in\n    tag_130:\n        /* \"#utility.yul\":5892:5917   */\n      swap3\n      pop\n        /* \"#utility.yul\":5940:5941   */\n      dup3\n        /* \"#utility.yul\":5937:5938   */\n      dup3\n        /* \"#utility.yul\":5933:5942   */\n      add\n        /* \"#utility.yul\":5926:5942   */\n      swap1\n      pop\n        /* \"#utility.yul\":5961:5964   */\n      dup1\n        /* \"#utility.yul\":5958:5959   */\n      dup3\n        /* \"#utility.yul\":5955:5965   */\n      gt\n        /* \"#utility.yul\":5952:5988   */\n      iszero\n      tag_131\n      jumpi\n        /* \"#utility.yul\":5968:5986   */\n      tag_132\n      tag_75\n      jump\t// in\n    tag_132:\n        /* \"#utility.yul\":5952:5988   */\n    tag_131:\n        /* \"#utility.yul\":5804:5995   */\n      swap3\n      swap2\n      pop\n      pop\n      jump\t// out\n\n    auxdata: 0xa2646970667358221220686e173178f0491d439092507754ddef543743d10b5e7a5cad5a9a1e4faf90b964736f6c634300081a0033\n}\n",
				"bytecode": {
					"linkReferences": {},
					"object": "6080604052348015600e575f80fd5b506106148061001c5f395ff3fe608060405260043610610054575f3560e01c8063636e082b1461005857806374be480614610074578063830c29ae1461009057806383a6deb5146100ac5780639e1a00aa146100d6578063d0e30db0146100f2575b5f80fd5b610072600480360381019061006d9190610399565b6100fc565b005b61008e60048036038101906100899190610399565b610143565b005b6100aa60048036038101906100a59190610399565b6101be565b005b3480156100b7575f80fd5b506100c061026d565b6040516100cd91906103dc565b60405180910390f35b6100f060048036038101906100eb919061041f565b610272565b005b6100fa610322565b005b8073ffffffffffffffffffffffffffffffffffffffff166108fc3490811502906040515f60405180830381858888f1935050505015801561013f573d5f803e3d5ffd5b5050565b5f8173ffffffffffffffffffffffffffffffffffffffff166108fc3490811502906040515f60405180830381858888f193505050509050806101ba576040517f08c379a00000000000000000000000000000000000000000000000000000000081526004016101b1906104b7565b60405180910390fd5b5050565b5f808273ffffffffffffffffffffffffffffffffffffffff16346040516101e490610502565b5f6040518083038185875af1925050503d805f811461021e576040519150601f19603f3d011682016040523d82523d5f602084013e610223565b606091505b509150915081610268576040517f08c379a000000000000000000000000000000000000000000000000000000000815260040161025f90610560565b60405180910390fd5b505050565b5f5481565b5f808373ffffffffffffffffffffffffffffffffffffffff168360405161029890610502565b5f6040518083038185875af1925050503d805f81146102d2576040519150601f19603f3d011682016040523d82523d5f602084013e6102d7565b606091505b50915091508161031c576040517f08c379a000000000000000000000000000000000000000000000000000000000815260040161031390610560565b60405180910390fd5b50505050565b345f8082825461033291906105ab565b92505081905550565b5f80fd5b5f73ffffffffffffffffffffffffffffffffffffffff82169050919050565b5f6103688261033f565b9050919050565b6103788161035e565b8114610382575f80fd5b50565b5f813590506103938161036f565b92915050565b5f602082840312156103ae576103ad61033b565b5b5f6103bb84828501610385565b91505092915050565b5f819050919050565b6103d6816103c4565b82525050565b5f6020820190506103ef5f8301846103cd565b92915050565b6103fe816103c4565b8114610408575f80fd5b50565b5f81359050610419816103f5565b92915050565b5f80604083850312156104355761043461033b565b5b5f61044285828601610385565b92505060206104538582860161040b565b9150509250929050565b5f82825260208201905092915050565b7f4661696c656420746f2073656e642045746865720000000000000000000000005f82015250565b5f6104a160148361045d565b91506104ac8261046d565b602082019050919050565b5f6020820190508181035f8301526104ce81610495565b9050919050565b5f81905092915050565b50565b5f6104ed5f836104d5565b91506104f8826104df565b5f82019050919050565b5f61050c826104e2565b9150819050919050565b7f4661696c656420746f2073656e642045746865000000000000000000000000005f82015250565b5f61054a60138361045d565b915061055582610516565b602082019050919050565b5f6020820190508181035f8301526105778161053e565b9050919050565b7f4e487b71000000000000000000000000000000000000000000000000000000005f52601160045260245ffd5b5f6105b5826103c4565b91506105c0836103c4565b92508282019050808211156105d8576105d761057e565b5b9291505056fea2646970667358221220686e173178f0491d439092507754ddef543743d10b5e7a5cad5a9a1e4faf90b964736f6c634300081a0033",
					"opcodes": "PUSH1 0x80 PUSH1 0x40 MSTORE CALLVALUE DUP1 ISZERO PUSH1 0xE JUMPI PUSH0 DUP1 REVERT JUMPDEST POP PUSH2 0x614 DUP1 PUSH2 0x1C PUSH0 CODECOPY PUSH0 RETURN INVALID PUSH1 0x80 PUSH1 0x40 MSTORE PUSH1 0x4 CALLDATASIZE LT PUSH2 0x54 JUMPI PUSH0 CALLDATALOAD PUSH1 0xE0 SHR DUP1 PUSH4 0x636E082B EQ PUSH2 0x58 JUMPI DUP1 PUSH4 0x74BE4806 EQ PUSH2 0x74 JUMPI DUP1 PUSH4 0x830C29AE EQ PUSH2 0x90 JUMPI DUP1 PUSH4 0x83A6DEB5 EQ PUSH2 0xAC JUMPI DUP1 PUSH4 0x9E1A00AA EQ PUSH2 0xD6 JUMPI DUP1 PUSH4 0xD0E30DB0 EQ PUSH2 0xF2 JUMPI JUMPDEST PUSH0 DUP1 REVERT JUMPDEST PUSH2 0x72 PUSH1 0x4 DUP1 CALLDATASIZE SUB DUP2 ADD SWAP1 PUSH2 0x6D SWAP2 SWAP1 PUSH2 0x399 JUMP JUMPDEST PUSH2 0xFC JUMP JUMPDEST STOP JUMPDEST PUSH2 0x8E PUSH1 0x4 DUP1 CALLDATASIZE SUB DUP2 ADD SWAP1 PUSH2 0x89 SWAP2 SWAP1 PUSH2 0x399 JUMP JUMPDEST PUSH2 0x143 JUMP JUMPDEST STOP JUMPDEST PUSH2 0xAA PUSH1 0x4 DUP1 CALLDATASIZE SUB DUP2 ADD SWAP1 PUSH2 0xA5 SWAP2 SWAP1 PUSH2 0x399 JUMP JUMPDEST PUSH2 0x1BE JUMP JUMPDEST STOP JUMPDEST CALLVALUE DUP1 ISZERO PUSH2 0xB7 JUMPI PUSH0 DUP1 REVERT JUMPDEST POP PUSH2 0xC0 PUSH2 0x26D JUMP JUMPDEST PUSH1 0x40 MLOAD PUSH2 0xCD SWAP2 SWAP1 PUSH2 0x3DC JUMP JUMPDEST PUSH1 0x40 MLOAD DUP1 SWAP2 SUB SWAP1 RETURN JUMPDEST PUSH2 0xF0 PUSH1 0x4 DUP1 CALLDATASIZE SUB DUP2 ADD SWAP1 PUSH2 0xEB SWAP2 SWAP1 PUSH2 0x41F JUMP JUMPDEST PUSH2 0x272 JUMP JUMPDEST STOP JUMPDEST PUSH2 0xFA PUSH2 0x322 JUMP JUMPDEST STOP JUMPDEST DUP1 PUSH20 0xFFFFFFFFFFFFFFFFFFFFFFFFFFFFFFFFFFFFFFFF AND PUSH2 0x8FC CALLVALUE SWAP1 DUP2 ISZERO MUL SWAP1 PUSH1 0x40 MLOAD PUSH0 PUSH1 0x40 MLOAD DUP1 DUP4 SUB DUP2 DUP6 DUP9 DUP9 CALL SWAP4 POP POP POP POP ISZERO DUP1 ISZERO PUSH2 0x13F JUMPI RETURNDATASIZE PUSH0 DUP1 RETURNDATACOPY RETURNDATASIZE PUSH0 REVERT JUMPDEST POP POP JUMP JUMPDEST PUSH0 DUP2 PUSH20 0xFFFFFFFFFFFFFFFFFFFFFFFFFFFFFFFFFFFFFFFF AND PUSH2 0x8FC CALLVALUE SWAP1 DUP2 ISZERO MUL SWAP1 PUSH1 0x40 MLOAD PUSH0 PUSH1 0x40 MLOAD DUP1 DUP4 SUB DUP2 DUP6 DUP9 DUP9 CALL SWAP4 POP POP POP POP SWAP1 POP DUP1 PUSH2 0x1BA JUMPI PUSH1 0x40 MLOAD PUSH32 0x8C379A000000000000000000000000000000000000000000000000000000000 DUP2 MSTORE PUSH1 0x4 ADD PUSH2 0x1B1 SWAP1 PUSH2 0x4B7 JUMP JUMPDEST PUSH1 0x40 MLOAD DUP1 SWAP2 SUB SWAP1 REVERT JUMPDEST POP POP JUMP JUMPDEST PUSH0 DUP1 DUP3 PUSH20 0xFFFFFFFFFFFFFFFFFFFFFFFFFFFFFFFFFFFFFFFF AND CALLVALUE PUSH1 0x40 MLOAD PUSH2 0x1E4 SWAP1 PUSH2 0x502 JUMP JUMPDEST PUSH0 PUSH1 0x40 MLOAD DUP1 DUP4 SUB DUP2 DUP6 DUP8 GAS CALL SWAP3 POP POP POP RETURNDATASIZE DUP1 PUSH0 DUP2 EQ PUSH2 0x21E JUMPI PUSH1 0x40 MLOAD SWAP2 POP PUSH1 0x1F NOT PUSH1 0x3F RETURNDATASIZE ADD AND DUP3 ADD PUSH1 0x40 MSTORE RETURNDATASIZE DUP3 MSTORE RETURNDATASIZE PUSH0 PUSH1 0x20 DUP5 ADD RETURNDATACOPY PUSH2 0x223 JUMP JUMPDEST PUSH1 0x60 SWAP2 POP JUMPDEST POP SWAP2 POP SWAP2 POP DUP2 PUSH2 0x268 JUMPI PUSH1 0x40 MLOAD PUSH32 0x8C379A000000000000000000000000000000000000000000000000000000000 DUP2 MSTORE PUSH1 0x4 ADD PUSH2 0x25F SWAP1 PUSH2 0x560 JUMP JUMPDEST PUSH1 0x40 MLOAD DUP1 SWAP2 SUB SWAP1 REVERT JUMPDEST POP POP POP JUMP JUMPDEST PUSH0 SLOAD DUP2 JUMP JUMPDEST PUSH0 DUP1 DUP4 PUSH20 0xFFFFFFFFFFFFFFFFFFFFFFFFFFFFFFFFFFFFFFFF AND DUP4 PUSH1 0x40 MLOAD PUSH2 0x298 SWAP1 PUSH2 0x502 JUMP JUMPDEST PUSH0 PUSH1 0x40 MLOAD DUP1 DUP4 SUB DUP2 DUP6 DUP8 GAS CALL SWAP3 POP POP POP RETURNDATASIZE DUP1 PUSH0 DUP2 EQ PUSH2 0x2D2 JUMPI PUSH1 0x40 MLOAD SWAP2 POP PUSH1 0x1F NOT PUSH1 0x3F RETURNDATASIZE ADD AND DUP3 ADD PUSH1 0x40 MSTORE RETURNDATASIZE DUP3 MSTORE RETURNDATASIZE PUSH0 PUSH1 0x20 DUP5 ADD RETURNDATACOPY PUSH2 0x2D7 JUMP JUMPDEST PUSH1 0x60 SWAP2 POP JUMPDEST POP SWAP2 POP SWAP2 POP DUP2 PUSH2 0x31C JUMPI PUSH1 0x40 MLOAD PUSH32 0x8C379A000000000000000000000000000000000000000000000000000000000 DUP2 MSTORE PUSH1 0x4 ADD PUSH2 0x313 SWAP1 PUSH2 0x560 JUMP JUMPDEST PUSH1 0x40 MLOAD DUP1 SWAP2 SUB SWAP1 REVERT JUMPDEST POP POP POP POP JUMP JUMPDEST CALLVALUE PUSH0 DUP1 DUP3 DUP3 SLOAD PUSH2 0x332 SWAP2 SWAP1 PUSH2 0x5AB JUMP JUMPDEST SWAP3 POP POP DUP2 SWAP1 SSTORE POP JUMP JUMPDEST PUSH0 DUP1 REVERT JUMPDEST PUSH0 PUSH20 0xFFFFFFFFFFFFFFFFFFFFFFFFFFFFFFFFFFFFFFFF DUP3 AND SWAP1 POP SWAP2 SWAP1 POP JUMP JUMPDEST PUSH0 PUSH2 0x368 DUP3 PUSH2 0x33F JUMP JUMPDEST SWAP1 POP SWAP2 SWAP1 POP JUMP JUMPDEST PUSH2 0x378 DUP2 PUSH2 0x35E JUMP JUMPDEST DUP2 EQ PUSH2 0x382 JUMPI PUSH0 DUP1 REVERT JUMPDEST POP JUMP JUMPDEST PUSH0 DUP2 CALLDATALOAD SWAP1 POP PUSH2 0x393 DUP2 PUSH2 0x36F JUMP JUMPDEST SWAP3 SWAP2 POP POP JUMP JUMPDEST PUSH0 PUSH1 0x20 DUP3 DUP5 SUB SLT ISZERO PUSH2 0x3AE JUMPI PUSH2 0x3AD PUSH2 0x33B JUMP JUMPDEST JUMPDEST PUSH0 PUSH2 0x3BB DUP5 DUP3 DUP6 ADD PUSH2 0x385 JUMP JUMPDEST SWAP2 POP POP SWAP3 SWAP2 POP POP JUMP JUMPDEST PUSH0 DUP2 SWAP1 POP SWAP2 SWAP1 POP JUMP JUMPDEST PUSH2 0x3D6 DUP2 PUSH2 0x3C4 JUMP JUMPDEST DUP3 MSTORE POP POP JUMP JUMPDEST PUSH0 PUSH1 0x20 DUP3 ADD SWAP1 POP PUSH2 0x3EF PUSH0 DUP4 ADD DUP5 PUSH2 0x3CD JUMP JUMPDEST SWAP3 SWAP2 POP POP JUMP JUMPDEST PUSH2 0x3FE DUP2 PUSH2 0x3C4 JUMP JUMPDEST DUP2 EQ PUSH2 0x408 JUMPI PUSH0 DUP1 REVERT JUMPDEST POP JUMP JUMPDEST PUSH0 DUP2 CALLDATALOAD SWAP1 POP PUSH2 0x419 DUP2 PUSH2 0x3F5 JUMP JUMPDEST SWAP3 SWAP2 POP POP JUMP JUMPDEST PUSH0 DUP1 PUSH1 0x40 DUP4 DUP6 SUB SLT ISZERO PUSH2 0x435 JUMPI PUSH2 0x434 PUSH2 0x33B JUMP JUMPDEST JUMPDEST PUSH0 PUSH2 0x442 DUP6 DUP3 DUP7 ADD PUSH2 0x385 JUMP JUMPDEST SWAP3 POP POP PUSH1 0x20 PUSH2 0x453 DUP6 DUP3 DUP7 ADD PUSH2 0x40B JUMP JUMPDEST SWAP2 POP POP SWAP3 POP SWAP3 SWAP1 POP JUMP JUMPDEST PUSH0 DUP3 DUP3 MSTORE PUSH1 0x20 DUP3 ADD SWAP1 POP SWAP3 SWAP2 POP POP JUMP JUMPDEST PUSH32 0x4661696C656420746F2073656E64204574686572000000000000000000000000 PUSH0 DUP3 ADD MSTORE POP JUMP JUMPDEST PUSH0 PUSH2 0x4A1 PUSH1 0x14 DUP4 PUSH2 0x45D JUMP JUMPDEST SWAP2 POP PUSH2 0x4AC DUP3 PUSH2 0x46D JUMP JUMPDEST PUSH1 0x20 DUP3 ADD SWAP1 POP SWAP2 SWAP1 POP JUMP JUMPDEST PUSH0 PUSH1 0x20 DUP3 ADD SWAP1 POP DUP2 DUP2 SUB PUSH0 DUP4 ADD MSTORE PUSH2 0x4CE DUP2 PUSH2 0x495 JUMP JUMPDEST SWAP1 POP SWAP2 SWAP1 POP JUMP JUMPDEST PUSH0 DUP2 SWAP1 POP SWAP3 SWAP2 POP POP JUMP JUMPDEST POP JUMP JUMPDEST PUSH0 PUSH2 0x4ED PUSH0 DUP4 PUSH2 0x4D5 JUMP JUMPDEST SWAP2 POP PUSH2 0x4F8 DUP3 PUSH2 0x4DF JUMP JUMPDEST PUSH0 DUP3 ADD SWAP1 POP SWAP2 SWAP1 POP JUMP JUMPDEST PUSH0 PUSH2 0x50C DUP3 PUSH2 0x4E2 JUMP JUMPDEST SWAP2 POP DUP2 SWAP1 POP SWAP2 SWAP1 POP JUMP JUMPDEST PUSH32 0x4661696C656420746F2073656E64204574686500000000000000000000000000 PUSH0 DUP3 ADD MSTORE POP JUMP JUMPDEST PUSH0 PUSH2 0x54A PUSH1 0x13 DUP4 PUSH2 0x45D JUMP JUMPDEST SWAP2 POP PUSH2 0x555 DUP3 PUSH2 0x516 JUMP JUMPDEST PUSH1 0x20 DUP3 ADD SWAP1 POP SWAP2 SWAP1 POP JUMP JUMPDEST PUSH0 PUSH1 0x20 DUP3 ADD SWAP1 POP DUP2 DUP2 SUB PUSH0 DUP4 ADD MSTORE PUSH2 0x577 DUP2 PUSH2 0x53E JUMP JUMPDEST SWAP1 POP SWAP2 SWAP1 POP JUMP JUMPDEST PUSH32 0x4E487B7100000000000000000000000000000000000000000000000000000000 PUSH0 MSTORE PUSH1 0x11 PUSH1 0x4 MSTORE PUSH1 0x24 PUSH0 REVERT JUMPDEST PUSH0 PUSH2 0x5B5 DUP3 PUSH2 0x3C4 JUMP JUMPDEST SWAP2 POP PUSH2 0x5C0 DUP4 PUSH2 0x3C4 JUMP JUMPDEST SWAP3 POP DUP3 DUP3 ADD SWAP1 POP DUP1 DUP3 GT ISZERO PUSH2 0x5D8 JUMPI PUSH2 0x5D7 PUSH2 0x57E JUMP JUMPDEST JUMPDEST SWAP3 SWAP2 POP POP JUMP INVALID LOG2 PUSH5 0x6970667358 0x22 SLT KECCAK256 PUSH9 0x6E173178F0491D4390 SWAP3 POP PUSH24 0x54DDEF543743D10B5E7A5CAD5A9A1E4FAF90B964736F6C63 NUMBER STOP ADDMOD BYTE STOP CALLER "
				},
				"gasEstimates": {
					"creation": {
						"codeDepositCost": "311200",
						"executionCost": "347",
						"totalCost": "311547"
					},
					"external": {
						"deposit()": "infinite",
						"received()": "2468",
						"sendTo(address,uint256)": "infinite",
						"sendViaCall(address)": "infinite",
						"sendViaSend(address)": "infinite",
						"sendViaTransfer(address)": "infinite"
					}
				},
				"methodIdentifiers": {
					"deposit()": "d0e30db0",
					"received()": "83a6deb5",
					"sendTo(address,uint256)": "9e1a00aa",
					"sendViaCall(address)": "830c29ae",
					"sendViaSend(address)": "74be4806",
					"sendViaTransfer(address)": "636e082b"
				}
			},
			"storageLayout": {
				"storage": [
					{
						"astId": 93,
						"contract": "contracts/ReceiveEther.sol:SendEther",
						"label": "received",
						"offset": 0,
						"slot": "0",
						"type": "t_uint256"
					}
				],
				"types": {
					"t_uint256": {
						"encoding": "inplace",
						"label": "uint256",
						"numberOfBytes": "32"
					}
				}
			},
			"userdoc": {
				"kind": "user",
				"methods": {},
				"version": 1
			}
		}
	}
}