{
	"data": {
		"bytecode": {
			"linkReferences": {},
			"object": "6080604052348015600e575f80fd5b506101bd8061001c5f395ff3fe608060405234801561000f575f80fd5b5060043610610034575f3560e01c80633659cfe614610038578063d7dfa0dd14610054575b5f80fd5b610052600480360381019061004d9190610134565b610072565b005b61005c61007e565b604051610069919061016e565b60405180910390f35b61007b816100ab565b50565b5f807f3dea4eb30911826e99f2ba996b358e3dc1707635fb8174e2f0849fbae9283eea9050805491505090565b5f7f3dea4eb30911826e99f2ba996b358e3dc1707635fb8174e2f0849fbae9283eea90508181555050565b5f80fd5b5f73ffffffffffffffffffffffffffffffffffffffff82169050919050565b5f610103826100da565b9050919050565b610113816100f9565b811461011d575f80fd5b50565b5f8135905061012e8161010a565b92915050565b5f60208284031215610149576101486100d6565b5b5f61015684828501610120565b91505092915050565b610168816100f9565b82525050565b5f6020820190506101815f83018461015f565b9291505056fea26469706673582212205c30f6ca029a63083635570c3a51cba727d99ee10a9c92aeef845bb1757e3b8e64736f6c634300081a0033",
			"opcodes": "PUSH1 0x80 PUSH1 0x40 MSTORE CALLVALUE DUP1 ISZERO PUSH1 0xE JUMPI PUSH0 DUP1 REVERT JUMPDEST POP PUSH2 0x1BD DUP1 PUSH2 0x1C PUSH0 CODECOPY PUSH0 RETURN INVALID PUSH1 0x80 PUSH1 0x40 MSTORE CALLVALUE DUP1 ISZERO PUSH2 0xF JUMPI PUSH0 DUP1 REVERT JUMPDEST POP PUSH1 0x4 CALLDATASIZE LT PUSH2 0x34 JUMPI PUSH0 CALLDATALOAD PUSH1 0xE0 SHR DUP1 PUSH4 0x3659CFE6 EQ PUSH2 0x38 JUMPI DUP1 PUSH4 0xD7DFA0DD EQ PUSH2 0x54 JUMPI JUMPDEST PUSH0 DUP1 REVERT JUMPDEST PUSH2 0x52 PUSH1 0x4 DUP1 CALLDATASIZE SUB DUP2 ADD SWAP1 PUSH2 0x4D SWAP2 SWAP1 PUSH2 0x134 JUMP JUMPDEST PUSH2 0x72 JUMP JUMPDEST STOP JUMPDEST PUSH2 0x5C PUSH2 0x7E JUMP JUMPDEST PUSH1 0x40 MLOAD PUSH2 0x69 SWAP2 SWAP1 PUSH2 0x16E JUMP JUMPDEST PUSH1 0x40 MLOAD DUP1 SWAP2 SUB SWAP1 RETURN JUMPDEST PUSH2 0x7B DUP2 PUSH2 0xAB JUMP JUMPDEST POP JUMP JUMPDEST PUSH0 DUP1 PUSH32 0x3DEA4EB30911826E99F2BA996B358E3DC1707635FB8174E2F0849FBAE9283EEA SWAP1 POP DUP1 SLOAD SWAP2 POP POP SWAP1 JUMP JUMPDEST PUSH0 PUSH32 0x3DEA4EB30911826E99F2BA996B358E3DC1707635FB8174E2F0849FBAE9283EEA SWAP1 POP DUP2 DUP2 SSTORE POP POP JUMP JUMPDEST PUSH0 DUP1 REVERT JUMPDEST PUSH0 PUSH20 0xFFFFFFFFFFFFFFFFFFFFFFFFFFFFFFFFFFFFFFFF DUP3 AND SWAP1 POP SWAP2 SWAP1 POP JUMP JUMPDEST PUSH0 PUSH2 0x103 DUP3 PUSH2 0xDA JUMP JUMPDEST SWAP1 POP SWAP2 SWAP1 POP JUMP JUMPDEST PUSH2 0x113 DUP2 PUSH2 0xF9 JUMP JUMPDEST DUP2 EQ PUSH2 0x11D JUMPI PUSH0 DUP1 REVERT JUMPDEST POP JUMP JUMPDEST PUSH0 DUP2 CALLDATALOAD SWAP1 POP PUSH2 0x12E DUP2 PUSH2 0x10A JUMP JUMPDEST SWAP3 SWAP2 POP POP JUMP JUMPDEST PUSH0 PUSH1 0x20 DUP3 DUP5 SUB SLT ISZERO PUSH2 0x149 JUMPI PUSH2 0x148 PUSH2 0xD6 JUMP JUMPDEST JUMPDEST PUSH0 PUSH2 0x156 DUP5 DUP3 DUP6 ADD PUSH2 0x120 JUMP JUMPDEST SWAP2 POP POP SWAP3 SWAP2 POP POP JUMP JUMPDEST PUSH2 0x168 DUP2 PUSH2 0xF9 JUMP JUMPDEST DUP3 MSTORE POP POP JUMP JUMPDEST PUSH0 PUSH1 0x20 DUP3 ADD SWAP1 POP PUSH2 0x181 PUSH0 DUP4 ADD DUP5 PUSH2 0x15F JUMP JUMPDEST SWAP3 SWAP2 POP POP JUMP INVALID LOG2 PUSH5 0x6970667358 0x22 SLT KECCAK256 TLOAD ADDRESS 0xF6 0xCA MUL SWAP11 PUSH4 0x8363557 0xC GASPRICE MLOAD 0xCB 0xA7 0x27 0xD9 SWAP15 0xE1 EXP SWAP13 SWAP3 0xAE 0xEF DUP5 JUMPDEST 0xB1 PUSH22 0x7E3B8E64736F6C634300081A00330000000000000000 "
		},
		"gasEstimates": {
			"creation": {
				"codeDepositCost": "89000",
				"executionCost": "133",
				"totalCost": "89133"
			},
			"external": {
				"logic()": "2493",
				"upgradeTo(address)": "22574"
			},
			"internal": {
				"_delegate(address)": "infinite",
				"setLogic(address)": "22129"
			}
		},
		"methodIdentifiers": {
			"logic()": "d7dfa0dd",
			"upgradeTo(address)": "3659cfe6"
		}
	},
	"abi": [
		{
			"inputs": [],
			"name": "logic",
			"outputs": [
				{
					"internalType": "address",
					"name": "impl",
					"type": "address"
				}
			],
			"stateMutability": "view",
			"type": "function"
		},
		{
			"inputs": [
				{
					"internalType": "address",
					"name": "newLogic",
					"type": "address"
				}
			],
			"name": "upgradeTo",
			"outputs": [],
			"stateMutability": "nonpayable",
			"type": "function"
		}
	]
}