{
	"data": {
		"bytecode": {
			"linkReferences": {},
			"object": "608060405260025f556001805f6101000a81548160ff02191690831515021790555060018060016101000a81548173ffffffffffffffffffffffffffffffffffffffff021916908373ffffffffffffffffffffffffffffffffffffffff160217905550348015606c575f80fd5b506102bb8061007a5f395ff3fe608060405234801561000f575f80fd5b506004361061004a575f3560e01c806310e112a21461004e5780634df7e3d014610058578063767800de14610076578063e5aa3d5814610094575b5f80fd5b6100566100b2565b005b61006061012e565b60405161006d9190610183565b60405180910390f35b61007e610140565b60405161008b91906101db565b60405180910390f35b61009c610164565b6040516100a9919061020c565b60405180910390f35b5f600c90505f80825f808282546100c99190610252565b925050819055508160015f6101000a81548160ff021916908315150217905550806001806101000a81548173ffffffffffffffffffffffffffffffffffffffff021916908373ffffffffffffffffffffffffffffffffffffffff160217905550505050565b60015f9054906101000a900460ff1681565b60018054906101000a900473ffffffffffffffffffffffffffffffffffffffff1681565b5f5481565b5f8115159050919050565b61017d81610169565b82525050565b5f6020820190506101965f830184610174565b92915050565b5f73ffffffffffffffffffffffffffffffffffffffff82169050919050565b5f6101c58261019c565b9050919050565b6101d5816101bb565b82525050565b5f6020820190506101ee5f8301846101cc565b92915050565b5f819050919050565b610206816101f4565b82525050565b5f60208201905061021f5f8301846101fd565b92915050565b7f4e487b71000000000000000000000000000000000000000000000000000000005f52601160045260245ffd5b5f61025c826101f4565b9150610267836101f4565b925082820190508082111561027f5761027e610225565b5b9291505056fea26469706673582212209073ca3535af9017a19811bc6ada6dfeff5c0fa1b40a09e790d2490c126f271d64736f6c634300081a0033",
			"opcodes": "PUSH1 0x80 PUSH1 0x40 MSTORE PUSH1 0x2 PUSH0 SSTORE PUSH1 0x1 DUP1 PUSH0 PUSH2 0x100 EXP DUP2 SLOAD DUP2 PUSH1 0xFF MUL NOT AND SWAP1 DUP4 ISZERO ISZERO MUL OR SWAP1 SSTORE POP PUSH1 0x1 DUP1 PUSH1 0x1 PUSH2 0x100 EXP DUP2 SLOAD DUP2 PUSH20 0xFFFFFFFFFFFFFFFFFFFFFFFFFFFFFFFFFFFFFFFF MUL NOT AND SWAP1 DUP4 PUSH20 0xFFFFFFFFFFFFFFFFFFFFFFFFFFFFFFFFFFFFFFFF AND MUL OR SWAP1 SSTORE POP CALLVALUE DUP1 ISZERO PUSH1 0x6C JUMPI PUSH0 DUP1 REVERT JUMPDEST POP PUSH2 0x2BB DUP1 PUSH2 0x7A PUSH0 CODECOPY PUSH0 RETURN INVALID PUSH1 0x80 PUSH1 0x40 MSTORE CALLVALUE DUP1 ISZERO PUSH2 0xF JUMPI PUSH0 DUP1 REVERT JUMPDEST POP PUSH1 0x4 CALLDATASIZE LT PUSH2 0x4A JUMPI PUSH0 CALLDATALOAD PUSH1 0xE0 SHR DUP1 PUSH4 0x10E112A2 EQ PUSH2 0x4E JUMPI DUP1 PUSH4 0x4DF7E3D0 EQ PUSH2 0x58 JUMPI DUP1 PUSH4 0x767800DE EQ PUSH2 0x76 JUMPI DUP1 PUSH4 0xE5AA3D58 EQ PUSH2 0x94 JUMPI JUMPDEST PUSH0 DUP1 REVERT JUMPDEST PUSH2 0x56 PUSH2 0xB2 JUMP JUMPDEST STOP JUMPDEST PUSH2 0x60 PUSH2 0x12E JUMP JUMPDEST PUSH1 0x40 MLOAD PUSH2 0x6D SWAP2 SWAP1 PUSH2 0x183 JUMP JUMPDEST PUSH1 0x40 MLOAD DUP1 SWAP2 SUB SWAP1 RETURN JUMPDEST PUSH2 0x7E PUSH2 0x140 JUMP JUMPDEST PUSH1 0x40 MLOAD PUSH2 0x8B SWAP2 SWAP1 PUSH2 0x1DB JUMP JUMPDEST PUSH1 0x40 MLOAD DUP1 SWAP2 SUB SWAP1 RETURN JUMPDEST PUSH2 0x9C PUSH2 0x164 JUMP JUMPDEST PUSH1 0x40 MLOAD PUSH2 0xA9 SWAP2 SWAP1 PUSH2 0x20C JUMP JUMPDEST PUSH1 0x40 MLOAD DUP1 SWAP2 SUB SWAP1 RETURN JUMPDEST PUSH0 PUSH1 0xC SWAP1 POP PUSH0 DUP1 DUP3 PUSH0 DUP1 DUP3 DUP3 SLOAD PUSH2 0xC9 SWAP2 SWAP1 PUSH2 0x252 JUMP JUMPDEST SWAP3 POP POP DUP2 SWAP1 SSTORE POP DUP2 PUSH1 0x1 PUSH0 PUSH2 0x100 EXP DUP2 SLOAD DUP2 PUSH1 0xFF MUL NOT AND SWAP1 DUP4 ISZERO ISZERO MUL OR SWAP1 SSTORE POP DUP1 PUSH1 0x1 DUP1 PUSH2 0x100 EXP DUP2 SLOAD DUP2 PUSH20 0xFFFFFFFFFFFFFFFFFFFFFFFFFFFFFFFFFFFFFFFF MUL NOT AND SWAP1 DUP4 PUSH20 0xFFFFFFFFFFFFFFFFFFFFFFFFFFFFFFFFFFFFFFFF AND MUL OR SWAP1 SSTORE POP POP POP POP JUMP JUMPDEST PUSH1 0x1 PUSH0 SWAP1 SLOAD SWAP1 PUSH2 0x100 EXP SWAP1 DIV PUSH1 0xFF AND DUP2 JUMP JUMPDEST PUSH1 0x1 DUP1 SLOAD SWAP1 PUSH2 0x100 EXP SWAP1 DIV PUSH20 0xFFFFFFFFFFFFFFFFFFFFFFFFFFFFFFFFFFFFFFFF AND DUP2 JUMP JUMPDEST PUSH0 SLOAD DUP2 JUMP JUMPDEST PUSH0 DUP2 ISZERO ISZERO SWAP1 POP SWAP2 SWAP1 POP JUMP JUMPDEST PUSH2 0x17D DUP2 PUSH2 0x169 JUMP JUMPDEST DUP3 MSTORE POP POP JUMP JUMPDEST PUSH0 PUSH1 0x20 DUP3 ADD SWAP1 POP PUSH2 0x196 PUSH0 DUP4 ADD DUP5 PUSH2 0x174 JUMP JUMPDEST SWAP3 SWAP2 POP POP JUMP JUMPDEST PUSH0 PUSH20 0xFFFFFFFFFFFFFFFFFFFFFFFFFFFFFFFFFFFFFFFF DUP3 AND SWAP1 POP SWAP2 SWAP1 POP JUMP JUMPDEST PUSH0 PUSH2 0x1C5 DUP3 PUSH2 0x19C JUMP JUMPDEST SWAP1 POP SWAP2 SWAP1 POP JUMP JUMPDEST PUSH2 0x1D5 DUP2 PUSH2 0x1BB JUMP JUMPDEST DUP3 MSTORE POP POP JUMP JUMPDEST PUSH0 PUSH1 0x20 DUP3 ADD SWAP1 POP PUSH2 0x1EE PUSH0 DUP4 ADD DUP5 PUSH2 0x1CC JUMP JUMPDEST SWAP3 SWAP2 POP POP JUMP JUMPDEST PUSH0 DUP2 SWAP1 POP SWAP2 SWAP1 POP JUMP JUMPDEST PUSH2 0x206 DUP2 PUSH2 0x1F4 JUMP JUMPDEST DUP3 MSTORE POP POP JUMP JUMPDEST PUSH0 PUSH1 0x20 DUP3 ADD SWAP1 POP PUSH2 0x21F PUSH0 DUP4 ADD DUP5 PUSH2 0x1FD JUMP JUMPDEST SWAP3 SWAP2 POP POP JUMP JUMPDEST PUSH32 0x4E487B7100000000000000000000000000000000000000000000000000000000 PUSH0 MSTORE PUSH1 0x11 PUSH1 0x4 MSTORE PUSH1 0x24 PUSH0 REVERT JUMPDEST PUSH0 PUSH2 0x25C DUP3 PUSH2 0x1F4 JUMP JUMPDEST SWAP2 POP PUSH2 0x267 DUP4 PUSH2 0x1F4 JUMP JUMPDEST SWAP3 POP DUP3 DUP3 ADD SWAP1 POP DUP1 DUP3 GT ISZERO PUSH2 0x27F JUMPI PUSH2 0x27E PUSH2 0x225 JUMP JUMPDEST JUMPDEST SWAP3 SWAP2 POP POP JUMP INVALID LOG2 PUSH5 0x6970667358 0x22 SLT KECCAK256 SWAP1 PUSH20 0xCA3535AF9017A19811BC6ADA6DFEFF5C0FA1B40A MULMOD 0xE7 SWAP1 0xD2 BLOBHASH 0xC SLT PUSH16 0x271D64736F6C634300081A0033000000 "
		},
		"gasEstimates": {
			"creation": {
				"codeDepositCost": "139800",
				"executionCost": "70869",
				"totalCost": "210669"
			},
			"external": {
				"addr()": "2578",
				"b()": "2466",
				"i()": "2468",
				"updateVariables()": "infinite"
			}
		},
		"methodIdentifiers": {
			"addr()": "767800de",
			"b()": "4df7e3d0",
			"i()": "e5aa3d58",
			"updateVariables()": "10e112a2"
		}
	},
	"abi": [
		{
			"inputs": [],
			"name": "addr",
			"outputs": [
				{
					"internalType": "address",
					"name": "",
					"type": "address"
				}
			],
			"stateMutability": "view",
			"type": "function"
		},
		{
			"inputs": [],
			"name": "b",
			"outputs": [
				{
					"internalType": "bool",
					"name": "",
					"type": "bool"
				}
			],
			"stateMutability": "view",
			"type": "function"
		},
		{
			"inputs": [],
			"name": "i",
			"outputs": [
				{
					"internalType": "uint256",
					"name": "",
					"type": "uint256"
				}
			],
			"stateMutability": "view",
			"type": "function"
		},
		{
			"inputs": [],
			"name": "updateVariables",
			"outputs": [],
			"stateMutability": "nonpayable",
			"type": "function"
		}
	]
}